:040000002AEF00F0F3
:060008005A826FEF0FF0B9
:100018005A80D8CF03F0E8CF04F0E0CF05F00E0106
:1000280033AB19EF00F01BEF00F022EF00F0010EE8
:100038003F6E000ED46E000ED36E339B05C0E0FFFA
:1000480004C0E8FF03C0D8FF5A90100008EF0FF073
:10005800440E116E000E126EEFEC0EF0440E2D6E73
:10006800000E2E6EDFEC09F04A503D5C4B503E58B6
:10007800D8B041EF00F043EF00F0A6EF03F0580EC0
:100088000E6E000E0F6EA00E106E000E116E82EC3A
:100098000FF0065099EC0EF037C019F038C01AF07E
:1000A80039C01BF03AC01CF034EC0CF0290E0001EA
:1000B800DB6F960EDA6F7F0EE82EFED7DA2FFCD7AD
:1000C800DB2FFAD7440E116E000E126EEFEC0EF015
:1000D800440E2D6E000E2E6EDFEC09F0290E000185
:1000E800DB6F960EDA6F7F0EE82EFED7DA2FFCD77D
:1000F800DB2FFAD7B80E066E1E0E076E450E086E79
:100108003F0E096E4CC00AF04DC00BF04EC00CF00B
:100118004FC00DF074EC0AF0D8B095EF00F097EFEF
:1001280000F0E6EF00F050C006F051C007F052C0F2
:1001380008F053C009F0EC0E0A6E510E0B6E380E23
:100148000C6E3E0E0D6E74EC0AF0D8B0AEEF00F0F7
:10015800B0EF00F0E6EF00F054C006F055C007F02D
:1001680056C008F057C009F0290E0A6E5C0E0B6ED7
:100178000F0E0C6E3E0E0D6E74EC0AF0D8B0C7EF81
:1001880000F0C9EF00F0E6EF00F0590E066E000E21
:10019800076E00016051DA6FDB6BDAC008F0DBC074
:1001A80009F0020EB7EC0EF037C02FF038C030F06F
:1001B80039C031F03AC032F0000E346E010E336EA1
:1001C8007EEC05F050C006F051C007F052C008F0B0
:1001D80053C009F0000E0A6E000E0B6E800E0C6EF6
:1001E8003E0E0D6E74EC0AF0D8B0FDEF00F0FFEF94
:1001F80000F035EF01F0CD0E066ECC0E076ECC0E7A
:10020800086E3E0E096E54C00AF055C00BF056C079
:100218000CF057C00DF074EC0AF0D8B016EF01F0EE
:1002280018EF01F035EF01F0590E066E000E076E5B
:1002380000016051DA6FDB6BDAC008F0DBC009F04F
:10024800010EB7EC0EF037C02FF038C030F039C0CF
:1002580031F03AC032F0000E346E020E336E7EEC8E
:1002680005F04CC006F04DC007F04EC008F04FC076
:1002780009F05C0E0A6E8F0E0B6EC20E0C6E3E0EEF
:100288000D6E74EC0AF0D8B04CEF01F04EEF01F0AF
:100298009DEF01F00A0E066ED70E076EA30E086ECC
:1002A8003E0E096E50C00AF051C00BF052C00CF05F
:1002B80053C00DF074EC0AF0D8B065EF01F067EFA9
:1002C80001F09DEF01F07B0E066E140E076EAE0E68
:1002D800086E3E0E096E54C00AF055C00BF056C0A9
:1002E8000CF057C00DF074EC0AF0D8B07EEF01F0B6
:1002F80080EF01F09DEF01F0590E066E000E076EBB
:1003080000016051DA6FDB6BDAC008F0DBC009F07E
:10031800030EB7EC0EF037C02FF038C030F039C0FC
:1003280031F03AC032F0000E346E030E336E7EECBC
:1003380005F0B80E066E1E0E076E050E086E3F0E0F
:10034800096E4CC00AF04DC00BF04EC00CF04FC007
:100358000DF074EC0AF0D8B0B4EF01F0B6EF01F08C
:10036800ECEF01F00A0E066ED70E076EA30E086EAC
:100378003E0E096E54C00AF055C00BF056C00CF082
:1003880057C00DF074EC0AF0D8B0CDEF01F0CFEF04
:1003980001F0ECEF01F0590E066E000E076E000139
:1003A8006051DA6FDB6BDAC008F0DBC009F0090EC8
:1003B800B7EC0EF037C02FF038C030F039C031F04C
:1003C8003AC032F0000E346E040E336E7EEC05F047
:1003D800000E066E000E076E000E086E3F0E096EC8
:1003E8004CC00AF04DC00BF04EC00CF04FC00DF0E1
:1003F80074EC0AF0D8B003EF02F005EF02F054EF06
:1004080002F08F0E066EC20E076E750E086E3E0E57
:10041800096E50C00AF051C00BF052C00CF053C026
:100428000DF074EC0AF0D8B01CEF02F01EEF02F0E9
:1004380054EF02F054C006F055C007F056C008F05B
:1004480057C009F0C30E0A6EF50E0B6EA80E0C6E9F
:100458003E0E0D6E74EC0AF0D8B035EF02F037EFAF
:1004680002F054EF02F0590E066E000E076E0001FE
:100478006051DA6FDB6BDAC008F0DBC009F00A0EF6
:10048800B7EC0EF037C02FF038C030F039C031F07B
:100498003AC032F0000E346E050E336E7EEC05F075
:1004A8009A0E066E990E076E190E086E3F0E096EAB
:1004B8004CC00AF04DC00BF04EC00CF04FC00DF010
:1004C80074EC0AF0D8B06BEF02F06DEF02F0BCEFFD
:1004D80002F050C006F051C007F052C008F053C0F7
:1004E80009F0AE0E0A6E470E0B6E610E0C6E3E0ED4
:1004F8000D6E74EC0AF0D8B084EF02F086EF02F0CB
:10050800BCEF02F01F0E066E850E076E6B0E086EAE
:100518003E0E096E54C00AF055C00BF056C00CF0E0
:1005280057C00DF074EC0AF0D8B09DEF02F09FEFC1
:1005380002F0BCEF02F0590E066E000E076E0001C5
:100548006051DA6FDB6BDAC008F0DBC009F0070E28
:10055800B7EC0EF037C02FF038C030F039C031F0AA
:100568003AC032F0000E346E060E336E7EEC05F0A3
:100578004CC006F04DC007F04EC008F04FC009F05F
:10058800CD0E0A6ECC0E0B6ECC0E0C6E3E0E0D6EA2
:1005980074EC0AF0D8B0D3EF02F0D5EF02F024EFF4
:1005A80003F09A0E066E990E076E990E086E3E0EAF
:1005B800096E50C00AF051C00BF052C00CF053C085
:1005C8000DF074EC0AF0D8B0ECEF02F0EEEF02F0A8
:1005D80024EF03F0CD0E066ECC0E076ECC0E086E1F
:1005E8003E0E096E54C00AF055C00BF056C00CF010
:1005F80057C00DF074EC0AF0D8B005EF03F007EF20
:1006080003F024EF03F0590E066E000E076E00018A
:100618006051DA6FDB6BDAC008F0DBC009F0060E58
:10062800B7EC0EF037C02FF038C030F039C031F0D9
:100638003AC032F0000E346E070E336E7EEC05F0D1
:100648004CC006F04DC007F04EC008F04FC009F08E
:10065800000E0A6E000E0B6E000E0C6E3F0E0D6E35
:1006680074EC0AF0D8B03BEF03F03DEF03F0A2EFD3
:1006780003F0810E4A5C3E0E4B58D8A046EF03F0BB
:1006880048EF03F0A2EF03F037C02FF038C030F086
:1006980039C031F03AC032F0000E346E030E336EBA
:1006A8007EEC05F037C01FF038C020F039C021F0CB
:1006B8003AC022F0D5EC0BF0000E0001DD6F000E01
:1006C800DC6F73EF03F0150E0001DA6FC60EE82E2B
:1006D800FED7DA2FFCD700F00001DC4BDD2B9F0E94
:1006E8005824D96EDA6A000EDA22DF50DA6FDB6B33
:1006F800DA51DC5DDB51DD59D8A085EF03F087EFD7
:1007080003F067EF03F037C02FF038C030F039C07E
:1007180031F03AC032F05F0E5924D96EDA6A000E11
:10072800DA22DF50DA6FDA51336E346A7EEC05F084
:100738005804586E5904596E56EF03F0E5EC0FF063
:10074800B0EF03F037C01FF038C020F039C021F0F7
:100758003AC022F0D5EC0BF012001750800B246E33
:10076800175017242B6E16AEBCEF03F0BEEF03F044
:10077800BFEF03F02B802B50D8B4C5EF03F0C7EFC1
:1007880003F0DCEF03F02B28D8A4CDEF03F0CFEF74
:1007980003F0D7EF03F0000E146E000E156E000E76
:1007A800166E000E176E168E000E176EE4EF03F02D
:1007B800000E146E000E156E000E166E000E176EEB
:1007C8001B50800B241A1B501B242C6E1AAEEFEF03
:1007D80003F0F1EF03F0F2EF03F02C802C50D8B4C3
:1007E800F8EF03F0FAEF03F00FEF04F02C28D8A489
:1007F80000EF04F002EF04F00AEF04F0000E186EA8
:10080800000E196E000E1A6E000E1B6E1A8E000E68
:100818001B6E17EF04F0000E186E000E196E000E16
:100828001A6E000E1B6E185019101A101B10D8A43F
:1008380020EF04F022EF04F03AEF04F0000E146EFB
:10084800000E156E000E166E000E176E800E161234
:100858007F0E17122450171214C014F015C015F08B
:1008680016C016F017C017F07DEF05F02B50D8A46E
:1008780040EF04F042EF04F04CEF04F0000E146E69
:10088800000E156E000E166E000E176E7DEF05F049
:100898002C502BC01CF01D6A1C5E000E1D5A7F0ECA
:1008A8001C24256E000E1D20266E14C020F015C0D5
:1008B80021F016C022F017C023F0000E146E000EAF
:1008C800156E000E166E000E176E000E276E000EC7
:1008D800286E000E296E000E2A6E000E2C6EADEFEB
:1008E80004F02C50D8B47BEF04F07DEF04F094EFC3
:1008F80004F0D8902036213622362336D890143684
:100908001536163617362AAE8CEF04F08EEF04F043
:100918008FEF04F01480D8902736283629362A36E7
:100928001850205C195021581A5022581B5023582F
:10093800D8A0A1EF04F0A3EF04F0ACEF04F02A8CE8
:100948001850205E1950215A1A50225A1B50235A07
:100958002C2A190E2C64B3EF04F0B5EF04F075EFF0
:1009680004F02050211022102310D8B4BEEF04F058
:10097800C0EF04F0D8EF04F02780D8EF04F0D89047
:1009880014361536163617362AAECDEF04F0CFEFEB
:1009980004F0D0EF04F01480D89027362836293692
:1009A8002A362506D8A0260616AEDDEF04F0DFEFBE
:1009B80004F0C3EF04F0000E2C6E2AAEE6EF04F04C
:1009C800E8EF04F00CEF05F0FF0E27141C6EFF0E85
:1009D80028141D6EFF0E29141E6E7F0E2A141F6E1A
:1009E8001C501D101E101F10D8B4FDEF04F0FFEFAF
:1009F80004F003EF05F0010E2C6E0CEF05F014A0C7
:100A080008EF05F00AEF05F00CEF05F0FFEF04F032
:100A18002C50D8B412EF05F014EF05F038EF05F0BC
:100A2800010E1426000E15221622172217A01FEFFA
:100A380005F021EF05F038EF05F014C01CF015C0E3
:100A48001DF016C01EF017C01FF01F341F321E32D3
:100A58001D321C321CC014F01DC015F01EC016F04B
:100A68001FC017F0254A262A26BE43EF05F0265058
:100A780008E12528D8A043EF05F045EF05F050EF31
:100A880005F0000E266E2568000E146E000E156E19
:100A9800000E166E000E176E26BE5DEF05F026508E
:100AA80006E12504D8B05BEF05F05DEF05F06BEFCC
:100AB80005F0000E266E000E256E000E146E000E58
:100AC800156E000E166E000E176E000E246E25C0F1
:100AD8002BF02BA072EF05F074EF05F077EF05F01F
:100AE800168E78EF05F0169ED8902B30176E2EEFE5
:100AF80004F012002FC01FF030C020F031C021F0E8
:100B080032C022F0F6EC0AF0290E366E960E356EDB
:100B18007F0EE82EFED7352EFCD7362EFAD700F0FA
:100B28002FC019F030C01AF031C01BF032C01CF0D1
:100B380034EC0CF0290E366E960E356E7F0EE82ECC
:100B4800FED7352EFCD7362EFAD700F033043410F2
:100B5800D8A4B1EF05F0B3EF05F0CBEF05F02FC047
:100B68001FF030C020F031C021F032C022F0000E5A
:100B7800246E020E236E48EC09F02FC019F030C025
:100B88001AF031C01BF032C01CF034EC0CF0020E2D
:100B980033183410D8A4D3EF05F0D5EF05F0EDEFF6
:100BA80005F02FC01FF030C020F031C021F032C056
:100BB80022F0000E246E020E236EA8EC08F02FC05F
:100BC80019F030C01AF031C01BF032C01CF034EC00
:100BD8000CF0030E33183410D8A4F5EF05F0F7EF36
:100BE80005F00FEF06F02FC01FF030C020F031C025
:100BF80021F032C022F0000E246E040E236E48EC61
:100C080009F02FC019F030C01AF031C01BF032C003
:100C18001CF034EC0CF0040E33183410D8A417EF81
:100C280006F019EF06F05DEF06F02FC01FF030C098
:100C380020F031C021F032C022F076EC0BF0210E0A
:100C4800366E780E356E980EE82EFED7352EFCD708
:100C5800362EFAD700D02FC019F030C01AF031C0A4
:100C68001BF032C01CF034EC0CF0290E366E960ED8
:100C7800356E7F0EE82EFED7352EFCD7362EFAD7E6
:100C880000F02FC01FF030C020F031C021F032C07A
:100C980022F0000E246E020E236E48EC09F02FC0DD
:100CA80019F030C01AF031C01BF032C01CF034EC1F
:100CB8000CF0050E33183410D8A465EF06F067EF72
:100CC80006F0ABEF06F02FC01FF030C020F031C0A7
:100CD80021F032C022F076EC0BF0210E366E780E41
:100CE800356E980EE82EFED7352EFCD7362EFAD75D
:100CF80000D02FC019F030C01AF031C01BF032C03C
:100D08001CF034EC0CF0290E366E960E356E7F0E04
:100D1800E82EFED7352EFCD7362EFAD700F02FC096
:100D28001FF030C020F031C021F032C022F0000E98
:100D3800246E020E236EA8EC08F02FC019F030C004
:100D48001AF031C01BF032C01CF034EC0CF0060E67
:100D580033183410D8A4B3EF06F0B5EF06F0CDEF92
:100D680006F02FC01FF030C020F031C021F032C093
:100D780022F0000E246E030E236E48EC09F02FC0FB
:100D880019F030C01AF031C01BF032C01CF034EC3E
:100D98000CF0070E33183410D8A4D5EF06F0D7EFAF
:100DA80006F0EFEF06F02FC01FF030C020F031C082
:100DB80021F032C022F0000E246E030E236EA8EC40
:100DC80008F02FC019F030C01AF031C01BF032C043
:100DD8001CF034EC0CF0090E33183410D8A4F7EFDB
:100DE80006F0F9EF06F003EF07F02FC029F030C046
:100DF8002AF031C02BF032C02CF00EEC0DF00A0EA8
:100E080033183410D8A40BEF07F00DEF07F017EFE5
:100E180007F02FC029F030C02AF031C02BF032C0C3
:100E28002CF047EC0DF012000E6E0E50D8B41FEFE8
:100E380007F021EF07F043EF07F009BE28EF07F0AE
:100E480026EF07F043EF07F006C00AF007C00BF0E3
:100E580008C00CF009C00DF00A1E0B1E0C1E0D1E5A
:100E68000A2A000E0B220C220D220AC010F00BC019
:100E780011F00CC012F00DC013F04BEF07F006C0D4
:100E880010F007C011F008C012F009C013F00650A6
:100E9800071008100910D8A454EF07F056EF07F010
:100EA80060EF07F0000E066E000E076E000E086E6B
:100EB800000E096EF1EF07F0960E0F6E6AEF07F05D
:100EC8000F2AD8901332123211321032000E101439
:100ED8000A6E000E11140B6E000E12140C6EFE0E2C
:100EE80013140D6E0A500B100C100D10D8A47FEFC0
:100EF80007F081EF07F064EF07F08FEF07F00F2A94
:100F0800010E1026000E112212221322D89013323D
:100F1800123211321032000E10140A6E000E111423
:100F28000B6E000E12140C6EFF0E13140D6E0A5089
:100F38000B100C100D10D8A4A4EF07F0A6EF07F0C3
:100F480083EF07F0AEEF07F00F06D8901036113692
:100F58001236133612BEB3EF07F0B5EF07F0BDEF48
:100F680007F0020E0F60BBEF07F0BDEF07F0A8EF28
:100F780007F00FB0C2EF07F0C4EF07F0C5EF07F0B6
:100F8800129ED8900F320FC00AF00B6A0C6A0D6AD5
:100F98000AC00DF00C6A0B6A0A6A0A5010120B504C
:100FA80011120C5012120D5013120E50D8B4DFEF5C
:100FB80007F0E1EF07F0E9EF07F009BEE8EF07F007
:100FC800E6EF07F0E9EF07F0138E10C006F011C046
:100FD80007F012C008F013C009F0120020EE02F06A
:100FE8001350D9261450DA22DF50D8B4FEEF07F098
:100FF80000EF08F034EF08F013C0D9FF14C0DAFF8F
:10100800DF50156E1550066E076A20EE03F0135078
:10101800D9261450DA22DECF08F0DDCF09F05CECD7
:101028000FF006C00CF007C00DF0000E0F6E640E36
:101038000E6ED4EC0CF020EE03F01350D9261450A9
:10104800DA22DF50166E0C50165C176E20EE03F095
:101058001350D9261450DA22DF50186E57EF08F0D3
:10106800000E176E13C0D9FF14C0DAFFDF50156EDB
:101078001550066E076A20EE03F01350D926145057
:10108800DA22DECF08F0DDCF09F05CEC0FF006C005
:101098000CF007C00DF0000E0F6E640E0E6ED4EC4F
:1010A8000CF00C50186E20EE01F01350D926145095
:1010B800DA22DF50D8B463EF08F065EF08F087EF65
:1010C80008F020EE05F01350D9261450DA22DECFAE
:1010D80015F0DDCF16F015C0D9FF16C0DAFF17C01E
:1010E800DFFF20EE07F01350D9261450DA22DECFA6
:1010F80015F0DDCF16F015C0D9FF16C0DAFF18C0FD
:10110800DFFFA7EF08F020EE05F01350D9261450A2
:10111800DA22DECF15F0DDCF16F015C0D9FF16C0E4
:10112800DAFF18C0DFFF20EE07F01350D92614505D
:10113800DA22DECF15F0DDCF16F015C0D9FF16C0C4
:10114800DAFF17C0DFFF12001FC019F020C01AF025
:1011580021C01BF022C01CF034EC0CF020EE01F092
:101168001F50D9262050DA22000EDF6E20EE01F043
:101178002150D9262250DA22010EDF6E7E80000E21
:10118800286E000E276E38EF09F01FC0D9FF20C067
:10119800DAFF1F0EDF60D3EF08F0D5EF08F0DBEFC2
:1011A80008F01FC0D9FF20C0DAFF0A0EDF2621C0D1
:1011B800D9FF22C0DAFF1F0EDF60E5EF08F0E7EF86
:1011C80008F0EDEF08F021C0D9FF22C0DAFF0A0EBF
:1011D800DF261FC013F020C014F0F2EC07F021C086
:1011E80013F022C014F0F2EC07F06A0EE82EFED7D6
:1011F80000D01FC0D9FF20C0DAFF1E0EDF6407EF42
:1012080009F009EF09F0C9EF08F021C0D9FF22C0A1
:10121800DAFF1E0EDF6413EF09F015EF09F0C9EFCE
:1012280008F0130E266EAC0E256E2A0EE82EFED799
:10123800252EFCD7262EFAD71FC019F020C01AF089
:1012480021C01BF022C01CF034EC0CF00D0E266EF1
:101258002D0E256ED80EE82EFED7252EFCD7262E6D
:10126800FAD77E90274A282A2350275C2850800ADC
:10127800256E2450800A2558D8A045EF09F047EF7D
:1012880009F0FDEF08F0120020EE01F01F50D926FA
:101298002050DA22010EDF6E20EE01F02150D9260F
:1012A8002250DA22000EDF6E8080000E286E000EBB
:1012B800276ECFEF09F01FC0D9FF20C0DAFF1F0E3D
:1012C800DF6069EF09F06BEF09F071EF09F01FC0FB
:1012D800D9FF20C0DAFF0A0EDF2621C0D9FF22C0BD
:1012E800DAFF1F0EDF607BEF09F07DEF09F083EF77
:1012F80009F021C0D9FF22C0DAFF0A0EDF261FC07D
:1013080013F020C014F0F2EC07F021C013F022C053
:1013180014F0F2EC07F0A00E00D0E82EFDD71FC0A5
:10132800D9FF20C0DAFF1E0EDF649DEF09F09FEFA2
:1013380009F05FEF09F021C0D9FF22C0DAFF1E0EC5
:10134800DF64A9EF09F0ABEF09F05FEF09F0150EC4
:10135800266E4B0E256EBE0EE82EFED7252EFCD728
:10136800262EFAD700D01FC019F020C01AF021C0CD
:101378001BF022C01CF034EC0CF00D0E266E2D0E66
:10138800256ED80EE82EFED7252EFCD7262EFAD7A6
:101398008090274A282A2350275C2850800A256EE7
:1013A8002450800A2558D8A0DCEF09F0DEEF09F0B8
:1013B80093EF09F0120044C02FF045C030F048C048
:1013C80031F049C032F046C033F047C034F04AC06B
:1013D80035F04BC036F02FC006F030C007F0086A71
:1013E800096A000E18EC07F006C014F007C015F0E3
:1013F80008C016F009C017F035C006F036C007F06F
:10140800086A096A000E18EC07F006C018F007C051
:1014180019F008C01AF009C01BF0B1EC03F014C0B1
:101428004CF015C04DF016C04EF017C04FF031C04B
:1014380006F032C007F0086A096A000E18EC07F0D7
:1014480006C014F007C015F008C016F009C017F060
:1014580035C006F036C007F0086A096A000E18ECB5
:1014680007F006C018F007C019F008C01AF009C044
:101478001BF0B1EC03F014C054F015C055F016C0C1
:1014880056F017C057F033C006F034C007F0086AAA
:10149800096A000E18EC07F006C014F007C015F032
:1014A80008C016F009C017F035C006F036C007F0BE
:1014B800086A096A000E18EC07F006C018F007C0A1
:1014C80019F008C01AF009C01BF0B1EC03F014C001
:1014D80050F015C051F016C052F017C053F012006A
:1014E800000E06140E6E000E07140F6E800E081400
:1014F800106E7F0E0914116E0E500F10101011107F
:10150800D8A489EF0AF08BEF0AF093EF0AF0000EE7
:10151800066E000E076E000E086E000E096E000EB5
:101528000A140E6E000E0B140F6E800E0C14106E43
:101538007F0E0D14116E0E500F1010101110D8A43C
:10154800A8EF0AF0AAEF0AF0B2EF0AF0000E0A6E4E
:10155800000E0B6E000E0C6E000E0D6E09AEB7EF8E
:101568000AF0B9EF0AF0C2EF0AF0066C071ED8B00D
:10157800072A081ED8B0082A800E09560DAEC7EFF4
:101588000AF0C9EF0AF0D2EF0AF00A6C0B1ED8B0C5
:101598000B2A0C1ED8B00C2A800E0D56000E061A07
:1015A800000E071A000E081A800E091A000E0A1AF1
:1015B800000E0B1A000E0C1A800E0D1A0A50065C4B
:1015C8000B5007580C5008580D500958D8B0EFEF79
:1015D8000AF0F1EF0AF0F4EF0AF0D890F5EF0AF00C
:1015E800D88012001FC019F020C01AF021C01BF0CB
:1015F80022C01CF034EC0CF0808220EE01F01F5069
:10160800D9262050DA22000EDF6E20EE01F021509C
:10161800D9262250DA22000EDF6E21C013F022C034
:1016280014F0F2EC07F01FC013F020C014F0F2EC35
:1016380007F03BEF0BF01FC0D9FF20C0DAFF0A0EFE
:10164800DF2621C0D9FF22C0DAFF0A0EDF261FC01D
:1016580013F020C014F0F2EC07F021C013F022C000
:1016680014F0F2EC07F06A0EE82EFED700D01FC087
:10167800D9FF20C0DAFF280EDF6045EF0BF047EFF7
:101688000BF053EF0BF021C0D9FF22C0DAFF270E71
:10169800DF6451EF0BF053EF0BF01FEF0BF0190E57
:1016A800246E5A0E236EB20EE82EFED7232EFCD7D8
:1016B800242EFAD71FC019F020C01AF021C01BF041
:1016C80022C01CF034EC0CF0110E246E3C0E236E7C
:1016D800CB0EE82EFED7232EFCD7242EFAD700F007
:1016E800809212001FC019F020C01AF021C01BF010
:1016F80022C01CF034EC0CF020EE01F01F50D9266B
:101708002050DA22000EDF6E20EE01F02150D9269B
:101718002250DA22000EDF6E808221C013F022C030
:1017280014F0F2EC07F01FC013F020C014F0F2EC34
:1017380007F0BBEF0BF01FC0D9FF20C0DAFF0A0E7D
:10174800DF2621C0D9FF22C0DAFF0A0EDF261FC01C
:1017580013F020C014F0F2EC07F021C013F022C0FF
:1017680014F0F2EC07F06A0EE82EFED700D01FC086
:10177800D9FF20C0DAFF280EDF60C5EF0BF0C7EFF6
:101788000BF0D3EF0BF021C0D9FF22C0DAFF270EF0
:10179800DF64D1EF0BF0D3EF0BF09FEF0BF08092EB
:1017A80012001FC019F020C01AF021C01BF022C07F
:1017B8001CF034EC0CF020EE01F01F50D92620501C
:1017C800DA22010EDF6E20EE01F02150D9262250D8
:1017D800DA22010EDF6E7C8621C013F022C014F0DD
:1017E800F2EC07F01FC013F020C014F0F2EC07F081
:1017F8001AEF0CF01FC0D9FF20C0DAFF0A0EDF264F
:1018080021C0D9FF22C0DAFF0A0EDF261FC013F05D
:1018180020C014F0F2EC07F021C013F022C014F03D
:10182800F2EC07F06A0EE82EFED700D01FC0D9FFF1
:1018380020C0DAFF280EDF6024EF0CF026EF0CF052
:1018480032EF0CF021C0D9FF22C0DAFF270EDF6487
:1018580030EF0CF032EF0CF0FEEF0BF07C9612003C
:1018680020EE02F01950D9261A50DA22010EDF6E46
:1018780020EE02F01B50D9261C50DA22010EDF6E32
:101888007C88000E1E6E460E1D6E19C0D9FF1AC048
:10189800DAFF1DC0DFFF1BC0D9FF1CC0DAFF1DC067
:1018A800DFFF19C013F01AC014F0F2EC07F01BC0E8
:1018B80013F01CC014F0F2EC07F06A0EE82EFED705
:1018C80000D0F60E1D241D6EFF0E1E201E6E1EBEBD
:1018D80072EF0CF070EF0CF049EF0CF019C0D9FF63
:1018E8001AC0DAFF000EDF6E1BC0D9FF1CC0DAFF7A
:1018F800000EDF6E19C013F01AC014F0F2EC07F0F6
:101908001BC013F01CC014F0F2EC07F07C98120016
:1019180085948598839E879C7D947D987B9E7F9CEB
:10192800050E0E01746F060E766F070E696F080EAE
:10193800886FBD508F0B4009BD6EE00EBE16BF50BC
:10194800F00B0109BF6E06C0BCFFBD8E000EAA6E6B
:10195800000EA66E000E0F01256F000E216FFC0E03
:10196800AD16F30EAD16CF0EAD163F0EAD16AB8805
:10197800AB50F00B0C09AB6EAB8EA788A750F00BE1
:101988000C09A76EA78E26892651F00B0C09266F25
:10199800268F22892251F00B0C09226F228F120008
:1019A800000E126E000E116E0E500F10D8B4DFEF3D
:1019B8000CF0E1EF0CF009EF0DF0010E106EE9EFFD
:1019C8000CF0D8900E360F36102A0FAEEEEF0CF052
:1019D800F0EF0CF0E5EF0CF0D890113612360E50FF
:1019E8000C5C0F500D58D8A0FCEF0CF0FEEF0CF07B
:1019F80003EF0DF00E500C5E0F500D5A1180D89069
:101A08000F320E32102EF0EF0CF011C00CF012C095
:101A18000DF0120029C01FF02AC020F02BC021F0C1
:101A28002CC022F0000E246E020E236EA8EC08F0E3
:101A380029C019F02AC01AF02BC01BF02CC01CF0CA
:101A480034EC0CF029C01FF02AC020F02BC021F084
:101A58002CC022F076EC0BF0210E2E6E780E2D6E37
:101A6800980EE82EFED72D2EFCD72E2EFAD700D0B2
:101A780029C019F02AC01AF02BC01BF02CC01CF08A
:101A880034EC0CF0120029C01FF02AC020F02BC043
:101A980021F02CC022F0000E246E020E236E48ECBA
:101AA80009F029C019F02AC01AF02BC01BF02CC06D
:101AB8001CF034EC0CF029C01FF02AC020F02BC019
:101AC80021F02CC022F076EC0BF0210E2E6E780E51
:101AD8002D6E980EE82EFED72D2EFCD72E2EFAD777
:101AE80000D029C019F02AC01AF02BC01BF02CC056
:101AF8001CF034EC0CF01200000E076E630E066E3C
:101B08008CEC0CF0D10E066E000E076EC80E086E37
:101B1800000E096E52EC0EF0C3EC0FF093EC0FF0D0
:101B2800D5EC0EF0B3EC0FF087928198869E7F82F9
:101B380079887E8E849E7C9ED10E376E000E386E1C
:101B4800C80E396E000E3A6E440E3B6E000E3C6EA7
:101B58002CEC00F0A0EF0DF02AEF00F0EFEC0FF006
:101B6800520ED9EC0FF0B60ED9EC0FF0F4EC0FF0E2
:101B7800530ED9EC0FF0010E78EC0EF00C6E0C50F1
:101B88000F6E106A000E78EC0EF00C6E0C500E6E94
:101B98000D6A0F500D100F6E10500E10106EEAECFB
:101BA8000FF00FC00AF010C00BF01200EFEC0FF0AE
:101BB800520ED9EC0FF0B80ED9EC0FF0F4EC0FF090
:101BC800530ED9EC0FF0010E78EC0EF00C6E0C50A1
:101BD8000F6E106A000E78EC0EF00C6E0C500E6E44
:101BE8000D6A0F500D100F6E10500E10106EEAECAB
:101BF8000FF00FC00AF010C00BF01200EFEC0FF05E
:101C0800520ED9EC0FF0B40ED9EC0FF0F4EC0FF043
:101C1800530ED9EC0FF0010E78EC0EF00C6E0C5050
:101C28000F6E106A000E78EC0EF00C6E0C500E6EF3
:101C38000D6A0F500D100F6E10500E10106EEAEC5A
:101C48000FF00FC00AF010C00BF01200EFEC0FF00D
:101C5800520ED9EC0FF0BA0ED9EC0FF0F4EC0FF0ED
:101C6800530ED9EC0FF0010E78EC0EF00C6E0C5000
:101C78000F6E106A000E78EC0EF00C6E0C500E6EA3
:101C88000D6A0F500D100F6E10500E10106EEAEC0A
:101C98000FF00FC00AF010C00BF01200000E000188
:101CA800D16F010ED26F010ED36FAA0ED66F0F0E31
:101CB800D76FA60ED86F0F0ED96F000ED56F630EB3
:101CC800D46F000EC86F010EC96F010ECA6F250EC2
:101CD800CD6F0F0ECE6F210ECF6F0F0ED06F000E8F
:101CE800CC6F630ECB6F1200086E34EC0FF00E0150
:101CF800DA8734EC0FF0D5CE09F034EC0FF0085049
:101D0800D8B489EF0EF08DEF0EF0076A072A8EEF30
:101D18000EF0076A073A07460E01DA510718DF0B7B
:101D28000718DA6FDA8909501200166E1650126E0B
:101D3800136A0EC0D9FF0FC0DAFFDFCF14F0010E0F
:101D4800DE26DFCF15F0000EDD22D89014361536CA
:101D580014501024D96E15501120DA6E12C0DEFF0F
:101D680013C0DDFF12000E6E0E500A6E0B6A06C01D
:101D7800D9FF07C0DAFFDFCF0CF0010EDE26DFCF78
:101D88000DF0000EDD22D8900C360D360C500824CC
:101D9800D96E0D500920DA6E0AC0DEFF0BC0DDFFD8
:101DA80012001FEC0FF0010E086E000EA3EC0FF0EE
:101DB8003F0E0A6E550EE82EFED70A2EFCD700F00D
:101DC800030E086E000EA3EC0FF0D50E086E010E80
:101DD800A3EC0FF01200B2EC0DF00AC044F00BC0F7
:101DE80045F02AEC0EF00AC046F00BC047F0DAECDA
:101DF8000DF00AC048F00BC049F002EC0EF00AC022
:101E08004AF00BC04BF0120001EE00F03C0EEE6AF7
:101E1800E806FDE100EE60F07A0EEE6AE806FDE104
:101E280000EE3DF01D0EEE6AE806FDE15A905A926A
:101E3800000180EF0DF00E01D951F00B0809D96FA0
:101E4800D98B9F0ED66F848A848CA79BA79D1D0E65
:101E58001D6F1E0E1C6F1C0E6F6F1B0E706F120015
:101E68000E01D8B53AEF0FF03CEF0FF034EF0FF05A
:101E7800DACE06F01F0E0616D8A445EF0FF047EF8E
:101E88000FF034EF0FF012000E01D8B54EEF0FF03F
:101E980050EF0FF048EF0FF0DACE01F01F0E0116E9
:101EA800D8A459EF0FF05BEF0FF048EF0FF01200D6
:101EB80006500802F3CF0AF0F4CF0BF006500902DF
:101EC800F3500B2607500802F3500B260AC006F001
:101ED8000BC007F012000E0133A175EF0FF077EF7A
:101EE8000FF080EF0FF0000E00019F6F010E9E6F44
:101EF800CEEC0FF00E0133915A921100D450096EB6
:101F0800086AD3500A6E0B6A08500A100C6E095002
:101F18000B100D6E0CC006F00DC007F01200120E6B
:101F28000E01626F110E156F8382E997E895330EE3
:101F3800E56F000EE66FE789E88BE78F1200096E00
:101F4800EFEC0FF0520ED9EC0FF009508009D9ECE4
:101F58000FF00850D9EC0FF0EAEC0FF01200D65051
:101F68001F0B4009D66ED688D650F00B0E09D66ED8
:101F7800D588000ED46E000ED36ED58E12008092D6
:101F88007C967C987E90809088928496849886909F
:101F980088901200FEEC0FF0520EDFEC0FF0E60E08
:101FA800DFEC0FF0F9EC0FF01200076E34EC0FF0D5
:101FB80007C0D5FE1200026E48EC0FF002C0D5FE35
:101FC8001200000ED46E000ED36E120034EC0FF027
:101FD8000E01DA85120034EC0FF00E01DA811200DE
:101FE80034EC0FF00E01DA83120048EC0FF00E010A
:0E1FF800DA85120048EC0FF00E01DA811200BB
:020000040020DA
:10000000FF0FFF0FFF0FFF0FFF0FFF0FFF0FFF0F80
:020000040030CA
:0C000000AAFFFFFF9FFFFFFFFFFFFFFFB5
:00000001FF
