:040000003BEF00F0E2
:100008005B82D9CF03F0DACF04F00E0137A70FEFE8
:1000180000F011EF00F014EF00F0E3516AEC0DF07E
:100028000E0137A51AEF00F01CEF00F035EF00F0D5
:100038002DA521EF00F023EF00F035EF00F0BFEC25
:100048000DF0E806D8A42BEF00F02DEF00F033EF09
:1000580000F03FEC0DF00E01E46F35EF00F00E01FB
:100068002D9504C0DAFF03C0D9FF5B9211000EEF93
:020078000DF089
:050E0000002564000064
:100E060022C038F023C039F024C03AF025C03BF0A8
:100E160026C03CF027C03DF028C03EF029C03FF078
:100E26003FBE18EF07F01BEF07F0010E1CEF07F0AF
:100E3600000E406E4050D8B423EF07F025EF07F0C0
:100E460035EF07F03F1E3E1E3D1E3C1E3B1E3A1E62
:100E5600391E386C000E39223A223B223C223D22B2
:100E66003E223F220001CCBF43EF07F0CC5106E102
:100E7600CB05D8B041EF07F043EF07F049EF07F095
:100E8600000E356E010E346E4DEF07F0CBC034F018
:100E9600CCC035F0C9C036F0CAC037F04050D8B41F
:100EA60057EF07F059EF07F070EF07F03606D8A0B6
:100EB60037064050D8A462EF07F064EF07F06AEFF8
:100EC60007F0000E336E2B0E326E6EEF07F0000E3B
:100ED600336E2D0E326E32C040F0000E426E1F0E83
:100EE600416E000EED6FF4EF07F04106D8A0420602
:100EF600CE0E4124D96E000E4220DA6E38C005F0BF
:100F060039C006F03AC007F03BC008F03CC009F013
:100F16003DC00AF03EC00BF03FC00CF00A0E0D6E4D
:100F2600000E0E6E000E0F6E000E106E000E116E8D
:100F3600000E126E000E136E000E146E05EC09F014
:100F460005C02AF006C02BF007C02CF008C02DF013
:100F560009C02EF00AC02FF00BC030F00CC031F0E3
:100F66002AC017F02BC018F0D4EC0CF01750300F35
:100F7600DF6E3406D8A035063606D8A0370638C048
:100F860005F039C006F03AC007F03BC008F03CC097
:100F960009F03DC00AF03EC00BF03FC00CF00A0E4F
:100FA6000D6E000E0E6E000E0F6E000E106E000E11
:100FB600116E000E126E000E136E000E146E41ECD2
:100FC60008F005C038F006C039F007C03AF008C08E
:100FD6003BF009C03CF00AC03DF00BC03EF00CC02F
:100FE6003FF042BEFFEF07F0425008E14104D8A0AF
:100FF600FFEF07F001EF08F01DEF08F03850391049
:101006003A103B103C103D103E103F10D8A40EEF96
:1010160008F010EF08F078EF07F035BE1DEF08F086
:10102600355006E13404D8B01BEF08F01DEF08F088
:1010360078EF07F04050D8B423EF08F025EF08F01A
:1010460030EF08F04106D8A04206CE0E4124D96EF4
:10105600000E4220DA6E40C0DFFF20C015F021C02E
:1010660016F0CE0E4124176E000E4220186E36C0C2
:1010760019F037C01AF063EC0BF01200000E166E72
:1010860014BE4AEF08F048EF08F05CEF08F0141EB3
:10109600131E121E111E101E0F1E0E1E0D6C000EAC
:1010A6000E220F2210221122122213221422010EC6
:1010B600166E0CBE63EF08F061EF08F075EF08F0EE
:1010C6000C1E0B1E0A1E091E081E071E061E056C98
:1010D600000E06220722082209220A220B220C22CF
:1010E600010E161A20EE17F0070EDE6AE806FDE27C
:1010F6000D500E100F1010101110121013101410A6
:10110600D8B488EF08F08AEF08F0DCEF08F0010E9B
:10111600156E98EF08F0D8900D360E360F3610364D
:101126001136123613361436152A14AE9DEF08F012
:101136009FEF08F08EEF08F0D8901736183619365C
:101146001A361B361C361D361E360D50055C0E50E3
:1011560006580F5007581050085811500958125089
:101166000A5813500B5814500C58D8A0BDEF08F06D
:10117600BFEF08F0D0EF08F00D50055E0E50065A8E
:101186000F50075A1050085A1150095A12500A5A4D
:1011960013500B5A14500C5A1780D890143213322D
:1011A6001232113210320F320E320D32152E9FEFDF
:1011B60008F01650D8B4E2EF08F0E4EF08F0F4EFC8
:1011C60008F01E1E1D1E1C1E1B1E1A1E191E181E92
:1011D600176C000E182219221A221B221C221D220D
:1011E6001E2217C005F018C006F019C007F01AC075
:1011F60008F01BC009F01CC00AF01DC00BF01EC091
:101206000CF01200000E166E0CBE0EEF09F00CEF7D
:1012160009F020EF09F00C1E0B1E0A1E091E081EFF
:10122600071E061E056C000E06220722082209224A
:101236000A220B220C22010E166E14BE27EF09F0AD
:1012460025EF09F037EF09F0141E131E121E111EAA
:10125600101E0F1E0E1E0D6C000E0E220F221022E7
:1012660011221222132214220D500E100F101010EC
:101276001110121013101410D8B444EF09F046EFF1
:1012860009F08EEF09F0010E156E54EF09F0D890B3
:101296000D360E360F361036113612361336143614
:1012A600152A14AE59EF09F05BEF09F04AEF09F081
:1012B6000D50055C0E5006580F5007581050085830
:1012C6001150095812500A5813500B5814500C5804
:1012D600D8A070EF09F072EF09F082EF09F00D5017
:1012E600055E0E50065A0F50075A1050085A1150F4
:1012F600095A12500A5A13500B5A14500C5AD890C5
:10130600143213321232113210320F320E320D32C3
:10131600152E5BEF09F01650D8B494EF09F096EF4E
:1013260009F0A6EF09F00C1E0B1E0A1E091E081E68
:10133600071E061E056C000E062207220822092239
:101346000A220B220C2205C005F006C006F007C0D3
:1013560007F008C008F009C009F00AC00AF00BC07F
:101366000BF00CC00CF0120045C0D9FF46C0DAFFE6
:10137600DECFF6FFDDCFF7FF0800F550250AD8A42B
:10138600C7EF09F0C9EF09F049EF0AF045C0D9FFE8
:1013960046C0DAFFDE2A000EDD22000E0001CA6F0B
:1013A600000EC96FC9C0CDF0CB69CC6945C0D9FF65
:1013B60046C0DAFFDECF53F0DDCF54F053C0F6FF60
:1013C60054C0F7FF0800F550640AD8B4EDEF09F0F1
:1013D600EFEF09F0FDEF09F053C0F6FF54C0F7FF39
:1013E6000800F550690AD8A4FBEF09F0FDEF09F0F3
:1013F60040EF0AF047C0D9FF48C0DAFFDFCF49F017
:10140600020EDE26DFCF4AF0000EDD2249C0D9FFEC
:101416004AC0DAFFDECF4BF0DDCF4CF0000E4CBEFB
:10142600FF0E4D6E4E6E4F6E506E516E526E010E29
:101436005324496E000E54204A6E45C0D9FF46C05B
:10144600DAFF49C0DEFF4AC0DDFF43C020F044C0DA
:1014560021F04BC022F04CC023F04DC024F04EC00A
:1014660025F04FC026F050C027F051C028F052C0DA
:1014760029F003EC07F05DEF0AF045C0D9FF46C03E
:10148600DAFFDE2A000EDD225DEF0AF045C0D9FF45
:1014960046C0DAFFDECFF6FFDDCFF7FF0800F550D6
:1014A600056E066A43C007F044C008F05EEC0AF019
:1014B60040EF0AF0120007500810D8B465EF0AF0A2
:1014C60067EF0AF070EF0AF007500810D8A46EEF25
:1014D6000AF070EF0AF075EF0AF00550E6EC0DF031
:1014E600C2EF0AF020EE09F00750D9260850DA229A
:1014F600DE50DE10D8B482EF0AF084EF0AF09FEFD8
:101506000AF020EE09F00750D9260850DA2210EE2C
:1015160003F00750E1260850E222DE50E65CE65072
:10152600800A0D6EDE50800A0D58D8B09DEF0AF085
:101536009FEF0AF0C2EF0AF020EE03F00750D9261B
:101546000850DA22DECF09F0DDCF0AF007C0D9FF56
:1015560008C0DAFFDECF0BF0DDCF0CF009500B240C
:10156600D96E0A500C20DA6E05C0DFFF20EE03F0BC
:101576000750D9260850DA22DE2A000EDD22120094
:10158600000E066E630E056E1BEC0BF0000E0001DE
:10159600A36F010EA46F010EA56FAA0EA86F0F0E02
:1015A600A96FA60EAA6F0F0EAB6F000EA76F630E84
:1015B600A66F000EAC6F010EAD6F010EAE6F250E5D
:1015C600B16F0F0EB26F210EB36F0F0EB46F000E18
:1015D600B06F630EAF6F93EC0DF0F4EC0CF0D1EC42
:1015E6000DF055EC0DF0F1EC0BF009C0A1F00AC0BE
:1015F600A2F069EC0CF019EC0CF041EC0CF0790E51
:101606000001666F000E676F010E686F0E0E696F40
:10161600A1C06AF0A2C06BF0A0EC0BF0790E066ECA
:10162600000E076E27EC0DF002EF0BF03BEF00F01B
:1016360085948598839E879C7D947D987B9E7F9CD0
:10164600050E0E01746F060E766F070E696F080E93
:10165600886FBD508F0B4009BD6EE00EBE16BF50A1
:10166600F00B0109BF6E05C0BCFFBD8E000EAA6E51
:10167600000EA66E000E0F01256F000E216FFC0EE8
:10168600AD16F30EAD16CF0EAD163F0EAD16AB88EA
:10169600AB50F00B0C09AB6EAB8EA788A750F00BC6
:1016A6000C09A76EA78E26892651F00B0C09266F0A
:1016B600268F22892251F00B0C09226F228F1200ED
:1016C6001ABE68EF0BF06AEF0BF070EF0BF019C063
:1016D6001EF01AC01FF074EF0BF0000E1F6E000E06
:1016E6001E6E000E1D6E000E1C6E86EF0BF0000EB9
:1016F600066E200E056E15C007F016C008F05EECEB
:101706000AF01C4A1D2A1E501C5C1D50800A1B6EC6
:101716001F50800A1B58D8A093EF0BF095EF0BF0E3
:101726007AEF0BF017C00EF018C00FF015C010F0CE
:1017360016C011F091EC0CF012006A0E00016C6FED
:10174600000E6D6F66C06EF067C06FF0000E726FB0
:10175600000E716F000E786F000E776F6E0E606F61
:10176600000E616F68C062F069C063F06C0E646F52
:10177600000E656FC9EC0BF0000171516625D96E3C
:1017860072516721DA6E000EDF6E120062C055F0EC
:1017960063C056F0DDEF0BF060C043F061C044F06B
:1017A600550E456E000E466E64C047F065C048F0A3
:1017B600B7EC09F055C0F6FF56C0F7FF0800F55024
:1017C6000009D8A4E9EF0BF0EBEF0BF0CFEF0BF02D
:1017D600000E0001616F000E606F1200E1EC0DF06B
:1017E600520ECBEC0DF0B60ECBEC0DF0D7EC0DF0A7
:1017F600530ECBEC0DF0010EB3EC0CF00B6E0B5050
:101806000E6E0F6A000EB3EC0CF00B6E0B500D6EE5
:101816000C6A0E500C100E6E0F500D100F6EDCEC95
:101826000DF00EC009F00FC00AF01200E1EC0DF049
:10183600520ECBEC0DF0B80ECBEC0DF0D7EC0DF054
:10184600530ECBEC0DF0010EB3EC0CF00B6E0B50FF
:101856000E6E0F6A000EB3EC0CF00B6E0B500D6E95
:101866000C6A0E500C100E6E0F500D100F6EDCEC45
:101876000DF00EC009F00FC00AF01200E1EC0DF0F9
:10188600520ECBEC0DF0B40ECBEC0DF0D7EC0DF008
:10189600530ECBEC0DF0010EB3EC0CF00B6E0B50AF
:1018A6000E6E0F6A000EB3EC0CF00B6E0B500D6E45
:1018B6000C6A0E500C100E6E0F500D100F6EDCECF5
:1018C6000DF00EC009F00FC00AF01200E1EC0DF0A9
:1018D600520ECBEC0DF0BA0ECBEC0DF0D7EC0DF0B2
:1018E600530ECBEC0DF0010EB3EC0CF00B6E0B505F
:1018F6000E6E0F6A000EB3EC0CF00B6E0B500D6EF5
:101906000C6A0E500C100E6E0F500D100F6EDCECA4
:101916000DF00EC009F00FC00AF01200000E146E92
:10192600000E136EA2EF0CF012C005F0066A10C08E
:1019360007F011C008F05EEC0AF0134A142A13509F
:101946000E24D96E14500F20DA6EDF50126E12502C
:10195600D8A4B0EF0CF0B2EF0CF097EF0CF0120039
:10196600076E7FEC0DF00E01DA877FEC0DF0D5CE19
:1019760008F07FEC0DF00750D8B4C4EF0CF0C8EFB8
:101986000CF0066A062AC9EF0CF0066A063A064605
:101996000E01DA510618DF0B0618DA6FDA890850DD
:1019A600120018BEE1EF0CF0185006E11704D8B08B
:1019B600DFEF0CF0E1EF0CF0EFEF0CF017C019F0D1
:1019C60018C01AF0191E1A1E194A1A2A19C017F039
:1019D6001AC018F0F3EF0CF017C017F018C018F083
:1019E600120055EC0DF0010E076E000EA3EC0DF083
:1019F6003F0E096E550EE82EFED7092EFCD700F0D5
:101A0600030E076E000EA3EC0DF0D50E076E010E49
:101A1600A3EC0DF0120001EE00F03C0EEE6AE806B3
:101A2600FDE100EEB5F0390EEE6AE806FDE15A6A10
:101A3600596A586A576A5B905B92000EF86E0E0EF2
:101A4600F76E0001C3EF0AF032EF0DF006C0D9FFC2
:101A560007C0DAFFDF50B3EC0DF0064A072A06C0CE
:101A6600D9FF07C0DAFFDF50D8A43CEF0DF03EEFF8
:101A76000DF029EF0DF012003B0E576445EF0DF007
:101A860047EF0DF049EF0DF0000E576E572A570439
:101A9600016E026A000E0124D96E010E0220DA6E72
:101AA600DF5012000E01D951F00B0809D96FD98BFE
:101AB6009F0ED66F848A848CA79BA79D1D0E1D6FD3
:101AC6001E0E1C6F1C0E6F6F1B0E706F1200016EC8
:101AD600130E5A6471EF0DF073EF0DF075EF0DF004
:101AE600000E5A6EB50E5A24D96EDA6A000EDA2244
:101AF60001C0DFFF5A2A12000E01D8B585EF0DF09E
:101B060087EF0DF07FEF0DF0DACE05F01F0E05160C
:101B1600D8A490EF0DF092EF0DF07FEF0DF01200CC
:101B2600120E0E01626F110E156F8382E997E8950A
:101B3600330EE56F000EE66FE789E88BE78F12003C
:101B4600086EE1EC0DF0520ECBEC0DF0085080095A
:101B5600CBEC0DF00750CBEC0DF0DCEC0DF01200E9
:101B6600056E0E0137A5BAEF0DF0BCEF0DF0B4EF20
:101B76000DF005C0E4FE120057505818D8A4C6EF61
:101B86000DF0C9EF0DF0010ECAEF0DF0000E1200B8
:101B9600066E7FEC0DF006C0D5FE1200F28C0E012B
:101BA6002D872D95F28E12007FEC0DF00E01DA8353
:101BB60012007FEC0DF00E01DA8512007FEC0DF0BD
:081BC6000E01DA811200120089
:020000040020DA
:10000000FF0FFF0FFF0FFF0FFF0FFF0FFF0FFF0F80
:020000040030CA
:0C000000AAFFFFFF9FFFFFFFFFFFFFFFB5
:00000001FF
