:0400000024EF00F0F9
:100018005C80D8CF01F0E0CF02F00E0133AB17EFD0
:1000280000F019EF00F01EEF00F00001B04BB12B0B
:100038000E01339B02C0E0FF01C0D8FF5C901000A6
:1000480089EF0FF0440E2A6E000E2B6E5CEC0BF05D
:10005800C50E4A5C090E4B58D8A035EF00F037EFB3
:1000680000F089EF03F0600E4224D96EDA6A000EC0
:10007800DA22B0C0DFFF422A3AC01CF03BC01DF0B4
:100088003CC01EF03DC01FF0FCEC0CF0050E416EAC
:100098000F0E406EF10EE82EFED7402EFCD7412EF3
:1000A800FAD700F03AC016F03BC017F03CC018F081
:1000B8003DC019F0E6EC0DF0290E416E960E406E2B
:1000C8007F0EE82EFED7402EFCD7412EFAD700F03F
:1000D800440E2A6E000E2B6E5CEC0BF0290E416E5E
:1000E800960E406E7F0EE82EFED7402EFCD7412E8E
:1000F800FAD700F0B80E036E1E0E046E450E056E9C
:100108003F0E066E4CC007F04DC008F04EC009F017
:100118004FC00AF0F9EC0BF0D8B095EF00F097EF6C
:1001280000F0E0EF00F050C003F051C004F052C0FE
:1001380005F053C006F0EC0E076E510E086E380E2F
:10014800096E3E0E0A6EF9EC0BF0D8B0AEEF00F077
:10015800B0EF00F0E0EF00F054C003F055C004F039
:1001680056C005F057C006F0290E076E5C0E086EE3
:100178000F0E096E3E0E0A6EF9EC0BF0D8B0C7EF01
:1001880000F0C9EF00F0E0EF00F0880E4324D96ECC
:10019800DA6A000EDA22020EDF6E432A3AC028F02D
:1001A8003BC029F03CC02AF03DC02BF0000E2D6E5C
:1001B800010E2C6E61EC05F050C003F051C004F044
:1001C80052C005F053C006F0000E076E000E086E10
:1001D800800E096E3E0E0A6EF9EC0BF0D8B0F7EF00
:1001E80000F0F9EF00F029EF01F0CD0E036ECC0E10
:1001F800046ECC0E056E3E0E066E54C007F055C058
:1002080008F056C009F057C00AF0F9EC0BF0D8B066
:1002180010EF01F012EF01F029EF01F0880E4324EE
:10022800D96EDA6A000EDA22010EDF6E432A3AC06E
:1002380028F03BC029F03CC02AF03DC02BF0000E4E
:100248002D6E020E2C6E61EC05F04CC003F04DC013
:1002580004F04EC005F04FC006F05C0E076E8F0E1E
:10026800086EC20E096E3E0E0A6EF9EC0BF0D8B09D
:1002780040EF01F042EF01F08BEF01F00A0E036E40
:10028800D70E046EA30E056E3E0E066E50C007F024
:1002980051C008F052C009F053C00AF0F9EC0BF055
:1002A800D8B059EF01F05BEF01F08BEF01F07B0E56
:1002B800036E140E046EAE0E056E3E0E066E54C02E
:1002C80007F055C008F056C009F057C00AF0F9EC1D
:1002D8000BF0D8B072EF01F074EF01F08BEF01F082
:1002E800880E4324D96EDA6A000EDA22030EDF6E16
:1002F800432A3AC028F03BC029F03CC02AF03DC050
:100308002BF0000E2D6E030E2C6E61EC05F0B80E6E
:10031800036E1E0E046E050E056E3F0E066E4CC073
:1003280007F04DC008F04EC009F04FC00AF0F9ECD4
:100338000BF0D8B0A2EF01F0A4EF01F0D4EF01F078
:100348000A0E036ED70E046EA30E056E3E0E066EE1
:1003580054C007F055C008F056C009F057C00AF05D
:10036800F9EC0BF0D8B0BBEF01F0BDEF01F0D4EF22
:1003780001F0880E4324D96EDA6A000EDA22090EDB
:10038800DF6E432A3AC028F03BC029F03CC02AF06F
:100398003DC02BF0000E2D6E040E2C6E61EC05F0A6
:1003A800000E036E000E046E000E056E3F0E066E04
:1003B8004CC007F04DC008F04EC009F04FC00AF01D
:1003C800F9EC0BF0D8B0EBEF01F0EDEF01F036EF00
:1003D80002F08F0E036EC20E046E750E056E3E0E91
:1003E800066E50C007F051C008F052C009F053C063
:1003F8000AF0F9EC0BF0D8B004EF02F006EF02F0C7
:1004080036EF02F054C003F055C004F056C005F0B2
:1004180057C006F0C30E076EF50E086EA80E096EDB
:100428003E0E0A6EF9EC0BF0D8B01DEF02F01FEF8C
:1004380002F036EF02F0880E4324D96EDA6A000E15
:10044800DA220A0EDF6E432A3AC028F03BC029F0B0
:100458003CC02AF03DC02BF0000E2D6E050E2C6E10
:1004680061EC05F09A0E036E990E046E190E056E76
:100478003F0E066E4CC007F04DC008F04EC009F0A4
:100488004FC00AF0F9EC0BF0D8B04DEF02F04FEF87
:1004980002F098EF02F050C003F051C004F052C0CF
:1004A80005F053C006F0AE0E076E470E086E610EDB
:1004B800096E3E0E0A6EF9EC0BF0D8B066EF02F04A
:1004C80068EF02F098EF02F01F0E036E850E046EBF
:1004D8006B0E056E3E0E066E54C007F055C008F050
:1004E80056C009F057C00AF0F9EC0BF0D8B07FEF0E
:1004F80002F081EF02F098EF02F0880E4324D96EE3
:10050800DA6A000EDA22070EDF6E432A3AC028F0B4
:100518003BC029F03CC02AF03DC02BF0000E2D6EE8
:10052800060E2C6E61EC05F04CC003F04DC004F0D3
:100538004EC005F04FC006F0CD0E076ECC0E086E0B
:10054800CC0E096E3E0E0A6EF9EC0BF0D8B0AFEF88
:1005580002F0B1EF02F0FAEF02F09A0E036E990E74
:10056800046E990E056E3E0E066E50C007F051C01F
:1005780008F052C009F053C00AF0F9EC0BF0D8B0FB
:10058800C8EF02F0CAEF02F0FAEF02F0CD0E036EE8
:10059800CC0E046ECC0E056E3E0E066E54C007F0EF
:1005A80055C008F056C009F057C00AF0F9EC0BF036
:1005B800D8B0E1EF02F0E3EF02F0FAEF02F0880EB4
:1005C8004324D96EDA6A000EDA22060EDF6E432A59
:1005D8003AC028F03BC029F03CC02AF03DC02BF0BF
:1005E800000E2D6E070E2C6E61EC05F04CC003F06A
:1005F8004DC004F04EC005F04FC006F0000E076E67
:10060800000E086E000E096E3F0E0A6EF9EC0BF034
:10061800D8B011EF03F013EF03F085EF03F0810E6C
:100628004A5C3E0E4B58D8A01CEF03F01EEF03F0B7
:1006380085EF03F0880E4324D96EDA6A000EDA22B9
:10064800030EDF6E432A7F9279987E9E3AC01CF093
:100658003BC01DF03CC01EF03DC01FF07BEC0CF011
:10066800290E416E960E406E7F0EE82EFED7402E64
:10067800FCD7412EFAD700F03AC016F03BC017F06D
:100688003CC018F03DC019F0E6EC0DF0290E416EA3
:10069800960E406E7F0EE82EFED7402EFCD7412ED8
:1006A800FAD700F03AC034F03BC035F03CC036F021
:1006B8003DC037F0AFEC08F03AC016F03BC017F079
:1006C8003CC018F03DC019F0E6EC0DF0290E416E63
:1006D800960E406E7F0EE82EFED7402EFCD7412E98
:1006E800FAD700F03AC02EF03BC02FF03CC030F0F3
:1006F8003DC031F0000E336E030E326EEFEC06F0A3
:100708000300ACEC11F093EF03F03AC01CF03BC0CF
:100718001DF03CC01EF03DC01FF0FCEC0CF01200B8
:100728001450800B216E14501424286E13AE9FEFC2
:1007380003F0A1EF03F0A2EF03F028802850D8B40B
:10074800A8EF03F0AAEF03F0BFEF03F02828D8A41E
:10075800B0EF03F0B2EF03F0BAEF03F0000E116E42
:10076800000E126E000E136E000E146E138E000E25
:10077800146EC7EF03F0000E116E000E126E000E1D
:10078800136E000E146E1850800B211A185018247E
:10079800296E17AED2EF03F0D4EF03F0D5EF03F0D4
:1007A80029802950D8B4DBEF03F0DDEF03F0F2EF36
:1007B80003F02928D8A4E3EF03F0E5EF03F0EDEF09
:1007C80003F0000E156E000E166E000E176E000E6A
:1007D800186E178E000E186EFAEF03F0000E156EE5
:1007E800000E166E000E176E000E186E15501610BD
:1007F80017101810D8A403EF04F005EF04F01DEF4C
:1008080004F0000E116E000E126E000E136E000E34
:10081800146E800E13127F0E14122150141211C080
:1008280011F012C012F013C013F014C014F060EFEE
:1008380005F02850D8A423EF04F025EF04F02FEF9B
:1008480004F0000E116E000E126E000E136E000EF4
:10085800146E60EF05F0295028C019F01A6A195E65
:10086800000E1A5A7F0E1924226E000E1A20236ECB
:1008780011C01DF012C01EF013C01FF014C020F0EC
:10088800000E116E000E126E000E136E000E146E26
:10089800000E246E000E256E000E266E000E276ECA
:1008A800000E296E90EF04F02950D8B45EEF04F0E2
:1008B80060EF04F077EF04F0D8901D361E361F362F
:1008C8002036D890113612361336143627AE6FEF0D
:1008D80004F071EF04F072EF04F01180D890243620
:1008E80025362636273615501D5C16501E581750CB
:1008F8001F5818502058D8A084EF04F086EF04F051
:100908008FEF04F0278C15501D5E16501E5A175095
:100918001F5A1850205A292A190E296496EF04F0F4
:1009280098EF04F058EF04F01D501E101F1020100F
:10093800D8B4A1EF04F0A3EF04F0BBEF04F02480D7
:10094800BBEF04F0D890113612361336143627AEA2
:10095800B0EF04F0B2EF04F0B3EF04F01180D890D8
:1009680024362536263627362206D8A0230613AE87
:10097800C0EF04F0C2EF04F0A6EF04F0000E296EF9
:1009880027AEC9EF04F0CBEF04F0EFEF04F0FF0E51
:100998002414196EFF0E25141A6EFF0E26141B6EF2
:1009A8007F0E27141C6E19501A101B101C10D8B477
:1009B800E0EF04F0E2EF04F0E6EF04F0010E296E38
:1009C800EFEF04F011A0EBEF04F0EDEF04F0EFEF20
:1009D80004F0E2EF04F02950D8B4F5EF04F0F7EF93
:1009E80004F01BEF05F0010E1126000E122213224F
:1009F800142214A002EF05F004EF05F01BEF05F038
:100A080011C019F012C01AF013C01BF014C01CF06A
:100A18001C341C321B321A32193219C011F01AC098
:100A280012F01BC013F01CC014F0224A232A23BE64
:100A380026EF05F0235008E12228D8A026EF05F07C
:100A480028EF05F033EF05F0000E236E2268000E44
:100A5800116E000E126E000E136E000E146E23BE81
:100A680040EF05F0235006E12204D8B03EEF05F030
:100A780040EF05F04EEF05F0000E236E000E226EDB
:100A8800000E116E000E126E000E136E000E146E24
:100A9800000E216E22C028F028A055EF05F057EF70
:100AA80005F05AEF05F0138E5BEF05F0139ED89012
:100AB8002830146E11EF04F0120028C01CF029C071
:100AC8001DF02AC01EF02BC01FF07BEC0CF0290E85
:100AD8002F6E960E2E6E7F0EE82EFED72E2EFCD78A
:100AE8002F2EFAD700F028C016F029C017F02AC018
:100AF80018F02BC019F0E6EC0DF0290E2F6E960EAB
:100B08002E6E7F0EE82EFED72E2EFCD72F2EFAD76C
:100B180000F02C042D10D8A494EF05F096EF05F002
:100B2800B2EF05F028C01CF029C01DF02AC01EF045
:100B38002BC01FF0000E216E020E206E58C022F04E
:100B480059C023F020EC0AF028C016F029C017F08D
:100B58002AC018F02BC019F0E6EC0DF0020E2C1884
:100B68002D10D8A4BAEF05F0BCEF05F0D8EF05F0CA
:100B780028C01CF029C01DF02AC01EF02BC01FF091
:100B8800000E216E020E206E5AC022F05BC023F0C8
:100B9800BEEC0AF028C016F029C017F02AC018F0D9
:100BA8002BC019F0E6EC0DF0030E2C182D10D8A46C
:100BB800E0EF05F0E2EF05F0FEEF05F028C01CF0CD
:100BC80029C01DF02AC01EF02BC01FF0000E216E98
:100BD800040E206E58C022F059C023F020EC0AF011
:100BE80028C016F029C017F02AC018F02BC019F039
:100BF800E6EC0DF0040E2C182D10D8A406EF06F024
:100C080008EF06F050EF06F028C01CF029C01DF0D0
:100C18002AC01EF02BC01FF071EC0DF04A0E2F6E8B
:100C28000E0E2E6E190EE82EFED72E2EFCD72F2E66
:100C3800FAD700F028C016F029C017F02AC018F01B
:100C48002BC019F0E6EC0DF0290E2F6E960E2E6EC5
:100C58007F0EE82EFED72E2EFCD72F2EFAD700F0C7
:100C680028C01CF029C01DF02AC01EF02BC01FF0A0
:100C7800000E216E020E206E58C022F059C023F0DB
:100C880020EC0AF028C016F029C017F02AC018F086
:100C98002BC019F0E6EC0DF0050E2C182D10D8A479
:100CA80058EF06F05AEF06F0A2EF06F028C01CF045
:100CB80029C01DF02AC01EF02BC01FF071EC0DF0EA
:100CC8004A0E2F6E0E0E2E6E190EE82EFED72E2E01
:100CD800FCD72F2EFAD700F028C016F029C017F03D
:100CE8002AC018F02BC019F0E6EC0DF0290E2F6E73
:100CF800960E2E6E7F0EE82EFED72E2EFCD72F2EA8
:100D0800FAD700F028C01CF029C01DF02AC01EF038
:100D18002BC01FF0000E216E020E206E5AC022F06A
:100D28005BC023F0BEEC0AF028C016F029C017F00B
:100D38002AC018F02BC019F0E6EC0DF0060E2C189E
:100D48002D10D8A4AAEF06F0ACEF06F0C8EF06F015
:100D580028C01CF029C01DF02AC01EF02BC01FF0AF
:100D6800000E216E030E206E58C022F059C023F0E9
:100D780020EC0AF028C016F029C017F02AC018F095
:100D88002BC019F0E6EC0DF0070E2C182D10D8A486
:100D9800D0EF06F0D2EF06F0EEEF06F028C01CF018
:100DA80029C01DF02AC01EF02BC01FF0000E216EB6
:100DB800030E206E5AC022F05BC023F0BEEC0AF08E
:100DC80028C016F029C017F02AC018F02BC019F057
:100DD800E6EC0DF0120032043310D8A4F6EF06F05A
:100DE800F8EF06F014EF07F02EC01CF02FC01DF02E
:100DF80030C01EF031C01FF0000E216E020E206EB2
:100E080058C022F059C023F020EC0AF02EC016F08A
:100E18002FC017F030C018F031C019F0E6EC0DF013
:100E2800020E32183310D8A41CEF07F01EEF07F09B
:100E38003AEF07F02EC01CF02FC01DF030C01EF096
:100E480031C01FF0000E216E020E206E5AC022F033
:100E58005BC023F0BEEC0AF02EC016F02FC017F0CE
:100E680030C018F031C019F0E6EC0DF0030E32185E
:100E78003310D8A442EF07F044EF07F060EF07F013
:100E88002EC01CF02FC01DF030C01EF031C01FF066
:100E9800000E216E040E206E58C022F059C023F0B7
:100EA80020EC0AF02EC016F02FC017F030C018F052
:100EB80031C019F0E6EC0DF0060E32183310D8A444
:100EC80068EF07F06AEF07F086EF07F02EC01CF016
:100ED8002FC01DF030C01EF031C01FF0000E216E73
:100EE800030E206E58C022F059C023F020EC0AF0FF
:100EF8002EC016F02FC017F030C018F031C019F00E
:100F0800E6EC0DF0070E32183310D8A48EEF07F078
:100F180090EF07F0ACEF07F02EC01CF02FC01DF0CB
:100F280030C01EF031C01FF0000E216E030E206E7F
:100F380058C022F059C023F0BEEC0AF02EC016F0BB
:100F48002FC017F030C018F031C019F0E6EC0DF0E2
:100F5800090E32183310D8A4B4EF07F0B6EF07F033
:100F6800C0EF07F02EC028F02FC029F030C02AF0BB
:100F780031C02BF03EEC0EF00A0E32183310D8A414
:100F8800C8EF07F0CAEF07F0D4EF07F02EC028F03B
:100F98002FC029F030C02AF031C02BF087EC0EF0BA
:100FA80012000B6E0B50D8B4DCEF07F0DEEF07F041
:100FB80000EF08F006BEE5EF07F0E3EF07F000EFFB
:100FC80008F003C007F004C008F005C009F006C027
:100FD8000AF0071E081E091E0A1E072A000E08220C
:100FE80009220A2207C00DF008C00EF009C00FF050
:100FF8000AC010F008EF08F003C00DF004C00EF0AE
:1010080005C00FF006C010F00350041005100610BC
:10101800D8A411EF08F013EF08F01DEF08F0000E48
:10102800036E000E046E000E056E000E066EAEEF27
:1010380008F0960E0C6E27EF08F00C2AD8901032A4
:101048000F320E320D32000E0D14076E000E0E1404
:10105800086E000E0F14096EFE0E10140A6E07506B
:10106800081009100A10D8A43CEF08F03EEF08F069
:1010780021EF08F04CEF08F00C2A010E0D26000EA7
:101088000E220F221022D89010320F320E320D325B
:10109800000E0D14076E000E0E14086E000E0F14CD
:1010A800096EFF0E10140A6E0750081009100A1076
:1010B800D8A461EF08F063EF08F040EF08F06BEF99
:1010C80008F00C06D8900D360E360F3610360FBEC7
:1010D80070EF08F072EF08F07AEF08F0020E0C607B
:1010E80078EF08F07AEF08F065EF08F00CB07FEFC2
:1010F80008F081EF08F082EF08F00F9ED8900C32CC
:101108000CC007F0086A096A0A6A07C00AF0096A87
:10111800086A076A07500D1208500E1209500F127C
:101128000A5010120B50D8B49CEF08F09EEF08F04C
:10113800A6EF08F006BEA5EF08F0A3EF08F0A6EFAB
:1011480008F0108E0DC003F00EC004F00FC005F0BB
:1011580010C006F0120059EF09F034C02EF035C067
:101168002FF036C030F037C031F0870E4324D96EE7
:10117800DA6A000EDA22DF50386E3850326E336A7F
:10118800EFEC06F04306150E396E4B0E386EBE0EA8
:10119800E82EFED7382EFCD7392EFAD700D034C027
:1011A8001CF035C01DF036C01EF037C01FF071ECC2
:1011B8000DF0290E396E960E386E7F0EE82EFED78A
:1011C800382EFCD7392EFAD700F034C016F035C0C7
:1011D80017F036C018F037C019F0E6EC0DF0290EFC
:1011E800396E960E386E7F0EE82EFED7382EFCD755
:1011F800392EFAD700F034C01CF035C01DF036C0C7
:101208001EF037C01FF0FCEC0CF05F0E4224D96EC4
:10121800DA6A000EDA22DF50386E3850036E046A3C
:10122800BEEC10F0420634C016F035C017F036C0D8
:1012380018F037C019F0E6EC0DF0110E396E3C0EBF
:10124800386ECB0EE82EFED7382EFCD7392EFAD7BB
:1012580000F034C01CF035C01DF036C01EF037C099
:101268001FF071EC0DF0090E396E1E0E386EE40E8B
:10127800E82EFED7382EFCD7392EFAD700D034C046
:1012880016F035C017F036C018F037C019F0E6EC84
:101298000DF0150E396E4B0E386EBE0EE82EFED7C9
:1012A800382EFCD7392EFAD700D04250D8B45FEF89
:1012B80009F061EF09F069EF09F04350D8A467EF2E
:1012C80009F069EF09F0B1EF08F0120020EE02F022
:1012D8001050D9261150DA22DF50D8B476EF09F031
:1012E80078EF09F0ACEF09F010C0D9FF11C0DAFFB0
:1012F800DF50126E1250036E046A20EE03F0105095
:10130800D9261150DA22DECF05F0DDCF06F041EC08
:1013180011F003C009F004C00AF0000E0C6E640E50
:101328000B6E18EC0FF020EE03F01050D926115078
:10133800DA22DF50136E0950135C146E20EE03F0AE
:101348001050D9261150DA22DF50156ECFEF09F070
:10135800000E146E10C0D9FF11C0DAFFDF50126EF4
:101368001250036E046A20EE03F01050D926115073
:10137800DA22DECF05F0DDCF06F041EC11F003C034
:1013880009F004C00AF0000E0C6E640E0B6E18EC27
:101398000FF00950156E20EE01F01050D9261150AB
:1013A800DA22DF50D8B4DBEF09F0DDEF09F0FFEF08
:1013B80009F020EE05F01050D9261150DA22DECFC0
:1013C80012F0DDCF13F012C0D9FF13C0DAFF14C03A
:1013D800DFFF20EE07F01050D9261150DA22DECFB9
:1013E80012F0DDCF13F012C0D9FF13C0DAFF15C019
:1013F800DFFF1FEF0AF020EE05F01050D92611503C
:10140800DA22DECF12F0DDCF13F012C0D9FF13C0FD
:10141800DAFF15C0DFFF20EE07F01050D926115073
:10142800DA22DECF12F0DDCF13F012C0D9FF13C0DD
:10143800DAFF14C0DFFF12001CC016F01DC017F041
:101448001EC018F01FC019F0E6EC0DF020EE01F0F8
:101458001C50D9261D50DA22010EDF6E20EE01F055
:101468001E50D9261F50DA22000EDF6E8080000E33
:10147800276E000E266EAEEF0AF01CC0D9FF1DC005
:10148800DAFF330EDF604BEF0AF04DEF0AF053EF4F
:101498000AF01CC0D9FF1DC0DAFF0A0EDF261EC0E5
:1014A800D9FF1FC0DAFF330EDF605DEF0AF05FEF90
:1014B8000AF065EF0AF01EC0D9FF1FC0DAFF0A0E56
:1014C800DF261CC010F01DC011F06AEC09F01EC028
:1014D80010F01FC011F06AEC09F0D00E246ECA0E8D
:1014E800E82EFED7242EFCD71CC0D9FF1DC0DAFF7A
:1014F800320EDF6482EF0AF084EF0AF041EF0AF05F
:101508001EC0D9FF1FC0DAFF320EDF648EEF0AF06B
:1015180090EF0AF041EF0AF022C003F023C004F074
:10152800DEEC10F01CC016F01DC017F01EC018F03D
:101538001FC019F0E6EC0DF00D0E256E2D0E246E71
:10154800D80EE82EFED7242EFCD7252EFAD7809069
:10155800264A272A2050265C2750800A246E2150CC
:10156800800A2458D8A0BBEF0AF0BDEF0AF078EF44
:101578000AF012001CC016F01DC017F01EC018F0AB
:101588001FC019F0E6EC0DF020EE01F01C50D92632
:101598001D50DA22000EDF6E20EE01F01E50D92613
:1015A8001F50DA22010EDF6E7E80000E276E000EBD
:1015B800266E4CEF0BF01CC0D9FF1DC0DAFF330EAE
:1015C800DF60E9EF0AF0EBEF0AF0F1EF0AF01CC078
:1015D800D9FF1DC0DAFF0A0EDF261EC0D9FF1FC0C3
:1015E800DAFF330EDF60FBEF0AF0FDEF0AF003EFDE
:1015F8000BF01EC0D9FF1FC0DAFF0A0EDF261CC081
:1016080010F01DC011F06AEC09F01EC010F01FC0E8
:1016180011F06AEC09F0D00E246ECA0EE82EFED73F
:10162800242EFCD71CC0D9FF1DC0DAFF320EDF64A0
:1016380020EF0BF022EF0BF0DFEF0AF01EC0D9FF0E
:101648001FC0DAFF320EDF642CEF0BF02EEF0BF029
:10165800DFEF0AF022C003F023C004F0DEEC10F044
:101668001CC016F01DC017F01EC018F01FC019F0DE
:10167800E6EC0DF00D0E256E2D0E246ED80EE82E1C
:10168800FED7242EFCD7252EFAD77E90264A272A65
:101698002050265C2750800A246E2150800A245846
:1016A800D8A059EF0BF05BEF0BF016EF0BF0120020
:1016B800B6EC0FF007C044F008C045F02EEC10F06F
:1016C80007C046F008C047F0DEEC0FF007C048F04E
:1016D80008C049F006EC10F007C04AF008C04BF00B
:1016E80044C003F045C004F0056A066A000ED5EC54
:1016F80007F003C011F004C012F005C013F006C0D3
:1017080014F04AC003F04BC004F0056A066A000EE4
:10171800D5EC07F003C015F004C016F005C017F0AB
:1017280006C018F094EC03F011C04CF012C04DF054
:1017380013C04EF014C04FF046C003F047C004F089
:10174800056A066A000ED5EC07F003C011F004C064
:1017580012F005C013F006C014F04AC003F04BC0E5
:1017680004F0056A066A000ED5EC07F003C015F010
:1017780004C016F005C017F006C018F094EC03F08A
:1017880011C050F012C051F013C052F014C053F001
:1017980048C003F049C004F0056A066A000ED5EC9B
:1017A80007F003C011F004C012F005C013F006C022
:1017B80014F04AC003F04BC004F0056A066A000E34
:1017C800D5EC07F003C015F004C016F005C017F0FB
:1017D80006C018F094EC03F011C054F012C055F094
:1017E80013C056F014C057F01200000E03140B6E0D
:1017F800000E04140C6E800E05140D6E7F0E061478
:101808000E6E0B500C100D100E10D8A40EEF0CF02D
:1018180010EF0CF018EF0CF0000E036E000E046EC3
:10182800000E056E000E066E000E07140B6E000EFD
:1018380008140C6E800E09140D6E7F0E0A140E6EBD
:101848000B500C100D100E10D8A42DEF0CF02FEF2C
:101858000CF037EF0CF0000E076E000E086E000E4D
:10186800096E000E0A6E06AE3CEF0CF03EEF0CF06F
:1018780047EF0CF0036C041ED8B0042A051ED8B03C
:10188800052A800E06560AAE4CEF0CF04EEF0CF00F
:1018980057EF0CF0076C081ED8B0082A091ED8B0FC
:1018A800092A800E0A56000E031A000E041A000EAA
:1018B800051A800E061A000E071A000E081A000EE6
:1018C800091A800E0A1A0750035C08500458095078
:1018D80005580A500658D8B074EF0CF076EF0CF0A3
:1018E80079EF0CF0D8907AEF0CF0D88012001CC079
:1018F80016F01DC017F01EC018F01FC019F0E6EC56
:101908000DF0808220EE01F01C50D9261D50DA22FD
:10191800000EDF6E20EE01F01E50D9261F50DA228D
:10192800000EDF6E1EC010F01FC011F06AEC09F047
:101938001CC010F01DC011F06AEC09F0C0EF0CF0EB
:101948001CC0D9FF1DC0DAFF0A0EDF261EC0D9FF52
:101958001FC0DAFF0A0EDF261CC010F01DC011F0F0
:101968006AEC09F01EC010F01FC011F06AEC09F013
:101978006A0EE82EFED700D01CC0D9FF1DC0DAFFC2
:101988001E0EDF60CAEF0CF0CCEF0CF0D8EF0CF0B5
:101998001EC0D9FF1FC0DAFF1D0EDF64D6EF0CF0A2
:1019A800D8EF0CF0A4EF0CF01D0E216E690E206E1E
:1019B800A50EE82EFED7202EFCD7212EFAD700F050
:1019C8001CC016F01DC017F01EC018F01FC019F07B
:1019D800E6EC0DF0110E216E3C0E206ECB0EE82EBB
:1019E800FED7202EFCD7212EFAD700F080921200C5
:1019F8001CC016F01DC017F01EC018F01FC019F04B
:101A0800E6EC0DF020EE01F01C50D9261D50DA222C
:101A1800010EDF6E20EE01F01E50D9261F50DA228B
:101A2800010EDF6E7C861EC010F01FC011F06AEC3C
:101A380009F01CC010F01DC011F06AEC09F057EF56
:101A48000DF01CC0D9FF1DC0DAFF330EDF602FEF89
:101A58000DF031EF0DF036EF0DF01CC0D9FF1DC0B1
:101A6800DAFFDF2A1EC0D9FF1FC0DAFF380EDF6099
:101A780040EF0DF042EF0DF047EF0DF01EC0D9FF1B
:101A88001FC0DAFFDF2A1CC010F01DC011F06AEC7D
:101A980009F01EC010F01FC011F06AEC09F01A0E10
:101AA800E82EFED700D01CC0D9FF1DC0DAFF320EC9
:101AB800DF6461EF0DF063EF0DF025EF0DF01EC050
:101AC800D9FF1FC0DAFF370EDF646DEF0DF06FEF3F
:101AD8000DF025EF0DF07C9612001CC016F01DC00D
:101AE80017F01EC018F01FC019F0E6EC0DF020EE3C
:101AF80001F01C50D9261D50DA22000EDF6E20EEB0
:101B080001F01E50D9261F50DA22000EDF6E8082A7
:101B18001EC010F01FC011F06AEC09F01CC010F0D4
:101B28001DC011F06AEC09F0CCEF0DF01CC0D9FF14
:101B38001DC0DAFF330EDF60A4EF0DF0A6EF0DF045
:101B4800ABEF0DF01CC0D9FF1DC0DAFFDF2A1EC0A5
:101B5800D9FF1FC0DAFF380EDF60B5EF0DF0B7EF21
:101B68000DF0BCEF0DF01EC0D9FF1FC0DAFFDF2A51
:101B78001CC010F01DC011F06AEC09F01EC010F076
:101B88001FC011F06AEC09F01A0EE82EFED700D03B
:101B98001CC0D9FF1DC0DAFF320EDF64D6EF0DF08E
:101BA800D8EF0DF09AEF0DF01EC0D9FF1FC0DAFF75
:101BB800370EDF64E2EF0DF0E4EF0DF09AEF0DF071
:101BC8008092120020EE02F01650D9261750DA2221
:101BD800010EDF6E20EE02F01850D9261950DA22D5
:101BE800010EDF6E7C88000E1B6E460E1A6E16C044
:101BF800D9FF17C0DAFF1AC0DFFF18C0D9FF19C014
:101C0800DAFF1AC0DFFF16C010F017C011F06AEC37
:101C180009F018C010F019C011F06AEC09F06A0E4A
:101C2800E82EFED700D0F60E1A241A6EFF0E1B20DF
:101C38001B6E1BBE24EF0EF022EF0EF0FBEF0DF033
:101C480016C0D9FF17C0DAFF000EDF6E18C0D9FF23
:101C580019C0DAFF000EDF6E16C010F017C011F0C1
:101C68006AEC09F018C010F019C011F06AEC09F01C
:101C78007C98120028C01CF029C01DF02AC01EF054
:101C88002BC01FF0000E216E020E206E5AC022F0EB
:101C98005BC023F0BEEC0AF028C016F029C017F08C
:101CA8002AC018F02BC019F0E6EC0DF0110E2D6EBD
:101CB8003C0E2C6ECB0EE82EFED72C2EFCD72D2EEC
:101CC800FAD700F028C01CF029C01DF02AC01EF069
:101CD8002BC01FF071EC0DF04A0E2D6E0E0E2C6EFF
:101CE800190EE82EFED72C2EFCD72D2EFAD700F091
:101CF80028C016F029C017F02AC018F02BC019F018
:101D0800E6EC0DF0120028C01CF029C01DF02AC016
:101D18001EF02BC01FF0000E216E020E206E58C060
:101D280022F059C023F020EC0AF028C016F029C090
:101D380017F02AC018F02BC019F0E6EC0DF0110EC0
:101D48002D6E3C0E2C6ECB0EE82EFED72C2EFCD71B
:101D58002D2EFAD700F028C01CF029C01DF02AC08B
:101D68001EF02BC01FF071EC0DF04A0E2D6E0E0EFA
:101D78002C6E190EE82EFED72C2EFCD72D2EFAD756
:101D880000F028C016F029C017F02AC018F02BC0A0
:101D980019F0E6EC0DF0120085948598839E879CD7
:101DA8007D947D987B9E7F9C050E0E01746F060EB8
:101DB800766F070E696F080E886FBD508F0B40094C
:101DC800BD6EE00EBE16BF50F00B0109BF6E03C01A
:101DD800BCFFBD8E000EAA6E000EA66E000E0F018F
:101DE800256F000E216FFC0EAD16F30EAD16CF0E4B
:101DF800AD163F0EAD16AB88AB50F00B0C09AB6EB1
:101E0800AB8EA788A750F00B0C09A76EA78E268962
:101E18002651F00B0C09266F268F22892251F00BD0
:101E28000C09226F228F1200000E0E6E000E0D6E2E
:101E38000B500C10D8B423EF0FF025EF0FF04DEF37
:101E48000FF0010E0F6E2DEF0FF0D8900B360C36F9
:101E58000F2A0CAE32EF0FF034EF0FF029EF0FF02E
:101E6800D8900D360E360B50095C0C500A58D8A085
:101E780040EF0FF042EF0FF047EF0FF00B50095E05
:101E88000C500A5A0D80D8900C320B320F2E34EFBA
:101E98000FF00DC009F00EC00AF012007CEC10F033
:101EA8008EA459EF0FF05BEF0FF062EF0FF08EB6D4
:101EB80060EF0FF062EF0FF054EF0FF08EB667EFA0
:101EC8000FF069EF0FF087EF0FF0290E0001C76FD1
:101ED800960EC66F7F0EE82EFED7C62FFCD7C72FEB
:101EE800FAD7ACEC11F0BB0E3A6E000E3B6EB20E98
:101EF8003C6E000E3D6E440E3E6E000E3F6E26ECAC
:101F080000F077EF0FF024EF00F0AA0EF66E230E24
:101F1800F76E000EF86E0900F5CFC4F00900F5CF92
:101F2800C5F0A60EF66E230EF76E000EF86E00EEE4
:101F380058F010EE04F00900F5CFEEFFE550E1503F
:101F4800FAE100EE60F0640EEE6AE806FDE100EEEC
:101F580042F0160EEE6AE806FDE15C905C92000124
:101F680052EF0FF0C9EC11F0520EBEEC11F0B60EA4
:101F7800BEEC11F0CEEC11F0530EBEEC11F0010ED8
:101F88009DEC10F0096E09500C6E0D6A000E9DEC68
:101F980010F0096E09500B6E0A6A0C500A100C6E8C
:101FA8000D500B100D6EC4EC11F00CC007F00DC0F5
:101FB80008F01200C9EC11F0520EBEEC11F0B80E88
:101FC800BEEC11F0CEEC11F0530EBEEC11F0010E88
:101FD8009DEC10F0096E09500C6E0D6A000E9DEC18
:101FE80010F0096E09500B6E0A6A0C500A100C6E3C
:101FF8000D500B100D6EC4EC11F00CC007F00DC0A5
:1020080008F01200C9EC11F0520EBEEC11F0B40E3B
:10201800BEEC11F0CEEC11F0530EBEEC11F0010E37
:102028009DEC10F0096E09500C6E0D6A000E9DECC7
:1020380010F0096E09500B6E0A6A0C500A100C6EEB
:102048000D500B100D6EC4EC11F00CC007F00DC054
:1020580008F01200C9EC11F0520EBEEC11F0BA0EE5
:10206800BEEC11F0CEEC11F0530EBEEC11F0010EE7
:102078009DEC10F0096E09500C6E0D6A000E9DEC77
:1020880010F0096E09500B6E0A6A0C500A100C6E9B
:102098000D500B100D6EC4EC11F00CC007F00DC004
:1020A80008F01200000E0001BB6F010EBC6F010E9C
:1020B800BD6FAA0EC06F0F0EC16FA60EC26F0F0EB6
:1020C800C36F000EBF6F630EBE6F000EB26F010EBE
:1020D800B36F010EB46F250EB76F0F0EB86F210ED8
:1020E800B96F0F0EBA6F000EB66F630EB56F1200A0
:1020F800000E046E630E036ED0EC0EF0A1EC11F02E
:1021080054EC11F0BB0E036E000E046EB20E056E99
:10211800000E066E56EC10F018EC11F0FEEC10F004
:1021280084EC11F0B6EC11F064EC11F094EC11F0C1
:102138001200056E2DEC11F00E01DA872DEC11F06E
:10214800D5CE06F02DEC11F00550D8B4AEEF10F056
:10215800B2EF10F0046A042AB3EF10F0046A043AEC
:1021680004460E01DA510418DF0B0418DA6FDA8915
:1021780006501200000E086E000E076ED2EF10F027
:102188000B0E066EA30E056E0A0EE82EFED7052E60
:10219800FCD7062EFAD700D0074A082A0350075C56
:1021A80004500858D8A0DBEF10F0DDEF10F0C4EFB2
:1021B80010F01200000E076E000E066EEEEF10F023
:1021C800150E056EC60EE82EFED7052EFCD700D0DC
:1021D800064A072A0350065C0750800A056E045019
:1021E800800A0558D8A0FBEF10F0FDEF10F0E4EFDF
:1021F80010F0120018EC11F0010E056E000E74ECD0
:1022080011F03F0E076E550EE82EFED7072EFCD7AD
:1022180000F0030E056E000E74EC11F0D50E056E7D
:10222800010E74EC11F012000E01D951F00B0809DF
:10223800D96FD98B9F0ED66F848A848CA79BA79D54
:102248001D0E1D6F1E0E1C6F1C0E6F6F1B0E706F08
:1022580012000E01D8B533EF11F035EF11F02DEF64
:1022680011F0DACE03F01F0E0316D8A43EEF11F0DA
:1022780040EF11F02DEF11F0120003500502F3CFDB
:1022880007F0F4CF08F003500602F3500826045074
:102298000502F350082607C003F008C004F0120036
:1022A80087928198869E7F8279887E8E86840E01A9
:1022B800B4958686B497849E7C9E889680961200F4
:1022C800120E0E01626F110E156F8382E997E89561
:1022D800330EE56F000EE66FE789E88BE78F120093
:1022E800066EC9EC11F0520EBEEC11F006508009D2
:1022F800BEEC11F00550BEEC11F0C4EC11F0120068
:10230800D6501F0B4009D66ED688D650F00B05095B
:10231800D66ED588000ED46E230ED36ED58E1200DD
:10232800868C0E01B48D0F015899FC0E58172E0E8D
:102338005F6F60946088608E120080927C967C98B3
:102348007E908090889284968498869088901200D7
:10235800000E0001B16F000EB06F000ED46E230E98
:10236800D36E12000E01298B339B1F9BF28AF28CCD
:10237800F28E1200046E2DEC11F004C0D5FE12008E
:102388002DEC11F00E01DA8512002DEC11F00E0182
:10239800DA8112002DEC11F00E01DA8312006000D0
:0423A8006200C40902
:020000040020DA
:10000000FF0FFF0FFF0FFF0FFF0FFF0FFF0FFF0F80
:020000040030CA
:0C000000AAFFFFFF9FFFFFFFFFFFFFFFB5
:00000001FF
