:040000003BEF00F0E2
:100008005B82D9CF03F0DACF04F00E0137A70FEFE8
:1000180000F011EF00F014EF00F0E3518CEC0DF05C
:100028000E0137A51AEF00F01CEF00F035EF00F0D5
:100038002DA521EF00F023EF00F035EF00F0E1EC03
:100048000DF0E806D8A42BEF00F02DEF00F033EF09
:1000580000F061EC0DF00E01E46F35EF00F00E01D9
:100068002D9504C0DAFF03C0D9FF5B92110030EF71
:020078000DF089
:100E00000025642F2F25642F2F25642F2F256400A4
:010E100000E1
:100E120022C038F023C039F024C03AF025C03BF09C
:100E220026C03CF027C03DF028C03EF029C03FF06C
:100E32003FBE1EEF07F021EF07F0010E22EF07F091
:100E4200000E406E4050D8B429EF07F02BEF07F0A8
:100E52003BEF07F03F1E3E1E3D1E3C1E3B1E3A1E50
:100E6200391E386C000E39223A223B223C223D22A6
:100E72003E223F220001D8BF49EF07F0D85106E1D8
:100E8200D705D8B047EF07F049EF07F04FEF07F06B
:100E9200000E356E010E346E53EF07F0D7C034F0FA
:100EA200D8C035F0D5C036F0D6C037F04050D8B4EF
:100EB2005DEF07F05FEF07F076EF07F03606D8A098
:100EC20037064050D8A468EF07F06AEF07F070EFDA
:100ED20007F0000E336E2B0E326E74EF07F0000E29
:100EE200336E2D0E326E32C040F0000E426E1F0E77
:100EF200416E000EF96FFAEF07F04106D8A04206E4
:100F0200DA0E4124D96E000E4220DA6E38C005F0A6
:100F120039C006F03AC007F03BC008F03CC009F007
:100F22003DC00AF03EC00BF03FC00CF00A0E0D6E41
:100F3200000E0E6E000E0F6E000E106E000E116E81
:100F4200000E126E000E136E000E146E0BEC09F002
:100F520005C02AF006C02BF007C02CF008C02DF007
:100F620009C02EF00AC02FF00BC030F00CC031F0D7
:100F72002AC017F02BC018F0F6EC0CF01750300F07
:100F8200DF6E3406D8A035063606D8A0370638C03C
:100F920005F039C006F03AC007F03BC008F03CC08B
:100FA20009F03DC00AF03EC00BF03FC00CF00A0E43
:100FB2000D6E000E0E6E000E0F6E000E106E000E05
:100FC200116E000E126E000E136E000E146E47ECC0
:100FD20008F005C038F006C039F007C03AF008C082
:100FE2003BF009C03CF00AC03DF00BC03EF00CC023
:100FF2003FF042BE05EF08F0425008E14104D8A09C
:1010020005EF08F007EF08F023EF08F03850391029
:101012003A103B103C103D103E103F10D8A414EF84
:1010220008F016EF08F07EEF07F035BE23EF08F068
:10103200355006E13404D8B021EF08F023EF08F070
:101042007EEF07F04050D8B429EF08F02BEF08F0FC
:1010520036EF08F04106D8A04206DA0E4124D96ED6
:10106200000E4220DA6E40C0DFFF20C015F021C022
:1010720016F0DA0E4124176E000E4220186E36C0AA
:1010820019F037C01AF085EC0BF01200000E166E44
:1010920014BE50EF08F04EEF08F062EF08F0141E95
:1010A200131E121E111E101E0F1E0E1E0D6C000EA0
:1010B2000E220F2210221122122213221422010EBA
:1010C200166E0CBE69EF08F067EF08F07BEF08F0D0
:1010D2000C1E0B1E0A1E091E081E071E061E056C8C
:1010E200000E06220722082209220A220B220C22C3
:1010F200010E161A20EE17F0070EDE6AE806FDE270
:101102000D500E100F101010111012101310141099
:10111200D8B48EEF08F090EF08F0E2EF08F0010E7D
:10112200156E9EEF08F0D8900D360E360F3610363B
:101132001136123613361436152A14AEA3EF08F000
:10114200A5EF08F094EF08F0D89017361836193644
:101152001A361B361C361D361E360D50055C0E50D7
:1011620006580F500758105008581150095812507D
:101172000A5813500B5814500C58D8A0C3EF08F05B
:10118200C5EF08F0D6EF08F00D50055E0E50065A76
:101192000F50075A1050085A1150095A12500A5A41
:1011A20013500B5A14500C5A1780D8901432133221
:1011B2001232113210320F320E320D32152EA5EFCD
:1011C20008F01650D8B4E8EF08F0EAEF08F0FAEFAA
:1011D20008F01E1E1D1E1C1E1B1E1A1E191E181E86
:1011E200176C000E182219221A221B221C221D2201
:1011F2001E2217C005F018C006F019C007F01AC069
:1012020008F01BC009F01CC00AF01DC00BF01EC084
:101212000CF01200000E166E0CBE14EF09F012EF65
:1012220009F026EF09F00C1E0B1E0A1E091E081EED
:10123200071E061E056C000E06220722082209223E
:101242000A220B220C22010E166E14BE2DEF09F09B
:101252002BEF09F03DEF09F0141E131E121E111E92
:10126200101E0F1E0E1E0D6C000E0E220F221022DB
:1012720011221222132214220D500E100F101010E0
:101282001110121013101410D8B44AEF09F04CEFD9
:1012920009F094EF09F0010E156E5AEF09F0D8909B
:1012A2000D360E360F361036113612361336143608
:1012B200152A14AE5FEF09F061EF09F050EF09F063
:1012C2000D50055C0E5006580F5007581050085824
:1012D2001150095812500A5813500B5814500C58F8
:1012E200D8A076EF09F078EF09F088EF09F00D50F9
:1012F200055E0E50065A0F50075A1050085A1150E8
:10130200095A12500A5A13500B5A14500C5AD890B8
:10131200143213321232113210320F320E320D32B7
:10132200152E61EF09F01650D8B49AEF09F09CEF30
:1013320009F0ACEF09F00C1E0B1E0A1E091E081E56
:10134200071E061E056C000E06220722082209222D
:101352000A220B220C2205C005F006C006F007C0C7
:1013620007F008C008F009C009F00AC00AF00BC073
:101372000BF00CC00CF0120045C0D9FF46C0DAFFDA
:10138200DECFF6FFDDCFF7FF0800F550250AD8A41F
:10139200CDEF09F0CFEF09F04FEF0AF045C0D9FFCA
:1013A20046C0DAFFDE2A000EDD22000E0001D66FF3
:1013B200000ED56FD5C0D9F0D769D86945C0D9FF1D
:1013C20046C0DAFFDECF53F0DDCF54F053C0F6FF54
:1013D20054C0F7FF0800F550640AD8B4F3EF09F0DF
:1013E200F5EF09F003EF0AF053C0F6FF54C0F7FF20
:1013F2000800F550690AD8A401EF0AF003EF0AF0D9
:1014020046EF0AF047C0D9FF48C0DAFFDFCF49F004
:10141200020EDE26DFCF4AF0000EDD2249C0D9FFE0
:101422004AC0DAFFDECF4BF0DDCF4CF0000E4CBEEF
:10143200FF0E4D6E4E6E4F6E506E516E526E010E1D
:101442005324496E000E54204A6E45C0D9FF46C04F
:10145200DAFF49C0DEFF4AC0DDFF43C020F044C0CE
:1014620021F04BC022F04CC023F04DC024F04EC0FE
:1014720025F04FC026F050C027F051C028F052C0CE
:1014820029F009EC07F063EF0AF045C0D9FF46C026
:10149200DAFFDE2A000EDD2263EF0AF045C0D9FF33
:1014A20046C0DAFFDECFF6FFDDCFF7FF0800F550CA
:1014B200056E066A43C007F044C008F0D8EC0AF093
:1014C20046EF0AF01200000E066E630E056E3DEC4A
:1014D2000BF0000E0001AF6F010EB06F010EB16F85
:1014E200AA0EB46F0F0EB56FA60EB66F0F0EB76FC2
:1014F200000EB36F630EB26F000EB86F010EB96FBC
:10150200010EBA6F250EBD6F0F0EBE6F210EBF6F9B
:101512000F0EC06F000EBC6F630EBB6F16EC0DF0AA
:1015220077EC0DF0B5EC0DF0F3EC0DF087928198AD
:10153200869E7F8279887E8E13EC0CF009C0A7F01C
:101542000AC0A8F08BEC0CF009C0A9F00AC0AAF0FE
:101552003BEC0CF009C0ABF00AC0ACF063EC0CF051
:1015620009C0ADF00AC0AEF07F0E0001666F000E3A
:10157200676F010E686F0E0E696FA7C06AF0A8C090
:101582006BF0A9C06CF0AAC06DF0ABC06EF0ACC03D
:101592006FF0ADC070F0AEC071F0C2EC0BF07F0E18
:1015A200066E000E076E49EC0DF03BEF00F007509F
:1015B2000810D8B4DFEF0AF0E1EF0AF0EAEF0AF020
:1015C20007500810D8A4E8EF0AF0EAEF0AF0EFEFAC
:1015D2000AF0055008EC0EF03CEF0BF020EE09F09B
:1015E2000750D9260850DA22DE50DE10D8B4FCEFBC
:1015F2000AF0FEEF0AF019EF0BF020EE09F00750A7
:10160200D9260850DA2210EE03F00750E1260850DE
:10161200E222DE50E65CE650800A0D6EDE50800A61
:101622000D58D8B017EF0BF019EF0BF03CEF0BF0A1
:1016320020EE03F00750D9260850DA22DECF09F057
:10164200DDCF0AF007C0D9FF08C0DAFFDECF0BF00A
:10165200DDCF0CF009500B24D96E0A500C20DA6E43
:1016620005C0DFFF20EE03F00750D9260850DA222A
:10167200DE2A000EDD22120085948598839E879CC7
:101682007D947D987B9E7F9C050E0E01746F060EE5
:10169200766F070E696F080E886FBD508F0B400979
:1016A200BD6EE00EBE16BF50F00B0109BF6E05C045
:1016B200BCFFBD8E000EAA6E000EA66E000E0F01BC
:1016C200256F000E216FFC0EAD16F30EAD16CF0E78
:1016D200AD163F0EAD16AB88AB50F00B0C09AB6EDE
:1016E200AB8EA788A750F00B0C09A76EA78E268990
:1016F2002651F00B0C09266F268F22892251F00BFE
:101702000C09226F228F12001ABE8AEF0BF08CEFA7
:101712000BF092EF0BF019C01EF01AC01FF096EFFB
:101722000BF0000E1F6E000E1E6E000E1D6E000EE0
:101732001C6EA8EF0BF0000E066E200E056E15C093
:1017420007F016C008F0D8EC0AF01C4A1D2A1E50F9
:101752001C5C1D50800A1B6E1F50800A1B58D8A0AB
:10176200B5EF0BF0B7EF0BF09CEF0BF017C00EF0DC
:1017720018C00FF015C010F016C011F0B3EC0CF049
:1017820012006A0E0001726F000E736F66C074F071
:1017920067C075F0000E786F000E776F000E7E6FD7
:1017A200000E7D6F740E606F000E616F68C062F094
:1017B20069C063F0720E646F000E656FEBEC0BF0A4
:1017C200000177516625D96E78516721DA6E000ED5
:1017D200DF6E120062C055F063C056F0FFEF0BF0EF
:1017E20060C043F061C044F0550E456E000E466E77
:1017F20064C047F065C048F0BDEC09F055C0F6FF83
:1018020056C0F7FF0800F5500009D8A40BEF0CF002
:101812000DEF0CF0F1EF0BF0000E0001616F000E06
:10182200606F120003EC0EF0520EEDEC0DF0B60EEE
:10183200EDEC0DF0F9EC0DF0530EEDEC0DF0010EA8
:10184200D5EC0CF00B6E0B500E6E0F6A000ED5EC41
:101852000CF00B6E0B500D6E0C6A0E500C100E6ECF
:101862000F500D100F6EFEEC0DF00EC009F00FC000
:101872000AF0120003EC0EF0520EEDEC0DF0B80E71
:10188200EDEC0DF0F9EC0DF0530EEDEC0DF0010E58
:10189200D5EC0CF00B6E0B500E6E0F6A000ED5ECF1
:1018A2000CF00B6E0B500D6E0C6A0E500C100E6E7F
:1018B2000F500D100F6EFEEC0DF00EC009F00FC0B0
:1018C2000AF0120003EC0EF0520EEDEC0DF0B40E25
:1018D200EDEC0DF0F9EC0DF0530EEDEC0DF0010E08
:1018E200D5EC0CF00B6E0B500E6E0F6A000ED5ECA1
:1018F2000CF00B6E0B500D6E0C6A0E500C100E6E2F
:101902000F500D100F6EFEEC0DF00EC009F00FC05F
:101912000AF0120003EC0EF0520EEDEC0DF0BA0ECE
:10192200EDEC0DF0F9EC0DF0530EEDEC0DF0010EB7
:10193200D5EC0CF00B6E0B500E6E0F6A000ED5EC50
:101942000CF00B6E0B500D6E0C6A0E500C100E6EDE
:101952000F500D100F6EFEEC0DF00EC009F00FC00F
:101962000AF01200000E146E000E136EC4EF0CF09B
:1019720012C005F0066A10C007F011C008F0D8ECDA
:101982000AF0134A142A13500E24D96E14500F2051
:10199200DA6EDF50126E1250D8A4D2EF0CF0D4EFF0
:1019A2000CF0B9EF0CF01200076EA1EC0DF00E0175
:1019B200DA87A1EC0DF0D5CE08F0A1EC0DF00750BE
:1019C200D8B4E6EF0CF0EAEF0CF0066A062AEBEF69
:1019D2000CF0066A063A06460E01DA510618DF0BCB
:1019E2000618DA6FDA890850120018BE03EF0DF0FC
:1019F200185006E11704D8B001EF0DF003EF0DF017
:101A020011EF0DF017C019F018C01AF0191E1A1EA6
:101A1200194A1A2A19C017F01AC018F015EF0DF05A
:101A220017C017F018C018F0120077EC0DF0010E75
:101A3200076E000EC5EC0DF03F0E096E550EE82E36
:101A4200FED7092EFCD700F0030E076E000EC5EC80
:101A52000DF0D50E076E010EC5EC0DF0120001EE71
:101A620000F03C0EEE6AE806FDE100EEC1F0390E30
:101A7200EE6AE806FDE15A6A596A586A576A5B904B
:101A82005B92000EF86E0E0EF76E000164EF0AF024
:101A920054EF0DF006C0D9FF07C0DAFFDF50D5ECD6
:101AA2000DF0064A072A06C0D9FF07C0DAFFDF5049
:101AB200D8A45EEF0DF060EF0DF04BEF0DF01200C9
:101AC2003B0E576467EF0DF069EF0DF06BEF0DF011
:101AD200000E576E572A5704016E026A000E012447
:101AE200D96E010E0220DA6EDF5012000E01D951BA
:101AF200F00B0809D96FD98B9F0ED66F848A848C1C
:101B0200A79BA79D1D0E1D6F1E0E1C6F1C0E6F6FD7
:101B12001B0E706F1200016E130E5A6493EF0DF0DC
:101B220095EF0DF097EF0DF0000E5A6EC10E5A248C
:101B3200D96EDA6A000EDA2201C0DFFF5A2A1200D9
:101B42000E01D8B5A7EF0DF0A9EF0DF0A1EF0DF042
:101B5200DACE05F01F0E0516D8A4B2EF0DF0B4EFE1
:101B62000DF0A1EF0DF01200120E0E01626F110EB8
:101B7200156F8382E997E895330EE56F000EE66FE5
:101B8200E789E88BE78F1200086E03EC0EF0520E25
:101B9200EDEC0DF008508009EDEC0DF00750EDEC86
:101BA2000DF0FEEC0DF01200056E0E0137A5DCEF14
:101BB2000DF0DEEF0DF0D6EF0DF005C0E4FE1200E1
:101BC20057505818D8A4E8EF0DF0EBEF0DF0010EC6
:101BD200ECEF0DF0000E1200066EA1EC0DF006C047
:101BE200D5FE1200F28C0E012D872D95F28E120079
:101BF200A1EC0DF00E01DA831200A1EC0DF00E0142
:101C0200DA851200A1EC0DF00E01DA811200120049
:020000040020DA
:10000000FF0FFF0FFF0FFF0FFF0FFF0FFF0FFF0F80
:020000040030CA
:0C000000AAFFFFFF9FFFFFFFFFFFFFFFB5
:00000001FF
