:0400000012EF00F00B
:1000080058820E0133A10BEF00F00DEF00F010EF56
:1000180000F0010E426E33915892110011EF0EF06C
:10002800440E0C6E000E0D6EBCEC0DF0440E286EE6
:10003800000E296EBDEC08F04A503A5C4B503B5814
:10004800D8B029EF00F02BEF00F0AAEF02F032C091
:1000580014F033C015F034C016F035C017F0A6EC14
:100068000BF0290E396E960E386E7F0EE82EFED7ED
:10007800382EFCD7392EFAD700F0440E0C6E000E3D
:100088000D6EBCEC0DF0440E286E000E296EBDEC12
:1000980008F0290E396E960E386E7F0EE82EFED7C0
:1000A800382EFCD7392EFAD700F0B80E016E1E0E86
:1000B800026E450E036E3F0E046E4CC005F04DC037
:1000C80006F04EC007F04FC008F0E6EC09F0D8B0D3
:1000D80070EF00F072EF00F0B2EF00F050C001F0E6
:1000E80051C002F052C003F053C004F0EC0E056E8C
:1000F800510E066E380E076E3E0E086EE6EC09F0DD
:10010800D8B089EF00F08BEF00F0B2EF00F054C0E8
:1001180001F055C002F056C003F057C004F0290E94
:10012800056E5C0E066E0F0E076E3E0E086EE6EC50
:1001380009F0D8B0A2EF00F0A4EF00F0B2EF00F0A1
:1001480032C024F033C025F034C026F035C027F083
:10015800000E296E010E286E84EC04F050C001F0E8
:1001680051C002F052C003F053C004F0000E056EF7
:10017800000E066E800E076E3E0E086EE6EC09F065
:10018800D8B0C9EF00F0CBEF00F0F2EF00F0CD0EE1
:10019800016ECC0E026ECC0E036E3E0E046E54C081
:1001A80005F055C006F056C007F057C008F0E6EC59
:1001B80009F0D8B0E2EF00F0E4EF00F0F2EF00F061
:1001C80032C024F033C025F034C026F035C027F003
:1001D800000E296E020E286E84EC04F04CC001F06B
:1001E8004DC002F04EC003F04FC004F05C0E056E27
:1001F8008F0E066EC20E076E3E0E086EE6EC09F014
:10020800D8B009EF01F00BEF01F04BEF01F00A0E47
:10021800016ED70E026EA30E036E3E0E046E50C022
:1002280005F051C006F052C007F053C008F0E6ECE4
:1002380009F0D8B022EF01F024EF01F04BEF01F004
:100248007B0E016E140E026EAE0E036E3E0E046E31
:1002580054C005F055C006F056C007F057C008F066
:10026800E6EC09F0D8B03BEF01F03DEF01F04BEFC1
:1002780001F032C024F033C025F034C026F035C078
:1002880027F0000E296E030E286E84EC04F0B80ED9
:10029800016E1E0E026E050E036E3F0E046E4CC0FC
:1002A80005F04DC006F04EC007F04FC008F0E6EC70
:1002B80009F0D8B062EF01F064EF01F08BEF01F0C4
:1002C8000A0E016ED70E026EA30E036E3E0E046E6A
:1002D80054C005F055C006F056C007F057C008F0E6
:1002E800E6EC09F0D8B07BEF01F07DEF01F08BEF81
:1002F80001F032C024F033C025F034C026F035C0F8
:1003080027F0000E296E040E286E84EC04F0000E0F
:10031800016E000E026E000E036E3F0E046E4CC09E
:1003280005F04DC006F04EC007F04FC008F0E6ECEF
:1003380009F0D8B0A2EF01F0A4EF01F0E4EF01F06A
:100348008F0E016EC20E026E750E036E3E0E046EA7
:1003580050C005F051C006F052C007F053C008F075
:10036800E6EC09F0D8B0BBEF01F0BDEF01F0E4EF27
:1003780001F054C001F055C002F056C003F057C058
:1003880004F0C30E056EF50E066EA80E076E3E0E3F
:10039800086EE6EC09F0D8B0D4EF01F0D6EF01F022
:1003A800E4EF01F032C024F033C025F034C026F069
:1003B80035C027F0000E296E050E286E84EC04F077
:1003C8009A0E016E990E026E190E036E3F0E046EA0
:1003D8004CC005F04DC006F04EC007F04FC008F005
:1003E800E6EC09F0D8B0FBEF01F0FDEF01F03DEFCE
:1003F80002F050C001F051C002F052C003F053C0E7
:1004080004F0AE0E056E470E066E610E076E3E0EC8
:10041800086EE6EC09F0D8B014EF02F016EF02F01F
:100428003DEF02F01F0E016E850E026E6B0E036E1D
:100438003E0E046E54C005F055C006F056C007F0D5
:1004480057C008F0E6EC09F0D8B02DEF02F02FEF16
:1004580002F03DEF02F032C024F033C025F034C082
:1004680026F035C027F0000E296E060E286E84ECA3
:1004780004F04CC001F04DC002F04EC003F04FC074
:1004880004F0CD0E056ECC0E066ECC0E076E3E0E39
:10049800086EE6EC09F0D8B054EF02F056EF02F01F
:1004A80096EF02F09A0E016E990E026E990E036E87
:1004B8003E0E046E50C005F051C006F052C007F061
:1004C80053C008F0E6EC09F0D8B06DEF02F06FEF1A
:1004D80002F096EF02F0CD0E016ECC0E026ECC0E3D
:1004E800036E3E0E046E54C005F055C006F056C0AB
:1004F80007F057C008F0E6EC09F0D8B086EF02F034
:1005080088EF02F096EF02F032C024F033C025F0F5
:1005180034C026F035C027F0000E296E070E286E6D
:1005280084EC04F04CC001F04DC002F04EC003F062
:100538004FC004F0000E056E000E066E000E076E2A
:100548003F0E086EE6EC09F0B4EF02F032C01AF084
:1005580033C01BF034C01CF035C01DF047EC0BF065
:10056800000E426E12001250800B1F6E12501224A1
:10057800266E11AEC2EF02F0C4EF02F0C5EF02F032
:1005880026802650D8B4CBEF02F0CDEF02F0E2EF90
:1005980002F02628D8A4D3EF02F0D5EF02F0DDEF61
:1005A80002F0000E0F6E000E106E000E116E000E9F
:1005B800126E118E000E126EEAEF02F0000E0F6E30
:1005C800000E106E000E116E000E126E1650800B8B
:1005D8001F1A16501624276E15AEF5EF02F0F7EF26
:1005E80002F0F8EF02F027802750D8B4FEEF02F0AF
:1005F80000EF03F015EF03F02728D8A406EF03F067
:1006080008EF03F010EF03F0000E136E000E146EE7
:10061800000E156E000E166E158E000E166E1DEF6E
:1006280003F0000E136E000E146E000E156E000E11
:10063800166E1350141015101610D8A426EF03F0D8
:1006480028EF03F040EF03F0000E0F6E000E106E5F
:10065800000E116E000E126E800E11127F0E121215
:100668001F5012120FC00FF010C010F011C011F07F
:1006780012C012F083EF04F02650D8A446EF03F01E
:1006880048EF03F052EF03F0000E0F6E000E106EED
:10069800000E116E000E126E83EF04F0275026C074
:1006A80017F0186A175E000E185A7F0E1724206E6E
:1006B800000E1820216E0FC01BF010C01CF011C0D6
:1006C8001DF012C01EF0000E0F6E000E106E000E10
:1006D800116E000E126E000E226E000E236E000EBA
:1006E800246E000E256E000E276EB3EF03F0275020
:1006F800D8B481EF03F083EF03F09AEF03F0D890BA
:100708001B361C361D361E36D8900F36103611365D
:10071800123625AE92EF03F094EF03F095EF03F055
:100728000F80D890223623362436253613501B5C8A
:1007380014501C5815501D5816501E58D8A0A7EF15
:1007480003F0A9EF03F0B2EF03F0258C13501B5E02
:1007580014501C5A15501D5A16501E5A272A190E85
:100768002764B9EF03F0BBEF03F07BEF03F01B50F6
:100778001C101D101E10D8B4C4EF03F0C6EF03F010
:10078800DEEF03F02280DEEF03F0D8900F3610364C
:100798001136123625AED3EF03F0D5EF03F0D6EFBE
:1007A80003F00F80D89022362336243625362006CB
:1007B800D8A0210611AEE3EF03F0E5EF03F0C9EF8F
:1007C80003F0000E276E25AEECEF03F0EEEF03F01A
:1007D80012EF04F0FF0E2214176EFF0E2314186E8A
:1007E800FF0E2414196E7F0E25141A6E1750181058
:1007F80019101A10D8B403EF04F005EF04F009EF4C
:1008080004F0010E276E12EF04F00FA00EEF04F0B3
:1008180010EF04F012EF04F005EF04F02750D8B4FD
:1008280018EF04F01AEF04F03EEF04F0010E0F2663
:10083800000E10221122122212A025EF04F027EF39
:1008480004F03EEF04F00FC017F010C018F011C00C
:1008580019F012C01AF01A341A3219321832173233
:1008680017C00FF018C010F019C011F01AC012F01C
:10087800204A212A21BE49EF04F0215008E120280E
:10088800D8A049EF04F04BEF04F056EF04F0000E47
:10089800216E2068000E0F6E000E106E000E116E95
:1008A800000E126E21BE63EF04F0215006E1200411
:1008B800D8B061EF04F063EF04F071EF04F0000EBC
:1008C800216E000E206E000E0F6E000E106E000ED0
:1008D800116E000E126E000E1F6E20C026F026A0AC
:1008E80078EF04F07AEF04F07DEF04F0118E7EEFDC
:1008F80004F0119ED8902630126E34EF03F01200E7
:1009080024C01AF025C01BF026C01CF027C01DF01B
:1009180068EC0AF0290E2B6E960E2A6E7F0EE82ED2
:10092800FED72A2EFCD72B2EFAD700F024C014F0BD
:1009380025C015F026C016F027C017F0A6EC0BF05E
:10094800290E2B6E960E2A6E7F0EE82EFED72A2EC3
:10095800FCD72B2EFAD700F028042910D8A4B7EF1B
:1009680004F0B9EF04F0D1EF04F024C01AF025C068
:100978001BF026C01CF027C01DF0000E1F6E020ED3
:100988001E6E26EC08F024C014F025C015F026C011
:1009980016F027C017F0A6EC0BF0020E2818291045
:1009A800D8A4D9EF04F0DBEF04F0F3EF04F024C08F
:1009B8001AF025C01BF026C01CF027C01DF0000E41
:1009C8001F6E020E1E6E86EC07F024C014F025C0C0
:1009D80015F026C016F027C017F0A6EC0BF0030E92
:1009E80028182910D8A4FBEF04F0FDEF04F015EF48
:1009F80005F024C01AF025C01BF026C01CF027C043
:100A08001DF0000E1F6E040E1E6E26EC08F024C0AA
:100A180014F025C015F026C016F027C017F0A6EC74
:100A28000BF0040E28182910D8A41DEF05F01FEFAD
:100A380005F063EF05F024C01AF025C01BF026C0AE
:100A48001CF027C01DF0E8EC0AF0210E2B6E780E82
:100A58002A6E980EE82EFED72A2EFCD72B2EFAD710
:100A680000D024C014F025C015F026C016F027C009
:100A780017F0A6EC0BF0290E2B6E960E2A6E7F0E41
:100A8800E82EFED72A2EFCD72B2EFAD700F024C04A
:100A98001AF025C01BF026C01CF027C01DF0000E60
:100AA8001F6E020E1E6E26EC08F024C014F025C03E
:100AB80015F026C016F027C017F0A6EC0BF0050EAF
:100AC80028182910D8A46BEF05F06DEF05F0B1EFE9
:100AD80005F024C01AF025C01BF026C01CF027C062
:100AE8001DF0E8EC0AF0210E2B6E780E2A6E980E97
:100AF800E82EFED72A2EFCD72B2EFAD700D024C0FA
:100B080014F025C015F026C016F027C017F0A6EC83
:100B18000BF0290E2B6E960E2A6E7F0EE82EFED74E
:100B28002A2EFCD72B2EFAD700F024C01AF025C0A5
:100B38001BF026C01CF027C01DF0000E1F6E020E11
:100B48001E6E86EC07F024C014F025C015F026C0F0
:100B580016F027C017F0A6EC0BF0060E281829107F
:100B6800D8A4B9EF05F0BBEF05F0D3EF05F024C02A
:100B78001AF025C01BF026C01CF027C01DF0000E7F
:100B88001F6E030E1E6E26EC08F024C014F025C05C
:100B980015F026C016F027C017F0A6EC0BF0070ECC
:100BA80028182910D8A4DBEF05F0DDEF05F0F5EFE4
:100BB80005F024C01AF025C01BF026C01CF027C081
:100BC8001DF0000E1F6E030E1E6E86EC07F024C08B
:100BD80014F025C015F026C016F027C017F0A6ECB3
:100BE8000BF01200096E0950D8B4FDEF05F0FFEFC5
:100BF80005F021EF06F004BE06EF06F004EF06F05C
:100C080021EF06F001C005F002C006F003C007F0AE
:100C180004C008F0051E061E071E081E052A000E41
:100C280006220722082205C00BF006C00CF007C0F8
:100C38000DF008C00EF029EF06F001C00BF002C05D
:100C48000CF003C00DF004C00EF0015002100310A8
:100C58000410D8A432EF06F034EF06F03EEF06F0A9
:100C6800000E016E000E026E000E036E000E046E82
:100C7800CFEF06F0960E0A6E48EF06F00A2AD890D3
:100C88000E320D320C320B32000E0B14056E000EB4
:100C98000C14066E000E0D14076EFE0E0E14086E70
:100CA8000550061007100810D8A45DEF06F05FEF96
:100CB80006F042EF06F06DEF06F00A2A010E0B2649
:100CC800000E0C220D220E22D8900E320D320C325C
:100CD8000B32000E0B14056E000E0C14066E000E7F
:100CE8000D14076EFF0E0E14086E0550061007103F
:100CF8000810D8A482EF06F084EF06F061EF06F042
:100D08008CEF06F00A06D8900B360C360D360E36E8
:100D18000DBE91EF06F093EF06F09BEF06F0020E82
:100D28000A6099EF06F09BEF06F086EF06F00AB02E
:100D3800A0EF06F0A2EF06F0A3EF06F00D9ED89004
:100D48000A320AC005F0066A076A086A05C008F090
:100D5800076A066A056A05500B1206500C120750FE
:100D68000D1208500E120950D8B4BDEF06F0BFEFAF
:100D780006F0C7EF06F004BEC6EF06F0C4EF06F0B3
:100D8800C7EF06F00E8E0BC001F00CC002F00DC0CC
:100D980003F00EC004F0120020EE02F00E50D92627
:100DA8000F50DA22DF50D8B4DCEF06F0DEEF06F0A1
:100DB80012EF07F00EC0D9FF0FC0DAFFDF50106E38
:100DC8001050016E026A20EE03F00E50D9260F5023
:100DD800DA22DECF03F0DDCF04F0FEEC0DF001C027
:100DE80007F002C008F0000E0A6E640E096E81EC6E
:100DF8000CF020EE03F00E50D9260F50DA22DF5007
:100E0800116E0750115C126E20EE03F00E50D926B9
:100E18000F50DA22DF50136E35EF07F0000E126E16
:100E28000EC0D9FF0FC0DAFFDF50106E1050016EF0
:100E3800026A20EE03F00E50D9260F50DA22DECFD8
:100E480003F0DDCF04F0FEEC0DF001C007F002C0A6
:100E580008F0000E0A6E640E096E81EC0CF0075063
:100E6800136E20EE01F00E50D9260F50DA22DF5013
:100E7800D8B441EF07F043EF07F065EF07F020EE35
:100E880005F00E50D9260F50DA22DECF10F0DDCF54
:100E980011F010C0D9FF11C0DAFF12C0DFFF20EE39
:100EA80007F00E50D9260F50DA22DECF10F0DDCF32
:100EB80011F010C0D9FF11C0DAFF13C0DFFF85EFB2
:100EC80007F020EE05F00E50D9260F50DA22DECFBB
:100ED80010F0DDCF11F010C0D9FF11C0DAFF13C038
:100EE800DFFF20EE07F00E50D9260F50DA22DECFB2
:100EF80010F0DDCF11F010C0D9FF11C0DAFF12C019
:100F0800DFFF12001AC014F01BC015F01CC016F049
:100F18001DC017F0A6EC0BF020EE01F01A50D926F0
:100F28001B50DA22000EDF6E20EE01F01C50D9268D
:100F38001D50DA22010EDF6E7E80000E236E000E39
:100F4800226E16EF08F01AC0D9FF1BC0DAFF1F0E79
:100F5800DF60B1EF07F0B3EF07F0B9EF07F01AC0A1
:100F6800D9FF1BC0DAFF0A0EDF261CC0D9FF1DC03F
:100F7800DAFF1F0EDF60C3EF07F0C5EF07F0CBEF16
:100F880007F01CC0D9FF1DC0DAFF0A0EDF261AC001
:100F98000EF01BC00FF0D0EC06F01CC00EF01DC008
:100FA8000FF0D0EC06F06A0EE82EFED700D01AC07B
:100FB800D9FF1BC0DAFF1E0EDF64E5EF07F0E7EF8D
:100FC80007F0A7EF07F01CC0D9FF1DC0DAFF1E0EFF
:100FD800DF64F1EF07F0F3EF07F0A7EF07F0130E68
:100FE800216EAC0E206E2A0EE82EFED7202EFCD7DE
:100FF800212EFAD71AC014F01BC015F01CC016F029
:101008001DC017F0A6EC0BF00D0E216E2D0E206EF4
:10101800D80EE82EFED7202EFCD7212EFAD77E90A8
:10102800224A232A1E50225C2350800A206E1F5019
:10103800800A2058D8A023EF08F025EF08F0DBEF4E
:1010480007F0120020EE01F01A50D9261B50DA22C0
:10105800010EDF6E20EE01F01C50D9261D50DA2259
:10106800000EDF6E8080000E236E000E226EADEF44
:1010780008F01AC0D9FF1BC0DAFF1F0EDF6047EF68
:1010880008F049EF08F04FEF08F01AC0D9FF1BC06D
:10109800DAFF0A0EDF261CC0D9FF1DC0DAFF1F0EBB
:1010A800DF6059EF08F05BEF08F061EF08F01CC053
:1010B800D9FF1DC0DAFF0A0EDF261AC00EF01BC0CA
:1010C8000FF0D0EC06F01CC00EF01DC00FF0D0ECF5
:1010D80006F0A00E00D0E82EFDD71AC0D9FF1BC01D
:1010E800DAFF1E0EDF647BEF08F07DEF08F03DEFBE
:1010F80008F01CC0D9FF1DC0DAFF1E0EDF6487EFA1
:1011080008F089EF08F03DEF08F0150E216E4B0E40
:10111800206EBE0EE82EFED7202EFCD7212EFAD741
:1011280000D01AC014F01BC015F01CC016F01DC06A
:1011380017F0A6EC0BF00D0E216E2D0E206ED80EBA
:10114800E82EFED7202EFCD7212EFAD78090224AEF
:10115800232A1E50225C2350800A206E1F50800ACA
:101168002058D8A0BAEF08F0BCEF08F071EF08F0EB
:10117800120044C02AF045C02BF048C02CF049C0EA
:101188002DF046C02EF047C02FF04AC030F04BC0BB
:1011980031F02AC001F02BC002F0036A046A000E85
:1011A800F6EC05F001C00FF002C010F003C011F01A
:1011B80004C012F030C001F031C002F0036A046AC2
:1011C800000EF6EC05F001C013F002C014F003C0E5
:1011D80015F004C016F0B7EC02F00FC04CF010C0C8
:1011E8004DF011C04EF012C04FF02CC001F02DC0D0
:1011F80002F0036A046A000EF6EC05F001C00FF075
:1012080002C010F003C011F004C012F030C001F0A9
:1012180031C002F0036A046A000EF6EC05F001C062
:1012280013F002C014F003C015F004C016F0B7ECB8
:1012380002F00FC054F010C055F011C056F012C0A3
:1012480057F02EC001F02FC002F0036A046A000EA6
:10125800F6EC05F001C00FF002C010F003C011F069
:1012680004C012F030C001F031C002F0036A046A11
:10127800000EF6EC05F001C013F002C014F003C034
:1012880015F004C016F0B7EC02F00FC050F010C013
:1012980051F011C052F012C053F01200440E0C6EFF
:1012A800000E0D6EBCEC0DF0440E286E000E296E7B
:1012B800BDEC08F04CC001F04DC002F04EC003F088
:1012C8004FC004F05C0E056E8F0E066EC20E076EE0
:1012D8003E0E086EE6EC09F0D8B075EF09F077EF2E
:1012E80009F0BDEF09F00A0E016ED70E026EA30ECB
:1012F800036E3E0E046E50C005F051C006F052C099
:1013080007F053C008F0E6EC09F0D8B08EEF09F00A
:1013180090EF09F0BDEF09F07B0E016E140E026E1E
:10132800AE0E036E3E0E046E54C005F055C006F0B6
:1013380056C007F057C008F0E6EC09F0D8B0A7EFA0
:1013480009F0A9EF09F0BDEF09F07C86440E0C6E98
:10135800000E0D6EBCEC0DF0440E286E000E296ECA
:10136800BDEC08F0060E4A243A6EFF0E4B203B6E89
:101378007C963BBECBEF09F0B80E3A5C0B0E3B589F
:10138800D8B0C9EF09F0CBEF09F0DCEF09F07CAE7B
:10139800D0EF09F0D4EF09F0346A342AD5EF09F018
:1013A800346A343234327C5034187F0B34187C6EF3
:1013B8008EA4E1EF09F0E3EF09F0E5EF09F0010E83
:1013C800436E1200000E0114096E000E02140A6E1C
:1013D800800E03140B6E7F0E04140C6E09500A1055
:1013E8000B100C10D8A4FBEF09F0FDEF09F005EF86
:1013F8000AF0000E016E000E026E000E036E000E63
:10140800046E000E0514096E000E06140A6E800E96
:1014180007140B6E7F0E08140C6E09500A100B107F
:101428000C10D8A41AEF0AF01CEF0AF024EF0AF007
:10143800000E056E000E066E000E076E000E086E9A
:1014480004AE29EF0AF02BEF0AF034EF0AF0016C32
:10145800021ED8B0022A031ED8B0032A800E0456F2
:1014680008AE39EF0AF03BEF0AF044EF0AF0056CDA
:10147800061ED8B0062A071ED8B0072A800E0856BE
:10148800000E011A000E021A000E031A800E041A2A
:10149800000E051A000E061A000E071A800E081A0A
:1014A8000550015C0650025807500358085004586C
:1014B800D8B061EF0AF063EF0AF066EF0AF0D8904F
:1014C80067EF0AF0D88012001AC014F01BC015F09C
:1014D8001CC016F01DC017F0A6EC0BF0808220EEA1
:1014E80001F01A50D9261B50DA22000EDF6E20EECA
:1014F80001F01C50D9261D50DA22000EDF6E1CC0E8
:101508000EF01DC00FF0D0EC06F01AC00EF01BC094
:101518000FF0D0EC06F0ADEF0AF01AC0D9FF1BC0EF
:10152800DAFF0A0EDF261CC0D9FF1DC0DAFF0A0E3B
:10153800DF261AC00EF01BC00FF0D0EC06F01CC05E
:101548000EF01DC00FF0D0EC06F06A0EE82EFED7A4
:1015580000D01AC0D9FF1BC0DAFF280EDF60B7EF32
:101568000AF0B9EF0AF0C5EF0AF01CC0D9FF1DC098
:10157800DAFF270EDF64C3EF0AF0C5EF0AF091EF38
:101588000AF0190E1F6E5A0E1E6EB20EE82EFED706
:101598001E2EFCD71F2EFAD71AC014F01BC015F048
:1015A8001CC016F01DC017F0A6EC0BF0110E1F6E34
:1015B8003C0E1E6ECB0EE82EFED71E2EFCD71F2E1D
:1015C800FAD700F0809212001AC014F01BC015F070
:1015D8001CC016F01DC017F0A6EC0BF020EE01F0B1
:1015E8001A50D9261B50DA22000EDF6E20EE01F0C9
:1015F8001C50D9261D50DA22000EDF6E80821CC0D6
:101608000EF01DC00FF0D0EC06F01AC00EF01BC093
:101618000FF0D0EC06F02DEF0BF01AC0D9FF1BC06D
:10162800DAFF0A0EDF261CC0D9FF1DC0DAFF0A0E3A
:10163800DF261AC00EF01BC00FF0D0EC06F01CC05D
:101648000EF01DC00FF0D0EC06F06A0EE82EFED7A3
:1016580000D01AC0D9FF1BC0DAFF280EDF6037EFB1
:101668000BF039EF0BF045EF0BF01CC0D9FF1DC094
:10167800DAFF270EDF6443EF0BF045EF0BF011EFB5
:101688000BF0809212001AC014F01BC015F01CC099
:1016980016F01DC017F0A6EC0BF020EE01F01A5062
:1016A800D9261B50DA22010EDF6E20EE01F01C5005
:1016B800D9261D50DA22010EDF6E7C861CC00EF082
:1016C8001DC00FF0D0EC06F01AC00EF01BC00FF0D2
:1016D800D0EC06F08CEF0BF01AC0D9FF1BC0DAFF74
:1016E8000A0EDF261CC0D9FF1DC0DAFF0A0EDF264E
:1016F8001AC00EF01BC00FF0D0EC06F01CC00EF0A4
:101708001DC00FF0D0EC06F06A0EE82EFED700D010
:101718001AC0D9FF1BC0DAFF280EDF6096EF0BF066
:1017280098EF0BF0A4EF0BF01CC0D9FF1DC0DAFF37
:10173800270EDF64A2EF0BF0A4EF0BF070EF0BF0B5
:101748007C96120020EE02F01450D9261550DA22A9
:10175800010EDF6E20EE02F01650D9261750DA225D
:10176800010EDF6E7C88000E196E460E186E14C0CE
:10177800D9FF15C0DAFF18C0DFFF16C0D9FF17C0A0
:10178800DAFF18C0DFFF14C00EF015C00FF0D0EC60
:1017980006F016C00EF017C00FF0D0EC06F06A0E77
:1017A800E82EFED700D0F60E1824186EFF0E19206A
:1017B800196E19BEE4EF0BF0E2EF0BF0BBEF0BF084
:1017C80014C0D9FF15C0DAFF000EDF6E16C0D9FFAE
:1017D80017C0DAFF000EDF6E14C00EF015C00FF050
:1017E800D0EC06F016C00EF017C00FF0D0EC06F0E3
:1017F8007C98120085948598839E879C7D947D981B
:101808007B9E7F9C050E0E01746F060E766F070E89
:10181800696F080E886FBD508F0B4009BD6EE00ED2
:10182800BE16BF50F00B0109BF6E01C0BCFFBD8ED4
:10183800000EAA6E000EA66E000E0F01256F000E98
:10184800216FFC0EAD16F30EAD16CF0EAD163F0E82
:10185800AD16AB88AB50F00B0C09AB6EAB8EA788FE
:10186800A750F00B0C09A76EA78E26892651F00BFE
:101878000C09266F268F22892251F00B0C09226F42
:10188800228F1200000E026E630E016EFEEC0BF04A
:10189800B90E016E000E026EB00E036E000E046EDD
:1018A8005BEC0DF042EC0EF022EC0EF0A2EC0DF029
:1018B80087928198869E7F8279887E8E86840E01A3
:1018C800B4958686B497849E7C9E000E436E000E67
:1018D800436E010E436EB90E326E000E336EB00EBB
:1018E800346E000E356E440E366E000E376E14ECF4
:1018F80000F06FEF0CF012EF00F0000E0C6E000E0F
:101908000B6E09500A10D8B48CEF0CF08EEF0CF067
:10191800B6EF0CF0010E0D6E96EF0CF0D89009366C
:101928000A360D2A0AAE9BEF0CF09DEF0CF092EFF1
:101938000CF0D8900B360C360950075C0A50085842
:10194800D8A0A9EF0CF0ABEF0CF0B0EF0CF00950F9
:10195800075E0A50085A0B80D8900A3209320D2EB9
:101968009DEF0CF00BC007F00CC008F0120058EC0B
:101978000EF0520E4DEC0EF0B60E4DEC0EF05DEC86
:101988000EF0530E4DEC0EF0010E81EC0DF0076ECB
:1019980007500A6E0B6A000E81EC0DF0076E0750B7
:1019A800096E086A0A5008100A6E0B5009100B6E6F
:1019B80053EC0EF00AC005F00BC006F0120058EC0C
:1019C8000EF0520E4DEC0EF0B80E4DEC0EF05DEC34
:1019D8000EF0530E4DEC0EF0010E81EC0DF0076E7B
:1019E80007500A6E0B6A000E81EC0DF0076E075067
:1019F800096E086A0A5008100A6E0B5009100B6E1F
:101A080053EC0EF00AC005F00BC006F0120058ECBB
:101A18000EF0520E4DEC0EF0B40E4DEC0EF05DECE7
:101A28000EF0530E4DEC0EF0010E81EC0DF0076E2A
:101A380007500A6E0B6A000E81EC0DF0076E075016
:101A4800096E086A0A5008100A6E0B5009100B6ECE
:101A580053EC0EF00AC005F00BC006F0120058EC6B
:101A68000EF0520E4DEC0EF0BA0E4DEC0EF05DEC91
:101A78000EF0530E4DEC0EF0010E81EC0DF0076EDA
:101A880007500A6E0B6A000E81EC0DF0076E0750C6
:101A9800096E086A0A5008100A6E0B5009100B6E7E
:101AA80053EC0EF00AC005F00BC006F01200000E51
:101AB8000001B96F010EBA6F010EBB6FAA0EBE6F9F
:101AC8000F0EBF6FA60EC06F0F0EC16F000EBD6F59
:101AD800630EBC6F000EB06F010EB16F010EB26FD6
:101AE800250EB56F0F0EB66F210EB76F0F0EB86FBC
:101AF800000EB46F630EB36F1200036EEAEC0DF0C4
:101B08000E01DA87EAEC0DF0D5CE04F0EAEC0DF020
:101B18000350D8B492EF0DF096EF0DF0026A022A46
:101B280097EF0DF0026A023A02460E01DA510218E6
:101B3800DF0B0218DA6FDA8904501200D5EC0DF0C9
:101B4800010E036E000E32EC0EF03F0E056E550EC0
:101B5800E82EFED7052EFCD700F0030E036E000E0C
:101B680032EC0EF0D50E036E010E32EC0EF01200C0
:101B7800BBEC0CF005C044F006C045F033EC0DF0AA
:101B880005C046F006C047F0E3EC0CF005C048F08D
:101B980006C049F00BEC0DF005C04AF006C04BF04A
:101BA80012000E01D951F00B0809D96FD98B9F0E7D
:101BB800D66F848A848CA79BA79D1D0E1D6F1E0E51
:101BC8001C6F1C0E6F6F1B0E706F12000E01D8B5C4
:101BD800F0EF0DF0F2EF0DF0EAEF0DF0DACE01F0D4
:101BE8001F0E0116D8A4FBEF0DF0FDEF0DF0EAEF84
:101BF8000DF0120001500302F3CF05F0F4CF06F008
:101C080001500402F350062602500302F350062640
:101C180005C001F006C002F0120000EE60F0620E8E
:101C2800EE6AE806FDE100EE3AF01E0EEE6AE806FE
:101C3800FDE158905892000146EF0CF0120E0E018B
:101C4800626F110E156F8382E997E895330EE56F81
:101C5800000EE66FE789E88BE78F1200046E58ECF8
:101C68000EF0520E4DEC0EF0045080094DEC0EF0C3
:101C780003504DEC0EF053EC0EF0120080927C965F
:101C88007C987E908090889284968498869088909C
:101C98001200026EEAEC0DF002C0D5FE1200EAEC6A
:101CA8000DF00E01DA851200EAEC0DF00E01DA8172
:0C1CB8001200EAEC0DF00E01DA831200BD
:020000040020DA
:10000000FF0FFF0FFF0FFF0FFF0FFF0FFF0FFF0F80
:020000040030CA
:0C000000AAFFFFFF9FFFFFFFFFFFFFFFB5
:00000001FF
