:0400000012EF00F00B
:1000080057820E0133A10BEF00F00DEF00F010EF57
:1000180000F0010E3E6E339157921100D2EF0CF0B2
:100028003F0E0C6E000E0D6E4DEC0DF03F0E286E5F
:10003800000E296EA8EC08F0010E3E6E32C014F0D6
:1000480033C015F034C016F035C017F0FDEC0AF0D7
:10005800290E396E960E386E7F0EE82EFED7382E92
:10006800FCD7392EFAD700F03F0E0C6E000E0D6E3D
:100078004DEC0DF03F0E286E000E296EA8EC08F02E
:10008800290E396E960E386E7F0EE82EFED7382E62
:10009800FCD7392EFAD700F0B80E016E1E0E026E8C
:1000A800450E036E3F0E046E47C005F048C006F0CB
:1000B80049C007F04AC008F03DEC09F0D8B067EF36
:1000C80000F069EF00F0A9EF00F04BC001F04CC060
:1000D80002F04DC003F04EC004F0EC0E056E510E58
:1000E800066E380E076E3E0E086E3DEC09F0D8B06D
:1000F80080EF00F082EF00F0A9EF00F04FC001F0B0
:1001080050C002F051C003F052C004F0290E056E31
:100118005C0E066E0F0E076E3E0E086E3DEC09F083
:10012800D8B099EF00F09BEF00F0A9EF00F032C0D3
:1001380024F033C025F034C026F035C027F0000E77
:10014800296E010E286E6FEC04F04BC001F04CC014
:1001580002F04DC003F04EC004F0000E056E000E14
:10016800066E800E076E3E0E086E3DEC09F0D8B0A4
:10017800C0EF00F0C2EF00F0E9EF00F0CD0E016E25
:10018800CC0E026ECC0E036E3E0E046E4FC005F010
:1001980050C006F051C007F052C008F03DEC09F01D
:1001A800D8B0D9EF00F0DBEF00F0E9EF00F032C093
:1001B80024F033C025F034C026F035C027F0000EF7
:1001C800296E020E286E6FEC04F047C001F048C09B
:1001D80002F049C003F04AC004F05C0E056E8F0EB1
:1001E800066EC20E076E3E0E086E3DEC09F0D8B0E2
:1001F80000EF01F002EF01F042EF01F00A0E016E8C
:10020800D70E026EA30E036E3E0E046E4BC005F0B1
:100218004CC006F04DC007F04EC008F03DEC09F0A8
:10022800D8B019EF01F01BEF01F042EF01F07B0E9F
:10023800016E140E026EAE0E036E3E0E046E4FC0BB
:1002480005F050C006F051C007F052C008F03DEC70
:1002580009F0D8B032EF01F034EF01F042EF01F0CD
:1002680032C024F033C025F034C026F035C027F062
:10027800000E296E030E286E6FEC04F0B80E016EA6
:100288001E0E026E050E036E3F0E046E47C005F08B
:1002980048C006F049C007F04AC008F03DEC09F034
:1002A800D8B059EF01F05BEF01F082EF01F00A0ED0
:1002B800016ED70E026EA30E036E3E0E046E4FC083
:1002C80005F050C006F051C007F052C008F03DECF0
:1002D80009F0D8B072EF01F074EF01F082EF01F08D
:1002E80032C024F033C025F034C026F035C027F0E2
:1002F800000E296E040E286E6FEC04F0000E016EDD
:10030800000E026E000E036E3F0E046E47C005F02D
:1003180048C006F049C007F04AC008F03DEC09F0B3
:10032800D8B099EF01F09BEF01F0DBEF01F08F0EF1
:10033800016EC20E026E750E036E3E0E046E4BC049
:1003480005F04CC006F04DC007F04EC008F03DEC7B
:1003580009F0D8B0B2EF01F0B4EF01F0DBEF01F033
:100368004FC001F050C002F051C003F052C004F079
:10037800C30E056EF50E066EA80E076E3E0E086ECD
:100388003DEC09F0D8B0CBEF01F0CDEF01F0DBEF99
:1003980001F032C024F033C025F034C026F035C057
:1003A80027F0000E296E050E286E6FEC04F09A0EE9
:1003B800016E990E026E190E036E3F0E046E47C051
:1003C80005F048C006F049C007F04AC008F03DEC07
:1003D80009F0D8B0F2EF01F0F4EF01F034EF02F0D9
:1003E8004BC001F04CC002F04DC003F04EC004F009
:1003F800AE0E056E470E066E610E076E3E0E086E57
:100408003DEC09F0D8B00BEF02F00DEF02F034EF3D
:1004180002F01F0E016E850E026E6B0E036E3E0E0D
:10042800046E4FC005F050C006F051C007F052C02E
:1004380008F03DEC09F0D8B024EF02F026EF02F006
:1004480034EF02F032C024F033C025F034C026F077
:1004580035C027F0000E296E060E286E6FEC04F0EA
:1004680047C001F048C002F049C003F04AC004F098
:10047800CD0E056ECC0E066ECC0E076E3E0E086EC7
:100488003DEC09F0D8B04BEF02F04DEF02F08DEFE4
:1004980002F09A0E016E990E026E990E036E3E0ED0
:1004A800046E4BC005F04CC006F04DC007F04EC0BE
:1004B80008F03DEC09F0D8B064EF02F066EF02F006
:1004C8008DEF02F0CD0E016ECC0E026ECC0E036ED7
:1004D8003E0E046E4FC005F050C006F051C007F044
:1004E80052C008F03DEC09F0D8B07DEF02F07FEF84
:1004F80002F08DEF02F032C024F033C025F034C092
:1005080026F035C027F0000E296E070E286E6FEC16
:1005180004F047C001F048C002F049C003F04AC0E7
:1005280004F0000E056E000E066E000E076E3F0EFC
:10053800086E3DEC09F0000E3E6E12001250800B62
:100548001F6E12501224266E11AEADEF02F0AFEFFF
:1005580002F0B0EF02F026802650D8B4B6EF02F0D1
:10056800B8EF02F0CDEF02F02628D8A4BEEF02F0D3
:10057800C0EF02F0C8EF02F0000E0F6E000E106E12
:10058800000E116E000E126E118E000E126ED5EF57
:1005980002F0000E0F6E000E106E000E116E000EAF
:1005A800126E1650800B1F1A16501624276E15AEA1
:1005B800E0EF02F0E2EF02F0E3EF02F027802750CD
:1005C800D8B4E9EF02F0EBEF02F000EF03F02728D0
:1005D800D8A4F1EF02F0F3EF02F0FBEF02F0000E07
:1005E800136E000E146E000E156E000E166E158E2C
:1005F800000E166E08EF03F0000E136E000E146E58
:10060800000E156E000E166E1350141015101610ED
:10061800D8A411EF03F013EF03F02BEF03F0000E53
:100628000F6E000E106E000E116E000E126E800E10
:1006380011127F0E12121F5012120FC00FF010C0AD
:1006480010F011C011F012C012F06EEF04F0265035
:10065800D8A431EF03F033EF03F03DEF03F0000EC1
:100668000F6E000E106E000E116E000E126E6EEF01
:1006780004F0275026C017F0186A175E000E185AA3
:100688007F0E1724206E000E1820216E0FC01BF05D
:1006980010C01CF011C01DF012C01EF0000E0F6E2D
:1006A800000E106E000E116E000E126E000E226EFD
:1006B800000E236E000E246E000E256E000E276EAF
:1006C8009EEF03F02750D8B46CEF03F06EEF03F001
:1006D80085EF03F0D8901B361C361D361E36D89091
:1006E8000F3610361136123625AE7DEF03F07FEF48
:1006F80003F080EF03F00F80D8902236233624369B
:10070800253613501B5C14501C5815501D58165094
:100718001E58D8A092EF03F094EF03F09DEF03F07A
:10072800258C13501B5E14501C5A15501D5A165018
:100738001E5A272A190E2764A4EF03F0A6EF03F028
:1007480066EF03F01B501C101D101E10D8B4AFEF3D
:1007580003F0B1EF03F0C9EF03F02280C9EF03F013
:10076800D8900F3610361136123625AEBEEF03F08C
:10077800C0EF03F0C1EF03F00F80D8902236233684
:10078800243625362006D8A0210611AECEEF03F078
:10079800D0EF03F0B4EF03F0000E276E25AED7EFCD
:1007A80003F0D9EF03F0FDEF03F0FF0E2214176EEC
:1007B800FF0E2314186EFF0E2414196E7F0E2514D5
:1007C8001A6E1750181019101A10D8B4EEEF03F05B
:1007D800F0EF03F0F4EF03F0010E276EFDEF03F0E6
:1007E8000FA0F9EF03F0FBEF03F0FDEF03F0F0EFDC
:1007F80003F02750D8B403EF04F005EF04F029EF15
:1008080004F0010E0F26000E10221122122212A04F
:1008180010EF04F012EF04F029EF04F00FC017F006
:1008280010C018F011C019F012C01AF01A341A3298
:1008380019321832173217C00FF018C010F019C04B
:1008480011F01AC012F0204A212A21BE34EF04F018
:10085800215008E12028D8A034EF04F036EF04F046
:1008680041EF04F0000E216E2068000E0F6E000E9E
:10087800106E000E116E000E126E21BE4EEF04F0C7
:10088800215006E12004D8B04CEF04F04EEF04F0FC
:100898005CEF04F0000E216E000E206E000E0F6E4D
:1008A800000E106E000E116E000E126E000E1F6EFE
:1008B80020C026F026A063EF04F065EF04F068EF8F
:1008C80004F0118E69EF04F0119ED8902630126E54
:1008D8001FEF03F0120024C01AF025C01BF026C039
:1008E8001CF027C01DF0BFEC09F0290E2B6E960EE8
:1008F8002A6E7F0EE82EFED72A2EFCD72B2EFAD78B
:1009080000F024C014F025C015F026C016F027C04A
:1009180017F0FDEC0AF0290E2B6E960E2A6E7F0E4C
:10092800E82EFED72A2EFCD72B2EFAD700F0280463
:100938002910D8A4A2EF04F0A4EF04F0BCEF04F04F
:1009480024C01AF025C01BF026C01CF027C01DF0DB
:10095800000E1F6E020E1E6E11EC08F024C014F07B
:1009680025C015F026C016F027C017F0FDEC0AF0D8
:10097800020E28182910D8A4C4EF04F0C6EF04F01A
:10098800DEEF04F024C01AF025C01BF026C01CF0CE
:1009980027C01DF0000E1F6E020E1E6E71EC07F0D0
:1009A80024C014F025C015F026C016F027C017F093
:1009B800FDEC0AF0030E28182910D8A4E6EF04F07D
:1009C800E8EF04F000EF05F024C01AF025C01BF092
:1009D80026C01CF027C01DF0000E1F6E040E1E6EF0
:1009E80011EC08F024C014F025C015F026C016F04C
:1009F80027C017F0FDEC0AF0040E28182910D8A417
:100A080008EF05F00AEF05F04EEF05F024C01AF0E4
:100A180025C01BF026C01CF027C01DF03FEC0AF0D3
:100A2800210E2B6E780E2A6E980EE82EFED72A2EEF
:100A3800FCD72B2EFAD700D024C014F025C015F00F
:100A480026C016F027C017F0FDEC0AF0290E2B6E11
:100A5800960E2A6E7F0EE82EFED72A2EFCD72B2E56
:100A6800FAD700F024C01AF025C01BF026C01CF0ED
:100A780027C01DF0000E1F6E020E1E6E11EC08F04E
:100A880024C014F025C015F026C016F027C017F0B2
:100A9800FDEC0AF0050E28182910D8A456EF05F029
:100AA80058EF05F09CEF05F024C01AF025C01BF0A4
:100AB80026C01CF027C01DF03FEC0AF0210E2B6E5B
:100AC800780E2A6E980EE82EFED72A2EFCD72B2EEB
:100AD800FAD700D024C014F025C015F026C016F0AF
:100AE80027C017F0FDEC0AF0290E2B6E960E2A6E21
:100AF8007F0EE82EFED72A2EFCD72B2EFAD700F031
:100B080024C01AF025C01BF026C01CF027C01DF019
:100B1800000E1F6E020E1E6E71EC07F024C014F05A
:100B280025C015F026C016F027C017F0FDEC0AF016
:100B3800060E28182910D8A4A4EF05F0A6EF05F092
:100B4800BEEF05F024C01AF025C01BF026C01CF02B
:100B580027C01DF0000E1F6E030E1E6E11EC08F06C
:100B680024C014F025C015F026C016F027C017F0D1
:100B7800FDEC0AF0070E28182910D8A4C6EF05F0D6
:100B8800C8EF05F0E0EF05F024C01AF025C01BF00F
:100B980026C01CF027C01DF0000E1F6E030E1E6E2F
:100BA80071EC07F024C014F025C015F026C016F02B
:100BB80027C017F0FDEC0AF01200096E0950D8B4EE
:100BC800E8EF05F0EAEF05F00CEF06F004BEF1EFF0
:100BD80005F0EFEF05F00CEF06F001C005F002C0DC
:100BE80006F003C007F004C008F0051E061E071E25
:100BF800081E052A000E06220722082205C00BF04F
:100C080006C00CF007C00DF008C00EF014EF06F097
:100C180001C00BF002C00CF003C00DF004C00EF0D0
:100C28000150021003100410D8A41DEF06F01FEFA6
:100C380006F029EF06F0000E016E000E026E000E9F
:100C4800036E000E046EBAEF06F0960E0A6E33EFCE
:100C580006F00A2AD8900E320D320C320B32000EF2
:100C68000B14056E000E0C14066E000E0D14076EA4
:100C7800FE0E0E14086E0550061007100810D8A4B2
:100C880048EF06F04AEF06F02DEF06F058EF06F0B1
:100C98000A2A010E0B26000E0C220D220E22D890D5
:100CA8000E320D320C320B32000E0B14056E000E94
:100CB8000C14066E000E0D14076EFF0E0E14086E4F
:100CC8000550061007100810D8A46DEF06F06FEF56
:100CD80006F04CEF06F077EF06F00A06D8900B36D0
:100CE8000C360D360E360DBE7CEF06F07EEF06F0A4
:100CF80086EF06F0020E0A6084EF06F086EF06F033
:100D080071EF06F00AB08BEF06F08DEF06F08EEF6C
:100D180006F00D9ED8900A320AC005F0066A076AE6
:100D2800086A05C008F0076A066A056A05500B12CA
:100D380006500C1207500D1208500E120950D8B464
:100D4800A8EF06F0AAEF06F0B2EF06F004BEB1EF86
:100D580006F0AFEF06F0B2EF06F00E8E0BC001F012
:100D68000CC002F00DC003F00EC004F0120020EE1B
:100D780002F00E50D9260F50DA22DF50D8B4C7EF50
:100D880006F0C9EF06F0FDEF06F00EC0D9FF0FC060
:100D9800DAFFDF50106E1050016E026A20EE03F089
:100DA8000E50D9260F50DA22DECF03F0DDCF04F043
:100DB8008FEC0DF001C007F002C008F0000E0A6EBB
:100DC800640E096E9DEC0BF020EE03F00E50D92650
:100DD8000F50DA22DF50116E0750115C126E20EEB0
:100DE80003F00E50D9260F50DA22DF50136E20EF91
:100DF80007F0000E126E0EC0D9FF0FC0DAFFDF50E9
:100E0800106E1050016E026A20EE03F00E50D926C3
:100E18000F50DA22DECF03F0DDCF04F08FEC0DF0B7
:100E280001C007F002C008F0000E0A6E640E096ED9
:100E38009DEC0BF00750136E20EE01F00E50D926F2
:100E48000F50DA22DF50D8B42CEF07F02EEF07F05E
:100E580050EF07F020EE05F00E50D9260F50DA2299
:100E6800DECF10F0DDCF11F010C0D9FF11C0DAFFCE
:100E780012C0DFFF20EE07F00E50D9260F50DA22FD
:100E8800DECF10F0DDCF11F010C0D9FF11C0DAFFAE
:100E980013C0DFFF70EF07F020EE05F00E50D926E3
:100EA8000F50DA22DECF10F0DDCF11F010C0D9FFDD
:100EB80011C0DAFF13C0DFFF20EE07F00E50D9266D
:100EC8000F50DA22DECF10F0DDCF11F010C0D9FFBD
:100ED80011C0DAFF12C0DFFF12001AC014F01BC0E5
:100EE80015F01CC016F01DC017F0FDEC0AF020EE3E
:100EF80001F01A50D9261B50DA22000EDF6E20EEC0
:100F080001F01C50D9261D50DA22010EDF6E7E80BA
:100F1800000E236E000E226E01EF08F01AC0D9FFF2
:100F28001BC0DAFF1F0EDF609CEF07F09EEF07F093
:100F3800A4EF07F01AC0D9FF1BC0DAFF0A0EDF269C
:100F48001CC0D9FF1DC0DAFF1F0EDF60AEEF07F02F
:100F5800B0EF07F0B6EF07F01CC0D9FF1DC0DAFFED
:100F68000A0EDF261AC00EF01BC00FF0BBEC06F00D
:100F78001CC00EF01DC00FF0BBEC06F06A0EE82E88
:100F8800FED700D01AC0D9FF1BC0DAFF1E0EDF64DF
:100F9800D0EF07F0D2EF07F092EF07F01CC0D9FFAF
:100FA8001DC0DAFF1E0EDF64DCEF07F0DEEF07F08E
:100FB80092EF07F0130E216EAC0E206E2A0EE82E6B
:100FC800FED7202EFCD7212EFAD71AC014F01BC04A
:100FD80015F01CC016F01DC017F0FDEC0AF00D0E40
:100FE800216E2D0E206ED80EE82EFED7202EFCD7AF
:100FF800212EFAD77E90224A232A1E50225C2350A3
:10100800800A206E1F50800A2058D8A00EEF08F0E2
:1010180010EF08F0C6EF07F0120020EE01F01A50AA
:10102800D9261B50DA22010EDF6E20EE01F01C508B
:10103800D9261D50DA22000EDF6E8080000E236E46
:10104800000E226E98EF08F01AC0D9FF1BC0DAFF15
:101058001F0EDF6032EF08F034EF08F03AEF08F0C7
:101068001AC0D9FF1BC0DAFF0A0EDF261CC0D9FF41
:101078001DC0DAFF1F0EDF6044EF08F046EF08F0EE
:101088004CEF08F01CC0D9FF1DC0DAFF0A0EDF269E
:101098001AC00EF01BC00FF0BBEC06F01CC00EF01F
:1010A8001DC00FF0BBEC06F0A00E00D0E82EFDD757
:1010B8001AC0D9FF1BC0DAFF1E0EDF6466EF08F006
:1010C80068EF08F028EF08F01CC0D9FF1DC0DAFF50
:1010D8001E0EDF6472EF08F074EF08F028EF08F0D6
:1010E800150E216E4B0E206EBE0EE82EFED7202E5A
:1010F800FCD7212EFAD700D01AC014F01BC015F067
:101108001CC016F01DC017F0FDEC0AF00D0E216E84
:101118002D0E206ED80EE82EFED7202EFCD7212EBD
:10112800FAD78090224A232A1E50225C2350800A34
:10113800206E1F50800A2058D8A0A5EF08F0A7EF0E
:1011480008F05CEF08F012003FC02AF040C02BF016
:1011580043C02CF044C02DF041C02EF042C02FF007
:1011680045C030F046C031F02AC001F02BC002F073
:10117800036A046A000EE1EC05F001C00FF002C03A
:1011880010F003C011F004C012F030C001F031C0FB
:1011980002F0036A046A000EE1EC05F001C013F0E6
:1011A80002C014F003C015F004C016F0A2EC02F05F
:1011B8000FC047F010C048F011C049F012C04AF003
:1011C8002CC001F02DC002F0036A046A000EE1ECA5
:1011D80005F001C00FF002C010F003C011F004C008
:1011E80012F030C001F031C002F0036A046A000E48
:1011F800E1EC05F001C013F002C014F003C015F0D3
:1012080004C016F0A2EC02F00FC04FF010C050F06E
:1012180011C051F012C052F02EC001F02FC002F0E0
:10122800036A046A000EE1EC05F001C00FF002C089
:1012380010F003C011F004C012F030C001F031C04A
:1012480002F0036A046A000EE1EC05F001C013F035
:1012580002C014F003C015F004C016F0A2EC02F0AE
:101268000FC04BF010C04CF011C04DF012C04EF042
:101278001200000E0114096E000E02140A6E800E90
:1012880003140B6E7F0E04140C6E09500A100B1019
:101298000C10D8A452EF09F054EF09F05CEF09F0F4
:1012A800000E016E000E026E000E036E000E046E3C
:1012B800000E0514096E000E06140A6E800E07143F
:1012C8000B6E7F0E08140C6E09500A100B100C10D0
:1012D800D8A471EF09F073EF09F07BEF09F0000E65
:1012E800056E000E066E000E076E000E086E04AE48
:1012F80080EF09F082EF09F08BEF09F0016C021E14
:10130800D8B0022A031ED8B0032A800E045608AEAD
:1013180090EF09F092EF09F09BEF09F0056C061EBB
:10132800D8B0062A071ED8B0072A800E0856000E25
:10133800011A000E021A000E031A800E041A000E7B
:10134800051A000E061A000E071A800E081A055014
:10135800015C065002580750035808500458D8B08A
:10136800B8EF09F0BAEF09F0BDEF09F0D890BEEF79
:1013780009F0D88012001AC014F01BC015F01CC068
:1013880016F01DC017F0FDEC0AF0808220EE01F087
:101398001A50D9261B50DA22000EDF6E20EE01F01B
:1013A8001C50D9261D50DA22000EDF6E1CC00EF02C
:1013B8001DC00FF0BBEC06F01AC00EF01BC00FF0FA
:1013C800BBEC06F004EF0AF01AC0D9FF1BC0DAFF25
:1013D8000A0EDF261CC0D9FF1DC0DAFF0A0EDF2661
:1013E8001AC00EF01BC00FF0BBEC06F01CC00EF0CC
:1013F8001DC00FF0BBEC06F06A0EE82EFED700D039
:101408001AC0D9FF1BC0DAFF280EDF600EEF0AF002
:1014180010EF0AF01CEF0AF01CC0D9FF1DC0DAFF5C
:10142800270EDF641AEF0AF01CEF0AF0E8EF09F064
:10143800190E1F6E5A0E1E6EB20EE82EFED71E2E05
:10144800FCD71F2EFAD71AC014F01BC015F01CC009
:1014580016F01DC017F0FDEC0AF0110E1F6E3C0EC1
:101468001E6ECB0EE82EFED71E2EFCD71F2EFAD7E7
:1014780000F0809212001AC014F01BC015F01CC0B6
:1014880016F01DC017F0FDEC0AF020EE01F01A501E
:10149800D9261B50DA22000EDF6E20EE01F01C5018
:1014A800D9261D50DA22000EDF6E80821CC00EF095
:1014B8001DC00FF0BBEC06F01AC00EF01BC00FF0F9
:1014C800BBEC06F084EF0AF01AC0D9FF1BC0DAFFA4
:1014D8000A0EDF261CC0D9FF1DC0DAFF0A0EDF2660
:1014E8001AC00EF01BC00FF0BBEC06F01CC00EF0CB
:1014F8001DC00FF0BBEC06F06A0EE82EFED700D038
:101508001AC0D9FF1BC0DAFF280EDF608EEF0AF081
:1015180090EF0AF09CEF0AF01CC0D9FF1DC0DAFF5B
:10152800270EDF649AEF0AF09CEF0AF068EF0AF0E2
:10153800809212001AC014F01BC015F01CC016F0DF
:101548001DC017F0FDEC0AF020EE01F01A50D92664
:101558001B50DA22010EDF6E20EE01F01C50D92656
:101568001D50DA22010EDF6E7C861CC00EF01DC0F5
:101578000FF0BBEC06F01AC00EF01BC00FF0BBEC6E
:1015880006F0E3EF0AF01AC0D9FF1BC0DAFF0A0E13
:10159800DF261CC0D9FF1DC0DAFF0A0EDF261AC0DD
:1015A8000EF01BC00FF0BBEC06F01CC00EF01DC007
:1015B8000FF0BBEC06F06A0EE82EFED700D01AC07A
:1015C800D9FF1BC0DAFF280EDF60EDEF0AF0EFEF5E
:1015D8000AF0FBEF0AF01CC0D9FF1DC0DAFF270E86
:1015E800DF64F9EF0AF0FBEF0AF0C7EF0AF07C9628
:1015F800120020EE02F01450D9261550DA22010EFE
:10160800DF6E20EE02F01650D9261750DA22010EAE
:10161800DF6E7C88000E196E460E186E14C0D9FF56
:1016280015C0DAFF18C0DFFF16C0D9FF17C0DAFFF0
:1016380018C0DFFF14C00EF015C00FF0BBEC06F0A9
:1016480016C00EF017C00FF0BBEC06F06A0EE82EBD
:10165800FED700D0F60E1824186EFF0E1920196E4A
:1016680019BE3BEF0BF039EF0BF012EF0BF014C083
:10167800D9FF15C0DAFF000EDF6E16C0D9FF17C0FC
:10168800DAFF000EDF6E14C00EF015C00FF0BBECD1
:1016980006F016C00EF017C00FF0BBEC06F07C98F1
:1016A800120085948598839E879C7D947D987B9E67
:1016B8007F9C050E0E01746F060E766F070E696F1C
:1016C800080E886FBD508F0B4009BD6EE00EBE1628
:1016D800BF50F00B0109BF6E01C0BCFFBD8E000EEC
:1016E800AA6E000EA66E000E0F01256F000E216F68
:1016F800FC0EAD16F30EAD16CF0EAD163F0EAD16A1
:10170800AB88AB50F00B0C09AB6EAB8EA788A7501B
:10171800F00B0C09A76EA78E26892651F00B0C0931
:10172800266F268F22892251F00B0C09226F228FF7
:101738001200000E0C6E000E0B6E09500A10D8B481
:10174800A8EF0BF0AAEF0BF0D2EF0BF0010E0D6E25
:10175800B2EF0BF0D89009360A360D2A0AAEB7EF69
:101768000BF0B9EF0BF0AEEF0BF0D8900B360C3650
:101778000950075C0A500858D8A0C5EF0BF0C7EF0E
:101788000BF0CCEF0BF00950075E0A50085A0B809B
:10179800D8900A3209320D2EB9EF0BF00BC007F0C2
:1017A8000CC008F01200000E026E630E016E55ECBC
:1017B8000BF0B90E016E000E026EB00E036E000E35
:1017C800046EACEC0CF0DDEC0DF0B2EC0DF033EC8B
:1017D8000DF014EC0DF0A2EC0DF087928198869E26
:1017E8007F8279887E8E86840E01B495B90E326E1A
:1017F800000E336EB00E346E000E356E3F0E366E30
:10180800000E376E14EC00F0FAEF0BF012EF00F058
:10181800F3EC0DF0520EE8EC0DF0B60EE8EC0DF01E
:10182800F8EC0DF0530EE8EC0DF0010EF3EC0CF0B3
:10183800076E07500A6E0B6A000EF3EC0CF0076E89
:101848000750096E086A0A5008100A6E0B500910F2
:101858000B6EEEEC0DF00AC005F00BC006F012009E
:10186800F3EC0DF0520EE8EC0DF0B80EE8EC0DF0CC
:10187800F8EC0DF0530EE8EC0DF0010EF3EC0CF063
:10188800076E07500A6E0B6A000EF3EC0CF0076E39
:101898000750096E086A0A5008100A6E0B500910A2
:1018A8000B6EEEEC0DF00AC005F00BC006F012004E
:1018B800F3EC0DF0520EE8EC0DF0B40EE8EC0DF080
:1018C800F8EC0DF0530EE8EC0DF0010EF3EC0CF013
:1018D800076E07500A6E0B6A000EF3EC0CF0076EE9
:1018E8000750096E086A0A5008100A6E0B50091052
:1018F8000B6EEEEC0DF00AC005F00BC006F01200FE
:10190800F3EC0DF0520EE8EC0DF0BA0EE8EC0DF029
:10191800F8EC0DF0530EE8EC0DF0010EF3EC0CF0C2
:10192800076E07500A6E0B6A000EF3EC0CF0076E98
:101938000750096E086A0A5008100A6E0B50091001
:101948000B6EEEEC0DF00AC005F00BC006F01200AD
:10195800000E0001B96F010EBA6F010EBB6FAA0E1F
:10196800BE6F0F0EBF6FA60EC06F0F0EC16F000EB9
:10197800BD6F630EBC6F000EB06F010EB16F010E2C
:10198800B26F250EB56F0F0EB66F210EB76F0F0E23
:10199800B86F000EB46F630EB36F1200FA0EF66ED6
:1019A8001B0EF76E000EF86E00EE53F010EE04F00A
:1019B8000900F5CFEEFFE550E150FAE100EE60F0E6
:1019C800620EEE6AE806FDE100EE3AF0190EEE6AE4
:1019D800E806FDE1579057920001D7EF0BF0036E30
:1019E8007BEC0DF00E01DA877BEC0DF0D5CE04F020
:1019F8007BEC0DF00350D8B404EF0DF008EF0DF0B8
:101A0800026A022A09EF0DF0026A023A02460E0142
:101A1800DA510218DF0B0218DA6FDA890450120063
:101A2800130E036E000EC2EC0DF0640E036E040E6E
:101A3800C2EC0DF0000E036E050EC2EC0DF0C40EE4
:101A4800036E060EC2EC0DF0090E036E070EC2EC13
:101A58000DF0010E036E0C0EC2EC0DF0120066ECD8
:101A68000DF0010E036E000EC2EC0DF03F0E056E78
:101A7800550EE82EFED7052EFCD700F0030E036E98
:101A8800000EC2EC0DF0D50E036E010EC2EC0DF087
:101A980012000CEC0CF005C03FF006C040F084ECDE
:101AA8000CF005C041F006C042F034EC0CF005C063
:101AB80043F006C044F05CEC0CF005C045F006C0ED
:101AC80046F012000E01D951F00B0809D96FD98BD5
:101AD8009F0ED66F848A848CA79BA79D1D0E1D6FB1
:101AE8001E0E1C6F1C0E6F6F1B0E706F12000E0106
:101AF800D8B581EF0DF083EF0DF07BEF0DF0DACE66
:101B080001F01F0E0116D8A48CEF0DF08EEF0DF02A
:101B18007BEF0DF0120001500302F3CF05F0F4CF74
:101B280006F001500402F350062602500302F35057
:101B3800062605C001F006C002F0120082800E01E0
:101B48009A91090E0D01F16F0E0129831F83D2ECC2
:101B58000DF0F292F28AF28CF28E1200120E0E0141
:101B6800626F110E156F8382E997E895330EE56F62
:101B7800000EE66FE789E88BE78F1200046EF3EC3E
:101B88000DF0520EE8EC0DF004508009E8EC0DF071
:101B98000350E8EC0DF0EEEC0DF01200F3EC0DF054
:101BA800520EE8EC0DF0E60EE8EC0DF0EEEC0DF060
:101BB800120080927C967C987E9080908892849681
:101BC8008498869088901200026E7BEC0DF002C01B
:101BD800D5FE12007BEC0DF00E01DA8512007BECCD
:101BE8000DF00E01DA8112007BEC0DF00E01DA83A4
:061BF8001200C4096400A4
:020000040020DA
:10000000FF0FFF0FFF0FFF0FFF0FFF0FFF0FFF0F80
:020000040030CA
:0C000000AAFFFFFF9FFFFFFFFFFFFFFFB5
:00000001FF
