:0400000022EF00F0FB
:100018005D80D8CF01F0E0CF02F00E0133AB17EFCF
:1000280000F019EF00F01CEF00F03F4A402A339B24
:1000380002C0E0FF01C0D8FF5D90100023EF0FF071
:10004800430E2A6E000E2B6EDCEC09F0C50E495CDF
:10005800090E4A58D8A033EF00F035EF00F077EFDB
:1000680003F0600E4124D96EDA6A000EDA223FC02E
:10007800DFFF412A37C01CF038C01DF039C01EF020
:100088003AC01FF0A6EC0CF0050E3E6E0F0E3D6E4A
:10009800F10EE82EFED73D2EFCD73E2EFAD700F003
:1000A80037C016F038C017F039C018F03AC019F048
:1000B80090EC0DF0290E3E6E960E3D6E7F0EE82EEA
:1000C800FED73D2EFCD73E2EFAD700F0430E2A6EFF
:1000D800000E2B6EDCEC09F0290E3E6E960E3D6E7E
:1000E8007F0EE82EFED73D2EFCD73E2EFAD700F025
:1000F800B80E036E1E0E046E450E056E3F0E066E9C
:100108004BC007F04CC008F04DC009F04EC00AF0D3
:10011800A3EC0BF0D8B093EF00F095EF00F0DCEF14
:1001280000F04FC003F050C004F051C005F052C0B9
:1001380006F0EC0E076E510E086E380E096E3E0E74
:100148000A6EA3EC0BF0D8B0ACEF00F0AEEF00F005
:10015800DCEF00F053C003F054C004F055C005F0C4
:1001680056C006F0290E076E5C0E086E0F0E096E5B
:100178003E0E0A6EA3EC0BF0D8B0C5EF00F0C7EF47
:1001880000F0DCEF00F0880E4224D96EDA6A000E27
:10019800DA22020EDF6E422A37C026F038C027F076
:1001A80039C028F03AC029F0010E2A6E4FEC05F04C
:1001B8004FC003F050C004F051C005F052C006F023
:1001C800000E076E000E086E800E096E3E0E0A6E57
:1001D800A3EC0BF0D8B0F3EF00F0F5EF00F023EF4D
:1001E80001F0CD0E036ECC0E046ECC0E056E3E0EE5
:1001F800066E53C007F054C008F055C009F056C049
:100208000AF0A3EC0BF0D8B00CEF01F00EEF01F000
:1002180023EF01F0880E4224D96EDA6A000EDA2242
:10022800010EDF6E422A37C026F038C027F039C0E9
:1002380028F03AC029F0020E2A6E4FEC05F04BC0A8
:1002480003F04CC004F04DC005F04EC006F05C0E43
:10025800076E8F0E086EC20E096E3E0E0A6EA3EC74
:100268000BF0D8B03AEF01F03CEF01F083EF01F06A
:100278000A0E036ED70E046EA30E056E3E0E066EB2
:100288004FC007F050C008F051C009F052C00AF042
:10029800A3EC0BF0D8B053EF01F055EF01F083EF6A
:1002A80001F07B0E036E140E046EAE0E056E3E0E4C
:1002B800066E53C007F054C008F055C009F056C088
:1002C8000AF0A3EC0BF0D8B06CEF01F06EEF01F080
:1002D80083EF01F0880E4224D96EDA6A000EDA2222
:1002E800030EDF6E422A37C026F038C027F039C027
:1002F80028F03AC029F0030E2A6E4FEC05F0B80E2C
:10030800036E1E0E046E050E056E3F0E066E4BC084
:1003180007F04CC008F04DC009F04EC00AF0A3EC3D
:100328000BF0D8B09AEF01F09CEF01F0CAEF01F0A2
:100338000A0E036ED70E046EA30E056E3E0E066EF1
:1003480053C007F054C008F055C009F056C00AF071
:10035800A3EC0BF0D8B0B3EF01F0B5EF01F0CAEFA2
:1003680001F0880E4224D96EDA6A000EDA22090EEC
:10037800DF6E422A37C026F038C027F039C028F08F
:100388003AC029F0040E2A6E4FEC05F0000E036EF9
:10039800000E046E000E056E3F0E066E4BC007F091
:1003A8004CC008F04DC009F04EC00AF0A3EC0BF0A9
:1003B800D8B0E1EF01F0E3EF01F02AEF02F08F0E81
:1003C800036EC20E046E750E056E3E0E066E4FC0AD
:1003D80007F050C008F051C009F052C00AF0A3EC71
:1003E8000BF0D8B0FAEF01F0FCEF01F02AEF02F0C1
:1003F80053C003F054C004F055C005F056C006F0D1
:10040800C30E076EF50E086EA80E096E3E0E0A6E34
:10041800A3EC0BF0D8B013EF02F015EF02F02AEFBF
:1004280002F0880E4224D96EDA6A000EDA220A0E29
:10043800DF6E422A37C026F038C027F039C028F0CE
:100448003AC029F0050E2A6E4FEC05F09A0E036E9D
:10045800990E046E190E056E3F0E066E4BC007F01E
:100468004CC008F04DC009F04EC00AF0A3EC0BF0E8
:10047800D8B041EF02F043EF02F08AEF02F04FC02C
:1004880003F050C004F051C005F052C006F0AE0EA3
:10049800076E470E086E610E096E3E0E0A6EA3ECDB
:1004A8000BF0D8B05AEF02F05CEF02F08AEF02F0DE
:1004B8001F0E036E850E046E6B0E056E3E0E066EE5
:1004C80053C007F054C008F055C009F056C00AF0F0
:1004D800A3EC0BF0D8B073EF02F075EF02F08AEFDF
:1004E80002F0880E4224D96EDA6A000EDA22070E6C
:1004F800DF6E422A37C026F038C027F039C028F00E
:100508003AC029F0060E2A6E4FEC05F04BC003F0F6
:100518004CC004F04DC005F04EC006F0CD0E076E7D
:10052800CC0E086ECC0E096E3E0E0A6EA3EC0BF0D4
:10053800D8B0A1EF02F0A3EF02F0EAEF02F09A0EB2
:10054800036E990E046E990E056E3E0E066E4FC030
:1005580007F050C008F051C009F052C00AF0A3ECEF
:100568000BF0D8B0BAEF02F0BCEF02F0EAEF02F0FD
:10057800CD0E036ECC0E046ECC0E056E3E0E066ECE
:1005880053C007F054C008F055C009F056C00AF02F
:10059800A3EC0BF0D8B0D3EF02F0D5EF02F0EAEFFE
:1005A80002F0880E4224D96EDA6A000EDA22060EAC
:1005B800DF6E422A37C026F038C027F039C028F04D
:1005C8003AC029F0070E2A6E4FEC05F04BC003F035
:1005D8004CC004F04DC005F04EC006F0000E076E8A
:1005E800000E086E000E096E3F0E0A6EA3EC0BF0AB
:1005F800D8B001EF03F003EF03F073EF03F0810EBF
:10060800495C3E0E4A58D8A00CEF03F00EEF03F0F9
:1006180073EF03F0880E4224D96EDA6A000EDA22EC
:10062800030EDF6E422A7F9279987E9E37C01CF0B7
:1006380038C01DF039C01EF03AC01FF025EC0CF090
:10064800290E3E6E960E3D6E7F0EE82EFED73D2E8D
:10065800FCD73E2EFAD700F037C016F038C017F096
:1006680039C018F03AC019F090EC0DF0290E3E6E22
:10067800960E3D6E7F0EE82EFED73D2EFCD73E2E01
:10068800FAD700F037C031F038C032F039C033F053
:100698003AC034F06BEC08F037C016F038C017F0E9
:1006A80039C018F03AC019F090EC0DF0290E3E6EE2
:1006B800960E3D6E7F0EE82EFED73D2EFCD73E2EC1
:1006C800FAD700F037C02CF038C02DF039C02EF022
:1006D8003AC02FF0030E306E96EC07F0030046EC9C
:1006E80011F081EF03F037C01CF038C01DF039C09D
:1006F8001EF03AC01FF0A6EC0CF012001450800B4C
:10070800216E14501424286E13AE8DEF03F08FEF72
:1007180003F090EF03F028802850D8B496EF03F048
:1007280098EF03F0ADEF03F02828D8A49EEF03F06C
:10073800A0EF03F0A8EF03F0000E116E000E126E8A
:10074800000E136E000E146E138E000E146EB5EFAD
:1007580003F0000E116E000E126E000E136E000EE6
:10076800146E1850800B211A18501824296E17AED1
:10077800C0EF03F0C2EF03F0C3EF03F02980295064
:10078800D8B4C9EF03F0CBEF03F0E0EF03F029286A
:10079800D8A4D1EF03F0D3EF03F0DBEF03F0000EA2
:1007A800156E000E166E000E176E000E186E178E60
:1007B800000E186EE8EF03F0000E156E000E166EB0
:1007C800000E176E000E186E155016101710181020
:1007D800D8A4F1EF03F0F3EF03F00BEF04F0000EF1
:1007E800116E000E126E000E136E000E146E800E47
:1007F80013127F0E14122150141211C011F012C0DE
:1008080012F013C013F014C014F04EEF05F0285086
:10081800D8A411EF04F013EF04F01DEF04F0000E5C
:10082800116E000E126E000E136E000E146E4EEF57
:1008380005F0295028C019F01A6A195E000E1A5AD4
:100848007F0E1924226E000E1A20236E11C01DF08F
:1008580012C01EF013C01FF014C020F0000E116E5D
:10086800000E126E000E136E000E146E000E246E33
:10087800000E256E000E266E000E276E000E296EE5
:100888007EEF04F02950D8B44CEF04F04EEF04F09A
:1008980065EF04F0D8901D361E361F362036D890E6
:1008A800113612361336143627AE5DEF04F05FEFBB
:1008B80004F060EF04F01180D890243625362636EF
:1008C800273615501D5C16501E5817501F581850C3
:1008D8002058D8A072EF04F074EF04F07DEF04F014
:1008E800278C15501D5E16501E5A17501F5A185047
:1008F800205A292A190E296484EF04F086EF04F09F
:1009080046EF04F01D501E101F102010D8B48FEFB2
:1009180004F091EF04F0A9EF04F02480A9EF04F0AB
:10092800D890113612361336143627AE9EEF04F0DF
:10093800A0EF04F0A1EF04F01180D89024362536FA
:10094800263627362206D8A0230613AEAEEF04F0CB
:10095800B0EF04F094EF04F0000E296E27AEB7EF65
:1009680004F0B9EF04F0DDEF04F0FF0E2414196E63
:10097800FF0E25141A6EFF0E26141B6E7F0E271409
:100988001C6E19501A101B101C10D8B4CEEF04F0AE
:10099800D0EF04F0D4EF04F0010E296EDDEF04F07F
:1009A80011A0D9EF04F0DBEF04F0DDEF04F0D0EF95
:1009B80004F02950D8B4E3EF04F0E5EF04F009EFB0
:1009C80005F0010E1126000E12221322142214A083
:1009D800F0EF04F0F2EF04F009EF05F011C019F0A0
:1009E80012C01AF013C01BF014C01CF01C341C32C7
:1009F8001B321A32193219C011F01AC012F01BC07A
:100A080013F01CC014F0224A232A23BE14EF05F069
:100A1800235008E12228D8A014EF05F016EF05F0BE
:100A280021EF05F0000E236E2268000E116E000EF5
:100A3800126E000E136E000E146E23BE2EEF05F01C
:100A4800235006E12204D8B02CEF05F02EEF05F074
:100A58003CEF05F0000E236E000E226E000E116EA4
:100A6800000E126E000E136E000E146E000E216E34
:100A780022C028F028A043EF05F045EF05F048EF25
:100A880005F0138E49EF05F0139ED8902830146EA8
:100A9800FFEF03F0120026C01CF027C01DF028C08D
:100AA8001EF029C01FF025EC0CF0290E2C6E960EB6
:100AB8002B6E7F0EE82EFED72B2EFCD72C2EFAD7C6
:100AC80000F026C016F027C017F028C018F029C07B
:100AD80019F090EC0DF0290E2C6E960E2B6E7F0EF1
:100AE800E82EFED72B2EFCD72C2EFAD700F02A049E
:100AF800D8A481EF05F083EF05F09DEF05F026C03F
:100B08001CF027C01DF028C01EF029C01FF0020EDF
:100B1800206E59C021F05AC022F079EC0AF026C0A4
:100B280016F027C017F028C018F029C019F090EC6B
:100B38000DF0020E2A18D8A4A4EF05F0A6EF05F0D0
:100B4800C0EF05F026C01CF027C01DF028C01EF01D
:100B580029C01FF0020E206E5BC021F05CC022F09D
:100B68000EEC0BF026C016F027C017F028C018F0BE
:100B780029C019F090EC0DF0030E2A18D8A4C7EF7D
:100B880005F0C9EF05F0E3EF05F026C01CF027C01B
:100B98001DF028C01EF029C01FF0040E206E59C099
:100BA80021F05AC022F079EC0AF026C016F027C0CE
:100BB80017F028C018F029C019F090EC0DF0040EB9
:100BC8002A18D8A4EAEF05F0ECEF05F02CEF06F0B0
:100BD80026C01CF027C01DF028C01EF029C01FF039
:100BE8001BEC0DF0030E046E840E036E78EC10F00F
:100BF80026C016F027C017F028C018F029C019F031
:100C080090EC0DF0290E2C6E960E2B6E7F0EE82EB2
:100C1800FED72B2EFCD72C2EFAD700F026C01CF0BE
:100C280027C01DF028C01EF029C01FF0020E206E3C
:100C380059C021F05AC022F079EC0AF026C016F00B
:100C480027C017F028C018F029C019F090EC0DF053
:100C5800050E2A18D8A433EF06F035EF06F075EF25
:100C680006F026C01CF027C01DF028C01EF029C0C1
:100C78001FF01BEC0DF0030E046E840E036E78EC6F
:100C880010F026C016F027C017F028C018F029C0A9
:100C980019F090EC0DF0290E2C6E960E2B6E7F0E2F
:100CA800E82EFED72B2EFCD72C2EFAD700F026C024
:100CB8001CF027C01DF028C01EF029C01FF0020E2E
:100CC800206E5BC021F05CC022F00EEC0BF026C059
:100CD80016F027C017F028C018F029C019F090ECBA
:100CE8000DF0060E2A18D8A47CEF06F07EEF06F069
:100CF80098EF06F026C01CF027C01DF028C01EF093
:100D080029C01FF0030E206E59C021F05AC022F0EE
:100D180079EC0AF026C016F027C017F028C018F0A2
:100D280029C019F090EC0DF0070E2A18D8A49FEFEF
:100D380006F0A1EF06F0BBEF06F026C01CF027C0B6
:100D48001DF028C01EF029C01FF0030E206E5BC0E6
:100D580021F05CC022F00EEC0BF026C016F027C084
:100D680017F028C018F029C019F090EC0DF0120007
:100D78000B6E0B50D8B4C3EF06F0C5EF06F0E7EFE3
:100D880006F006BECCEF06F0CAEF06F0E7EF06F075
:100D980003C007F004C008F005C009F006C00AF057
:100DA800071E081E091E0A1E072A000E082209220D
:100DB8000A2207C00DF008C00EF009C00FF00AC0E3
:100DC80010F0EFEF06F003C00DF004C00EF005C000
:100DD8000FF006C010F00350041005100610D8A438
:100DE800F8EF06F0FAEF06F004EF07F0000E036ED6
:100DF800000E046E000E056E000E066E95EF07F0ED
:100E0800960E0C6E0EEF07F00C2AD89010320F32A7
:100E18000E320D32000E0D14076E000E0E14086E01
:100E2800000E0F14096EFE0E10140A6E07500810FB
:100E380009100A10D8A423EF07F025EF07F008EFF0
:100E480007F033EF07F00C2A010E0D26000E0E22D4
:100E58000F221022D89010320F320E320D32000EAF
:100E68000D14076E000E0E14086E000E0F14096E96
:100E7800FF0E10140A6E0750081009100A10D8A4A3
:100E880048EF07F04AEF07F027EF07F052EF07F0B7
:100E98000C06D8900D360E360F3610360FBE57EFAB
:100EA80007F059EF07F061EF07F0020E0C605FEFF3
:100EB80007F061EF07F04CEF07F00CB066EF07F0B2
:100EC80068EF07F069EF07F00F9ED8900C320CC05E
:100ED80007F0086A096A0A6A07C00AF0096A086A14
:100EE800076A07500D1208500E1209500F120A50C7
:100EF80010120B50D8B483EF07F085EF07F08DEF91
:100F080007F006BE8CEF07F08AEF07F08DEF07F0C9
:100F1800108E0DC003F00EC004F00FC005F010C015
:100F280006F012003004D8A49CEF07F09EEF07F0FB
:100F3800B8EF07F02CC01CF02DC01DF02EC01EF01D
:100F48002FC01FF0020E206E59C021F05AC022F0A7
:100F580079EC0AF02CC016F02DC017F02EC018F04E
:100F68002FC019F090EC0DF0020E3018D8A4BFEF86
:100F780007F0C1EF07F0DBEF07F02CC01CF02DC025
:100F88001DF02EC01EF02FC01FF0020E206E5BC099
:100F980021F05CC022F00EEC0BF02CC016F02DC036
:100FA80017F02EC018F02FC019F090EC0DF0030EBA
:100FB8003018D8A4E2EF07F0E4EF07F0FEEF07F0EF
:100FC8002CC01CF02DC01DF02EC01EF02FC01FF02D
:100FD800040E206E59C021F05AC022F079EC0AF0B4
:100FE8002CC016F02DC017F02EC018F02FC019F025
:100FF80090EC0DF0060E3018D8A405EF08F007EFB6
:1010080008F021EF08F02CC01CF02DC01DF02EC0F8
:101018001EF02FC01FF0030E206E59C021F05AC0D9
:1010280022F079EC0AF02CC016F02DC017F02EC073
:1010380018F02FC019F090EC0DF0070E3018D8A456
:1010480028EF08F02AEF08F044EF08F02CC01CF055
:101058002DC01DF02EC01EF02FC01FF0030E206EF5
:1010680059C021F05AC022F00EEC0BF02CC016F03B
:101078002DC017F02EC018F02FC019F090EC0DF00D
:10108800090E3018D8A44BEF08F04DEF08F057EFD1
:1010980008F02CC026F02DC027F02EC028F02FC055
:1010A80029F030EC0EF00A0E3018D8A45EEF08F0E4
:1010B80060EF08F06AEF08F02CC026F02DC027F08A
:1010C8002EC028F02FC029F071EC0EF0120015EF99
:1010D80009F031C02CF032C02DF033C02EF034C0EE
:1010E8002FF0870E4224D96EDA6A000EDA22DF501A
:1010F800306E96EC07F04206150E366E4B0E356EC6
:10110800BE0EE82EFED7352EFCD7362EFAD700D0E5
:1011180031C01CF032C01DF033C01EF034C01FF0C7
:101128001BEC0DF0290E366E960E356E7F0EE82EEE
:10113800FED7352EFCD7362EFAD700F031C016F080
:1011480032C017F033C018F034C019F090EC0DF02D
:10115800290E366E960E356E7F0EE82EFED7352E8A
:10116800FCD7362EFAD700F031C01CF032C01DF083
:1011780033C01EF034C01FF0A6EC0CF05F0E412403
:10118800D96EDA6A000EDA22DF50356EFE0E35248B
:10119800036E046AFF0E042258EC10F0410631C0B9
:1011A80016F032C017F033C018F034C019F090ECC4
:1011B8000DF0110E366E3C0E356ECB0EE82EFED7B6
:1011C800352EFCD7362EFAD700F031C01CF032C0CD
:1011D8001DF033C01EF034C01FF01BEC0DF0090EDB
:1011E800366E1E0E356EE40EE82EFED7352EFCD771
:1011F800362EFAD700D031C016F032C017F033C0FF
:1012080018F034C019F090EC0DF0150E366E4B0E38
:10121800356EBE0EE82EFED7352EFCD7362EFAD701
:1012280000D04150D8B41BEF09F01DEF09F025EFAD
:1012380009F04250D8A423EF09F025EF09F06DEF2B
:1012480008F0120020EE02F01050D9261150DA22D0
:10125800DF50D8B432EF09F034EF09F068EF09F045
:1012680010C0D9FF11C0DAFFDF50126E1250036EA2
:10127800046A20EE03F01050D9261150DA22DECF8E
:1012880005F0DDCF06F0DBEC10F003C009F004C078
:101298000AF0000E0C6E640E0B6EB2EC0EF020EE2F
:1012A80003F01050D9261150DA22DF50136E09507E
:1012B800135C146E20EE03F01050D9261150DA2278
:1012C800DF50156E8BEF09F0000E146E10C0D9FFB9
:1012D80011C0DAFFDF50126E1250036E046A20EE5E
:1012E80003F01050D9261150DA22DECF05F0DDCFF9
:1012F80006F0DBEC10F003C009F004C00AF0000EA1
:101308000C6E640E0B6EB2EC0EF00950156E20EEEA
:1013180001F01050D9261150DA22DF50D8B497EFD7
:1013280009F099EF09F0BBEF09F020EE05F0105035
:10133800D9261150DA22DECF12F0DDCF13F012C019
:10134800D9FF13C0DAFF14C0DFFF20EE07F01050FA
:10135800D9261150DA22DECF12F0DDCF13F012C0F9
:10136800D9FF13C0DAFF15C0DFFFDBEF09F020EE6D
:1013780005F01050D9261150DA22DECF12F0DDCF59
:1013880013F012C0D9FF13C0DAFF15C0DFFF20EE3B
:1013980007F01050D9261150DA22DECF12F0DDCF37
:1013A80013F012C0D9FF13C0DAFF14C0DFFF120018
:1013B80050EC0FF007C043F008C044F0C8EC0FF041
:1013C80007C045F008C046F078EC0FF007C047F0BA
:1013D80008C048F0A0EC0FF007C049F008C04AF078
:1013E80043C003F044C004F0056A066A000EBCEC72
:1013F80006F003C011F004C012F005C013F006C0D7
:1014080014F049C003F04AC004F0056A066A000EE9
:10141800BCEC06F003C015F004C016F005C017F0C8
:1014280006C018F082EC03F011C04BF012C04CF06B
:1014380013C04DF014C04EF045C003F046C004F090
:10144800056A066A000EBCEC06F003C011F004C081
:1014580012F005C013F006C014F049C003F04AC0EA
:1014680004F0056A066A000EBCEC06F003C015F02D
:1014780004C016F005C017F006C018F082EC03F09F
:1014880011C04FF012C050F013C051F014C052F008
:1014980047C003F048C004F0056A066A000EBCECB9
:1014A80006F003C011F004C012F005C013F006C026
:1014B80014F049C003F04AC004F0056A066A000E39
:1014C800BCEC06F003C015F004C016F005C017F018
:1014D80006C018F082EC03F011C053F012C054F0AB
:1014E80013C055F014C056F012001CC016F01DC0F1
:1014F80017F01EC018F01FC019F090EC0DF020EE88
:1015080001F01C50D9261D50DA22010EDF6E20EEA4
:1015180001F01E50D9261F50DA22000EDF6E80809F
:10152800000E256E04EF0BF01CC0D9FF1DC0DAFFBA
:10153800330EDF60A2EF0AF0A4EF0AF0AAEF0AF078
:101548001CC0D9FF1DC0DAFF0A0EDF261EC0D9FF56
:101558001FC0DAFF330EDF60B4EF0AF0B6EF0AF00F
:10156800BCEF0AF01EC0D9FF1FC0DAFF0A0EDF2643
:101578001CC010F01DC011F026EC09F01EC010F0C0
:101588001FC011F026EC09F0D00E236ECA0EE82E0B
:10159800FED7232EFCD71CC0D9FF1DC0DAFF320EA0
:1015A800DF64D9EF0AF0DBEF0AF098EF0AF01EC00B
:1015B800D9FF1FC0DAFF320EDF64E5EF0AF0E7EF6C
:1015C8000AF098EF0AF021C003F022C004F078EC8A
:1015D80010F01CC016F01DC017F01EC018F01FC078
:1015E80019F090EC0DF00D0E246E2D0E236ED80E12
:1015F800E82EFED7232EFCD7242EFAD78090252A52
:101608002050255CD8A00BEF0BF00DEF0BF0CFEFBF
:101618000AF012001CC016F01DC017F01EC018F00A
:101628001FC019F090EC0DF020EE01F01C50D926E7
:101638001D50DA22000EDF6E20EE01F01E50D92672
:101648001F50DA22010EDF6E7E80000E256E99EFA4
:101658000BF01CC0D9FF1DC0DAFF330EDF6037EF77
:101668000BF039EF0BF03FEF0BF01CC0D9FF1DC09A
:10167800DAFF0A0EDF261EC0D9FF1FC0DAFF330EBD
:10168800DF6049EF0BF04BEF0BF051EF0BF01EC092
:10169800D9FF1FC0DAFF0A0EDF261CC010F01DC0DC
:1016A80011F026EC09F01EC010F01FC011F026EC56
:1016B80009F0D00E236ECA0EE82EFED7232EFCD7D3
:1016C8001CC0D9FF1DC0DAFF320EDF646EEF0BF0CD
:1016D80070EF0BF02DEF0BF01EC0D9FF1FC0DAFF23
:1016E800320EDF647AEF0BF07CEF0BF02DEF0BF08E
:1016F80021C003F022C004F078EC10F01CC016F0F2
:101708001DC017F01EC018F01FC019F090EC0DF0A6
:101718000D0E246E2D0E236ED80EE82EFED7232E26
:10172800FCD7242EFAD77E90252A2050255CD8A0F5
:10173800A0EF0BF0A2EF0BF064EF0BF01200000E1D
:1017480003140B6E000E04140C6E800E05140D6E3F
:101758007F0E06140E6E0B500C100D100E10D8A430
:10176800B8EF0BF0BAEF0BF0C2EF0BF0000E036E00
:10177800000E046E000E056E000E066E000E0714B5
:101788000B6E000E08140C6E800E09140D6E7F0E81
:101798000A140E6E0B500C100D100E10D8A4D7EFB3
:1017A8000BF0D9EF0BF0E1EF0BF0000E076E000E17
:1017B800086E000E096E000E0A6E06AEE6EF0BF01C
:1017C800E8EF0BF0F1EF0BF0036C041ED8B0042A1D
:1017D800051ED8B0052A800E06560AAEF6EF0BF0A5
:1017E800F8EF0BF001EF0CF0076C081ED8B0082AD0
:1017F800091ED8B0092A800E0A56000E031A000ED8
:10180800041A000E051A800E061A000E071A000E9A
:10181800081A000E091A800E0A1A0750035C0850AD
:101828000458095005580A500658D8B01EEF0CF055
:1018380020EF0CF023EF0CF0D89024EF0CF0D880B8
:1018480012001CC016F01DC017F01EC018F01FC0F3
:1018580019F090EC0DF0808220EE01F01C50D92692
:101868001D50DA22000EDF6E20EE01F01E50D92640
:101878001F50DA22000EDF6E1EC010F01FC011F0DC
:1018880026EC09F01CC010F01DC011F026EC09F080
:101898006AEF0CF01CC0D9FF1DC0DAFF0A0EDF2664
:1018A8001EC0D9FF1FC0DAFF0A0EDF261CC010F0C9
:1018B8001DC011F026EC09F01EC010F01FC011F079
:1018C80026EC09F06A0EE82EFED700D01CC0D9FF1E
:1018D8001DC0DAFF1E0EDF6074EF0CF076EF0CF01F
:1018E80082EF0CF01EC0D9FF1FC0DAFF1D0EDF64A7
:1018F80080EF0CF082EF0CF04EEF0CF01D0E216E15
:10190800690E206EA50EE82EFED7202EFCD7212EBC
:10191800FAD700F01CC016F01DC017F01EC018F052
:101928001FC019F090EC0DF0110E216E3C0E206EC8
:10193800CB0EE82EFED7202EFCD7212EFAD700F0AA
:10194800809212001CC016F01DC017F01EC018F0BF
:101958001FC019F090EC0DF020EE01F01C50D926B4
:101968001D50DA22010EDF6E20EE01F01E50D9263E
:101978001F50DA22010EDF6E7C861EC010F01FC0D9
:1019880011F026EC09F01CC010F01DC011F026EC77
:1019980009F001EF0DF01CC0D9FF1DC0DAFF330EAE
:1019A800DF60D9EF0CF0DBEF0CF0E0EF0CF01CC0BF
:1019B800D9FF1DC0DAFFDF2A1EC0D9FF1FC0DAFF1A
:1019C800380EDF60EAEF0CF0ECEF0CF0F1EF0CF002
:1019D8001EC0D9FF1FC0DAFFDF2A1CC010F01DC0CF
:1019E80011F026EC09F01EC010F01FC011F026EC13
:1019F80009F01A0EE82EFED700D01CC0D9FF1DC072
:101A0800DAFF320EDF640BEF0DF00DEF0DF0CFEFC4
:101A18000CF01EC0D9FF1FC0DAFF370EDF6417EFC6
:101A28000DF019EF0DF0CFEF0CF07C9612001CC0F2
:101A380016F01DC017F01EC018F01FC019F090EC6A
:101A48000DF020EE01F01C50D9261D50DA22000EB0
:101A5800DF6E20EE01F01E50D9261F50DA22000E4C
:101A6800DF6E80821EC010F01FC011F026EC09F056
:101A78001CC010F01DC011F026EC09F076EF0DF037
:101A88001CC0D9FF1DC0DAFF330EDF604EEF0DF02A
:101A980050EF0DF055EF0DF01CC0D9FF1DC0DAFF57
:101AA800DF2A1EC0D9FF1FC0DAFF380EDF605FEFE4
:101AB8000DF061EF0DF066EF0DF01EC0D9FF1FC0ED
:101AC800DAFFDF2A1CC010F01DC011F026EC09F067
:101AD8001EC010F01FC011F026EC09F01A0EE82EF7
:101AE800FED700D01CC0D9FF1DC0DAFF320EDF645C
:101AF80080EF0DF082EF0DF044EF0DF01EC0D9FF1E
:101B08001FC0DAFF370EDF648CEF0DF08EEF0DF09B
:101B180044EF0DF08092120020EE02F01650D92604
:101B28001750DA22010EDF6E20EE02F01850D92687
:101B38001950DA22010EDF6E7C88000E1B6E460EED
:101B48001A6E16C0D9FF17C0DAFF1AC0DFFF18C017
:101B5800D9FF19C0DAFF1AC0DFFF16C010F017C08E
:101B680011F026EC09F018C010F019C011F026EC9D
:101B780009F06A0EE82EFED700D0F60E1A241A6E67
:101B8800FF0E1B201B6E1BBECEEF0DF0CCEF0DF031
:101B9800A5EF0DF016C0D9FF17C0DAFF000EDF6EF3
:101BA80018C0D9FF19C0DAFF000EDF6E16C010F09A
:101BB80017C011F026EC09F018C010F019C011F088
:101BC80026EC09F07C98120085948598839E879C62
:101BD8007D947D987B9E7F9C050E0E01746F060E8A
:101BE800766F070E696F080E886FBD508F0B40091E
:101BF800BD6EE00EBE16BF50F00B0109BF6E03C0EC
:101C0800BCFFBD8E000EAA6E000EA66E000E0F0160
:101C1800256F000E216FFC0EAD16F30EAD16CF0E1C
:101C2800AD163F0EAD16AB88AB50F00B0C09AB6E82
:101C3800AB8EA788A750F00B0C09A76EA78E268934
:101C48002651F00B0C09266F268F22892251F00BA2
:101C58000C09226F228F120026C01CF027C01DF02D
:101C680028C01EF029C01FF0020E206E5BC021F0B4
:101C78005CC022F00EEC0BF026C016F027C017F05F
:101C880028C018F029C019F090EC0DF0110E2B6E39
:101C98003C0E2A6ECB0EE82EFED72A2EFCD72B2E12
:101CA800FAD700F026C01CF027C01DF028C01EF08F
:101CB80029C01FF01BEC0DF0030E046E840E036E9A
:101CC80078EC10F026C016F027C017F028C018F0DE
:101CD80029C019F090EC0DF0120026C01CF027C0A6
:101CE8001DF028C01EF029C01FF0020E206E59C03A
:101CF80021F05AC022F079EC0AF026C016F027C06D
:101D080017F028C018F029C019F090EC0DF0110E4A
:101D18002B6E3C0E2A6ECB0EE82EFED72A2EFCD751
:101D28002B2EFAD700F026C01CF027C01DF028C0C3
:101D38001EF029C01FF01BEC0DF0030E046E840E7C
:101D4800036E78EC10F026C016F027C017F028C0F4
:101D580018F029C019F090EC0DF01200000E0E6E6C
:101D6800000E0D6E0B500C10D8B4BDEF0EF0BFEF87
:101D78000EF0E7EF0EF0010E0F6EC7EF0EF0D890E1
:101D88000B360C360F2A0CAECCEF0EF0CEEF0EF061
:101D9800C3EF0EF0D8900D360E360B50095C0C5080
:101DA8000A58D8A0DAEF0EF0DCEF0EF0E1EF0EF0F3
:101DB8000B50095E0C500A5A0D80D8900C320B3229
:101DC8000F2ECEEF0EF00DC009F00EC00AF0120073
:101DD80016EC10F08EA4F3EF0EF0F5EF0EF0FCEF1A
:101DE8000EF08EB6FAEF0EF0FCEF0EF0EEEF0EF0FE
:101DF8008EB601EF0FF003EF0FF021EF0FF0290E71
:101E08000001C56F960EC46F7F0EE82EFED7C42F53
:101E1800FCD7C52FFAD746EC11F0B90E376E000E75
:101E2800386EB00E396E000E3A6E430E3B6E000EE1
:101E38003C6E24EC00F011EF0FF022EF00F0DE0E04
:101E4800F66E220EF76E000EF86E0900F5CFC2F09E
:101E58000900F5CFC3F0D80EF66E220EF76E000E0D
:101E6800F86E00EE57F010EE06F00900F5CFEEFF21
:101E7800E550E150FAE100EE60F0620EEE6AE80625
:101E8800FDE100EE3FF0180EEE6AE806FDE15D9018
:101E98005D920001ECEF0EF062EC11F0520E57EC7F
:101EA80011F0B60E57EC11F067EC11F0530E57EC29
:101EB80011F0010E37EC10F0096E09500C6E0D6A26
:101EC800000E37EC10F0096E09500B6E0A6A0C50C0
:101ED8000A100C6E0D500B100D6E5DEC11F00CC05D
:101EE80007F00DC008F0120062EC11F0520E57EC2A
:101EF80011F0B80E57EC11F067EC11F0530E57ECD7
:101F080011F0010E37EC10F0096E09500C6E0D6AD5
:101F1800000E37EC10F0096E09500B6E0A6A0C506F
:101F28000A100C6E0D500B100D6E5DEC11F00CC00C
:101F380007F00DC008F0120062EC11F0520E57ECD9
:101F480011F0B40E57EC11F067EC11F0530E57EC8A
:101F580011F0010E37EC10F0096E09500C6E0D6A85
:101F6800000E37EC10F0096E09500B6E0A6A0C501F
:101F78000A100C6E0D500B100D6E5DEC11F00CC0BC
:101F880007F00DC008F0120062EC11F0520E57EC89
:101F980011F0BA0E57EC11F067EC11F0530E57EC34
:101FA80011F0010E37EC10F0096E09500C6E0D6A35
:101FB800000E37EC10F0096E09500B6E0A6A0C50CF
:101FC8000A100C6E0D500B100D6E5DEC11F00CC06C
:101FD80007F00DC008F01200000E0001B96F010EE5
:101FE800BA6F010EBB6FAA0EBE6F0F0EBF6FA60EA3
:101FF800C06F0F0EC16F000EBD6F630EBC6F000E79
:10200800B06F010EB16F010EB26F250EB56F0F0ED6
:10201800B66F210EB76F0F0EB86F000EB46F630E58
:10202800B36F1200000E046E630E036EE8EC0DF041
:102038003BEC11F0EEEC10F0B90E036E000E046EDE
:10204800B00E056E000E066EF0EC0FF0B2EC10F05C
:1020580098EC10F01EEC11F04FEC11F0FEEC10F0C3
:102068002EEC11F01200056EC7EC10F00E01DA87A5
:10207800C7EC10F0D5CE06F0C7EC10F00550D8B478
:1020880048EF10F04CEF10F0046A042A4DEF10F0FE
:10209800046A043A04460E01DA510418DF0B0418E6
:1020A800DA6FDA8906501200000E086E000E076E0D
:1020B8006CEF10F00B0E066EA30E056E0A0EE82EDE
:1020C800FED7052EFCD7062EFAD700D0074A082AD5
:1020D8000350075C04500858D8A075EF10F077EF4C
:1020E80010F05EEF10F01200000E076E000E066E84
:1020F80088EF10F0150E056EC60EE82EFED7052ED9
:10210800FCD700D0064A072A0350065C0750800A0D
:10211800056E0450800A0558D8A095EF10F097EF87
:1021280010F07EEF10F01200B2EC10F0010E056E08
:10213800000E0EEC11F03F0E076E550EE82EFED77E
:10214800072EFCD700F0030E056E000E0EEC11F002
:10215800D50E056E010E0EEC11F012000E01D951CC
:10216800F00B0809D96FD98B9F0ED66F848A848C9F
:10217800A79BA79D1D0E1D6F1E0E1C6F1C0E6F6F5B
:102188001B0E706F12000E01D8B5CDEF10F0CFEF17
:1021980010F0C7EF10F0DACE03F01F0E0316D8A424
:1021A800D8EF10F0DAEF10F0C7EF10F0120003507C
:1021B8000502F3CF07F0F4CF08F003500602F350FE
:1021C800082604500502F350082607C003F008C08B
:1021D80004F0120087928198869E7F8279887E8E8D
:1021E80086840E01B4958686B497849E7C9E8896D4
:1021F80080961200120E0E01626F110E156F838207
:10220800E997E895330EE56F000EE66FE789E88BEE
:10221800E78F1200066E62EC11F0520E57EC11F0C7
:102228000650800957EC11F0055057EC11F05DECA1
:1022380011F01200D6501F0B4009D66ED688D65022
:10224800F00B0509D66ED588000ED46E230ED36E1A
:10225800D58E1200868C0E01B48D0F015899FC0E94
:1022680058172E0E5F6F60946088608E12008092FF
:102278007C967C987E9080908892849684988690AC
:1022880088901200000E406E000E3F6E000ED46E55
:10229800230ED36E12000E01298B339B1F9BF28AEB
:1022A800F28CF28E1200046EC7EC10F004C0D5FE5A
:1022B8001200C7EC10F00E01DA851200C7EC10F01E
:1022C8000E01DA811200C7EC10F00E01DA83120059
:0822D800840360006200C409E8
:020000040020DA
:10000000FF0FFF0FFF0FFF0FFF0FFF0FFF0FFF0F80
:020000040030CA
:0C000000AAFFFFFF9FFFFFFFFFFFFFFFB5
:00000001FF
