:0400000024EF00F0F9
:100018005D80D8CF01F0E0CF02F00E0133AB17EFCF
:1000280000F019EF00F01EEF00F00001C44BC52BE3
:100038000E01339B02C0E0FF01C0D8FF5D901000A5
:1000480009EF0FF0450E2A6E000E2B6E19EC0AF020
:10005800C50E4B5C090E4C58D8A035EF00F037EFB1
:1000680000F09FEF03F0600E4324D96EDA6A000EA9
:10007800DA22C4C0DFFF432A3AC01CF03BC01DF09F
:100088003CC01EF03DC01FF0DFEC0CF0050E000177
:10009800DF6F0F0EDE6FF10EE82EFED7DE2FFCD7D6
:1000A800DF2FFAD73AC016F03BC017F03CC018F063
:1000B8003DC019F09DEC0DF0290E0001DF6F960E82
:1000C800DE6F7F0EE82EFED7DE2FFCD7DF2FFAD7A4
:1000D800450E2A6E000E2B6E19EC0AF0290E00014F
:1000E800DF6F960EDE6F7F0EE82EFED7DE2FFCD771
:1000F800DF2FFAD7B80E036E1E0E046E450E056E7E
:100108003F0E066E4DC007F04EC008F04FC009F014
:1001180050C00AF0DCEC0BF0D8B095EF00F097EF88
:1001280000F0E0EF00F051C003F052C004F053C0FB
:1001380005F054C006F0EC0E076E510E086E380E2E
:10014800096E3E0E0A6EDCEC0BF0D8B0AEEF00F094
:10015800B0EF00F0E0EF00F055C003F056C004F037
:1001680057C005F058C006F0290E076E5C0E086EE1
:100178000F0E096E3E0E0A6EDCEC0BF0D8B0C7EF1E
:1001880000F0C9EF00F0E0EF00F0880E4424D96ECB
:10019800DA6A000EDA22020EDF6E442A3AC028F02C
:1001A8003BC029F03CC02AF03DC02BF0000E2D6E5C
:1001B800010E2C6E77EC05F051C003F052C004F02C
:1001C80053C005F054C006F0000E076E000E086E0E
:1001D800800E096E3E0E0A6EDCEC0BF0D8B0F7EF1D
:1001E80000F0F9EF00F029EF01F0CD0E036ECC0E10
:1001F800046ECC0E056E3E0E066E55C007F056C056
:1002080008F057C009F058C00AF0DCEC0BF0D8B081
:1002180010EF01F012EF01F029EF01F0880E4424ED
:10022800D96EDA6A000EDA22010EDF6E442A3AC06D
:1002380028F03BC029F03CC02AF03DC02BF0000E4E
:100248002D6E020E2C6E77EC05F04DC003F04EC0FB
:1002580004F04FC005F050C006F05C0E076E8F0E1C
:10026800086EC20E096E3E0E0A6EDCEC0BF0D8B0BA
:1002780040EF01F042EF01F08BEF01F00A0E036E40
:10028800D70E046EA30E056E3E0E066E51C007F023
:1002980052C008F053C009F054C00AF0DCEC0BF06F
:1002A800D8B059EF01F05BEF01F08BEF01F07B0E56
:1002B800036E140E046EAE0E056E3E0E066E55C02D
:1002C80007F056C008F057C009F058C00AF0DCEC37
:1002D8000BF0D8B072EF01F074EF01F08BEF01F082
:1002E800880E4424D96EDA6A000EDA22030EDF6E15
:1002F800442A3AC028F03BC029F03CC02AF03DC04F
:100308002BF0000E2D6E030E2C6E77EC05F0B80E58
:10031800036E1E0E046E050E056E3F0E066E4DC072
:1003280007F04EC008F04FC009F050C00AF0DCECEE
:100338000BF0D8B0A2EF01F0A4EF01F0D4EF01F078
:100348000A0E036ED70E046EA30E056E3E0E066EE1
:1003580055C007F056C008F057C009F058C00AF059
:10036800DCEC0BF0D8B0BBEF01F0BDEF01F0D4EF3F
:1003780001F0880E4424D96EDA6A000EDA22090EDA
:10038800DF6E442A3AC028F03BC029F03CC02AF06E
:100398003DC02BF0000E2D6E040E2C6E77EC05F090
:1003A800000E036E000E046E000E056E3F0E066E04
:1003B8004DC007F04EC008F04FC009F050C00AF019
:1003C800DCEC0BF0D8B0EBEF01F0EDEF01F036EF1D
:1003D80002F08F0E036EC20E046E750E056E3E0E91
:1003E800066E51C007F052C008F053C009F054C05F
:1003F8000AF0DCEC0BF0D8B004EF02F006EF02F0E4
:1004080036EF02F055C003F056C004F057C005F0AF
:1004180058C006F0C30E076EF50E086EA80E096EDA
:100428003E0E0A6EDCEC0BF0D8B01DEF02F01FEFA9
:1004380002F036EF02F0880E4424D96EDA6A000E14
:10044800DA220A0EDF6E442A3AC028F03BC029F0AF
:100458003CC02AF03DC02BF0000E2D6E050E2C6E10
:1004680077EC05F09A0E036E990E046E190E056E60
:100478003F0E066E4DC007F04EC008F04FC009F0A1
:1004880050C00AF0DCEC0BF0D8B04DEF02F04FEFA3
:1004980002F098EF02F051C003F052C004F053C0CC
:1004A80005F054C006F0AE0E076E470E086E610EDA
:1004B800096E3E0E0A6EDCEC0BF0D8B066EF02F067
:1004C80068EF02F098EF02F01F0E036E850E046EBF
:1004D8006B0E056E3E0E066E55C007F056C008F04E
:1004E80057C009F058C00AF0DCEC0BF0D8B07FEF29
:1004F80002F081EF02F098EF02F0880E4424D96EE2
:10050800DA6A000EDA22070EDF6E442A3AC028F0B3
:100518003BC029F03CC02AF03DC02BF0000E2D6EE8
:10052800060E2C6E77EC05F04DC003F04EC004F0BB
:100538004FC005F050C006F0CD0E076ECC0E086E09
:10054800CC0E096E3E0E0A6EDCEC0BF0D8B0AFEFA5
:1005580002F0B1EF02F0FAEF02F09A0E036E990E74
:10056800046E990E056E3E0E066E51C007F052C01D
:1005780008F053C009F054C00AF0DCEC0BF0D8B016
:10058800C8EF02F0CAEF02F0FAEF02F0CD0E036EE8
:10059800CC0E046ECC0E056E3E0E066E55C007F0EE
:1005A80056C008F057C009F058C00AF0DCEC0BF050
:1005B800D8B0E1EF02F0E3EF02F0FAEF02F0880EB4
:1005C8004424D96EDA6A000EDA22060EDF6E442A57
:1005D8003AC028F03BC029F03CC02AF03DC02BF0BF
:1005E800000E2D6E070E2C6E77EC05F04DC003F053
:1005F8004EC004F04FC005F050C006F08F0E076ED5
:10060800C20E086EF50E096E3E0E0A6EDCEC0BF09B
:10061800D8B011EF03F013EF03F09BEF03F0810E56
:100628004B5C3E0E4C58D8A01CEF03F01EEF03F0B5
:100638009BEF03F055C003F056C004F057C005F017
:1006480058C006F0EC0E076E510E086EB80E096E13
:100658003E0E0A6EDCEC0BF0D8B035EF03F037EF46
:1006680003F09BEF03F0880E4424D96EDA6A000E7B
:10067800DA22030EDF6E442A3AC01CF03BC01DF09C
:100688003CC01EF03DC01FF05EEC0CF0290E0001CE
:10069800DF6F960EDE6F7F0EE82EFED7DE2FFCD7BB
:1006A800DF2FFAD73AC016F03BC017F03CC018F05D
:1006B8003DC019F09DEC0DF0290E0001DF6F960E7C
:1006C800DE6F7F0EE82EFED7DE2FFCD7DF2FFAD79E
:1006D8003AC034F03BC035F03CC036F03DC037F08E
:1006E8004AEC0BF03AC016F03BC017F03CC018F0CB
:1006F8003DC019F09DEC0DF0290E0001DF6F960E3C
:10070800DE6F7F0EE82EFED7DE2FFCD7DF2FFAD75D
:100718003AC02EF03BC02FF03CC030F03DC031F065
:10072800000E336E030E326E05EC07F003004EEC3C
:1007380011F0A9EF03F03AC01CF03BC01DF03CC01B
:100748001EF03DC01FF0DFEC0CF012001450800BBF
:10075800216E14501424286E13AEB5EF03F0B7EFD2
:1007680003F0B8EF03F028802850D8B4BEEF03F0A8
:10077800C0EF03F0D5EF03F02828D8A4C6EF03F0A4
:10078800C8EF03F0D0EF03F0000E116E000E126EEA
:10079800000E136E000E146E138E000E146EDDEF35
:1007A80003F0000E116E000E126E000E136E000E96
:1007B800146E1850800B211A18501824296E17AE81
:1007C800E8EF03F0EAEF03F0EBEF03F0298029509C
:1007D800D8B4F1EF03F0F3EF03F008EF04F02928A1
:1007E800D8A4F9EF03F0FBEF03F003EF04F0000ED9
:1007F800156E000E166E000E176E000E186E178E10
:10080800000E186E10EF04F0000E156E000E166E36
:10081800000E176E000E186E1550161017101810CF
:10082800D8A419EF04F01BEF04F033EF04F0000E26
:10083800116E000E126E000E136E000E146E800EF6
:1008480013127F0E14122150141211C011F012C08D
:1008580012F013C013F014C014F076EF05F028500E
:10086800D8A439EF04F03BEF04F045EF04F0000E94
:10087800116E000E126E000E136E000E146E76EFDF
:1008880005F0295028C019F01A6A195E000E1A5A84
:100898007F0E1924226E000E1A20236E11C01DF03F
:1008A80012C01EF013C01FF014C020F0000E116E0D
:1008B800000E126E000E136E000E146E000E246EE3
:1008C800000E256E000E266E000E276E000E296E95
:1008D800A6EF04F02950D8B474EF04F076EF04F0D2
:1008E8008DEF04F0D8901D361E361F362036D8906E
:1008F800113612361336143627AE85EF04F087EF1B
:1009080004F088EF04F01180D89024362536263676
:10091800273615501D5C16501E5817501F58185072
:100928002058D8A09AEF04F09CEF04F0A5EF04F04B
:10093800278C15501D5E16501E5A17501F5A1850F6
:10094800205A292A190E2964ACEF04F0AEEF04F0FE
:100958006EEF04F01D501E101F102010D8B4B7EF12
:1009680004F0B9EF04F0D1EF04F02480D1EF04F0E3
:10097800D890113612361336143627AEC6EF04F067
:10098800C8EF04F0C9EF04F01180D890243625365A
:10099800263627362206D8A0230613AED6EF04F053
:1009A800D8EF04F0BCEF04F0000E296E27AEDFEF9D
:1009B80004F0E1EF04F005EF05F0FF0E2414196EC2
:1009C800FF0E25141A6EFF0E26141B6E7F0E2714B9
:1009D8001C6E19501A101B101C10D8B4F6EF04F036
:1009E800F8EF04F0FCEF04F0010E296E05EF05F0B6
:1009F80011A001EF05F003EF05F005EF05F0F8EFA2
:100A080004F02950D8B40BEF05F00DEF05F031EFE5
:100A180005F0010E1126000E12221322142214A032
:100A280018EF05F01AEF05F031EF05F011C019F0D5
:100A380012C01AF013C01BF014C01CF01C341C3276
:100A48001B321A32193219C011F01AC012F01BC029
:100A580013F01CC014F0224A232A23BE3CEF05F0F1
:100A6800235008E12228D8A03CEF05F03EEF05F01E
:100A780049EF05F0000E236E2268000E116E000E7D
:100A8800126E000E136E000E146E23BE56EF05F0A4
:100A9800235006E12204D8B054EF05F056EF05F0D4
:100AA80064EF05F0000E236E000E226E000E116E2C
:100AB800000E126E000E136E000E146E000E216EE4
:100AC80022C028F028A06BEF05F06DEF05F070EF5D
:100AD80005F0138E71EF05F0139ED8902830146E30
:100AE80027EF04F0120028C01CF029C01DF02AC00E
:100AF8001EF02BC01FF05EEC0CF0290E2F6E960E28
:100B08002E6E7F0EE82EFED72E2EFCD72F2EFAD76C
:100B180000F028C016F029C017F02AC018F02BC022
:100B280019F09DEC0DF0290E2F6E960E2E6E7F0E8D
:100B3800E82EFED72E2EFCD72F2EFAD700F02C0445
:100B48002D10D8A4AAEF05F0ACEF05F0C8EF05F01A
:100B580028C01CF029C01DF02AC01EF02BC01FF0B1
:100B6800000E216E020E206E59C022F05AC023F0EA
:100B7800B6EC0AF028C016F029C017F02AC018F001
:100B88002BC019F09DEC0DF0020E2C182D10D8A4D6
:100B9800D0EF05F0D2EF05F0EEEF05F028C01CF01D
:100BA80029C01DF02AC01EF02BC01FF0000E216EB8
:100BB800020E206E5BC022F05CC023F07BEC09F0D3
:100BC80028C016F029C017F02AC018F02BC019F059
:100BD8009DEC0DF0030E2C182D10D8A4F6EF05F09F
:100BE800F8EF05F014EF06F028C01CF029C01DF03E
:100BF8002AC01EF02BC01FF0000E216E040E206EBE
:100C080059C022F05AC023F0B6EC0AF028C016F0FA
:100C180029C017F02AC018F02BC019F09DEC0DF070
:100C2800040E2C182D10D8A41CEF06F01EEF06F0A9
:100C380066EF06F028C01CF029C01DF02AC01EF07F
:100C48002BC01FF03EEC0DF0390E2F6ED20E2E6E1B
:100C58004C0EE82EFED72E2EFCD72F2EFAD700D01A
:100C680028C016F029C017F02AC018F02BC019F0B8
:100C78009DEC0DF0290E2F6E960E2E6E7F0EE82E2F
:100C8800FED72E2EFCD72F2EFAD700F028C01CF046
:100C980029C01DF02AC01EF02BC01FF0000E216EC7
:100CA800020E206E59C022F05AC023F0B6EC0AF0AA
:100CB80028C016F029C017F02AC018F02BC019F068
:100CC8009DEC0DF0050E2C182D10D8A46EEF06F033
:100CD80070EF06F0B8EF06F028C01CF029C01DF030
:100CE8002AC01EF02BC01FF03EEC0DF0390E2F6EFF
:100CF800D20E2E6E4C0EE82EFED72E2EFCD72F2E9F
:100D0800FAD700D028C016F029C017F02AC018F06A
:100D18002BC019F09DEC0DF0290E2F6E960E2E6E3D
:100D28007F0EE82EFED72E2EFCD72F2EFAD700F0F6
:100D380028C01CF029C01DF02AC01EF02BC01FF0CF
:100D4800000E216E020E206E5BC022F05CC023F004
:100D58007BEC09F028C016F029C017F02AC018F05B
:100D68002BC019F09DEC0DF0060E2C182D10D8A4F0
:100D7800C0EF06F0C2EF06F0DEEF06F028C01CF068
:100D880029C01DF02AC01EF02BC01FF0000E216ED6
:100D9800030E206E59C022F05AC023F0B6EC0AF0B8
:100DA80028C016F029C017F02AC018F02BC019F077
:100DB8009DEC0DF0070E2C182D10D8A4E6EF06F0C8
:100DC800E8EF06F004EF07F028C01CF029C01DF07A
:100DD8002AC01EF02BC01FF0000E216E030E206EDD
:100DE8005BC022F05CC023F07BEC09F028C016F051
:100DF80029C017F02AC018F02BC019F09DEC0DF08F
:100E0800120032043310D8A40CEF07F00EEF07F0ED
:100E18002AEF07F02EC01CF02FC01DF030C01EF0C6
:100E280031C01FF0000E216E020E206E59C022F054
:100E38005AC023F0B6EC0AF02EC016F02FC017F0F7
:100E480030C018F031C019F09DEC0DF0020E3218C8
:100E58003310D8A432EF07F034EF07F050EF07F063
:100E68002EC01CF02FC01DF030C01EF031C01FF086
:100E7800000E216E020E206E5BC022F05CC023F0D3
:100E88007BEC09F02EC016F02FC017F030C018F018
:100E980031C019F09DEC0DF0030E32183310D8A4B0
:100EA80058EF07F05AEF07F076EF07F02EC01CF066
:100EB8002FC01DF030C01EF031C01FF0000E216E93
:100EC800040E206E59C022F05AC023F0B6EC0AF086
:100ED8002EC016F02FC017F030C018F031C019F02E
:100EE8009DEC0DF0060E32183310D8A47EEF07F0F3
:100EF80080EF07F09CEF07F02EC01CF02FC01DF00C
:100F080030C01EF031C01FF0000E216E030E206E9F
:100F180059C022F05AC023F0B6EC0AF02EC016F0E1
:100F28002FC017F030C018F031C019F09DEC0DF04B
:100F3800070E32183310D8A4A4EF07F0A6EF07F075
:100F4800C2EF07F02EC01CF02FC01DF030C01EF0FD
:100F580031C01FF0000E216E030E206E59C022F022
:100F68005AC023F07BEC09F02EC016F02FC017F002
:100F780030C018F031C019F09DEC0DF0090E321890
:100F88003310D8A4CAEF07F0CCEF07F0D6EF07F07C
:100F98002EC028F02FC029F030C02AF031C02BF025
:100FA800F5EC0DF00A0E32183310D8A4DEEF07F076
:100FB800E0EF07F0EAEF07F02EC028F02FC029F085
:100FC80030C02AF031C02BF03EEC0EF012000B6E50
:100FD8000B50D8B4F2EF07F0F4EF07F016EF08F073
:100FE80006BEFBEF07F0F9EF07F016EF08F003C0B5
:100FF80007F004C008F005C009F006C00AF0071E93
:10100800081E091E0A1E072A000E082209220A22A3
:1010180007C00DF008C00EF009C00FF00AC010F0AC
:101028001EEF08F003C00DF004C00EF005C00FF06D
:1010380006C010F00350041005100610D8A427EFBE
:1010480008F029EF08F033EF08F0000E036E000EE9
:10105800046E000E056E000E066EC4EF08F0960EC4
:101068000C6E3DEF08F00C2AD89010320F320E3279
:101078000D32000E0D14076E000E0E14086E000ED1
:101088000F14096EFE0E10140A6E0750081009108E
:101098000A10D8A452EF08F054EF08F037EF08F020
:1010A80062EF08F00C2A010E0D26000E0E220F2208
:1010B8001022D89010320F320E320D32000E0D145D
:1010C800076E000E0E14086E000E0F14096EFF0E48
:1010D80010140A6E0750081009100A10D8A477EFE8
:1010E80008F079EF08F056EF08F081EF08F00C06E9
:1010F800D8900D360E360F3610360FBE86EF08F034
:1011080088EF08F090EF08F0020E0C608EEF08F000
:1011180090EF08F07BEF08F00CB095EF08F097EF30
:1011280008F098EF08F00F9ED8900C320CC007F02A
:10113800086A096A0A6A07C00AF0096A086A076A37
:1011480007500D1208500E1209500F120A501012B3
:101158000B50D8B4B2EF08F0B4EF08F0BCEF08F0C9
:1011680006BEBBEF08F0B9EF08F0BCEF08F0108E30
:101178000DC003F00EC004F00FC005F010C006F05B
:10118800120020EE02F01050D9261150DA22DF505A
:10119800D8B4D1EF08F0D3EF08F007EF09F010C08A
:1011A800D9FF11C0DAFFDF50126E1250036E046AC5
:1011B80020EE03F01050D9261150DA22DECF05F0C8
:1011C800DDCF06F0F0EC10F003C009F004C00AF01F
:1011D800000E0C6E640E0B6ECFEC0EF020EE03F0DA
:1011E8001050D9261150DA22DF50136E0950135CC3
:1011F800146E20EE03F01050D9261150DA22DF5079
:10120800156E2AEF09F0000E146E10C0D9FF11C038
:10121800DAFFDF50126E1250036E046A20EE03F0FC
:101228001050D9261150DA22DECF05F0DDCF06F0B6
:10123800F0EC10F003C009F004C00AF0000E0C6EC8
:10124800640E0B6ECFEC0EF00950156E20EE01F017
:101258001050D9261150DA22DF50D8B436EF09F0F1
:1012680038EF09F05AEF09F020EE05F01050D926B2
:101278001150DA22DECF12F0DDCF13F012C0D9FF01
:1012880013C0DAFF14C0DFFF20EE07F01050D92694
:101298001150DA22DECF12F0DDCF13F012C0D9FFE1
:1012A80013C0DAFF15C0DFFF7AEF09F020EE05F072
:1012B8001050D9261150DA22DECF12F0DDCF13F00C
:1012C80012C0D9FF13C0DAFF15C0DFFF20EE07F008
:1012D8001050D9261150DA22DECF12F0DDCF13F0EC
:1012E80012C0D9FF13C0DAFF14C0DFFF12001CC000
:1012F80016F01DC017F01EC018F01FC019F09DECA5
:101308000DF020EE01F01C50D9261D50DA22000EF7
:10131800DF6E20EE01F01E50D9261F50DA22010E92
:10132800DF6E7E80000E276E000E266E09EF0AF033
:101338001CC0D9FF1DC0DAFF330EDF60A6EF09F02D
:10134800A8EF09F0AEEF09F01CC0D9FF1DC0DAFF05
:101358000A0EDF261EC0D9FF1FC0DAFF330EDF607A
:10136800B8EF09F0BAEF09F0C0EF09F01EC0D9FFD5
:101378001FC0DAFF0A0EDF261CC010F01DC011F0D6
:10138800C5EC08F01EC010F01FC011F0C5EC08F045
:10139800D00E246ECA0EE82EFED7242EFCD71CC011
:1013A800D9FF1DC0DAFF320EDF64DDEF09F0DFEF91
:1013B80009F09CEF09F01EC0D9FF1FC0DAFF320EFA
:1013C800DF64E9EF09F0EBEF09F09CEF09F022C0C8
:1013D80003F023C004F06EEC10F01CC016F01DC022
:1013E80017F01EC018F01FC019F09DEC0DF00D0E7F
:1013F800256E2D0E246ED80EE82EFED7242EFCD78F
:10140800252EFAD77E90264A272A2050265C275078
:10141800800A246E2150800A2458D8A016EF0AF0BA
:1014280018EF0AF0D3EF09F0120067EC0FF007C0CD
:1014380045F008C046F0DFEC0FF007C047F008C0E1
:1014480048F08FEC0FF007C049F008C04AF0B7EC3D
:101458000FF007C04BF008C04CF045C003F046C081
:1014680004F0056A066A000EEBEC07F003C011F001
:1014780004C012F005C013F006C014F04BC003F00E
:101488004CC004F0056A066A000EEBEC07F003C0D6
:1014980015F004C016F005C017F006C018F0AAEC45
:1014A80003F011C04DF012C04EF013C04FF014C03D
:1014B80050F047C003F048C004F0056A066A000E01
:1014C800EBEC07F003C011F004C012F005C013F0F4
:1014D80006C014F04BC003F04CC004F0056A066A5D
:1014E800000EEBEC07F003C015F004C016F005C0C1
:1014F80017F006C018F0AAEC03F011C051F012C0A2
:1015080052F013C053F014C054F049C003F04AC05D
:1015180004F0056A066A000EEBEC07F003C011F050
:1015280004C012F005C013F006C014F04BC003F05D
:101538004CC004F0056A066A000EEBEC07F003C025
:1015480015F004C016F005C017F006C018F0AAEC94
:1015580003F011C055F012C056F013C057F014C074
:1015680058F0120020EE01F01C50D9261D50DA2246
:10157800010EDF6E20EE01F01E50D9261F50DA2230
:10158800000EDF6E8080000E276E000E266E3AEF8A
:101598000BF01CC0D9FF1DC0DAFF330EDF60D7EF98
:1015A8000AF0D9EF0AF0DFEF0AF01CC0D9FF1DC01E
:1015B800DAFF0A0EDF261EC0D9FF1FC0DAFF330E7E
:1015C800DF60E9EF0AF0EBEF0AF0F1EF0AF01EC076
:1015D800D9FF1FC0DAFF0A0EDF261CC010F01DC09D
:1015E80011F0C5EC08F01EC010F01FC011F0C5ECDA
:1015F80008F0D00E246ECA0EE82EFED7242EFCD793
:101608001CC0D9FF1DC0DAFF320EDF640EEF0BF0ED
:1016180010EF0BF0CDEF0AF01EC0D9FF1FC0DAFFA4
:10162800320EDF641AEF0BF01CEF0BF0CDEF0AF06F
:1016380022C003F023C004F06EEC10F01CC016F0BA
:101648001DC017F01EC018F01FC019F09DEC0DF05A
:101658000D0E256E2D0E246ED80EE82EFED7242EE4
:10166800FCD7252EFAD78090264A272A2050265CB8
:101678002750800A246E2150800A2458D8A047EFAA
:101688000BF049EF0BF004EF0BF01200CBEF0BF06F
:1016980034C02EF035C02FF036C030F037C031F0EE
:1016A800870E4424D96EDA6A000EDA22DF50386ECB
:1016B8003850326E336A05EC07F04406150E396E61
:1016C8004B0E386EBE0EE82EFED7382EFCD7392EBC
:1016D800FAD700D034C01CF035C01DF036C01EF05B
:1016E80037C01FF0DFEC0CF05F0E4324D96EDA6AC6
:1016F800000EDA22DF50386EFE0E3824036E046ABC
:10170800FF0E04224EEC10F0430634C016F035C02C
:1017180017F036C018F037C019F09DEC0DF0110E17
:10172800396E3C0E386ECB0EE82EFED7382EFCD71D
:10173800392EFAD700F034C01CF035C01DF036C081
:101748001EF037C01FF03EEC0DF0090E396E1E0E6C
:10175800386EE40EE82EFED7382EFCD7392EFAD78D
:1017680000D034C016F035C017F036C018F037C0B6
:1017780019F09DEC0DF0150E396E4B0E386EBE0E3D
:10178800E82EFED7382EFCD7392EFAD700D0435092
:10179800D8B4D1EF0BF0D3EF0BF0DBEF0BF04450E4
:1017A800D8A4D9EF0BF0DBEF0BF04CEF0BF01200E5
:1017B800000E03140B6E000E04140C6E800E05143C
:1017C8000D6E7F0E06140E6E0B500C100D100E10C1
:1017D800D8A4F1EF0BF0F3EF0BF0FBEF0BF0000EDA
:1017E800036E000E046E000E056E000E066E000EEF
:1017F80007140B6E000E08140C6E800E09140D6E83
:101808007F0E0A140E6E0B500C100D100E10D8A47B
:1018180010EF0CF012EF0CF01AEF0CF0000E076E40
:10182800000E086E000E096E000E0A6E06AE1FEF5F
:101838000CF021EF0CF02AEF0CF0036C041ED8B06A
:10184800042A051ED8B0052A800E06560AAE2FEFC8
:101858000CF031EF0CF03AEF0CF0076C081ED8B022
:10186800082A091ED8B0092A800E0A56000E031A43
:10187800000E041A000E051A800E061A000E071A2A
:10188800000E081A000E091A800E0A1A0750035C87
:1018980008500458095005580A500658D8B057EF50
:1018A8000CF059EF0CF05CEF0CF0D8905DEF0CF0F9
:1018B800D88012001CC016F01DC017F01EC018F00A
:1018C8001FC019F09DEC0DF0808220EE01F01C5035
:1018D800D9261D50DA22000EDF6E20EE01F01E50D0
:1018E800D9261F50DA22000EDF6E1EC010F01FC06E
:1018F80011F0C5EC08F01CC010F01DC011F0C5ECCB
:1019080008F0A3EF0CF01CC0D9FF1DC0DAFF0A0EC7
:10191800DF261EC0D9FF1FC0DAFF0A0EDF261CC053
:1019280010F01DC011F0C5EC08F01EC010F01FC06B
:1019380011F0C5EC08F06A0EE82EFED700D01CC0E6
:10194800D9FF1DC0DAFF1E0EDF60ADEF0CF0AFEF60
:101958000CF0BBEF0CF01EC0D9FF1FC0DAFF1D0E44
:10196800DF64B9EF0CF0BBEF0CF087EF0CF0150E4D
:10197800216E4B0E206EBE0EE82EFED7202EFCD711
:10198800212EFAD700D01CC016F01DC017F01EC0BB
:1019980018F01FC019F09DEC0DF0110E216E3C0ED1
:1019A800206ECB0EE82EFED7202EFCD7212EFAD79C
:1019B80000F0809212001CC016F01DC017F01EC067
:1019C80018F01FC019F09DEC0DF020EE01F01C502E
:1019D800D9261D50DA22010EDF6E20EE01F01E50CE
:1019E800D9261F50DA22010EDF6E7C861EC010F049
:1019F8001FC011F0C5EC08F01CC010F01DC011F09C
:101A0800C5EC08F024EF0DF01CC0D9FF1DC0DAFFAB
:101A1800050EDF261EC0D9FF1FC0DAFF050EDF2620
:101A28001CC010F01DC011F0C5EC08F01EC010F06D
:101A38001FC011F0C5EC08F0350EE82EFED700F0F7
:101A48001CC0D9FF1DC0DAFF320EDF602EEF0DF08B
:101A580030EF0DF03CEF0DF01EC0D9FF1FC0DAFFCC
:101A6800360EDF643AEF0DF03CEF0DF008EF0DF0A5
:101A78007C9612001CC016F01DC017F01EC018F08E
:101A88001FC019F09DEC0DF020EE01F01C50D92676
:101A98001D50DA22000EDF6E20EE01F01E50D9260E
:101AA8001F50DA22000EDF6E80821EC010F01FC0A9
:101AB80011F0C5EC08F01CC010F01DC011F0C5EC09
:101AC80008F083EF0DF01CC0D9FF1DC0DAFF050E2A
:101AD800DF261EC0D9FF1FC0DAFF050EDF261CC097
:101AE80010F01DC011F0C5EC08F01EC010F01FC0AA
:101AF80011F0C5EC08F0350EE82EFED700F01CC03A
:101B0800D9FF1DC0DAFF320EDF608DEF0DF08FEFC9
:101B18000DF09BEF0DF01EC0D9FF1FC0DAFF360E87
:101B2800DF6499EF0DF09BEF0DF067EF0DF08092F9
:101B3800120020EE02F01650D9261750DA22010EB4
:101B4800DF6E20EE02F01850D9261950DA22010E65
:101B5800DF6E7C88000E1B6E460E1A6E16C0D9FF0B
:101B680017C0DAFF1AC0DFFF18C0D9FF19C0DAFFA3
:101B78001AC0DFFF16C010F017C011F0C5EC08F04E
:101B880018C010F019C011F0C5EC08F06A0EE82E64
:101B9800FED700D0F60E1A241A6EFF0E1B201B6EFD
:101BA8001BBEDBEF0DF0D9EF0DF0B2EF0DF016C054
:101BB800D9FF17C0DAFF000EDF6E18C0D9FF19C0B1
:101BC800DAFF000EDF6E16C010F017C011F0C5EC7A
:101BD80008F018C010F019C011F0C5EC08F07C9896
:101BE800120028C01CF029C01DF02AC01EF02BC00E
:101BF8001FF0000E216E020E206E5BC022F05CC04A
:101C080023F07BEC09F028C016F029C017F02AC091
:101C180018F02BC019F09DEC0DF0110E2D6E3C0E36
:101C28002C6ECB0EE82EFED72C2EFCD72D2EFAD7F5
:101C380000F028C01CF029C01DF02AC01EF02BC0DF
:101C48001FF03EEC0DF0390E2D6ED20E2C6E4C0EA0
:101C5800E82EFED72C2EFCD72D2EFAD700D028C080
:101C680016F029C017F02AC018F02BC019F09DEC07
:101C78000DF0120028C01CF029C01DF02AC01EF06B
:101C88002BC01FF0000E216E020E206E59C022F0EC
:101C98005AC023F0B6EC0AF028C016F029C017F095
:101CA8002AC018F02BC019F09DEC0DF0110E2D6E06
:101CB8003C0E2C6ECB0EE82EFED72C2EFCD72D2EEC
:101CC800FAD700F028C01CF029C01DF02AC01EF069
:101CD8002BC01FF03EEC0DF0390E2D6ED20E2C6E7F
:101CE8004C0EE82EFED72C2EFCD72D2EFAD700D07E
:101CF80028C016F029C017F02AC018F02BC019F018
:101D08009DEC0DF0120085948598839E879C7D94A8
:101D18007D987B9E7F9C050E0E01746F060E766F74
:101D2800070E696F080E886FBD508F0B4009BD6E96
:101D3800E00EBE16BF50F00B0109BF6E03C0BCFF1A
:101D4800BD8E000EAA6E000EA66E000E0F01256F46
:101D5800000E216FFC0EAD16F30EAD16CF0EAD16AC
:101D68003F0EAD16AB88AB50F00B0C09AB6EAB8ECB
:101D7800A788A750F00B0C09A76EA78E26892651B5
:101D8800F00B0C09266F268F22892251F00B0C09C3
:101D9800226F228F1200000E0E6E000E0D6E0B5079
:101DA8000C10D8B4DAEF0EF0DCEF0EF004EF0FF001
:101DB800010E0F6EE4EF0EF0D8900B360C360F2A9A
:101DC8000CAEE9EF0EF0EBEF0EF0E0EF0EF0D8906E
:101DD8000D360E360B50095C0C500A58D8A0F7EF98
:101DE8000EF0F9EF0EF0FEEF0EF00B50095E0C50FE
:101DF8000A5A0D80D8900C320B320F2EEBEF0EF0F2
:101E08000DC009F00EC00AF01200EE0EF66E220E9A
:101E1800F76E000EF86E0900F5CFDCF00900F5CF7B
:101E2800DDF0EA0EF66E220EF76E000EF86E00EE8A
:101E380059F010EE04F00900F5CFEEFFE550E1503F
:101E4800FAE101EE00F03C0EEE6AE806FDE100EE74
:101E580060F07C0EEE6AE806FDE100EE40F0190E37
:101E6800EE6AE806FDE15D905D9200013CEF0FF03F
:101E78008EEC10F08EA443EF0FF045EF0FF04CEF0F
:101E88000FF08EB64AEF0FF04CEF0FF03EEF0FF069
:101E98008EB651EF0FF053EF0FF065EF0FF04EECE9
:101EA80011F0D30E3A6E000E3B6ECA0E3C6E000E59
:101EB8003D6E450E3E6E000E3F6E26EC00F055EF6F
:101EC8000FF024EF00F06BEC11F0520E60EC11F003
:101ED800B60E60EC11F070EC11F0530E60EC11F0DE
:101EE800010E2DEC10F0096E09500C6E0D6A000EF3
:101EF8002DEC10F0096E09500B6E0A6A0C500A108E
:101F08000C6E0D500B100D6E66EC11F00CC007F046
:101F18000DC008F012006BEC11F0520E60EC11F0DD
:101F2800B80E60EC11F070EC11F0530E60EC11F08B
:101F3800010E2DEC10F0096E09500C6E0D6A000EA2
:101F48002DEC10F0096E09500B6E0A6A0C500A103D
:101F58000C6E0D500B100D6E66EC11F00CC007F0F6
:101F68000DC008F012006BEC11F0520E60EC11F08D
:101F7800B40E60EC11F070EC11F0530E60EC11F03F
:101F8800010E2DEC10F0096E09500C6E0D6A000E52
:101F98002DEC10F0096E09500B6E0A6A0C500A10ED
:101FA8000C6E0D500B100D6E66EC11F00CC007F0A6
:101FB8000DC008F012006BEC11F0520E60EC11F03D
:101FC800BA0E60EC11F070EC11F0530E60EC11F0E9
:101FD800010E2DEC10F0096E09500C6E0D6A000E02
:101FE8002DEC10F0096E09500B6E0A6A0C500A109D
:101FF8000C6E0D500B100D6E66EC11F00CC007F056
:102008000DC008F01200000E0001D36F010ED46F4E
:10201800010ED56FAA0ED86F0F0ED96FA60EDA6F04
:102028000F0EDB6F000ED76F630ED66F000ECA6FF0
:10203800010ECB6F010ECC6F250ECF6F0F0ED06F38
:10204800210ED16F0F0ED26F000ECE6F630ECD6FC3
:102058001200056EDCEC10F00E01DA87DCEC10F0F3
:10206800D5CE06F0DCEC10F00550D8B43EEF10F0F9
:1020780042EF10F0046A042A43EF10F0046A043AAD
:1020880004460E01DA510418DF0B0418DA6FDA89F6
:1020980006501200000E086E000E076E62EF10F078
:1020A8000B0E066EA30E056E0A0EE82EFED7052E41
:1020B800FCD7062EFAD700D0074A082A0350075C37
:1020C80004500858D8A06BEF10F06DEF10F054EFE3
:1020D80010F01200000E076E000E066E7EEF10F074
:1020E800150E056EC60EE82EFED7052EFCD700D0BD
:1020F800064A072A0350065C0750800A056E0450FA
:10210800800A0558D8A08BEF10F08DEF10F074EF0F
:1021180010F01200000E046E630E036E87EC0EF0D2
:1021280043EC11F003EC11F0D30E036E000E046EB5
:10213800CA0E056E000E066E07EC10F0C7EC10F024
:10214800ADEC10F033EC11F058EC11F013EC11F089
:102158001200C7EC10F0010E056E000E23EC11F012
:102168003F0E076E550EE82EFED7072EFCD700F05F
:10217800030E056E000E23EC11F0D50E056E010E50
:1021880023EC11F012000E01D951F00B0809D96F98
:10219800D98B9F0ED66F848A848CA79BA79D1D0E12
:1021A8001D6F1E0E1C6F1C0E6F6F1B0E706F1200C2
:1021B8000E01D8B5E2EF10F0E4EF10F0DCEF10F00C
:1021C800DACE03F01F0E0316D8A4EDEF10F0EFEFF0
:1021D80010F0DCEF10F0120003500502F3CF07F007
:1021E800F4CF08F003500602F35008260450050205
:1021F800F350082607C003F008C004F012008792C5
:102208008198869E7F8279887E8E86840E01B49519
:102218008686B497849E7C9E889680961200120EBD
:102228000E01626F110E156F8382E997E895330EE0
:10223800E56F000EE66FE789E88BE78F1200066E00
:102248006BEC11F0520E60EC11F00650800960EC56
:1022580011F0055060EC11F066EC11F01200D65048
:102268001F0B4009D66ED688D650F00B0509D66EDE
:10227800D588000ED46E230ED36ED58E12008092B0
:102288007C967C987E90809088928496849886909C
:1022980088901200000E0001C56F000EC46F000E7A
:1022A800D46E230ED36E12000E01298B339B1F9B15
:1022B800F28AF28CF28E1200046EDCEC10F004C08C
:1022C800D5FE1200DCEC10F00E01DA851200DCEC11
:1022D80010F00E01DA811200DCEC10F00E01DA8346
:0822E800120064006900C40942
:020000040020DA
:10000000FF0FFF0FFF0FFF0FFF0FFF0FFF0FFF0F80
:020000040030CA
:0C000000AAFFFFFF9FFFFFFFFFFFFFFFB5
:00000001FF
