:0400000022EF00F0FB
:100018005D80D8CF01F0E0CF02F00E0133AB17EFCF
:1000280000F019EF00F01CEF00F03C4A3D2A339B2A
:1000380002C0E0FF01C0D8FF5D901000F0EF0FF0A4
:10004800450E0E6E000E0F6E64EC11F0450E2A6E12
:10005800000E2B6EC5EC0AF0C50E4B5C090E4C5811
:10006800D8A039EF00F03BEF00F0AAEF03F0600EE4
:100078004324D96EDA6A000EDA223CC0DFFF432A35
:1000880036C01CF037C01DF038C01EF039C01FF054
:100098007FEC0DF0090E0001DB6F1E0EDA6FE40E27
:1000A800E82EFED7DA2FFCD7DB2FFAD700F036C0C0
:1000B80016F037C017F038C018F039C019F03DEC09
:1000C8000EF0290E0001DB6F960EDA6F7F0EE82E18
:1000D800FED7DA2FFCD7DB2FFAD7450E0E6E000EAF
:1000E8000F6E64EC11F0450E2A6E000E2B6EC5ECF7
:1000F8000AF0290E0001DB6F960EDA6F7F0EE82EEC
:10010800FED7DA2FFCD7DB2FFAD7B80E036E1E0EF8
:10011800046E450E056E3F0E066E4DC007F04EC0CC
:1001280008F04FC009F050C00AF07DEC0CF0D8B0D0
:10013800A0EF00F0A2EF00F0EBEF00F051C003F0E9
:1001480052C004F053C005F054C006F0EC0E076E20
:10015800510E086E380E096E3E0E0A6E7DEC0CF0DC
:10016800D8B0B9EF00F0BBEF00F0EBEF00F055C0EE
:1001780003F056C004F057C005F058C006F0290E29
:10018800076E5C0E086E0F0E096E3E0E0A6E7DEC51
:100198000CF0D8B0D2EF00F0D4EF00F0EBEF00F0A5
:1001A800880E4424D96EDA6A000EDA22020EDF6E57
:1001B800442A36C02EF037C02FF038C030F039C08E
:1001C80031F0000E336E010E326E82EC05F051C034
:1001D80003F052C004F053C005F054C006F0000EFE
:1001E800076E000E086E800E096E3E0E0A6E7DECDC
:1001F8000CF0D8B002EF01F004EF01F034EF01F099
:10020800CD0E036ECC0E046ECC0E056E3E0E066E41
:1002180055C007F056C008F057C009F058C00AF09A
:100228007DEC0CF0D8B01BEF01F01DEF01F034EFBE
:1002380001F0880E4424D96EDA6A000EDA22010E23
:10024800DF6E442A36C02EF037C02FF038C030F0A9
:1002580039C031F0000E336E020E326E82EC05F0BA
:100268004DC003F04EC004F04FC005F050C006F07A
:100278005C0E076E8F0E086EC20E096E3E0E0A6E79
:100288007DEC0CF0D8B04BEF01F04DEF01F096EF9C
:1002980001F00A0E036ED70E046EA30E056E3E0E15
:1002A800066E51C007F052C008F053C009F054C0A0
:1002B8000AF07DEC0CF0D8B064EF01F066EF01F0C5
:1002C80096EF01F07B0E036E140E046EAE0E056EF3
:1002D8003E0E066E55C007F056C008F057C009F02C
:1002E80058C00AF07DEC0CF0D8B07DEF01F07FEF3C
:1002F80001F096EF01F0880E4424D96EDA6A000EF8
:10030800DA22030EDF6E442A36C02EF037C02FF0F3
:1003180038C030F039C031F0000E336E030E326E43
:1003280082EC05F0B80E036E1E0E046E050E056E07
:100338003F0E066E4DC007F04EC008F04FC009F0E2
:1003480050C00AF07DEC0CF0D8B0ADEF01F0AFEF83
:1003580001F0DFEF01F00A0E036ED70E046EA30E54
:10036800056E3E0E066E55C007F056C008F057C021
:1003780009F058C00AF07DEC0CF0D8B0C6EF01F0D7
:10038800C8EF01F0DFEF01F0880E4424D96EDA6A75
:10039800000EDA22090EDF6E442A36C02EF037C06E
:1003A8002FF038C030F039C031F0000E336E040E33
:1003B800326E82EC05F0000E036E000E046E000E25
:1003C800056E3F0E066E4DC007F04EC008F04FC0D8
:1003D80009F050C00AF07DEC0CF0D8B0F6EF01F04F
:1003E800F8EF01F041EF02F08F0E036EC20E046EBB
:1003F800750E056E3E0E066E51C007F052C008F02D
:1004080053C009F054C00AF07DEC0CF0D8B00FEFDF
:1004180002F011EF02F041EF02F055C003F056C0B0
:1004280004F057C005F058C006F0C30E076EF50E6D
:10043800086EA80E096E3E0E0A6E7DEC0CF0D8B060
:1004480028EF02F02AEF02F041EF02F0880E442470
:10045800D96EDA6A000EDA220A0EDF6E442A36C036
:100468002EF037C02FF038C030F039C031F0000E10
:10047800336E050E326E82EC05F09A0E036E990EFD
:10048800046E190E056E3F0E066E4DC007F04EC085
:1004980008F04FC009F050C00AF07DEC0CF0D8B05D
:1004A80058EF02F05AEF02F0A3EF02F051C003F048
:1004B80052C004F053C005F054C006F0AE0E076EEB
:1004C800470E086E610E096E3E0E0A6E7DEC0CF04A
:1004D800D8B071EF02F073EF02F0A3EF02F01F0E35
:1004E800036E850E046E6B0E056E3E0E066E55C0CD
:1004F80007F056C008F057C009F058C00AF07DEC64
:100508000CF0D8B08AEF02F08CEF02F0A3EF02F003
:10051800880E4424D96EDA6A000EDA22070EDF6EDE
:10052800442A36C02EF037C02FF038C030F039C01A
:1005380031F0000E336E060E326E82EC05F04DC0BF
:1005480003F04EC004F04FC005F050C006F0CD0EC9
:10055800076ECC0E086ECC0E096E3E0E0A6E7DEC50
:100568000CF0D8B0BAEF02F0BCEF02F005EF03F0E0
:100578009A0E036E990E046E990E056E3E0E066E67
:1005880051C007F052C008F053C009F054C00AF037
:100598007DEC0CF0D8B0D3EF02F0D5EF02F005EF08
:1005A80003F0CD0E036ECC0E046ECC0E056E3E0E1F
:1005B800066E55C007F056C008F057C009F058C07D
:1005C8000AF07DEC0CF0D8B0ECEF02F0EEEF02F0A0
:1005D80005EF03F0880E4424D96EDA6A000EDA2299
:1005E800060EDF6E442A36C02EF037C02FF038C012
:1005F80030F039C031F0000E336E070E326E82ECE7
:1006080005F04DC003F04EC004F04FC005F050C0D7
:1006180006F08F0E076EC20E086EF50E096E3E0EBE
:100628000A6E7DEC0CF0D8B01CEF03F01EEF03F05F
:10063800A6EF03F0810E4B5C3E0E4C58D8A027EF76
:1006480003F029EF03F0A6EF03F055C003F056C0FE
:1006580004F057C005F058C006F0EC0E076E510EB6
:10066800086EB80E096E3E0E0A6E7DEC0CF0D8B01E
:1006780040EF03F042EF03F0A6EF03F0880E4424A6
:10068800D96EDA6A000EDA22030EDF6E442A36C00B
:100698001CF037C01DF038C01EF039C01FF0FFEC49
:1006A8000CF0290E0001DB6F960EDA6F7F0EE82E34
:1006B800FED7DA2FFCD7DB2FFAD736C016F037C0B3
:1006C80017F038C018F039C019F03DEC0EF0290EBB
:1006D8000001DB6F960EDA6F7F0EE82EFED7DA2F59
:1006E800FCD7DB2FFAD736C030F037C031F038C02E
:1006F80032F039C033F05AEC0BF036C016F037C080
:1007080017F038C018F039C019F03DEC0EF0290E7A
:100718000001DB6F960EDA6F7F0EE82EFED7DA2F18
:10072800FCD7DB2FFAD736C028F037C029F038C0FD
:100738002AF039C02BF0000E2D6E030E2C6E38EC0B
:1007480007F0030004EC12F0B4EF03F036C01CF01D
:1007580037C01DF038C01EF039C01FF07FEC0DF017
:1007680012001450800B216E14501424286E13AEFE
:10077800C0EF03F0C2EF03F0C3EF03F02880285066
:10078800D8B4C9EF03F0CBEF03F0E0EF03F028286B
:10079800D8A4D1EF03F0D3EF03F0DBEF03F0000EA2
:1007A800116E000E126E000E136E000E146E138E74
:1007B800000E146EE8EF03F0000E116E000E126EBC
:1007C800000E136E000E146E1850800B211A18506C
:1007D8001824296E17AEF3EF03F0F5EF03F0F6EFE8
:1007E80003F029802950D8B4FCEF03F0FEEF03F0A2
:1007F80013EF04F02928D8A404EF04F006EF04F05E
:100808000EEF04F0000E156E000E166E000E176E39
:10081800000E186E178E000E186E1BEF04F0000EF7
:10082800156E000E166E000E176E000E186E15501F
:10083800161017101810D8A424EF04F026EF04F0AF
:100848003EEF04F0000E116E000E126E000E136ED5
:10085800000E146E800E13127F0E14122150141203
:1008680011C011F012C012F013C013F014C014F02C
:1008780081EF05F02850D8A444EF04F046EF04F0C7
:1008880050EF04F0000E116E000E126E000E136E83
:10089800000E146E81EF05F0295028C019F01A6A6D
:1008A800195E000E1A5A7F0E1924226E000E1A20A5
:1008B800236E11C01DF012C01EF013C01FF014C02B
:1008C80020F0000E116E000E126E000E136E000E58
:1008D800146E000E246E000E256E000E266E000E9D
:1008E800276E000E296EB1EF04F02950D8B47FEFBF
:1008F80004F081EF04F098EF04F0D8901D361E360E
:100908001F362036D890113612361336143627AED5
:1009180090EF04F092EF04F093EF04F01180D89078
:10092800243625362636273615501D5C16501E5897
:1009380017501F5818502058D8A0A5EF04F0A7EF5B
:1009480004F0B0EF04F0278C15501D5E16501E5AA7
:1009580017501F5A1850205A292A190E2964B7EF20
:1009680004F0B9EF04F079EF04F01D501E101F10C9
:100978002010D8B4C2EF04F0C4EF04F0DCEF04F0A8
:100988002480DCEF04F0D890113612361336143672
:1009980027AED1EF04F0D3EF04F0D4EF04F01180C8
:1009A800D89024362536263627362206D8A02306A0
:1009B80013AEE1EF04F0E3EF04F0C7EF04F0000E2C
:1009C800296E27AEEAEF04F0ECEF04F010EF05F023
:1009D800FF0E2414196EFF0E25141A6EFF0E26142E
:1009E8001B6E7F0E27141C6E19501A101B101C103A
:1009F800D8B401EF05F003EF05F007EF05F0010E9D
:100A0800296E10EF05F011A00CEF05F00EEF05F0C0
:100A180010EF05F003EF05F02950D8B416EF05F0F4
:100A280018EF05F03CEF05F0010E1126000E12221A
:100A38001322142214A023EF05F025EF05F03CEF54
:100A480005F011C019F012C01AF013C01BF014C041
:100A58001CF01C341C321B321A32193219C011F026
:100A68001AC012F01BC013F01CC014F0224A232A2B
:100A780023BE47EF05F0235008E12228D8A047EF0E
:100A880005F049EF05F054EF05F0000E236E2268DB
:100A9800000E116E000E126E000E136E000E146E14
:100AA80023BE61EF05F0235006E12204D8B05FEFC2
:100AB80005F061EF05F06FEF05F0000E236E000EF4
:100AC800226E000E116E000E126E000E136E000ED6
:100AD800146E000E216E22C028F028A076EF05F0D3
:100AE80078EF05F07BEF05F0138E7CEF05F0139E91
:100AF800D8902830146E32EF04F012002EC01CF08B
:100B08002FC01DF030C01EF031C01FF0FFEC0CF0FC
:100B1800290E356E960E346E7F0EE82EFED7342ED3
:100B2800FCD7352EFAD700F02EC016F02FC017F0DC
:100B380030C018F031C019F03DEC0EF0290E356EBA
:100B4800960E346E7F0EE82EFED7342EFCD7352E47
:100B5800FAD700F032043310D8A4B5EF05F0B7EF98
:100B680005F0D3EF05F02EC01CF02FC01DF030C0EB
:100B78001EF031C01FF0000E216E020E206E59C00B
:100B880022F05AC023F0ECEC0BF02EC016F02FC068
:100B980017F030C018F031C019F03DEC0EF0020E1D
:100BA80032183310D8A4DBEF05F0DDEF05F0F9EFCC
:100BB80005F02EC01CF02FC01DF030C01EF031C053
:100BC8001FF0000E216E020E206E5BC022F05CC08A
:100BD80023F02AEC0AF02EC016F02FC017F030C010
:100BE80018F031C019F03DEC0EF0030E3218331036
:100BF800D8A401EF06F003EF06F01FEF06F02EC0B1
:100C08001CF02FC01DF030C01EF031C01FF0000EC8
:100C1800216E040E206E59C022F05AC023F0ECEC6D
:100C28000BF02EC016F02FC017F030C018F031C0EE
:100C380019F03DEC0EF0040E32183310D8A427EF4B
:100C480006F029EF06F071EF06F02EC01CF02FC059
:100C58001DF030C01EF031C01FF0DEEC0DF0390E73
:100C6800356ED20E346E4C0EE82EFED7342EFCD7DD
:100C7800352EFAD700D02EC016F02FC017F030C08E
:100C880018F031C019F03DEC0EF0290E356E960EB5
:100C9800346E7F0EE82EFED7342EFCD7352EFAD7C9
:100CA80000F02EC01CF02FC01DF030C01EF031C067
:100CB8001FF0000E216E020E206E59C022F05AC09D
:100CC80023F0ECEC0BF02EC016F02FC017F030C05C
:100CD80018F031C019F03DEC0EF0050E3218331043
:100CE800D8A479EF06F07BEF06F0C3EF06F02EC02C
:100CF8001CF02FC01DF030C01EF031C01FF0DEEC1C
:100D08000DF0390E356ED20E346E4C0EE82EFED72D
:100D1800342EFCD7352EFAD700D02EC016F02FC0AF
:100D280017F030C018F031C019F03DEC0EF0290E64
:100D3800356E960E346E7F0EE82EFED7342EFCD715
:100D4800352EFAD700F02EC01CF02FC01DF030C091
:100D58001EF031C01FF0000E216E020E206E5BC027
:100D680022F05CC023F02AEC0AF02EC016F02FC047
:100D780017F030C018F031C019F03DEC0EF0060E37
:100D880032183310D8A4CBEF06F0CDEF06F0E9EF18
:100D980006F02EC01CF02FC01DF030C01EF031C070
:100DA8001FF0000E216E030E206E59C022F05AC0AB
:100DB80023F0ECEC0BF02EC016F02FC017F030C06B
:100DC80018F031C019F03DEC0EF0070E3218331050
:100DD800D8A4F1EF06F0F3EF06F00FEF07F02EC0FE
:100DE8001CF02FC01DF030C01EF031C01FF0000EE7
:100DF800216E030E206E5BC022F05CC023F02AEC4B
:100E08000AF02EC016F02FC017F030C018F031C00D
:100E180019F03DEC0EF0090E32183310D8A417EF74
:100E280007F019EF07F023EF07F02EC028F02FC0C6
:100E380029F030C02AF031C02BF095EC0EF00A0EE4
:100E480032183310D8A42BEF07F02DEF07F037EF47
:100E580007F02EC028F02FC029F030C02AF031C08A
:100E68002BF0DEEC0EF012002C042D10D8A43FEF6E
:100E780007F041EF07F05DEF07F028C01CF029C02C
:100E88001DF02AC01EF02BC01FF0000E216E020EAE
:100E9800206E59C022F05AC023F0ECEC0BF028C0A9
:100EA80016F029C017F02AC018F02BC019F03DEC35
:100EB8000EF0020E2C182D10D8A465EF07F067EF7E
:100EC80007F083EF07F028C01CF029C01DF02AC0E6
:100ED8001EF02BC01FF0000E216E020E206E5BC0AC
:100EE80022F05CC023F02AEC0AF028C016F029C0D2
:100EF80017F02AC018F02BC019F03DEC0EF0030EC5
:100F08002C182D10D8A48BEF07F08DEF07F0A9EF60
:100F180007F028C01CF029C01DF02AC01EF02BC005
:100F28001FF0000E216E040E206E59C022F05AC028
:100F380023F0ECEC0BF028C016F029C017F02AC0FB
:100F480018F02BC019F03DEC0EF0040E2C182D10E3
:100F5800D8A4B1EF07F0B3EF07F0FBEF07F028C014
:100F68001CF029C01DF02AC01EF02BC01FF0DEECBB
:100F78000DF0210E2F6E780E2E6E980EE82EFED7ED
:100F88002E2EFCD72F2EFAD700D028C016F029C055
:100F980017F02AC018F02BC019F03DEC0EF0290EFE
:100FA8002F6E960E2E6E7F0EE82EFED72E2EFCD7B5
:100FB8002F2EFAD700F028C01CF029C01DF02AC037
:100FC8001EF02BC01FF0000E216E020E206E59C0BD
:100FD80022F05AC023F0ECEC0BF028C016F029C020
:100FE80017F02AC018F02BC019F03DEC0EF0050ED2
:100FF8002C182D10D8A403EF08F005EF08F04DEFDA
:1010080008F028C01CF029C01DF02AC01EF02BC013
:101018001FF0DEEC0DF0210E2F6E780E2E6E980E5E
:10102800E82EFED72E2EFCD72F2EFAD700D028C0B8
:1010380016F029C017F02AC018F02BC019F03DECA3
:101048000EF0290E2F6E960E2E6E7F0EE82EFED70E
:101058002E2EFCD72F2EFAD700F028C01CF029C05E
:101068001DF02AC01EF02BC01FF0000E216E020ECC
:10107800206E5BC022F05CC023F02AEC0AF028C086
:1010880016F029C017F02AC018F02BC019F03DEC53
:101098000EF0060E2C182D10D8A455EF08F057EFB7
:1010A80008F073EF08F028C01CF029C01DF02AC012
:1010B8001EF02BC01FF0000E216E030E206E59C0CB
:1010C80022F05AC023F0ECEC0BF028C016F029C02F
:1010D80017F02AC018F02BC019F03DEC0EF0070EDF
:1010E8002C182D10D8A47BEF08F07DEF08F099EFAD
:1010F80008F028C01CF029C01DF02AC01EF02BC023
:101108001FF0000E216E030E206E59C022F05AC047
:1011180023F02AEC0AF028C016F029C017F02AC0DC
:1011280018F02BC019F03DEC0EF012000B6E0B50AE
:10113800D8B4A1EF08F0A3EF08F0C5EF08F006BE99
:10114800AAEF08F0A8EF08F0C5EF08F003C007F011
:1011580004C008F005C009F006C00AF0071E081E02
:10116800091E0A1E072A000E082209220A2207C0A1
:101178000DF008C00EF009C00FF00AC010F0CDEF56
:1011880008F003C00DF004C00EF005C00FF006C053
:1011980010F00350041005100610D8A4D6EF08F07C
:1011A800D8EF08F0E2EF08F0000E036E000E046EB0
:1011B800000E056E000E066E73EF09F0960E0C6EAB
:1011C800ECEF08F00C2AD89010320F320E320D32A4
:1011D800000E0D14076E000E0E14086E000E0F148C
:1011E800096EFE0E10140A6E0750081009100A1036
:1011F800D8A401EF09F003EF09F0E6EF08F011EFCA
:1012080009F00C2A010E0D26000E0E220F221022C4
:10121800D89010320F320E320D32000E0D14076EB8
:10122800000E0E14086E000E0F14096EFF0E101437
:101238000A6E0750081009100A10D8A426EF09F002
:1012480028EF09F005EF09F030EF09F00C06D89007
:101258000D360E360F3610360FBE35EF09F037EF64
:1012680009F03FEF09F0020E0C603DEF09F03FEF87
:1012780009F02AEF09F00CB044EF09F046EF09F045
:1012880047EF09F00F9ED8900C320CC007F0086A9F
:10129800096A0A6A07C00AF0096A086A076A0750F1
:1012A8000D1208500E1209500F120A5010120B504E
:1012B800D8B461EF09F063EF09F06BEF09F006BEEF
:1012C8006AEF09F068EF09F06BEF09F0108E0DC0B6
:1012D80003F00EC004F00FC005F010C006F01200B5
:1012E80020EE02F01050D9261150DA22DF50D8B47F
:1012F80080EF09F082EF09F0B6EF09F010C0D9FFCE
:1013080011C0DAFFDF50126E1250036E046A20EE2D
:1013180003F01050D9261150DA22DECF05F0DDCFC8
:1013280006F0A6EC11F003C009F004C00AF0000EA4
:101338000C6E640E0B6EB6EC0FF020EE03F010503E
:10134800D9261150DA22DF50136E0950135C146E3F
:1013580020EE03F01050D9261150DA22DF50156E16
:10136800D9EF09F0000E146E10C0D9FF11C0DAFFD2
:10137800DF50126E1250036E046A20EE03F0105014
:10138800D9261150DA22DECF05F0DDCF06F0A6EC23
:1013980011F003C009F004C00AF0000E0C6E640ED0
:1013A8000B6EB6EC0FF00950156E20EE01F01050E0
:1013B800D9261150DA22DF50D8B4E5EF09F0E7EF6B
:1013C80009F009EF0AF020EE05F01050D926115067
:1013D800DA22DECF12F0DDCF13F012C0D9FF13C02E
:1013E800DAFF14C0DFFF20EE07F01050D9261150A5
:1013F800DA22DECF12F0DDCF13F012C0D9FF13C00E
:10140800DAFF15C0DFFF29EF0AF020EE05F01050D3
:10141800D9261150DA22DECF12F0DDCF13F012C038
:10142800D9FF13C0DAFF15C0DFFF20EE07F0105018
:10143800D9261150DA22DECF12F0DDCF13F012C018
:10144800D9FF13C0DAFF14C0DFFF12001CC016F06A
:101458001DC017F01EC018F01FC019F03DEC0EF0AB
:1014680020EE01F01C50D9261D50DA22000EDF6E46
:1014780020EE01F01E50D9261F50DA22010EDF6E31
:101488007E80000E276E000E266EB5EF0AF01CC097
:10149800D9FF1DC0DAFF1F0EDF6055EF0AF057EFC6
:1014A8000AF05DEF0AF01CC0D9FF1DC0DAFF0A0E72
:1014B800DF261EC0D9FF1FC0DAFF1F0EDF6067EFEF
:1014C8000AF069EF0AF06FEF0AF01EC0D9FF1FC0DB
:1014D800DAFF0A0EDF261CC010F01DC011F074ECF4
:1014E80009F01EC010F01FC011F074EC09F06A0E6C
:1014F800E82EFED700D01CC0D9FF1DC0DAFF1E0E93
:10150800DF6489EF0AF08BEF0AF04BEF0AF01EC098
:10151800D9FF1FC0DAFF1E0EDF6495EF0AF097EFC0
:101528000AF04BEF0AF022C003F023C004F02AECC3
:1015380011F01CC016F01DC017F01EC018F01FC017
:1015480019F03DEC0EF00D0E256E2D0E246ED80E02
:10155800E82EFED7242EFCD7252EFAD77E90264AD1
:10156800272A2050265C2750800A246E2150800AA2
:101578002458D8A0C2EF0AF0C4EF0AF07FEF0AF0AF
:10158800120045C02CF046C02DF049C02EF04AC0CC
:101598002FF047C030F048C031F04BC032F04CC09B
:1015A80033F02CC003F02DC004F0056A066A000E63
:1015B8009AEC08F003C011F004C012F005C013F053
:1015C80006C014F032C003F033C004F0056A066A9E
:1015D800000E9AEC08F003C015F004C016F005C020
:1015E80017F006C018F0B5EC03F011C04DF012C0AA
:1015F8004EF013C04FF014C050F02EC003F02FC0AF
:1016080004F0056A066A000E9AEC08F003C011F0AF
:1016180004C012F005C013F006C014F032C003F085
:1016280033C004F0056A066A000E9AEC08F003C09D
:1016380015F004C016F005C017F006C018F0B5EC98
:1016480003F011C055F012C056F013C057F014C083
:1016580058F030C003F031C004F0056A066A000E85
:101668009AEC08F003C011F004C012F005C013F0A2
:1016780006C014F032C003F033C004F0056A066AED
:10168800000E9AEC08F003C015F004C016F005C06F
:1016980017F006C018F0B5EC03F011C051F012C0F5
:1016A80052F013C053F014C054F01200DBEF0BF0EB
:1016B80030C028F031C029F032C02AF033C02BF0F6
:1016C800870E4424D96EDA6A000EDA22DF50346EAF
:1016D80034502C6E2D6A38EC07F04406150E356E22
:1016E8004B0E346EBE0EE82EFED7342EFCD7352EA8
:1016F800FAD700D030C01CF031C01DF032C01EF047
:1017080033C01FF07FEC0DF05F0E4324D96EDA6A08
:10171800000EDA22DF50346EFE0E3424036E046AA3
:10172800FF0E04220AEC11F0430630C016F031C057
:1017380017F032C018F033C019F03DEC0EF0110E5E
:10174800356E3C0E346ECB0EE82EFED7342EFCD709
:10175800352EFAD700F030C01CF031C01DF032C071
:101768001EF033C01FF0DEEC0DF0090E356E1E0EB4
:10177800346EE40EE82EFED7342EFCD7352EFAD779
:1017880000D030C016F031C017F032C018F033C0A6
:1017980019F03DEC0EF0150E356E4B0E346EBE0E84
:1017A800E82EFED7342EFCD7352EFAD700D043507A
:1017B800D8B4E1EF0BF0E3EF0BF0EBEF0BF0445094
:1017C800D8A4E9EF0BF0EBEF0BF05CEF0BF0120095
:1017D80020EE01F01C50D9261D50DA22010EDF6ED2
:1017E80020EE01F01E50D9261F50DA22000EDF6EBF
:1017F8008080000E276E000E266E6DEF0CF01CC068
:10180800D9FF1DC0DAFF1F0EDF600DEF0CF00FEFE0
:101818000CF015EF0CF01CC0D9FF1DC0DAFF0A0E42
:10182800DF261EC0D9FF1FC0DAFF1F0EDF601FEFC3
:101838000CF021EF0CF027EF0CF01EC0D9FF1FC0F1
:10184800DAFF0A0EDF261CC010F01DC011F074EC80
:1018580009F01EC010F01FC011F074EC09F06A0EF8
:10186800E82EFED700D01CC0D9FF1DC0DAFF1E0E1F
:10187800DF6441EF0CF043EF0CF003EF0CF01EC0F7
:10188800D9FF1FC0DAFF1E0EDF644DEF0CF04FEFDB
:101898000CF003EF0CF022C003F023C004F02AEC94
:1018A80011F01CC016F01DC017F01EC018F01FC0A4
:1018B80019F03DEC0EF00D0E256E2D0E246ED80E8F
:1018C800E82EFED7242EFCD7252EFAD78090264A5C
:1018D800272A2050265C2750800A246E2150800A2F
:1018E8002458D8A07AEF0CF07CEF0CF037EF0CF00E
:1018F8001200000E03140B6E000E04140C6E800E02
:1019080005140D6E7F0E06140E6E0B500C100D1084
:101918000E10D8A492EF0CF094EF0CF09CEF0CF0A2
:10192800000E036E000E046E000E056E000E066EAD
:10193800000E07140B6E000E08140C6E800E0914AE
:101948000D6E7F0E0A140E6E0B500C100D100E103B
:10195800D8A4B1EF0CF0B3EF0CF0BBEF0CF0000E15
:10196800076E000E086E000E096E000E0A6E06AEB7
:10197800C0EF0CF0C2EF0CF0CBEF0CF0036C041EC0
:10198800D8B0042A051ED8B0052A800E06560AAE1D
:10199800D0EF0CF0D2EF0CF0DBEF0CF0076C081E68
:1019A800D8B0082A091ED8B0092A800E0A56000E97
:1019B800031A000E041A000E051A800E061A000EED
:1019C800071A000E081A000E091A800E0A1A075084
:1019D800035C08500458095005580A500658D8B0F6
:1019E800F8EF0CF0FAEF0CF0FDEF0CF0D890FEEFEA
:1019F8000CF0D88012001CC016F01DC017F01EC0D5
:101A080018F01FC019F03DEC0EF0808220EE01F0B6
:101A18001C50D9261D50DA22000EDF6E20EE01F090
:101A28001E50D9261F50DA22000EDF6E1EC010F09D
:101A38001FC011F074EC09F01CC010F01DC011F0AB
:101A480074EC09F044EF0DF01CC0D9FF1DC0DAFF9B
:101A58000A0EDF261EC0D9FF1FC0DAFF0A0EDF26D6
:101A68001CC010F01DC011F074EC09F01EC010F07D
:101A78001FC011F074EC09F06A0EE82EFED700D0F2
:101A88001CC0D9FF1DC0DAFF1E0EDF604EEF0DF03F
:101A980050EF0DF05CEF0DF01EC0D9FF1FC0DAFF4C
:101AA8001D0EDF645AEF0DF05CEF0DF028EF0DF01E
:101AB800190E216E5A0E206EB20EE82EFED7202E79
:101AC800FCD7212EFAD71CC016F01DC017F01EC077
:101AD80018F01FC019F03DEC0EF0110E216E3C0EEF
:101AE800206ECB0EE82EFED7202EFCD7212EFAD75B
:101AF80000F0809212001CC016F01DC017F01EC026
:101B080018F01FC019F03DEC0EF020EE01F01C504B
:101B1800D9261D50DA22010EDF6E20EE01F01E508C
:101B2800D9261F50DA22010EDF6E7C861EC010F007
:101B38001FC011F074EC09F01CC010F01DC011F0AA
:101B480074EC09F0C4EF0DF01CC0D9FF1DC0DAFF1A
:101B5800050EDF261EC0D9FF1FC0DAFF050EDF26DF
:101B68001CC010F01DC011F074EC09F01EC010F07C
:101B78001FC011F074EC09F0350EE82EFED700F006
:101B88001CC0D9FF1DC0DAFF280EDF60CEEF0DF0B4
:101B9800D0EF0DF0DCEF0DF01EC0D9FF1FC0DAFF4B
:101BA8002C0EDF64DAEF0DF0DCEF0DF0A8EF0DF08E
:101BB8007C9612001CC016F01DC017F01EC018F04D
:101BC8001FC019F03DEC0EF020EE01F01C50D92694
:101BD8001D50DA22000EDF6E20EE01F01E50D926CD
:101BE8001F50DA22000EDF6E80821EC010F01FC068
:101BF80011F074EC09F01CC010F01DC011F074EC69
:101C080009F023EF0EF01CC0D9FF1DC0DAFF0A0E41
:101C1800DF261EC0D9FF1FC0DAFF0A0EDF261CC050
:101C280010F01DC011F074EC09F01EC010F01FC0B8
:101C380011F074EC09F06A0EE82EFED700D01CC033
:101C4800D9FF1DC0DAFF280EDF602DEF0EF02FEF51
:101C58000EF03BEF0EF01EC0D9FF1FC0DAFF270EB3
:101C6800DF6439EF0EF03BEF0EF007EF0EF08092D5
:101C7800120020EE02F01650D9261750DA22010E73
:101C8800DF6E20EE02F01850D9261950DA22010E24
:101C9800DF6E7C88000E1B6E460E1A6E16C0D9FFCA
:101CA80017C0DAFF1AC0DFFF18C0D9FF19C0DAFF62
:101CB8001AC0DFFF16C010F017C011F074EC09F05D
:101CC80018C010F019C011F074EC09F06A0EE82E73
:101CD800FED700D0F60E1A241A6EFF0E1B201B6EBC
:101CE8001BBE7BEF0EF079EF0EF052EF0EF016C030
:101CF800D9FF17C0DAFF000EDF6E18C0D9FF19C070
:101D0800DAFF000EDF6E16C010F017C011F074EC89
:101D180009F018C010F019C011F074EC09F07C98A3
:101D2800120028C01CF029C01DF02AC01EF02BC0CC
:101D38001FF0000E216E020E206E5BC022F05CC008
:101D480023F02AEC0AF028C016F029C017F02AC0A0
:101D580018F02BC019F03DEC0EF0110E2D6E3C0E54
:101D68002C6ECB0EE82EFED72C2EFCD72D2EFAD7B4
:101D780000F028C01CF029C01DF02AC01EF02BC09E
:101D88001FF0DEEC0DF0390E2D6ED20E2C6E4C0EBF
:101D9800E82EFED72C2EFCD72D2EFAD700D028C03F
:101DA80016F029C017F02AC018F02BC019F03DEC26
:101DB8000EF0120028C01CF029C01DF02AC01EF029
:101DC8002BC01FF0000E216E020E206E59C022F0AB
:101DD8005AC023F0ECEC0BF028C016F029C017F01D
:101DE8002AC018F02BC019F03DEC0EF0110E2D6E24
:101DF8003C0E2C6ECB0EE82EFED72C2EFCD72D2EAB
:101E0800FAD700F028C01CF029C01DF02AC01EF027
:101E18002BC01FF0DEEC0DF0390E2D6ED20E2C6E9D
:101E28004C0EE82EFED72C2EFCD72D2EFAD700D03C
:101E380028C016F029C017F02AC018F02BC019F0D6
:101E48003DEC0EF0120085948598839E879C7D94C6
:101E58007D987B9E7F9C050E0E01746F060E766F33
:101E6800070E696F080E886FBD508F0B4009BD6E55
:101E7800E00EBE16BF50F00B0109BF6E03C0BCFFD9
:101E8800BD8E000EAA6E000EA66E000E0F01256F05
:101E9800000E216FFC0EAD16F30EAD16CF0EAD166B
:101EA8003F0EAD16AB88AB50F00B0C09AB6EAB8E8A
:101EB800A788A750F00B0C09A76EA78E2689265174
:101EC800F00B0C09266F268F22892251F00B0C0982
:101ED800226F228F1200000E046E630E036E27EC31
:101EE8000FF0F9EC11F0B9EC11F0CF0E036E000E03
:101EF800046EC60E056E000E066EC3EC10F07DEC87
:101F080011F04AEC11F0E9EC11F00DEC12F0C9EC0B
:101F180011F08EA492EF0FF094EF0FF09BEF0FF0FB
:101F28008EB699EF0FF09BEF0FF08DEF0FF08EB696
:101F3800A0EF0FF0A2EF0FF0A2EF0FF004EC12F0F9
:101F4800CF0E366E000E376EC60E386E000E396E26
:101F5800450E3A6E000E3B6E24EC00F0A4EF0FF035
:101F680022EF00F0000E0E6E000E0D6E0B500C10DE
:101F7800D8B4C1EF0FF0C3EF0FF0EBEF0FF0010E85
:101F88000F6ECBEF0FF0D8900B360C360F2A0CAE35
:101F9800D0EF0FF0D2EF0FF0C7EF0FF0D8900D365B
:101FA8000E360B50095C0C500A58D8A0DEEF0FF023
:101FB800E0EF0FF0E5EF0FF00B50095E0C500A5AF6
:101FC8000D80D8900C320B320F2ED2EF0FF00DC0CF
:101FD80009F00EC00AF01200580EF66E240EF76EC5
:101FE800000EF86E0900F5CFD8F00900F5CFD9F04A
:101FF800540EF66E240EF76E000EF86E00EE59F0D1
:1020080010EE04F00900F5CFEEFFE550E150FAE1DB
:1020180001EE00F03C0EEE6AE806FDE100EE60F02D
:10202800780EEE6AE806FDE100EE3CF01D0EEE6A61
:10203800E806FDE15D905D9200016FEF0FF020EC86
:1020480012F0520E15EC12F0B60E15EC12F025EC4B
:1020580012F0530E15EC12F0010EE9EC10F0096EB7
:1020680009500C6E0D6A000EE9EC10F0096E09506B
:102078000B6E0A6A0C500A100C6E0D500B100D6E88
:102088001BEC12F00CC007F00DC008F0120020EC99
:1020980012F0520E15EC12F0B80E15EC12F025ECF9
:1020A80012F0530E15EC12F0010EE9EC10F0096E67
:1020B80009500C6E0D6A000EE9EC10F0096E09501B
:1020C8000B6E0A6A0C500A100C6E0D500B100D6E38
:1020D8001BEC12F00CC007F00DC008F0120020EC49
:1020E80012F0520E15EC12F0B40E15EC12F025ECAD
:1020F80012F0530E15EC12F0010EE9EC10F0096E17
:1021080009500C6E0D6A000EE9EC10F0096E0950CA
:102118000B6E0A6A0C500A100C6E0D500B100D6EE7
:102128001BEC12F00CC007F00DC008F0120020ECF8
:1021380012F0520E15EC12F0BA0E15EC12F025EC56
:1021480012F0530E15EC12F0010EE9EC10F0096EC6
:1021580009500C6E0D6A000EE9EC10F0096E09507A
:102168000B6E0A6A0C500A100C6E0D500B100D6E97
:102178001BEC12F00CC007F00DC008F01200000EA6
:102188000001CF6F010ED06F010ED16FAA0ED46F70
:102198000F0ED56FA60ED66F0F0ED76F000ED36F2A
:1021A800630ED26F000EC66F010EC76F010EC86FA7
:1021B800250ECB6F0F0ECC6F210ECD6F0F0ECE6F8D
:1021C800000ECA6F630EC96F1200056E92EC11F013
:1021D8000E01DA8792EC11F0D5CE06F092EC11F0F0
:1021E8000550D8B4FAEF10F0FEEF10F0046A042A94
:1021F800FFEF10F0046A043A04460E01DA5104189D
:10220800DF0B0418DA6FDA8906501200000E086E28
:10221800000E076E1EEF11F00B0E066EA30E056E74
:102228000A0EE82EFED7052EFCD7062EFAD700D0C8
:10223800074A082A0350075C04500858D8A027EF1B
:1022480011F029EF11F010EF11F01200000E076ED7
:10225800000E066E3AEF11F0150E056EC60EE82E4A
:10226800FED7052EFCD700D0064A072A0350065C85
:102278000750800A056E0450800A0558D8A047EF19
:1022880011F049EF11F030EF11F012007DEC11F070
:10229800010E056E000ED9EC11F03F0E076E550EBB
:1022A800E82EFED7072EFCD700F0030E056E000EB1
:1022B800D9EC11F0D50E056E010ED9EC11F0120013
:1022C80023EC10F007C045F008C046F09BEC10F076
:1022D80007C047F008C048F04BEC10F007C049F0C1
:1022E80008C04AF073EC10F007C04BF008C04CF07F
:1022F80012000E01D951F00B0809D96FD98B9F0E26
:10230800D66F848A848CA79BA79D1D0E1D6F1E0EF9
:102318001C6F1C0E6F6F1B0E706F12000E01D8B56C
:1023280098EF11F09AEF11F092EF11F0DACE03F076
:102338001F0E0316D8A4A3EF11F0A5EF11F092EF2A
:1023480011F0120003500502F3CF07F0F4CF08F0A4
:1023580003500602F350082604500502F3500826DD
:1023680007C003F008C004F0120087928198869E87
:102378007F8279887E8E86840E01B4958686B4978E
:10238800849E7C9E889680961200120E0E01626FC3
:10239800110E156F8382E997E895330EE56F000EED
:1023A800E66FE789E88BE78F1200066E20EC12F0E3
:1023B800520E15EC12F00650800915EC12F005507B
:1023C80015EC12F01BEC12F01200D6501F0B40094E
:1023D800D66ED688D650F00B0509D66ED588000E75
:1023E800D46E230ED36ED58E120080927C967C9884
:1023F8007E90809088928496849886908890120027
:10240800000E3D6E000E3C6E000ED46E230ED36E91
:1024180012000E01298B339B1F9BF28AF28CF28EDD
:102428001200046E92EC11F004C0D5FE120092EC7A
:1024380011F00E01DA85120092EC11F00E01DA812A
:10244800120092EC11F00E01DA831200E600EB00A4
:02245800C409B5
:020000040020DA
:10000000FF0FFF0FFF0FFF0FFF0FFF0FFF0FFF0F80
:020000040030CA
:0C000000AAFFFFFF9FFFFFFFFFFFFFFFB5
:00000001FF
