:0400000022EF00F0FB
:100018005C80D8CF01F0E0CF02F00E0133AB17EFD0
:1000280000F019EF00F01CEF00F0404A412A339B22
:1000380002C0E0FF01C0D8FF5C90100028EF10F06C
:10004800440E2A6E000E2B6E04EC0BF0C50E4A5CB3
:10005800090E4B58D8A033EF00F035EF00F077EFDA
:1000680003F0600E4224D96EDA6A000EDA2240C02C
:10007800DFFF422A36C01BF037C01CF038C01DF025
:1000880039C01EF0CEEC0DF0050E3D6E0F0E3C6E25
:10009800F10EE82EFED73C2EFCD73D2EFAD700F005
:1000A80036C016F037C017F038C018F039C019F04C
:1000B800F3EC0FF0290E3D6E960E3C6E7F0EE82E87
:1000C800FED73C2EFCD73D2EFAD700F0440E2A6E00
:1000D800000E2B6E04EC0BF0290E3D6E960E3C6E56
:1000E8007F0EE82EFED73C2EFCD73D2EFAD700F027
:1000F800B80E036E1E0E046E450E056E3F0E066E9C
:100108004CC007F04DC008F04EC009F04FC00AF0CF
:10011800CBEC0CF0D8B093EF00F095EF00F0DCEFEB
:1001280000F050C003F051C004F052C005F053C0B5
:1001380006F0EC0E076E510E086E380E096E3E0E74
:100148000A6ECBEC0CF0D8B0ACEF00F0AEEF00F0DC
:10015800DCEF00F054C003F055C004F056C005F0C1
:1001680057C006F0290E076E5C0E086E0F0E096E5A
:100178003E0E0A6ECBEC0CF0D8B0C5EF00F0C7EF1E
:1001880000F0DCEF00F0880E4324D96EDA6A000E26
:10019800DA22020EDF6E432A36C025F037C026F079
:1001A80038C027F039C028F0010E296E77EC06F028
:1001B80050C003F051C004F052C005F053C006F01F
:1001C800000E076E000E086E800E096E3E0E0A6E57
:1001D800CBEC0CF0D8B0F3EF00F0F5EF00F023EF24
:1001E80001F0CD0E036ECC0E046ECC0E056E3E0EE5
:1001F800066E54C007F055C008F056C009F057C045
:100208000AF0CBEC0CF0D8B00CEF01F00EEF01F0D7
:1002180023EF01F0880E4324D96EDA6A000EDA2241
:10022800010EDF6E432A36C025F037C026F038C0ED
:1002380027F039C028F0020E296E77EC06F04CC082
:1002480003F04DC004F04EC005F04FC006F05C0E40
:10025800076E8F0E086EC20E096E3E0E0A6ECBEC4C
:100268000CF0D8B03AEF01F03CEF01F083EF01F069
:100278000A0E036ED70E046EA30E056E3E0E066EB2
:1002880050C007F051C008F052C009F053C00AF03E
:10029800CBEC0CF0D8B053EF01F055EF01F083EF41
:1002A80001F07B0E036E140E046EAE0E056E3E0E4C
:1002B800066E54C007F055C008F056C009F057C084
:1002C8000AF0CBEC0CF0D8B06CEF01F06EEF01F057
:1002D80083EF01F0880E4324D96EDA6A000EDA2221
:1002E800030EDF6E432A36C025F037C026F038C02B
:1002F80027F039C028F0030E296E77EC06F0B80E07
:10030800036E1E0E046E050E056E3F0E066E4CC083
:1003180007F04DC008F04EC009F04FC00AF0CBEC12
:100328000CF0D8B09AEF01F09CEF01F0CAEF01F0A1
:100338000A0E036ED70E046EA30E056E3E0E066EF1
:1003480054C007F055C008F056C009F057C00AF06D
:10035800CBEC0CF0D8B0B3EF01F0B5EF01F0CAEF79
:1003680001F0880E4324D96EDA6A000EDA22090EEB
:10037800DF6E432A36C025F037C026F038C027F094
:1003880039C028F0040E296E77EC06F0000E036ED3
:10039800000E046E000E056E3F0E066E4CC007F090
:1003A8004DC008F04EC009F04FC00AF0CBEC0CF07D
:1003B800D8B0E1EF01F0E3EF01F02AEF02F08F0E81
:1003C800036EC20E046E750E056E3E0E066E50C0AC
:1003D80007F051C008F052C009F053C00AF0CBEC46
:1003E8000CF0D8B0FAEF01F0FCEF01F02AEF02F0C0
:1003F80054C003F055C004F056C005F057C006F0CD
:10040800C30E076EF50E086EA80E096E3E0E0A6E34
:10041800CBEC0CF0D8B013EF02F015EF02F02AEF96
:1004280002F0880E4324D96EDA6A000EDA220A0E28
:10043800DF6E432A36C025F037C026F038C027F0D3
:1004480039C028F0050E296E77EC06F09A0E036E77
:10045800990E046E190E056E3F0E066E4CC007F01D
:100468004DC008F04EC009F04FC00AF0CBEC0CF0BC
:10047800D8B041EF02F043EF02F08AEF02F050C02B
:1004880003F051C004F052C005F053C006F0AE0EA0
:10049800076E470E086E610E096E3E0E0A6ECBECB3
:1004A8000CF0D8B05AEF02F05CEF02F08AEF02F0DD
:1004B8001F0E036E850E046E6B0E056E3E0E066EE5
:1004C80054C007F055C008F056C009F057C00AF0EC
:1004D800CBEC0CF0D8B073EF02F075EF02F08AEFB6
:1004E80002F0880E4324D96EDA6A000EDA22070E6B
:1004F800DF6E432A36C025F037C026F038C027F013
:1005080039C028F0060E296E77EC06F04CC003F0CF
:100518004DC004F04EC005F04FC006F0CD0E076E7A
:10052800CC0E086ECC0E096E3E0E0A6ECBEC0CF0AB
:10053800D8B0A1EF02F0A3EF02F0EAEF02F09A0EB2
:10054800036E990E046E990E056E3E0E066E50C02F
:1005580007F051C008F052C009F053C00AF0CBECC4
:100568000CF0D8B0BAEF02F0BCEF02F0EAEF02F0FC
:10057800CD0E036ECC0E046ECC0E056E3E0E066ECE
:1005880054C007F055C008F056C009F057C00AF02B
:10059800CBEC0CF0D8B0D3EF02F0D5EF02F0EAEFD5
:1005A80002F0880E4324D96EDA6A000EDA22060EAB
:1005B800DF6E432A36C025F037C026F038C027F052
:1005C80039C028F0070E296E77EC06F04CC003F00E
:1005D8004DC004F04EC005F04FC006F0000E076E87
:1005E800000E086E000E096E3F0E0A6ECBEC0CF082
:1005F800D8B001EF03F003EF03F073EF03F0810EBF
:100608004A5C3E0E4B58D8A00CEF03F00EEF03F0F7
:1006180073EF03F0880E4324D96EDA6A000EDA22EB
:10062800030EDF6E432A7F9279987E9E36C01BF0B8
:1006380037C01CF038C01DF039C01EF04DEC0DF06D
:10064800290E3D6E960E3C6E7F0EE82EFED73C2E90
:10065800FCD73D2EFAD700F036C016F037C017F099
:1006680038C018F039C019F0F3EC0FF0290E3D6EC0
:10067800960E3C6E7F0EE82EFED73C2EFCD73D2E04
:10068800FAD700F036C030F037C031F038C032F059
:1006980039C033F093EC09F036C016F037C017F0C4
:1006A80038C018F039C019F0F3EC0FF0290E3D6E80
:1006B800960E3C6E7F0EE82EFED73C2EFCD73D2EC4
:1006C800FAD700F036C02BF037C02CF038C02DF028
:1006D80039C02EF0030E2F6EBEEC08F003004FEC6D
:1006E80012F0A9EF04F0980E4A5C080E4B58D8B0E7
:1006F80080EF03F082EF03F09FEF04F0F40E465C06
:10070800010E4758D8B08BEF03F08DEF03F09FEF41
:1007180004F050C003F051C004F052C005F053C0BB
:1007280006F08F0E076EC20E086E750E096E3E0E2D
:100738000A6ECBEC0CF0D8B0A4EF03F0A6EF03F0F0
:100748009FEF04F0880E4324D96EDA6A000EDA228D
:10075800030EDF6E432A000E3E6E000E3F6E050E3E
:100768003F64B9EF03F0BBEF03F0BDEF03F038EFE0
:1007780004F036C01BF037C01CF038C01DF039C07B
:100788001EF043EC0EF0110E3D6E3C0E3C6ECB0E8F
:10079800E82EFED73C2EFCD73D2EFAD700F036C007
:1007A80016F037C017F038C018F039C019F0F3EC5C
:1007B8000FF0110E3D6E3C0E3C6ECB0EE82EFED7B0
:1007C8003C2EFCD73D2EFAD700F036C01BF037C0C0
:1007D8001CF038C01DF039C01EF0CEEC0DF0110E23
:1007E8003D6E3C0E3C6ECB0EE82EFED73C2EFCD761
:1007F8003D2EFAD700F0440E2A6E000E2B6E04EC44
:100808000BF0980E4A5C080E4B58D8B00EEF04F067
:1008180010EF04F035EF04F0F40E465C010E475873
:10082800D8B019EF04F01BEF04F035EF04F050C016
:1008380003F051C004F052C005F053C006F08F0E0B
:10084800076EC20E086E750E096E3E0E0A6ECBEC70
:100858000CF0D8B032EF04F034EF04F035EF04F0C8
:100868003E2A3F2AB3EF03F0050E3E18D8A43FEF07
:1008780004F041EF04F0A9EF04F07F9279987E9E8E
:1008880036C01BF037C01CF038C01DF039C01EF050
:100898004DEC0DF0290E3D6E960E3C6E7F0EE82E47
:1008A800FED73C2EFCD73D2EFAD700F036C016F006
:1008B80037C017F038C018F039C019F0F3EC0FF052
:1008C800290E3D6E960E3C6E7F0EE82EFED73C2E0E
:1008D800FCD73D2EFAD700F036C030F037C031F0E3
:1008E80038C032F039C033F093EC09F036C016F056
:1008F80037C017F038C018F039C019F0F3EC0FF012
:10090800290E3D6E960E3C6E7F0EE82EFED73C2ECD
:10091800FCD73D2EFAD700F036C02BF037C02CF0AC
:1009280038C02DF039C02EF0030E2F6EBEEC08F043
:100938000300A9EF04F036C01BF037C01CF038C024
:100948001DF039C01EF0CEEC0DF012001450800BD3
:10095800216E14501424286E13AEB5EF04F0B7EFCF
:1009680004F0B8EF04F028802850D8B4BEEF04F0A3
:10097800C0EF04F0D5EF04F02828D8A4C6EF04F09F
:10098800C8EF04F0D0EF04F0000E116E000E126EE6
:10099800000E136E000E146E138E000E146EDDEF33
:1009A80004F0000E116E000E126E000E136E000E93
:1009B800146E1850800B211A18501824296E17AE7F
:1009C800E8EF04F0EAEF04F0EBEF04F02980295097
:1009D800D8B4F1EF04F0F3EF04F008EF05F029289C
:1009E800D8A4F9EF04F0FBEF04F003EF05F0000ED4
:1009F800156E000E166E000E176E000E186E178E0E
:100A0800000E186E10EF05F0000E156E000E166E33
:100A1800000E176E000E186E1550161017101810CD
:100A2800D8A419EF05F01BEF05F033EF05F0000E21
:100A3800116E000E126E000E136E000E146E800EF4
:100A480013127F0E14122150141211C011F012C08B
:100A580012F013C013F014C014F076EF06F028500B
:100A6800D8A439EF05F03BEF05F045EF05F0000E8F
:100A7800116E000E126E000E136E000E146E76EFDD
:100A880006F0295028C019F01A6A195E000E1A5A81
:100A98007F0E1924226E000E1A20236E11C01DF03D
:100AA80012C01EF013C01FF014C020F0000E116E0B
:100AB800000E126E000E136E000E146E000E246EE1
:100AC800000E256E000E266E000E276E000E296E93
:100AD800A6EF05F02950D8B474EF05F076EF05F0CD
:100AE8008DEF05F0D8901D361E361F362036D8906B
:100AF800113612361336143627AE85EF05F087EF18
:100B080005F088EF05F01180D89024362536263672
:100B1800273615501D5C16501E5817501F58185070
:100B28002058D8A09AEF05F09CEF05F0A5EF05F046
:100B3800278C15501D5E16501E5A17501F5A1850F4
:100B4800205A292A190E2964ACEF05F0AEEF05F0FA
:100B58006EEF05F01D501E101F102010D8B4B7EF0F
:100B680005F0B9EF05F0D1EF05F02480D1EF05F0DD
:100B7800D890113612361336143627AEC6EF05F064
:100B8800C8EF05F0C9EF05F01180D8902436253656
:100B9800263627362206D8A0230613AED6EF05F050
:100BA800D8EF05F0BCEF05F0000E296E27AEDFEF99
:100BB80005F0E1EF05F005EF06F0FF0E2414196EBD
:100BC800FF0E25141A6EFF0E26141B6E7F0E2714B7
:100BD8001C6E19501A101B101C10D8B4F6EF05F033
:100BE800F8EF05F0FCEF05F0010E296E05EF06F0B1
:100BF80011A001EF06F003EF06F005EF06F0F8EF9D
:100C080005F02950D8B40BEF06F00DEF06F031EFE0
:100C180006F0010E1126000E12221322142214A02F
:100C280018EF06F01AEF06F031EF06F011C019F0D0
:100C380012C01AF013C01BF014C01CF01C341C3274
:100C48001B321A32193219C011F01AC012F01BC027
:100C580013F01CC014F0224A232A23BE3CEF06F0EE
:100C6800235008E12228D8A03CEF06F03EEF06F01A
:100C780049EF06F0000E236E2268000E116E000E7A
:100C8800126E000E136E000E146E23BE56EF06F0A1
:100C9800235006E12204D8B054EF06F056EF06F0D0
:100CA80064EF06F0000E236E000E226E000E116E29
:100CB800000E126E000E136E000E146E000E216EE2
:100CC80022C028F028A06BEF06F06DEF06F070EF59
:100CD80006F0138E71EF06F0139ED8902830146E2C
:100CE80027EF05F0120025C01BF026C01CF027C016
:100CF8001DF028C01EF04DEC0DF0290E2B6E960E3F
:100D08002A6E7F0EE82EFED72A2EFCD72B2EFAD776
:100D180000F025C016F026C017F027C018F028C02C
:100D280019F0F3EC0FF0290E2B6E960E2A6E7F0E3B
:100D3800E82EFED72A2EFCD72B2EFAD700F029044E
:100D4800D8A4A9EF06F0ABEF06F0C5EF06F025C072
:100D58001BF026C01CF027C01DF028C01EF0020E94
:100D68001F6E58C020F059C021F0A1EC0BF025C02F
:100D780016F026C017F027C018F028C019F0F3ECB9
:100D88000FF0020E2918D8A4CCEF06F0CEEF06F02B
:100D9800E8EF06F025C01BF026C01CF027C01DF0A8
:100DA80028C01EF0020E1F6E5AC020F05BC021F052
:100DB80036EC0CF025C016F026C017F027C018F046
:100DC80028C019F0F3EC0FF0030E2918D8A4EFEFA0
:100DD80006F0F1EF06F00BEF07F025C01BF026C078
:100DE8001CF027C01DF028C01EF0040E1F6E58C04E
:100DF80020F059C021F0A1EC0BF025C016F026C058
:100E080017F027C018F028C019F0F3EC0FF0040E03
:100E18002918D8A412EF07F014EF07F054EF07F0E1
:100E280025C01BF026C01CF027C01DF028C01EF0EE
:100E380043EC0EF0030E046E840E036E81EC11F089
:100E480025C016F026C017F027C018F028C019F0E2
:100E5800F3EC0FF0290E2B6E960E2A6E7F0EE82EFD
:100E6800FED72A2EFCD72B2EFAD700F025C01BF070
:100E780026C01CF027C01DF028C01EF0020E1F6EF1
:100E880058C020F059C021F0A1EC0BF025C016F095
:100E980026C017F027C018F028C019F0F3EC0FF09F
:100EA800050E2918D8A45BEF07F05DEF07F09DEF5A
:100EB80007F025C01BF026C01CF027C01DF028C075
:100EC8001EF043EC0EF0030E046E840E036E81ECEC
:100ED80011F025C016F026C017F027C018F028C05A
:100EE80019F0F3EC0FF0290E2B6E960E2A6E7F0E7A
:100EF800E82EFED72A2EFCD72B2EFAD700F025C0D5
:100F08001BF026C01CF027C01DF028C01EF0020EE2
:100F18001F6E5AC020F05BC021F036EC0CF025C0E3
:100F280016F026C017F027C018F028C019F0F3EC07
:100F38000FF0060E2918D8A4A4EF07F0A6EF07F0C3
:100F4800C0EF07F025C01BF026C01CF027C01DF01D
:100F580028C01EF0030E1F6E58C020F059C021F0A3
:100F6800A1EC0BF025C016F026C017F027C018F02A
:100F780028C019F0F3EC0FF0070E2918D8A4C7EF12
:100F880007F0C9EF07F0E3EF07F025C01BF026C014
:100F98001CF027C01DF028C01EF0030E1F6E5AC09B
:100FA80020F05BC021F036EC0CF025C016F026C00E
:100FB80017F027C018F028C019F0F3EC0FF0120052
:100FC8000B6E0B50D8B4EBEF07F0EDEF07F00FEF17
:100FD80008F006BEF4EF07F0F2EF07F00FEF08F0A5
:100FE80003C007F004C008F005C009F006C00AF005
:100FF800071E081E091E0A1E072A000E08220922BB
:101008000A2207C00DF008C00EF009C00FF00AC090
:1010180010F017EF08F003C00DF004C00EF005C083
:101028000FF006C010F00350041005100610D8A4E5
:1010380020EF08F022EF08F02CEF08F0000E036E06
:10104800000E046E000E056E000E066EBDEF08F071
:10105800960E0C6E36EF08F00C2AD89010320F322C
:101068000E320D32000E0D14076E000E0E14086EAF
:10107800000E0F14096EFE0E10140A6E07500810A9
:1010880009100A10D8A44BEF08F04DEF08F030EF24
:1010980008F05BEF08F00C2A010E0D26000E0E2258
:1010A8000F221022D89010320F320E320D32000E5D
:1010B8000D14076E000E0E14086E000E0F14096E44
:1010C800FF0E10140A6E0750081009100A10D8A451
:1010D80070EF08F072EF08F04FEF08F07AEF08F0C1
:1010E8000C06D8900D360E360F3610360FBE7FEF31
:1010F80008F081EF08F089EF08F0020E0C6087EF26
:1011080008F089EF08F074EF08F00CB08EEF08F0E3
:1011180090EF08F091EF08F00F9ED8900C320CC0B9
:1011280007F0086A096A0A6A07C00AF0096A086AC1
:10113800076A07500D1208500E1209500F120A5074
:1011480010120B50D8B4ABEF08F0ADEF08F0B5EFC4
:1011580008F006BEB4EF08F0B2EF08F0B5EF08F0FB
:10116800108E0DC003F00EC004F00FC005F010C0C3
:1011780006F012002F04D8A4C4EF08F0C6EF08F058
:10118800E0EF08F02BC01BF02CC01CF02DC01DF0A8
:101198002EC01EF0020E1F6E58C020F059C021F05C
:1011A800A1EC0BF02BC016F02CC017F02DC018F0D6
:1011B8002EC019F0F3EC0FF0020E2F18D8A4E7EFA9
:1011C80008F0E9EF08F003EF09F02BC01BF02CC082
:1011D8001CF02DC01DF02EC01EF0020E1F6E5AC04E
:1011E80020F05BC021F036EC0CF02BC016F02CC0C0
:1011F80017F02DC018F02EC019F0F3EC0FF0030E05
:101208002F18D8A40AEF09F00CEF09F026EF09F01F
:101218002BC01BF02CC01CF02DC01DF02EC01EF0E2
:10122800040E1F6E58C020F059C021F0A1EC0BF03D
:101238002BC016F02CC017F02DC018F02EC019F0D6
:10124800F3EC0FF0060E2F18D8A42DEF09F02FEFAE
:1012580009F049EF09F02BC01BF02CC01CF02DC081
:101268001DF02EC01EF0030E1F6E58C020F059C08E
:1012780021F0A1EC0BF02BC016F02CC017F02DC0FC
:1012880018F02EC019F0F3EC0FF0070E2F18D8A4A1
:1012980050EF09F052EF09F06CEF09F02BC01BF08A
:1012A8002CC01CF02DC01DF02EC01EF0030E1F6EAA
:1012B80058C020F059C021F036EC0CF02BC016F0C5
:1012C8002CC017F02DC018F02EC019F0F3EC0FF059
:1012D800090E2F18D8A473EF09F075EF09F07FEF06
:1012E80009F02BC025F02CC026F02DC027F02EC009
:1012F80028F000EC0FF00A0E2F18D8A486EF09F09A
:1013080088EF09F092EF09F02BC025F02CC026F0E9
:101318002DC027F02EC028F041EC0FF012003DEF51
:101328000AF030C02BF031C02CF032C02DF033C0A1
:101338002EF0870E4324D96EDA6A000EDA22DF50C7
:101348002F6EBEEC08F04306150E356E4B0E346E4C
:10135800BE0EE82EFED7342EFCD7352EFAD700D095
:1013680030C01BF031C01CF032C01DF033C01EF07D
:1013780043EC0EF0290E356E960E346E7F0EE82E75
:10138800FED7342EFCD7352EFAD700F030C016F031
:1013980031C017F032C018F033C019F0F3EC0FF079
:1013A800290E356E960E346E7F0EE82EFED7342E3B
:1013B800FCD7352EFAD700F030C01BF031C01CF036
:1013C80032C01DF033C01EF0CEEC0DF05F0E42248B
:1013D800D96EDA6A000EDA22DF50346EFE0E34243B
:1013E800036E046AFF0E042261EC11F0420630C05D
:1013F80016F031C017F032C018F033C019F0F3EC12
:101408000FF0110E356E3C0E346ECB0EE82EFED763
:10141800342EFCD7352EFAD700F030C01BF031C07F
:101428001CF032C01DF033C01EF043EC0EF0090E64
:10143800356E1E0E346EE40EE82EFED7342EFCD721
:10144800352EFAD700D030C016F031C017F032C0B0
:1014580018F033C019F0F3EC0FF0150E356E4B0E83
:10146800346EBE0EE82EFED7342EFCD7352EFAD7B2
:1014780000D04250D8B443EF0AF045EF0AF04DEFE0
:101488000AF04350D8A44BEF0AF04DEF0AF095EF5D
:1014980009F0120020EE02F01050D9261150DA227D
:1014A800DF50D8B45AEF0AF05CEF0AF090EF0AF078
:1014B80010C0D9FF11C0DAFFDF50126E1250036E50
:1014C800046A20EE03F01050D9261150DA22DECF3C
:1014D80005F0DDCF06F0E4EC11F003C009F004C01C
:1014E8000AF0000E0C6E640E0B6E82EC0FF020EE0C
:1014F80003F01050D9261150DA22DF50136E09502C
:10150800135C146E20EE03F01050D9261150DA2225
:10151800DF50156EB3EF0AF0000E146E10C0D9FF3D
:1015280011C0DAFFDF50126E1250036E046A20EE0B
:1015380003F01050D9261150DA22DECF05F0DDCFA6
:1015480006F0E4EC11F003C009F004C00AF0000E44
:101558000C6E640E0B6E82EC0FF00950156E20EEC7
:1015680001F01050D9261150DA22DF50D8B4BFEF5D
:101578000AF0C1EF0AF0E3EF0AF020EE05F0105090
:10158800D9261150DA22DECF12F0DDCF13F012C0C7
:10159800D9FF13C0DAFF14C0DFFF20EE07F01050A8
:1015A800D9261150DA22DECF12F0DDCF13F012C0A7
:1015B800D9FF13C0DAFF15C0DFFF03EF0BF020EEF1
:1015C80005F01050D9261150DA22DECF12F0DDCF07
:1015D80013F012C0D9FF13C0DAFF15C0DFFF20EEE9
:1015E80007F01050D9261150DA22DECF12F0DDCFE5
:1015F80013F012C0D9FF13C0DAFF14C0DFFF1200C6
:1016080059EC10F007C044F008C045F0D1EC10F0D8
:1016180007C046F008C047F081EC10F007C048F05A
:1016280008C049F0A9EC10F007C04AF008C04BF018
:1016380044C003F045C004F0056A066A000EE4ECF5
:1016480007F003C011F004C012F005C013F006C083
:1016580014F04AC003F04BC004F0056A066A000E95
:10166800E4EC07F003C015F004C016F005C017F04D
:1016780006C018F0AAEC04F011C04CF012C04DF0EE
:1016880013C04EF014C04FF046C003F047C004F03A
:10169800056A066A000EE4EC07F003C011F004C006
:1016A80012F005C013F006C014F04AC003F04BC096
:1016B80004F0056A066A000EE4EC07F003C015F0B2
:1016C80004C016F005C017F006C018F0AAEC04F024
:1016D80011C050F012C051F013C052F014C053F0B2
:1016E80048C003F049C004F0056A066A000EE4EC3D
:1016F80007F003C011F004C012F005C013F006C0D3
:1017080014F04AC003F04BC004F0056A066A000EE4
:10171800E4EC07F003C015F004C016F005C017F09C
:1017280006C018F0AAEC04F011C054F012C055F02D
:1017380013C056F014C057F012001BC016F01CC09E
:1017480017F01DC018F01EC019F0F3EC0FF020EED2
:1017580001F01B50D9261C50DA22010EDF6E20EE54
:1017680001F01D50D9261E50DA22000EDF6E80804F
:10177800000E246E2CEF0CF01BC0D9FF1CC0DAFF42
:10178800330EDF60CAEF0BF0CCEF0BF0D2EF0BF0AB
:101798001BC0D9FF1CC0DAFF0A0EDF261DC0D9FF07
:1017A8001EC0DAFF330EDF60DCEF0BF0DEEF0BF06C
:1017B800E4EF0BF01DC0D9FF1EC0DAFF0A0EDF26CA
:1017C8001BC010F01CC011F04EEC0AF01DC010F048
:1017D8001EC011F04EEC0AF0D00E226ECA0EE82E92
:1017E800FED7222EFCD71BC0D9FF1CC0DAFF320E51
:1017F800DF6401EF0CF003EF0CF0C0EF0BF01DC03D
:10180800D9FF1EC0DAFF320EDF640DEF0CF00FEFC8
:101818000CF0C0EF0BF020C003F021C004F081EC05
:1018280011F01BC016F01CC017F01DC018F01EC028
:1018380019F0F3EC0FF00D0E236E2D0E226ED80E5C
:10184800E82EFED7222EFCD7232EFAD78090242A02
:101858001F50245CD8A033EF0CF035EF0CF0F7EFF5
:101868000BF012001BC016F01CC017F01DC018F0BA
:101878001EC019F0F3EC0FF020EE01F01B50D92632
:101888001C50DA22000EDF6E20EE01F01D50D92622
:101898001E50DA22010EDF6E7E80000E246EC1EF2C
:1018A8000CF01BC0D9FF1CC0DAFF330EDF605FEFFE
:1018B8000CF061EF0CF067EF0CF01BC0D9FF1CC0F7
:1018C800DAFF0A0EDF261DC0D9FF1EC0DAFF330E6D
:1018D800DF6071EF0CF073EF0CF079EF0CF01DC0C6
:1018E800D9FF1EC0DAFF0A0EDF261BC010F01CC08D
:1018F80011F04EEC0AF01DC010F01EC011F04EECB5
:101908000AF0D00E226ECA0EE82EFED7222EFCD781
:101918001BC0D9FF1CC0DAFF320EDF6496EF0CF053
:1019280098EF0CF055EF0CF01DC0D9FF1EC0DAFF80
:10193800320EDF64A2EF0CF0A4EF0CF055EF0CF0C0
:1019480020C003F021C004F081EC11F01BC016F098
:101958001CC017F01DC018F01EC019F0F3EC0FF0F2
:101968000D0E236E2D0E226ED80EE82EFED7222ED7
:10197800FCD7232EFAD77E90242A1F50245CD8A0A7
:10198800C8EF0CF0CAEF0CF08CEF0CF01200000E50
:1019980003140B6E000E04140C6E800E05140D6EED
:1019A8007F0E06140E6E0B500C100D100E10D8A4DE
:1019B800E0EF0CF0E2EF0CF0EAEF0CF0000E036E33
:1019C800000E046E000E056E000E066E000E071463
:1019D8000B6E000E08140C6E800E09140D6E7F0E2F
:1019E8000A140E6E0B500C100D100E10D8A4FFEF39
:1019F8000CF001EF0DF009EF0DF0000E076E000E70
:101A0800086E000E096E000E0A6E06AE0EEF0DF09F
:101A180010EF0DF019EF0DF0036C041ED8B0042A76
:101A2800051ED8B0052A800E06560AAE1EEF0DF028
:101A380020EF0DF029EF0DF0076C081ED8B0082A2A
:101A4800091ED8B0092A800E0A56000E031A000E85
:101A5800041A000E051A800E061A000E071A000E48
:101A6800081A000E091A800E0A1A0750035C08505B
:101A78000458095005580A500658D8B046EF0DF0DA
:101A880048EF0DF04BEF0DF0D8904CEF0DF0D880EB
:101A980012001BC016F01CC017F01DC018F01EC0A5
:101AA80019F0F3EC0FF0808220EE01F01B50D926DC
:101AB8001C50DA22000EDF6E20EE01F01D50D926F0
:101AC8001E50DA22000EDF6E1DC010F01EC011F08D
:101AD8004EEC0AF01BC010F01CC011F04EEC0AF0DE
:101AE80092EF0DF01BC0D9FF1CC0DAFF0A0EDF26EB
:101AF8001DC0D9FF1EC0DAFF0A0EDF261BC010F07A
:101B08001CC011F04EEC0AF01DC010F01EC011F000
:101B18004EEC0AF06A0EE82EFED700D01BC0D9FFA3
:101B28001CC0DAFF1E0EDF609CEF0DF09EEF0DF07B
:101B3800AAEF0DF01DC0D9FF1EC0DAFF1D0EDF642D
:101B4800A8EF0DF0AAEF0DF076EF0DF01D0E206E48
:101B5800690E1F6EA50EE82EFED71F2EFCD7202E6D
:101B6800FAD700F01BC016F01CC017F01DC018F003
:101B78001EC019F0F3EC0FF0110E206E3C0E1F6E14
:101B8800CB0EE82EFED71F2EFCD7202EFAD700F05A
:101B9800809212001BC016F01CC017F01DC018F070
:101BA8001EC019F0F3EC0FF020EE01F01B50D926FF
:101BB8001C50DA22010EDF6E20EE01F01D50D926EE
:101BC8001E50DA22010EDF6E7C861DC010F01EC08A
:101BD80011F04EEC0AF01BC010F01CC011F04EECD6
:101BE8000AF029EF0EF01BC0D9FF1CC0DAFF330E34
:101BF800DF6001EF0EF003EF0EF008EF0EF01BC0F0
:101C0800D9FF1CC0DAFFDF2A1DC0D9FF1EC0DAFFCA
:101C1800380EDF6012EF0EF014EF0EF019EF0EF031
:101C28001DC0D9FF1EC0DAFFDF2A1BC010F01CC080
:101C380011F04EEC0AF01DC010F01EC011F04EEC71
:101C48000AF01A0EE82EFED700D01BC0D9FF1CC020
:101C5800DAFF320EDF6433EF0EF035EF0EF0F7EFF8
:101C68000DF01DC0D9FF1EC0DAFF370EDF643FEF4D
:101C78000EF041EF0EF0F7EF0DF07C9612001BC04E
:101C880016F01CC017F01DC018F01EC019F0F3ECB8
:101C98000FF020EE01F01B50D9261C50DA22000E5E
:101CA800DF6E20EE01F01D50D9261E50DA22000EFC
:101CB800DF6E80821DC010F01EC011F04EEC0AF0DD
:101CC8001BC010F01CC011F04EEC0AF09EEF0EF095
:101CD8001BC0D9FF1CC0DAFF330EDF6076EF0EF0B1
:101CE80078EF0EF07DEF0EF01BC0D9FF1CC0DAFFB5
:101CF800DF2A1DC0D9FF1EC0DAFF380EDF6087EF6C
:101D08000EF089EF0EF08EEF0EF01DC0D9FF1EC049
:101D1800DAFFDF2A1BC010F01CC011F04EEC0AF0ED
:101D28001DC010F01EC011F04EEC0AF01A0EE82E7D
:101D3800FED700D01BC0D9FF1CC0DAFF320EDF640B
:101D4800A8EF0EF0AAEF0EF06CEF0EF01DC0D9FF51
:101D58001EC0DAFF370EDF64B4EF0EF0B6EF0EF0F8
:101D68006CEF0EF08092120085948598839E879C74
:101D78007D947D987B9E7F9C050E0E01746F060EE8
:101D8800766F070E696F080E886FBD508F0B40097C
:101D9800BD6EE00EBE16BF50F00B0109BF6E03C04A
:101DA800BCFFBD8E000EAA6E000EA66E000E0F01BF
:101DB800256F000E216FFC0EAD16F30EAD16CF0E7B
:101DC800AD163F0EAD16AB88AB50F00B0C09AB6EE1
:101DD800AB8EA788A750F00B0C09A76EA78E268993
:101DE8002651F00B0C09266F268F22892251F00B01
:101DF8000C09226F228F120025C01BF026C01CF090
:101E080027C01DF028C01EF0020E1F6E5AC020F019
:101E18005BC021F036EC0CF025C016F026C017F098
:101E280027C018F028C019F0F3EC0FF0110E2A6E35
:101E38003C0E296ECB0EE82EFED7292EFCD72A2E73
:101E4800FAD700F025C01BF026C01CF027C01DF0F3
:101E580028C01EF043EC0EF0030E046E840E036ED1
:101E680081EC11F025C016F026C017F027C018F035
:101E780028C019F0F3EC0FF0120025C01BF026C0A3
:101E88001CF027C01DF028C01EF0020E1F6E58C09F
:101E980020F059C021F0A1EC0BF025C016F026C0A7
:101EA80017F027C018F028C019F0F3EC0FF0110E46
:101EB8002A6E3C0E296ECB0EE82EFED7292EFCD7B3
:101EC8002A2EFAD700F025C01BF026C01CF027C028
:101ED8001DF028C01EF043EC0EF0030E046E840EB5
:101EE800036E81EC11F025C016F026C017F027C04C
:101EF80018F028C019F0F3EC0FF01200000E0E6E67
:101F0800000E0D6E0B500C10D8B48DEF0FF08FEF44
:101F18000FF0B7EF0FF0010E0F6E97EF0FF0D8909C
:101F28000B360C360F2A0CAE9CEF0FF09EEF0FF01D
:101F380093EF0FF0D8900D360E360B50095C0C500D
:101F48000A58D8A0AAEF0FF0ACEF0FF0B1EF0FF0DE
:101F58000B50095E0C500A5A0D80D8900C320B3287
:101F68000F2E9EEF0FF00DC009F00EC00AF0120000
:101F78001FEC11F08EA4C3EF0FF0C5EF0FF0CCEFFC
:101F88000FF08EB6CAEF0FF0CCEF0FF0BEEF0FF0E8
:101F98008EB6D1EF0FF0D3EF0FF0F1EF0FF0290E5F
:101FA8000001C76F960EC66F7F0EE82EFED7C62FAC
:101FB800FCD7C72FFAD74FEC12F0B90E366E000EC9
:101FC800376EB00E386E000E396E440E3A6E000E43
:101FD8003B6E24EC00F0E1EF0FF022EF00F020EE72
:101FE80002F01650D9261750DA22010EDF6E20EEC5
:101FF80002F01850D9261950DA22010EDF6E7C88BB
:10200800460E1A6E16C0D9FF17C0DAFF1AC0DFFFD6
:1020180018C0D9FF19C0DAFF1AC0DFFF16C010F0C8
:1020280017C011F04EEC0AF018C010F019C011F0EA
:102038004EEC0AF06A0EE82EFED700D01A50F60FC2
:102048001A6E06EF10F01200EE0EF66E240EF76E02
:10205800000EF86E00EEC2F010EE04F00900F5CFA5
:10206800EEFFE550E150FAE1EA0EF66E240EF76E47
:10207800000EF86E00EE58F010EE04F00900F5CFEF
:10208800EEFFE550E150FAE100EE60F0620EEE6A14
:10209800E806FDE100EE40F0180EEE6AE806FDE104
:1020A8005C905C920001BCEF0FF06BEC12F0520EEA
:1020B80060EC12F0B60E60EC12F070EC12F0530EF9
:1020C80060EC12F0010E40EC11F0096E09500C6E34
:1020D8000D6A000E40EC11F0096E09500B6E0A6A89
:1020E8000C500A100C6E0D500B100D6E66EC12F0B1
:1020F8000CC007F00DC008F012006BEC12F0520E85
:1021080060EC12F0B80E60EC12F070EC12F0530EA6
:1021180060EC12F0010E40EC11F0096E09500C6EE3
:102128000D6A000E40EC11F0096E09500B6E0A6A38
:102138000C500A100C6E0D500B100D6E66EC12F060
:102148000CC007F00DC008F012006BEC12F0520E34
:1021580060EC12F0B40E60EC12F070EC12F0530E5A
:1021680060EC12F0010E40EC11F0096E09500C6E93
:102178000D6A000E40EC11F0096E09500B6E0A6AE8
:102188000C500A100C6E0D500B100D6E66EC12F010
:102198000CC007F00DC008F012006BEC12F0520EE4
:1021A80060EC12F0BA0E60EC12F070EC12F0530E04
:1021B80060EC12F0010E40EC11F0096E09500C6E43
:1021C8000D6A000E40EC11F0096E09500B6E0A6A98
:1021D8000C500A100C6E0D500B100D6E66EC12F0C0
:1021E8000CC007F00DC008F01200000E0001B96F16
:1021F800010EBA6F010EBB6FAA0EBE6F0F0EBF6F36
:10220800A60EC06F0F0EC16F000EBD6F630EBC6FC0
:10221800000EB06F010EB16F010EB26F250EB56FD3
:102228000F0EB66F210EB76F0F0EB86F000EB46F9A
:10223800630EB36F1200000E046E630E036EB8ECEB
:102248000EF044EC12F0F7EC11F0B90E036E000E2C
:10225800046EB00E056E000E066EF9EC10F0BBECC5
:1022680011F0A1EC11F027EC12F058EC12F007EC89
:1022780012F037EC12F01200056ED0EC11F00E01DE
:10228800DA87D0EC11F0D5CE06F0D0EC11F005507D
:10229800D8B451EF11F055EF11F0046A042A56EF43
:1022A80011F0046A043A04460E01DA510418DF0BEF
:1022B8000418DA6FDA8906501200000E086E000E54
:1022C800076E75EF11F00B0E066EA30E056E0A0E63
:1022D800E82EFED7052EFCD7062EFAD700D0074ADF
:1022E800082A0350075C04500858D8A07EEF11F064
:1022F80080EF11F067EF11F01200000E076E000E6C
:10230800066E91EF11F0150E056EC60EE82EFED77B
:10231800052EFCD700D0064A072A0350065C075052
:10232800800A056E0450800A0558D8A09EEF11F067
:10233800A0EF11F087EF11F01200BBEC11F0010EC5
:10234800056E000E17EC12F03F0E076E550EE82EC4
:10235800FED7072EFCD700F0030E056E000E17EC13
:1023680012F0D50E056E010E17EC12F012000E01D8
:10237800D951F00B0809D96FD98B9F0ED66F848A73
:10238800848CA79BA79D1D0E1D6F1E0E1C6F1C0E17
:102398006F6F1B0E706F12000E01D8B5D6EF11F0DB
:1023A800D8EF11F0D0EF11F0DACE03F01F0E0316BC
:1023B800D8A4E1EF11F0E3EF11F0D0EF11F0120023
:1023C80003500502F3CF07F0F4CF08F003500602DC
:1023D800F350082604500502F350082607C003F0FE
:1023E80008C004F0120087928198869E7F827988BF
:1023F8007E8E86840E01B4958686B497849E7C9ED4
:10240800889680961200120E0E01626F110E156FDB
:102418008382E997E895330EE56F000EE66FE7894A
:10242800E88BE78F1200066E6BEC12F0520E60EC30
:1024380012F00650800960EC12F0055060EC12F0C2
:1024480066EC12F01200D6501F0B4009D66ED688E3
:10245800D650F00B0509D66ED588000ED46E230E23
:10246800D36ED58E1200868C0E01B48D0F0158994B
:10247800FC0E58172E0E5F6F60946088608E1200F5
:1024880080927C967C987E9080908892849684989E
:10249800869088901200000E416E000E406E000E6D
:1024A800D46E230ED36E12000E01298B339B1F9B13
:1024B800F28AF28CF28E1200046ED0EC11F004C095
:1024C800D5FE1200D0EC11F00E01DA851200D0EC26
:1024D80011F00E01DA811200D0EC11F00E01DA834E
:0A24E800120060006200C4098403C2
:020000040020DA
:10000000FF0FFF0FFF0FFF0FFF0FFF0FFF0FFF0F80
:020000040030CA
:0C000000AAFFFFFF9FFFFFFFFFFFFFFFB5
:00000001FF
