:040000003BEF00F0E2
:100008005B82D9CF03F0DACF04F00E0137A70FEFE8
:1000180000F011EF00F014EF00F0E35195EC0DF053
:100028000E0137A51AEF00F01CEF00F035EF00F0D5
:100038002DA521EF00F023EF00F035EF00F0EAECFA
:100048000DF0E806D8A42BEF00F02DEF00F033EF09
:1000580000F06AEC0DF00E01E46F35EF00F00E01D0
:100068002D9504C0DAFF03C0D9FF5B92110039EF68
:020078000DF089
:100E00000052203D202564202B2042203D202564D7
:100E1000202B2047203D202564202B2043203D20EF
:100E20002564000022C038F023C039F024C03AF015
:100E300025C03BF026C03CF027C03DF028C03EF066
:100E400029C03FF03FBE27EF07F02AEF07F0010E61
:100E50002BEF07F0000E406E4050D8B432EF07F091
:100E600034EF07F044EF07F03F1E3E1E3D1E3C1ED0
:100E70003B1E3A1E391E386C000E39223A223B22A4
:100E80003C223D223E223F220001D8BF52EF07F014
:100E9000D85106E1D705D8B050EF07F052EF07F070
:100EA00058EF07F0000E356E010E346E5CEF07F060
:100EB000D7C034F0D8C035F0D5C036F0D6C037F042
:100EC0004050D8B466EF07F068EF07F07FEF07F007
:100ED0003606D8A037064050D8A471EF07F073EF5C
:100EE00007F079EF07F0000E336E2B0E326E7DEFB8
:100EF00007F0000E336E2D0E326E32C040F0000E41
:100F0000426E1F0E416E000EF96F03EF08F04106AE
:100F1000D8A04206DA0E4124D96E000E4220DA6EC5
:100F200038C005F039C006F03AC007F03BC008F001
:100F30003CC009F03DC00AF03EC00BF03FC00CF0D1
:100F40000A0E0D6E000E0E6E000E0F6E000E106E6D
:100F5000000E116E000E126E000E136E000E146E57
:100F600014EC09F005C02AF006C02BF007C02CF0E5
:100F700008C02DF009C02EF00AC02FF00BC030F0D1
:100F80000CC031F02AC017F02BC018F0FFEC0CF0A9
:100F90001750300FDF6E3406D8A035063606D8A0BD
:100FA000370638C005F039C006F03AC007F03BC03C
:100FB00008F03CC009F03DC00AF03EC00BF03FC055
:100FC0000CF00A0E0D6E000E0E6E000E0F6E000E6F
:100FD000106E000E116E000E126E000E136E000EDB
:100FE000146E50EC08F005C038F006C039F007C0A8
:100FF0003AF008C03BF009C03CF00AC03DF00BC01D
:101000003EF00CC03FF042BE0EEF08F0425008E147
:101010004104D8A00EEF08F010EF08F02CEF08F014
:10102000385039103A103B103C103D103E103F1024
:10103000D8A41DEF08F01FEF08F087EF07F035BECA
:101040002CEF08F0355006E13404D8B02AEF08F050
:101050002CEF08F087EF07F04050D8B432EF08F0DB
:1010600034EF08F03FEF08F04106D8A04206DA0E50
:101070004124D96E000E4220DA6E40C0DFFF20C04E
:1010800015F021C016F0DA0E4124176E000E422032
:10109000186E36C019F037C01AF08EEC0BF0120043
:1010A000000E166E14BE59EF08F057EF08F06BEF04
:1010B00008F0141E131E121E111E101E0F1E0E1EEF
:1010C0000D6C000E0E220F2210221122122213226A
:1010D0001422010E166E0CBE72EF08F070EF08F0CD
:1010E00084EF08F00C1E0B1E0A1E091E081E071EA8
:1010F000061E056C000E06220722082209220A227B
:101100000B220C22010E161A20EE17F0070EDE6AD3
:10111000E806FDE20D500E100F1010101110121005
:1011200013101410D8B497EF08F099EF08F0EBEF14
:1011300008F0010E156EA7EF08F0D8900D360E36A8
:101140000F3610361136123613361436152A14AEF1
:10115000ACEF08F0AEEF08F09DEF08F0D89017362E
:10116000183619361A361B361C361D361E360D50EB
:10117000055C0E5006580F50075810500858115073
:10118000095812500A5813500B5814500C58D8A034
:10119000CCEF08F0CEEF08F0DFEF08F00D50055E61
:1011A0000E50065A0F50075A1050085A1150095A3B
:1011B00012500A5A13500B5A14500C5A1780D890D8
:1011C000143213321232113210320F320E320D320B
:1011D000152EAEEF08F01650D8B4F1EF08F0F3EF8B
:1011E00008F003EF09F01E1E1D1E1C1E1B1E1A1EFA
:1011F000191E181E176C000E182219221A221B2203
:101200001C221D221E2217C005F018C006F019C0AE
:1012100007F01AC008F01BC009F01CC00AF01DC07E
:101220000BF01EC00CF01200000E166E0CBE1DEF6F
:1012300009F01BEF09F02FEF09F00C1E0B1E0A1E20
:10124000091E081E071E061E056C000E0622072238
:10125000082209220A220B220C22010E166E14BE4D
:1012600036EF09F034EF09F046EF09F0141E131EB3
:10127000121E111E101E0F1E0E1E0D6C000E0E22D1
:101280000F22102211221222132214220D500E10AE
:101290000F1010101110121013101410D8B453EFB7
:1012A00009F055EF09F09DEF09F0010E156E63EF9F
:1012B00009F0D8900D360E360F361036113612362C
:1012C00013361436152A14AE68EF09F06AEF09F0E8
:1012D00059EF09F00D50055C0E5006580F50075895
:1012E000105008581150095812500A5813500B58F2
:1012F00014500C58D8A07FEF09F081EF09F091EF5E
:1013000009F00D50055E0E50065A0F50075A105046
:10131000085A1150095A12500A5A13500B5A1450B5
:101320000C5AD890143213321232113210320F325A
:101330000E320D32152E6AEF09F01650D8B4A3EF15
:1013400009F0A5EF09F0B5EF09F00C1E0B1E0A1EFF
:10135000091E081E071E061E056C000E0622072227
:10136000082209220A220B220C2205C005F006C021
:1013700006F007C007F008C008F009C009F00AC06D
:101380000AF00BC00BF00CC00CF0120045C0D9FFE6
:1013900046C0DAFFDECFF6FFDDCFF7FF0800F550DD
:1013A000250AD8A4D6EF09F0D8EF09F058EF0AF0D3
:1013B00045C0D9FF46C0DAFFDE2A000EDD22000E4E
:1013C0000001D66F000ED56FD5C0D9F0D769D869A6
:1013D00045C0D9FF46C0DAFFDECF53F0DDCF54F071
:1013E00053C0F6FF54C0F7FF0800F550640AD8B4A4
:1013F000FCEF09F0FEEF09F00CEF0AF053C0F6FF26
:1014000054C0F7FF0800F550690AD8A40AEF0AF0A3
:101410000CEF0AF04FEF0AF047C0D9FF48C0DAFFDF
:10142000DFCF49F0020EDE26DFCF4AF0000EDD22CC
:1014300049C0D9FF4AC0DAFFDECF4BF0DDCF4CF018
:10144000000E4CBEFF0E4D6E4E6E4F6E506E516EC6
:10145000526E010E5324496E000E54204A6E45C050
:10146000D9FF46C0DAFF49C0DEFF4AC0DDFF43C0F6
:1014700020F044C021F04BC022F04CC023F04DC0FE
:1014800024F04EC025F04FC026F050C027F051C0C8
:1014900028F052C029F012EC07F06CEF0AF045C0BA
:1014A000D9FF46C0DAFFDE2A000EDD226CEF0AF01B
:1014B00045C0D9FF46C0DAFFDECFF6FFDDCFF7FF2C
:1014C0000800F550056E066A43C007F044C008F0F6
:1014D000E1EC0AF04FEF0AF01200000E066E630E08
:1014E000056E46EC0BF0000E0001AF6F010EB06F01
:1014F000010EB16FAA0EB46F0F0EB56FA60EB66FC8
:101500000F0EB76F000EB36F630EB26F000EB86FA1
:10151000010EB96F010EBA6F250EBD6F0F0EBE6FB3
:10152000210EBF6F0F0EC06F000EBC6F630EBB6F3E
:101530001FEC0DF080EC0DF0BEEC0DF0FCEC0DF0AE
:1015400087928198869E7F9279987E9E1CEC0CF003
:1015500009C0A7F00AC0A8F094EC0CF009C0A9F0EB
:101560000AC0AAF044EC0CF009C0ABF00AC0ACF021
:101570006CEC0CF009C0ADF00AC0AEF07F0E0001BB
:10158000666F000E676F010E686F0E0E696FA7C061
:101590006AF0A8C06BF0A9C06CF0AAC06DF0ABC037
:1015A0006EF0ACC06FF0ADC070F0AEC071F0CBECBF
:1015B0000BF07F0E066E000E076E52EC0DF03BEF47
:1015C00000F007500810D8B4E8EF0AF0EAEF0AF08C
:1015D000F3EF0AF007500810D8A4F1EF0AF0F3EF88
:1015E0000AF0F8EF0AF0055011EC0EF045EF0BF0A1
:1015F00020EE09F00750D9260850DA22DE50DE101E
:10160000D8B405EF0BF007EF0BF022EF0BF020EE54
:1016100009F00750D9260850DA2210EE03F00750DF
:10162000E1260850E222DE50E65CE650800A0D6EAC
:10163000DE50800A0D58D8B020EF0BF022EF0BF0EF
:1016400045EF0BF020EE03F00750D9260850DA22C0
:10165000DECF09F0DDCF0AF007C0D9FF08C0DAFFFE
:10166000DECF0BF0DDCF0CF009500B24D96E0A5001
:101670000C20DA6E05C0DFFF20EE03F00750D926FC
:101680000850DA22DE2A000EDD22120085948598A9
:10169000839E879C7D947D987B9E7F9C050E0E018A
:1016A000746F060E766F070E696F080E886FBD5057
:1016B0008F0B4009BD6EE00EBE16BF50F00B010946
:1016C000BF6E05C0BCFFBD8E000EAA6E000EA66EDA
:1016D000000E0F01256F000E216FFC0EAD16F30EEC
:1016E000AD16CF0EAD163F0EAD16AB88AB50F00B5E
:1016F0000C09AB6EAB8EA788A750F00B0C09A76E38
:10170000A78E26892651F00B0C09266F268F228979
:101710002251F00B0C09226F228F12001ABE93EF98
:101720000BF095EF0BF09BEF0BF019C01EF01AC0F9
:101730001FF09FEF0BF0000E1F6E000E1E6E000ECE
:101740001D6E000E1C6EB1EF0BF0000E066E200E2B
:10175000056E15C007F016C008F0E1EC0AF01C4A4F
:101760001D2A1E501C5C1D50800A1B6E1F50800AD3
:101770001B58D8A0BEEF0BF0C0EF0BF0A5EF0BF09D
:1017800017C00EF018C00FF015C010F016C011F001
:10179000BCEC0CF012006A0E0001726F000E736F49
:1017A00066C074F067C075F0000E786F000E776F3A
:1017B000000E7E6F000E7D6F740E606F000E616F05
:1017C00068C062F069C063F0720E646F000E656FEE
:1017D000F4EC0BF0000177516625D96E7851672142
:1017E000DA6E000EDF6E120062C055F063C056F074
:1017F00008EF0CF060C043F061C044F0550E456E38
:10180000000E466E64C047F065C048F0C6EC09F0B3
:1018100055C0F6FF56C0F7FF0800F5500009D8A4E0
:1018200014EF0CF016EF0CF0FAEF0BF0000E0001C5
:10183000616F000E606F12000CEC0EF0520EF6ECB1
:101840000DF0B60EF6EC0DF002EC0EF0530EF6ECC9
:101850000DF0010EDEEC0CF00B6E0B500E6E0F6AED
:10186000000EDEEC0CF00B6E0B500D6E0C6A0E5081
:101870000C100E6E0F500D100F6E07EC0EF00EC018
:1018800009F00FC00AF012000CEC0EF0520EF6EC4C
:101890000DF0B80EF6EC0DF002EC0EF0530EF6EC77
:1018A0000DF0010EDEEC0CF00B6E0B500E6E0F6A9D
:1018B000000EDEEC0CF00B6E0B500D6E0C6A0E5031
:1018C0000C100E6E0F500D100F6E07EC0EF00EC0C8
:1018D00009F00FC00AF012000CEC0EF0520EF6ECFC
:1018E0000DF0B40EF6EC0DF002EC0EF0530EF6EC2B
:1018F0000DF0010EDEEC0CF00B6E0B500E6E0F6A4D
:10190000000EDEEC0CF00B6E0B500D6E0C6A0E50E0
:101910000C100E6E0F500D100F6E07EC0EF00EC077
:1019200009F00FC00AF012000CEC0EF0520EF6ECAB
:101930000DF0BA0EF6EC0DF002EC0EF0530EF6ECD4
:101940000DF0010EDEEC0CF00B6E0B500E6E0F6AFC
:10195000000EDEEC0CF00B6E0B500D6E0C6A0E5090
:101960000C100E6E0F500D100F6E07EC0EF00EC027
:1019700009F00FC00AF01200000E146E000E136E74
:10198000CDEF0CF012C005F0066A10C007F011C0D0
:1019900008F0E1EC0AF0134A142A13500E24D96E11
:1019A00014500F20DA6EDF50126E1250D8A4DBEF05
:1019B0000CF0DDEF0CF0C2EF0CF01200076EAAEC99
:1019C0000DF00E01DA87AAEC0DF0D5CE08F0AAECE6
:1019D0000DF00750D8B4EFEF0CF0F3EF0CF0066AFF
:1019E000062AF4EF0CF0066A063A06460E01DA51B2
:1019F0000618DF0B0618DA6FDA890850120018BED5
:101A00000CEF0DF0185006E11704D8B00AEF0DF0F6
:101A10000CEF0DF01AEF0DF017C019F018C01AF006
:101A2000191E1A1E194A1A2A19C017F01AC018F0DE
:101A30001EEF0DF017C017F018C018F0120080EC60
:101A40000DF0010E076E000ECEEC0DF03F0E096E8C
:101A5000550EE82EFED7092EFCD700F0030E076EB8
:101A6000000ECEEC0DF0D50E076E010ECEEC0DF093
:101A7000120001EE00F03C0EEE6AE806FDE100EE19
:101A8000C1F0390EEE6AE806FDE15A6A596A586AF1
:101A9000576A5B905B92000EF86E0E0EF76E0001B7
:101AA0006DEF0AF05DEF0DF006C0D9FF07C0DAFF59
:101AB000DF50DEEC0DF0064A072A06C0D9FF07C04A
:101AC000DAFFDF50D8A467EF0DF069EF0DF054EFA7
:101AD0000DF012003B0E576470EF0DF072EF0DF039
:101AE00074EF0DF0000E576E572A5704016E026A0C
:101AF000000E0124D96E010E0220DA6EDF501200B2
:101B00000E01D951F00B0809D96FD98B9F0ED66FF2
:101B1000848A848CA79BA79D1D0E1D6F1E0E1C6FB3
:101B20001C0E6F6F1B0E706F1200016E130E5A6445
:101B30009CEF0DF09EEF0DF0A0EF0DF0000E5A6E31
:101B4000C10E5A24D96EDA6A000EDA2201C0DFFF14
:101B50005A2A12000E01D8B5B0EF0DF0B2EF0DF019
:101B6000AAEF0DF0DACE05F01F0E0516D8A4BBEFD4
:101B70000DF0BDEF0DF0AAEF0DF01200120E0E01E8
:101B8000626F110E156F8382E997E895330EE56F4A
:101B9000000EE66FE789E88BE78F1200086E0CEC09
:101BA0000EF0520EF6EC0DF008508009F6EC0DF038
:101BB0000750F6EC0DF007EC0EF01200056E0E016A
:101BC00037A5E5EF0DF0E7EF0DF0DFEF0DF005C005
:101BD000E4FE120057505818D8A4F1EF0DF0F4EFBE
:101BE0000DF0010EF5EF0DF0000E1200066EAAECDE
:101BF0000DF006C0D5FE1200F28C0E012D872D953A
:101C0000F28E1200AAEC0DF00E01DA831200AAEC9B
:101C10000DF00E01DA851200AAEC0DF00E01DA814A
:041C2000120012009C
:020000040020DA
:10000000FF0FFF0FFF0FFF0FFF0FFF0FFF0FFF0F80
:020000040030CA
:0C000000AAFFFFFF9FFFFFFFFFFFFFFFB5
:00000001FF
