:0400000012EF00F00B
:1000080049820E0133A10BEF00F00DEF00F010EF65
:1000180000F0010E1B6E339149921100C3EF00F0FE
:1000280085948598839E879C7D947D987B9E7F9CF4
:10003800050E0E01746F060E766F070E696F080EB7
:10004800886FBD508F0B4009BD6EE00EBE16BF50C5
:10005800F00B0109BF6E42C0BCFFBD8E000EAA6E38
:10006800000EA66E000E0F01256F000E216FFC0E0C
:10007800AD16F30EAD16CF0EAD163F0EAD16AB880E
:10008800AB50F00B0C09AB6EAB8EA788A750F00BEA
:100098000C09A76EA78E26892651F00B0C09266F2E
:1000A800268F22892251F00B0C09226F228F120011
:1000B800000E396E010E3A6E010E3B6EAA0E3E6EB0
:1000C8000F0E3F6EA60E406E0F0E416E000E3D6E77
:1000D800630E3C6E000E306E010E316E010E326EF4
:1000E800250E356E0F0E366E210E376E0F0E386EDA
:1000F800000E346E630E336E1200000E436E630EF4
:10010800426E14EC00F0390E426E000E436E300E53
:10011800446E000E456E5CEC00F04FEC01F023ECF1
:1001280001F0E0EC00F043EC01F087928198869EA4
:100138007F8279887E8E86840E01B49512EF00F056
:10014800130E446E000E33EC01F0000E446E040EE4
:1001580033EC01F0000E446E050E33EC01F0C40ED2
:10016800446E060E33EC01F0090E446E070E33ECB4
:1001780001F0030E446E0C0E33EC01F01200D40EA5
:10018800F66E020EF76E000EF86E0900F5CF47F016
:100198000900F5CF48F000EE60F03C0EEE6AE80684
:1001A800FDE100EE01F0410EEE6AE806FDE149903E
:1001B8004992000181EF00F0FAEC00F0010E446E64
:1001C800000E33EC01F03F0E466E550EE82EFED7BA
:1001D800462EFCD700F0030E446E000E33EC01F0FF
:1001E800D50E446E010E33EC01F012000E01D95108
:1001F800F00B0809D96FD98B9F0ED66F848A848C2F
:10020800A79BA79D1D0E1D6F1E0E1C6F1C0E6F6FEA
:100218001B0E706F12000E01D8B515EF01F017EF25
:1002280001F00FEF01F0DACE42F01F0E4216D8A40B
:1002380020EF01F022EF01F00FEF01F01200120E93
:100248000E01626F110E156F8382E997E895330EE0
:10025800E56F000EE66FE789E88BE78F1200456EC1
:1002680065EC01F0520E5AEC01F0455080095AEC49
:1002780001F044505AEC01F060EC01F01200828267
:100288000E019A9329831F83F292F28AF28CF28EDE
:10029800A4EC00F0120080927C967C987E9080906E
:1002A800889284968498869088901200436E0FEC0A
:1002B80001F043C0D5FE12000FEC01F00E01DA8503
:0E02C80012000FEC01F00E01DA811200C409E1
:020000040020DA
:10000000FF0FFF0FFF0FFF0FFF0FFF0FFF0FFF0F80
:020000040030CA
:0C000000AAFFFFFF9FFFFFFFFFFFFFFFB5
:00000001FF
