:0400000022EF00F0FB
:100018005D80D8CF01F0E0CF02F00E0133AB17EFCF
:1000280000F019EF00F01CEF00F0414A422A339B20
:1000380002C0E0FF01C0D8FF5D90100064EF0FF030
:10004800450E2A6E000E2B6E5AEC0BF0C50E4B5C5B
:10005800090E4C58D8A033EF00F035EF00F087EFC9
:1000680003F0600E4324D96EDA6A000EDA2241C02A
:10007800DFFF432A39C01BF03AC01CF03BC01DF01B
:100088003CC01EF0FAEC0CF0050E406E0F0E3F6EF1
:10009800F10EE82EFED73F2EFCD7402EFAD700F0FF
:1000A80039C016F03AC017F03BC018F03CC019F040
:1000B8002FEC0FF0290E406E960E3F6E7F0EE82E45
:1000C800FED73F2EFCD7402EFAD700F0450E2A6EF9
:1000D800000E2B6E5AEC0BF0290E406E960E3F6EFA
:1000E8007F0EE82EFED73F2EFCD7402EFAD700F021
:1000F800B80E036E1E0E046E450E056E3F0E066E9C
:100108004DC007F04EC008F04FC009F050C00AF0CB
:10011800F7EC0BF0D8B093EF00F095EF00F0DEEFBE
:1001280000F051C003F052C004F053C005F054C0B1
:1001380006F0EC0E076E510E086E380E096E3E0E74
:100148000A6EF7EC0BF0D8B0ACEF00F0AEEF00F0B1
:10015800DEEF00F055C003F056C004F057C005F0BC
:1001680058C006F0290E076E5C0E086E0F0E096E59
:100178003E0E0A6EF7EC0BF0D8B0C5EF00F0C7EFF3
:1001880000F0DEEF00F0880E4424D96EDA6A000E23
:10019800DA22020EDF6E442A39C027F03AC028F06E
:1001A8003BC029F03CC02AF0000E2C6E010E2B6ECD
:1001B8005FEC05F051C003F052C004F053C005F0E5
:1001C80054C006F0000E076E000E086E800E096E11
:1001D8003E0E0A6EF7EC0BF0D8B0F5EF00F0F7EF33
:1001E80000F027EF01F0CD0E036ECC0E046ECC0E9E
:1001F800056E3E0E066E55C007F056C008F057C093
:1002080009F058C00AF0F7EC0BF0D8B00EEF01F087
:1002180010EF01F027EF01F0880E4424D96EDA6A56
:10022800000EDA22010EDF6E442A39C027F03AC0E8
:1002380028F03BC029F03CC02AF0000E2C6E020EBC
:100248002B6E5FEC05F04DC003F04EC004F04FC0BC
:1002580005F050C006F05C0E076E8F0E086EC20ED9
:10026800096E3E0E0A6EF7EC0BF0D8B03EEF01F0C7
:1002780040EF01F089EF01F00A0E036ED70E046E0D
:10028800A30E056E3E0E066E51C007F052C008F070
:1002980053C009F054C00AF0F7EC0BF0D8B057EF90
:1002A80001F059EF01F089EF01F07B0E036E140E97
:1002B800046EAE0E056E3E0E066E55C007F056C0B3
:1002C80008F057C009F058C00AF0F7EC0BF0D8B0A6
:1002D80070EF01F072EF01F089EF01F0880E44240D
:1002E800D96EDA6A000EDA22030EDF6E442A39C0AC
:1002F80027F03AC028F03BC029F03CC02AF0000E95
:100308002C6E030E2B6E5FEC05F0B80E036E1E0EFE
:10031800046E050E056E3F0E066E4DC007F04EC00A
:1003280008F04FC009F050C00AF0F7EC0BF0D8B055
:10033800A0EF01F0A2EF01F0D2EF01F00A0E036E78
:10034800D70E046EA30E056E3E0E066E55C007F05E
:1003580056C008F057C009F058C00AF0F7EC0BF087
:10036800D8B0B9EF01F0BBEF01F0D2EF01F0880E81
:100378004424D96EDA6A000EDA22090EDF6E442AA6
:1003880039C027F03AC028F03BC029F03CC02AF019
:10039800000E2C6E040E2B6E5FEC05F0000E036E43
:1003A800000E046E000E056E3F0E066E4DC007F07F
:1003B8004EC008F04FC009F050C00AF0F7EC0BF03F
:1003C800D8B0E9EF01F0EBEF01F034EF02F08F0E57
:1003D800036EC20E046E750E056E3E0E066E51C09B
:1003E80007F052C008F053C009F054C00AF0F7EC07
:1003F8000BF0D8B002EF02F004EF02F034EF02F095
:1004080055C003F056C004F057C005F058C006F0B8
:10041800C30E076EF50E086EA80E096E3E0E0A6E24
:10042800F7EC0BF0D8B01BEF02F01DEF02F034EF41
:1004380002F0880E4424D96EDA6A000EDA220A0E17
:10044800DF6E442A39C027F03AC028F03BC029F0B3
:100458003CC02AF0000E2C6E050E2B6E5FEC05F0EA
:100468009A0E036E990E046E190E056E3F0E066EF7
:100478004DC007F04EC008F04FC009F050C00AF058
:10048800F7EC0BF0D8B04BEF02F04DEF02F096EF1F
:1004980002F051C003F052C004F053C005F054C03C
:1004A80006F0AE0E076E470E086E610E096E3E0E20
:1004B8000A6EF7EC0BF0D8B064EF02F066EF02F0CA
:1004C80096EF02F01F0E036E850E046E6B0E056E1E
:1004D8003E0E066E55C007F056C008F057C009F02A
:1004E80058C00AF0F7EC0BF0D8B07DEF02F07FEFC0
:1004F80002F096EF02F0880E4424D96EDA6A000EF4
:10050800DA22070EDF6E442A39C027F03AC028F0F5
:100518003BC029F03CC02AF0000E2C6E060E2B6E54
:100528005FEC05F04DC003F04EC004F04FC005F07D
:1005380050C006F0CD0E076ECC0E086ECC0E096EBC
:100548003E0E0A6EF7EC0BF0D8B0ADEF02F0AFEF4D
:1005580002F0F8EF02F09A0E036E990E046E990EEF
:10056800056E3E0E066E51C007F052C008F053C02B
:1005780009F054C00AF0F7EC0BF0D8B0C6EF02F05F
:10058800C8EF02F0F8EF02F0CD0E036ECC0E046E49
:10059800CC0E056E3E0E066E55C007F056C008F02C
:1005A80057C009F058C00AF0F7EC0BF0D8B0DFEFED
:1005B80002F0E1EF02F0F8EF02F0880E4424D96E61
:1005C800DA6A000EDA22060EDF6E442A39C027F0F6
:1005D8003AC028F03BC029F03CC02AF0000E2C6E2F
:1005E800070E2B6E5FEC05F04DC003F04EC004F013
:1005F8004FC005F050C006F0000E076E000E086EE2
:10060800000E096E3F0E0A6EF7EC0BF0D8B00FEF34
:1006180003F011EF03F083EF03F0810E4B5C3E0E05
:100628004C58D8A01AEF03F01CEF03F083EF03F047
:10063800880E4424D96EDA6A000EDA22030EDF6EC1
:10064800442A7F9279987E9E39C01BF03AC01CF0EC
:100658003BC01DF03CC01EF079EC0CF0290E406E3A
:10066800960E3F6E7F0EE82EFED73F2EFCD7402E0B
:10067800FAD700F039C016F03AC017F03BC018F0AE
:100688003CC019F02FEC0FF0290E406E960E3F6E0D
:100698007F0EE82EFED73F2EFCD7402EFAD700F06B
:1006A80039C033F03AC034F03BC035F03CC036F0C6
:1006B800ADEC08F039C016F03AC017F03BC018F09E
:1006C8003CC019F02FEC0FF0290E406E960E3F6ECD
:1006D8007F0EE82EFED73F2EFCD7402EFAD700F02B
:1006E80039C02DF03AC02EF03BC02FF03CC030F09E
:1006F800000E326E030E316EEDEC06F0030087EC4F
:1007080011F091EF03F039C01BF03AC01CF03BC068
:100718001DF03CC01EF0FAEC0CF012001450800BD7
:10072800216E14501424286E13AE9DEF03F09FEF32
:1007380003F0A0EF03F028802850D8B4A6EF03F008
:10074800A8EF03F0BDEF03F02828D8A4AEEF03F01C
:10075800B0EF03F0B8EF03F0000E116E000E126E4A
:10076800000E136E000E146E138E000E146EC5EF7D
:1007780003F0000E116E000E126E000E136E000EC6
:10078800146E1850800B211A18501824296E17AEB1
:10079800D0EF03F0D2EF03F0D3EF03F02980295014
:1007A800D8B4D9EF03F0DBEF03F0F0EF03F029281A
:1007B800D8A4E1EF03F0E3EF03F0EBEF03F0000E52
:1007C800156E000E166E000E176E000E186E178E40
:1007D800000E186EF8EF03F0000E156E000E166E80
:1007E800000E176E000E186E155016101710181000
:1007F800D8A401EF04F003EF04F01BEF04F0000E9F
:10080800116E000E126E000E136E000E146E800E26
:1008180013127F0E14122150141211C011F012C0BD
:1008280012F013C013F014C014F05EEF05F0285056
:10083800D8A421EF04F023EF04F02DEF04F0000E0C
:10084800116E000E126E000E136E000E146E5EEF27
:1008580005F0295028C019F01A6A195E000E1A5AB4
:100868007F0E1924226E000E1A20236E11C01DF06F
:1008780012C01EF013C01FF014C020F0000E116E3D
:10088800000E126E000E136E000E146E000E246E13
:10089800000E256E000E266E000E276E000E296EC5
:1008A8008EEF04F02950D8B45CEF04F05EEF04F04A
:1008B80075EF04F0D8901D361E361F362036D890B6
:1008C800113612361336143627AE6DEF04F06FEF7B
:1008D80004F070EF04F01180D890243625362636BF
:1008E800273615501D5C16501E5817501F581850A3
:1008F8002058D8A082EF04F084EF04F08DEF04F0C4
:10090800278C15501D5E16501E5A17501F5A185026
:10091800205A292A190E296494EF04F096EF04F05E
:1009280056EF04F01D501E101F102010D8B49FEF72
:1009380004F0A1EF04F0B9EF04F02480B9EF04F05B
:10094800D890113612361336143627AEAEEF04F0AF
:10095800B0EF04F0B1EF04F01180D89024362536BA
:10096800263627362206D8A0230613AEBEEF04F09B
:10097800C0EF04F0A4EF04F0000E296E27AEC7EF15
:1009880004F0C9EF04F0EDEF04F0FF0E2414196E23
:10099800FF0E25141A6EFF0E26141B6E7F0E2714E9
:1009A8001C6E19501A101B101C10D8B4DEEF04F07E
:1009B800E0EF04F0E4EF04F0010E296EEDEF04F02F
:1009C80011A0E9EF04F0EBEF04F0EDEF04F0E0EF35
:1009D80004F02950D8B4F3EF04F0F5EF04F019EF60
:1009E80005F0010E1126000E12221322142214A063
:1009F80000EF05F002EF05F019EF05F011C019F04E
:100A080012C01AF013C01BF014C01CF01C341C32A6
:100A18001B321A32193219C011F01AC012F01BC059
:100A280013F01CC014F0224A232A23BE24EF05F039
:100A3800235008E12228D8A024EF05F026EF05F07E
:100A480031EF05F0000E236E2268000E116E000EC5
:100A5800126E000E136E000E146E23BE3EEF05F0EC
:100A6800235006E12204D8B03CEF05F03EEF05F034
:100A78004CEF05F0000E236E000E226E000E116E74
:100A8800000E126E000E136E000E146E000E216E14
:100A980022C028F028A053EF05F055EF05F058EFD5
:100AA80005F0138E59EF05F0139ED8902830146E78
:100AB8000FEF04F0120027C01BF028C01CF029C05B
:100AC8001DF02AC01EF079EC0CF0290E2E6E960E41
:100AD8002D6E7F0EE82EFED72D2EFCD72E2EFAD7A0
:100AE80000F027C016F028C017F029C018F02AC057
:100AF80019F02FEC0FF0290E2E6E960E2D6E7F0E2C
:100B0800E82EFED72D2EFCD72E2EFAD700F02B0478
:100B18002C10D8A492EF05F094EF05F0B0EF05F093
:100B280027C01BF028C01CF029C01DF02AC01EF0E9
:100B3800000E206E020E1F6E59C021F05AC022F01E
:100B48001EEC0AF027C016F028C017F029C018F0CC
:100B58002AC019F02FEC0FF0020E2B182C10D8A475
:100B6800B8EF05F0BAEF05F0D6EF05F027C01BF097
:100B780028C01CF029C01DF02AC01EF0000E206EEF
:100B8800020E1F6E5BC021F05CC022F0BCEC0AF0C4
:100B980027C016F028C017F029C018F02AC019F08D
:100BA8002FEC0FF0030E2B182C10D8A4DEEF05F055
:100BB800E0EF05F0FCEF05F027C01BF028C01CF0A3
:100BC80029C01DF02AC01EF0000E206E040E1F6EF4
:100BD80059C021F05AC022F01EEC0AF027C016F0C6
:100BE80028C017F029C018F02AC019F02FEC0FF010
:100BF800040E2B182C10D8A404EF06F006EF06F00C
:100C08004EEF06F027C01BF028C01CF029C01DF0CD
:100C18002AC01EF06FEC0DF04A0E2E6E0E0E2D6ED1
:100C2800190EE82EFED72D2EFCD72E2EFAD700F05F
:100C380027C016F028C017F029C018F02AC019F0EC
:100C48002FEC0FF0290E2E6E960E2D6E7F0EE82ECD
:100C5800FED72D2EFCD72E2EFAD700F027C01BF07A
:100C680028C01CF029C01DF02AC01EF0000E206EFE
:100C7800020E1F6E59C021F05AC022F01EEC0AF075
:100C880027C016F028C017F029C018F02AC019F09C
:100C98002FEC0FF0050E2B182C10D8A456EF06F0E9
:100CA80058EF06F0A0EF06F027C01BF028C01CF094
:100CB80029C01DF02AC01EF06FEC0DF04A0E2E6EF2
:100CC8000E0E2D6E190EE82EFED72D2EFCD72E2EC9
:100CD800FAD700F027C016F028C017F029C018F07E
:100CE8002AC019F02FEC0FF0290E2E6E960E2D6EDD
:100CF8007F0EE82EFED72D2EFCD72E2EFAD700F029
:100D080027C01BF028C01CF029C01DF02AC01EF007
:100D1800000E206E020E1F6E5BC021F05CC022F038
:100D2800BCEC0AF027C016F028C017F029C018F04C
:100D38002AC019F02FEC0FF0060E2B182C10D8A48F
:100D4800A8EF06F0AAEF06F0C6EF06F027C01BF0E2
:100D580028C01CF029C01DF02AC01EF0000E206E0D
:100D6800030E1F6E59C021F05AC022F01EEC0AF083
:100D780027C016F028C017F029C018F02AC019F0AB
:100D88002FEC0FF0070E2B182C10D8A4CEEF06F07E
:100D9800D0EF06F0ECEF06F027C01BF028C01CF0DF
:100DA80029C01DF02AC01EF0000E206E030E1F6E13
:100DB8005BC021F05CC022F0BCEC0AF027C016F042
:100DC80028C017F029C018F02AC019F02FEC0FF02E
:100DD800120031043210D8A4F4EF06F0F6EF06F052
:100DE80012EF07F02DC01BF02EC01CF02FC01DF015
:100DF80030C01EF0000E206E020E1F6E59C021F08A
:100E08005AC022F01EEC0AF02DC016F02EC017F0C2
:100E18002FC018F030C019F02FEC0FF0020E311867
:100E28003210D8A41AEF07F01CEF07F038EF07F0DC
:100E38002DC01BF02EC01CF02FC01DF030C01EF0BE
:100E4800000E206E020E1F6E5BC021F05CC022F007
:100E5800BCEC0AF02DC016F02EC017F02FC018F009
:100E680030C019F02FEC0FF0030E31183210D8A44F
:100E780040EF07F042EF07F05EEF07F02DC01BF0E0
:100E88002EC01CF02FC01DF030C01EF0000E206ECA
:100E9800040E1F6E59C021F05AC022F01EEC0AF051
:100EA8002DC016F02EC017F02FC018F030C019F062
:100EB8002FEC0FF0060E31183210D8A466EF07F0A9
:100EC80068EF07F084EF07F02DC01BF02EC01CF070
:100ED8002FC01DF030C01EF0000E206E030E1F6ED6
:100EE80059C021F05AC022F01EEC0AF02DC016F0AD
:100EF8002EC017F02FC018F030C019F02FEC0FF0EB
:100F0800070E31183210D8A48CEF07F08EEF07F0D7
:100F1800AAEF07F02DC01BF02EC01CF02FC01DF04B
:100F280030C01EF0000E206E030E1F6E59C021F057
:100F38005AC022F0BCEC0AF02DC016F02EC017F0F3
:100F48002FC018F030C019F02FEC0FF0090E31182F
:100F58003210D8A4B2EF07F0B4EF07F0BEEF07F0F5
:100F68002DC027F02EC028F02FC029F030C02AF05D
:100F7800E4EC0DF00A0E31183210D8A4C6EF07F0D1
:100F8800C8EF07F0D2EF07F02DC027F02EC028F0E9
:100F98002FC029F030C02AF02DEC0EF012000B6E95
:100FA8000B50D8B4DAEF07F0DCEF07F0FEEF07F0EC
:100FB80006BEE3EF07F0E1EF07F0FEEF07F003C02E
:100FC80007F004C008F005C009F006C00AF0071EC3
:100FD800081E091E0A1E072A000E082209220A22D4
:100FE80007C00DF008C00EF009C00FF00AC010F0DD
:100FF80006EF08F003C00DF004C00EF005C00FF0B6
:1010080006C010F00350041005100610D8A40FEF06
:1010180008F011EF08F01BEF08F0000E036E000E49
:10102800046E000E056E000E066EACEF08F0960E0C
:101038000C6E25EF08F00C2AD89010320F320E32C1
:101048000D32000E0D14076E000E0E14086E000E01
:101058000F14096EFE0E10140A6E075008100910BE
:101068000A10D8A43AEF08F03CEF08F01FEF08F098
:101078004AEF08F00C2A010E0D26000E0E220F2250
:101088001022D89010320F320E320D32000E0D148D
:10109800076E000E0E14086E000E0F14096EFF0E78
:1010A80010140A6E0750081009100A10D8A45FEF30
:1010B80008F061EF08F03EEF08F069EF08F00C0661
:1010C800D8900D360E360F3610360FBE6EEF08F07C
:1010D80070EF08F078EF08F0020E0C6076EF08F079
:1010E80078EF08F063EF08F00CB07DEF08F07FEFC1
:1010F80008F080EF08F00F9ED8900C320CC007F073
:10110800086A096A0A6A07C00AF0096A086A076A67
:1011180007500D1208500E1209500F120A501012E3
:101128000B50D8B49AEF08F09CEF08F0A4EF08F041
:1011380006BEA3EF08F0A1EF08F0A4EF08F0108EA8
:101148000DC003F00EC004F00FC005F010C006F08B
:10115800120057EF09F033C02DF034C02EF035C01F
:101168002FF036C030F0870E4424D96EDA6A000EAC
:10117800DA22DF50376E3750316E326AEDEC06F006
:101188004406150E386E4B0E376EBE0EE82EFED78F
:10119800372EFCD7382EFAD700D033C01BF034C016
:1011A8001CF035C01DF036C01EF06FEC0DF0290E96
:1011B800386E960E376E7F0EE82EFED7372EFCD788
:1011C800382EFAD700F033C016F034C017F035C007
:1011D80018F036C019F02FEC0FF0290E386E960E65
:1011E800376E7F0EE82EFED7372EFCD7382EFAD76B
:1011F80000F033C01BF034C01CF035C01DF036C001
:101208001EF0FAEC0CF05F0E4324D96EDA6A000E79
:10121800DA22DF50376E3750036E046A99EC10F00B
:10122800430633C016F034C017F035C018F036C086
:1012380019F02FEC0FF0110E386E3C0E376ECB0EF6
:10124800E82EFED7372EFCD7382EFAD700F033C059
:101258001BF034C01CF035C01DF036C01EF06FEC1A
:101268000DF0090E386E1E0E376EE40EE82EFED70E
:10127800372EFCD7382EFAD700D033C016F034C03A
:1012880017F035C018F036C019F02FEC0FF0150E16
:10129800386E4B0E376EBE0EE82EFED7372EFCD7B3
:1012A800382EFAD700D04350D8B45DEF09F05FEF7D
:1012B80009F067EF09F04450D8A465EF09F067EF2B
:1012C80009F0AFEF08F0120020EE02F01050D92616
:1012D8001150DA22DF50D8B474EF09F076EF09F034
:1012E800AAEF09F010C0D9FF11C0DAFFDF50126E63
:1012F8001250036E046A20EE03F01050D9261150E4
:10130800DA22DECF05F0DDCF06F01CEC11F003C0C9
:1013180009F004C00AF0000E0C6E640E0B6EBEECF1
:101328000EF020EE03F01050D9261150DA22DF50CB
:10133800136E0950135C146E20EE03F01050D9267A
:101348001150DA22DF50156ECDEF09F0000E146E41
:1013580010C0D9FF11C0DAFFDF50126E1250036EB1
:10136800046A20EE03F01050D9261150DA22DECF9D
:1013780005F0DDCF06F01CEC11F003C009F004C045
:101388000AF0000E0C6E640E0B6EBEEC0EF00950E7
:10139800156E20EE01F01050D9261150DA22DF50D8
:1013A800D8B4D9EF09F0DBEF09F0FDEF09F020EE32
:1013B80005F01050D9261150DA22DECF12F0DDCF19
:1013C80013F012C0D9FF13C0DAFF14C0DFFF20EEFC
:1013D80007F01050D9261150DA22DECF12F0DDCFF7
:1013E80013F012C0D9FF13C0DAFF15C0DFFF1DEFDD
:1013F8000AF020EE05F01050D9261150DA22DECF7F
:1014080012F0DDCF13F012C0D9FF13C0DAFF15C0F8
:10141800DFFF20EE07F01050D9261150DA22DECF78
:1014280012F0DDCF13F012C0D9FF13C0DAFF14C0D9
:10143800DFFF12001BC016F01CC017F01DC018F00B
:101448001EC019F02FEC0FF020EE01F01B50D9262A
:101458001C50DA22010EDF6E20EE01F01D50D92655
:101468001E50DA22000EDF6E8080000E266E000EFF
:10147800256EACEF0AF01BC0D9FF1CC0DAFF330E93
:10148800DF6049EF0AF04BEF0AF051EF0AF01BC09A
:10149800D9FF1CC0DAFF0A0EDF261DC0D9FF1EC007
:1014A800DAFF330EDF605BEF0AF05DEF0AF063EFFF
:1014B8000AF01DC0D9FF1EC0DAFF0A0EDF261BC0C6
:1014C80010F01CC011F068EC09F01DC010F01EC02F
:1014D80011F068EC09F0D00E236ECA0EE82EFED784
:1014E800232EFCD71BC0D9FF1CC0DAFF320EDF64E5
:1014F80080EF0AF082EF0AF03FEF0AF01DC0D9FF33
:101508001EC0DAFF320EDF648CEF0AF08EEF0AF0AD
:101518003FEF0AF021C003F022C004F0B9EC10F04C
:101528001BC016F01CC017F01DC018F01EC019F023
:101538002FEC0FF00D0E246E2D0E236ED80EE82E14
:10154800FED7232EFCD7242EFAD78090254A262AA8
:101558001F50255C2650800A236E2050800A23588D
:10156800D8A0B9EF0AF0BBEF0AF076EF0AF0120044
:101578001BC016F01CC017F01DC018F01EC019F0D3
:101588002FEC0FF020EE01F01B50D9261C50DA2268
:10159800000EDF6E20EE01F01D50D9261E50DA2213
:1015A800010EDF6E7E80000E266E000E256E4AEF5D
:1015B8000BF01BC0D9FF1CC0DAFF330EDF60E7EF6A
:1015C8000AF0E9EF0AF0EFEF0AF01BC0D9FF1CC0E0
:1015D800DAFF0A0EDF261DC0D9FF1EC0DAFF330E60
:1015E800DF60F9EF0AF0FBEF0AF001EF0BF01DC026
:1015F800D9FF1EC0DAFF0A0EDF261BC010F01CC080
:1016080011F068EC09F01DC010F01EC011F068EC74
:1016180009F0D00E236ECA0EE82EFED7232EFCD773
:101628001BC0D9FF1CC0DAFF320EDF641EEF0BF0BF
:1016380020EF0BF0DDEF0AF01DC0D9FF1EC0DAFF66
:10164800320EDF642AEF0BF02CEF0BF0DDEF0AF01F
:1016580021C003F022C004F0B9EC10F01BC016F052
:101668001CC017F01DC018F01EC019F02FEC0FF0A9
:101678000D0E246E2D0E236ED80EE82EFED7232EC7
:10168800FCD7242EFAD77E90254A262A1F50255C9F
:101698002650800A236E2050800A2358D8A057EF7E
:1016A8000BF059EF0BF014EF0BF0120091EC0FF068
:1016B80007C045F008C046F009EC10F007C047F035
:1016C80008C048F0B9EC0FF007C049F008C04AF06C
:1016D800E1EC0FF007C04BF008C04CF045C003F038
:1016E80046C004F0056A066A000ED3EC07F003C092
:1016F80011F004C012F005C013F006C014F04BC07E
:1017080003F04CC004F0056A066A000ED3EC07F03B
:1017180003C015F004C016F005C017F006C018F095
:1017280092EC03F011C04DF012C04EF013C04FF010
:1017380014C050F047C003F048C004F0056A066AB8
:10174800000ED3EC07F003C011F004C012F005C07E
:1017580013F006C014F04BC003F04CC004F0056A47
:10176800066A000ED3EC07F003C015F004C016F0AB
:1017780005C017F006C018F092EC03F011C051F044
:1017880012C052F013C053F014C054F049C003F013
:101798004AC004F0056A066A000ED3EC07F003C0DD
:1017A80011F004C012F005C013F006C014F04BC0CD
:1017B80003F04CC004F0056A066A000ED3EC07F08B
:1017C80003C015F004C016F005C017F006C018F0E5
:1017D80092EC03F011C055F012C056F013C057F048
:1017E80014C058F01200000E03140B6E000E0414FF
:1017F8000C6E800E05140D6E7F0E06140E6E0B50C7
:101808000C100D100E10D8A40CEF0CF00EEF0CF00D
:1018180016EF0CF0000E036E000E046E000E056E3F
:10182800000E066E000E07140B6E000E08140C6EE8
:10183800800E09140D6E7F0E0A140E6E0B500C10DC
:101848000D100E10D8A42BEF0CF02DEF0CF035EF87
:101858000CF0000E076E000E086E000E096E000EEA
:101868000A6E06AE3AEF0CF03CEF0CF045EF0CF0C8
:10187800036C041ED8B0042A051ED8B0052A800EB1
:1018880006560AAE4AEF0CF04CEF0CF055EF0CF090
:10189800076C081ED8B0082A091ED8B0092A800E7D
:1018A8000A56000E031A000E041A000E051A800EBE
:1018B800061A000E071A000E081A000E091A800EE2
:1018C8000A1A0750035C08500458095005580A5072
:1018D8000658D8B072EF0CF074EF0CF077EF0CF0FC
:1018E800D89078EF0CF0D88012001BC016F01CC0FE
:1018F80017F01DC018F01EC019F02FEC0FF08082F1
:1019080020EE01F01B50D9261C50DA22000EDF6EA3
:1019180020EE01F01D50D9261E50DA22000EDF6E8F
:101928001DC010F01EC011F068EC09F01BC010F0CB
:101938001CC011F068EC09F0BEEF0CF01BC0D9FF19
:101948001CC0DAFF0A0EDF261DC0D9FF1EC0DAFF51
:101958000A0EDF261BC010F01CC011F068EC09F05D
:101968001DC010F01EC011F068EC09F06A0EE82ED8
:10197800FED700D01BC0D9FF1CC0DAFF1E0EDF60E7
:10198800C8EF0CF0CAEF0CF0D6EF0CF01DC0D9FF71
:101998001EC0DAFF1D0EDF64D4EF0CF0D6EF0CF09A
:1019A800A2EF0CF01D0E206E690E1F6EA50EE82E1C
:1019B800FED71F2EFCD7202EFAD700F01BC016F03A
:1019C8001CC017F01DC018F01EC019F02FEC0FF046
:1019D800110E206E3C0E1F6ECB0EE82EFED71F2E6A
:1019E800FCD7202EFAD700F0809212001BC016F008
:1019F8001CC017F01DC018F01EC019F02FEC0FF016
:101A080020EE01F01B50D9261C50DA22010EDF6EA1
:101A180020EE01F01D50D9261E50DA22010EDF6E8D
:101A28007C861DC010F01EC011F068EC09F01BC0C8
:101A380010F01CC011F068EC09F055EF0DF01BC058
:101A4800D9FF1CC0DAFF330EDF602DEF0DF02FEF4A
:101A58000DF034EF0DF01BC0D9FF1CC0DAFFDF2AF0
:101A68001DC0D9FF1EC0DAFF380EDF603EEF0DF053
:101A780040EF0DF045EF0DF01DC0D9FF1EC0DAFF95
:101A8800DF2A1BC010F01CC011F068EC09F01DC063
:101A980010F01EC011F068EC09F01A0EE82EFED7FF
:101AA80000D01BC0D9FF1CC0DAFF320EDF645FEF25
:101AB8000DF061EF0DF023EF0DF01DC0D9FF1EC032
:101AC800DAFF370EDF646BEF0DF06DEF0DF023EFEB
:101AD8000DF07C9612001BC016F01CC017F01DC03C
:101AE80018F01EC019F02FEC0FF020EE01F01B507B
:101AF800D9261C50DA22000EDF6E20EE01F01D50B0
:101B0800D9261E50DA22000EDF6E80821DC010F02A
:101B18001EC011F068EC09F01BC010F01CC011F0D9
:101B280068EC09F0CAEF0DF01BC0D9FF1CC0DAFF42
:101B3800330EDF60A2EF0DF0A4EF0DF0A9EF0DF06A
:101B48001BC0D9FF1CC0DAFFDF2A1DC0D9FF1EC089
:101B5800DAFF380EDF60B3EF0DF0B5EF0DF0BAEF36
:101B68000DF01DC0D9FF1EC0DAFFDF2A1BC010F020
:101B78001CC011F068EC09F01DC010F01EC011F077
:101B880068EC09F01A0EE82EFED700D01BC0D9FF6A
:101B98001CC0DAFF320EDF64D4EF0DF0D6EF0DF083
:101BA80098EF0DF01DC0D9FF1EC0DAFF370EDF64B5
:101BB800E0EF0DF0E2EF0DF098EF0DF080921200DB
:101BC80027C01BF028C01CF029C01DF02AC01EF039
:101BD800000E206E020E1F6E5BC021F05CC022F06A
:101BE800BCEC0AF027C016F028C017F029C018F07E
:101BF8002AC019F02FEC0FF0110E2C6E3C0E2B6E34
:101C0800CB0EE82EFED72B2EFCD72C2EFAD700F0C1
:101C180027C01BF028C01CF029C01DF02AC01EF0E8
:101C28006FEC0DF04A0E2C6E0E0E2B6E190EE82E70
:101C3800FED72B2EFCD72C2EFAD700F027C016F093
:101C480028C017F029C018F02AC019F02FEC0FF09F
:101C5800120027C01BF028C01CF029C01DF02AC0A4
:101C68001EF0000E206E020E1F6E59C021F05AC0E1
:101C780022F01EEC0AF027C016F028C017F029C081
:101C880018F02AC019F02FEC0FF0110E2C6E3C0E34
:101C98002B6ECB0EE82EFED72B2EFCD72C2EFAD788
:101CA80000F027C01BF028C01CF029C01DF02AC076
:101CB8001EF06FEC0DF04A0E2C6E0E0E2B6E190EE8
:101CC800E82EFED72B2EFCD72C2EFAD700F027C0F3
:101CD80016F028C017F029C018F02AC019F02FEC08
:101CE8000FF0120085948598839E879C7D947D983B
:101CF8007B9E7F9C050E0E01746F060E766F070E95
:101D0800696F080E886FBD508F0B4009BD6EE00EDD
:101D1800BE16BF50F00B0109BF6E03C0BCFFBD8EDD
:101D2800000EAA6E000EA66E000E0F01256F000EA3
:101D3800216FFC0EAD16F30EAD16CF0EAD163F0E8D
:101D4800AD16AB88AB50F00B0C09AB6EAB8EA78809
:101D5800A750F00B0C09A76EA78E26892651F00B09
:101D68000C09266F268F22892251F00B0C09226F4D
:101D7800228F1200000E0E6E000E0D6E0B500C100E
:101D8800D8B4C9EF0EF0CBEF0EF0F3EF0EF0010E62
:101D98000F6ED3EF0EF0D8900B360C360F2A0CAE20
:101DA800D8EF0EF0DAEF0EF0CFEF0EF0D8900D3638
:101DB8000E360B50095C0C500A58D8A0E6EF0EF00E
:101DC800E8EF0EF0EDEF0EF00B50095E0C500A5ADA
:101DD8000D80D8900C320B320F2EDAEF0EF00DC0BA
:101DE80009F00EC00AF0120057EC10F08EA4FFEFB5
:101DF8000EF001EF0FF008EF0FF08EB606EF0FF0C0
:101E080008EF0FF0FAEF0EF08EB60DEF0FF00FEFB0
:101E18000FF02DEF0FF0290E0001C56F960EC46F5D
:101E28007F0EE82EFED7C42FFCD7C52FFAD787EC34
:101E380011F0B90E396E000E3A6EB00E3B6E000E00
:101E48003C6E450E3D6E000E3E6E24EC00F01DEF1C
:101E58000FF022EF00F020EE02F01650D9261750AE
:101E6800DA22010EDF6E20EE02F01850D926195042
:101E7800DA22010EDF6E7C88460E1A6E16C0D9FF74
:101E880017C0DAFF1AC0DFFF18C0D9FF19C0DAFF80
:101E98001AC0DFFF16C010F017C011F068EC09F087
:101EA80018C010F019C011F068EC09F06A0EE82E9D
:101EB800FED700D01A50F60F1A6E42EF0FF012003C
:101EC8005E0EF66E230EF76E000EF86E0900F5CF63
:101ED800C2F00900F5CFC3F05A0EF66E230EF76E66
:101EE800000EF86E00EE59F010EE04F00900F5CF80
:101EF800EEFFE550E150FAE100EE60F0620EEE6AA6
:101F0800E806FDE100EE41F0180EEE6AE806FDE194
:101F18005D905D920001F8EF0EF0A3EC11F0520E07
:101F280098EC11F0B60E98EC11F0A8EC11F0530EE5
:101F380098EC11F0010E78EC10F0096E09500C6E57
:101F48000D6A000E78EC10F0096E09500B6E0A6AE3
:101F58000C500A100C6E0D500B100D6E9EEC11F00B
:101F68000CC007F00DC008F01200A3EC11F0520EDF
:101F780098EC11F0B80E98EC11F0A8EC11F0530E93
:101F880098EC11F0010E78EC10F0096E09500C6E07
:101F98000D6A000E78EC10F0096E09500B6E0A6A93
:101FA8000C500A100C6E0D500B100D6E9EEC11F0BB
:101FB8000CC007F00DC008F01200A3EC11F0520E8F
:101FC80098EC11F0B40E98EC11F0A8EC11F0530E47
:101FD80098EC11F0010E78EC10F0096E09500C6EB7
:101FE8000D6A000E78EC10F0096E09500B6E0A6A43
:101FF8000C500A100C6E0D500B100D6E9EEC11F06B
:102008000CC007F00DC008F01200A3EC11F0520E3E
:1020180098EC11F0BA0E98EC11F0A8EC11F0530EF0
:1020280098EC11F0010E78EC10F0096E09500C6E66
:102038000D6A000E78EC10F0096E09500B6E0A6AF2
:102048000C500A100C6E0D500B100D6E9EEC11F01A
:102058000CC007F00DC008F01200000E0001B96FA7
:10206800010EBA6F010EBB6FAA0EBE6F0F0EBF6FC7
:10207800A60EC06F0F0EC16F000EBD6F630EBC6F52
:10208800000EB06F010EB16F010EB26F250EB56F65
:102098000F0EB66F210EB76F0F0EB86F000EB46F2C
:1020A800630EB36F1200000E046E630E036E76ECBF
:1020B8000EF07CEC11F02FEC11F0B90E036E000E4F
:1020C800046EB00E056E000E066E31EC10F0F3ECE7
:1020D80010F0D9EC10F05FEC11F090EC11F03FEC3F
:1020E80011F06FEC11F01200056E08EC11F00E0102
:1020F800DA8708EC11F0D5CE06F008EC11F005509F
:10210800D8B489EF10F08DEF10F0046A042A8EEF2E
:1021180010F0046A043A04460E01DA510418DF0B81
:102128000418DA6FDA8906501200000E086E000EE5
:10213800076EADEF10F00B0E066EA30E056E0A0EBD
:10214800E82EFED7052EFCD7062EFAD700D0074A70
:10215800082A0350075C04500858D8A0B6EF10F0BE
:10216800B8EF10F09FEF10F01200000E076E000E8F
:10217800066EC9EF10F0150E056EC60EE82EFED7D6
:10218800052EFCD700D0064A072A0350065C0750E4
:10219800800A056E0450800A0558D8A0D6EF10F0C2
:1021A800D8EF10F0BFEF10F01200F3EC10F0010EB2
:1021B800056E000E4FEC11F03F0E076E550EE82E1F
:1021C800FED7072EFCD700F0030E056E000E4FEC6D
:1021D80011F0D50E056E010E4FEC11F012000E0134
:1021E800D951F00B0809D96FD98B9F0ED66F848A05
:1021F800848CA79BA79D1D0E1D6F1E0E1C6F1C0EA9
:102208006F6F1B0E706F12000E01D8B50EEF11F034
:1022180010EF11F008EF11F0DACE03F01F0E0316DD
:10222800D8A419EF11F01BEF11F008EF11F012000C
:1022380003500502F3CF07F0F4CF08F0035006026D
:10224800F350082604500502F350082607C003F08F
:1022580008C004F0120087928198869E7F82798850
:102268007E8E86840E01B4958686B497849E7C9E65
:10227800889680961200120E0E01626F110E156F6D
:102288008382E997E895330EE56F000EE66FE789DC
:10229800E88BE78F1200066EA3EC11F0520E98EC53
:1022A80011F00650800998EC11F0055098EC11F0E7
:1022B8009EEC11F01200D6501F0B4009D66ED6883E
:1022C800D650F00B0509D66ED588000ED46E230EB5
:1022D800D36ED58E1200868C0E01B48D0F015899DD
:1022E800FC0E58172E0E5F6F60946088608E120087
:1022F80080927C967C987E90809088928496849830
:10230800869088901200000E426E000E416E000EFC
:10231800D46E230ED36E12000E01298B339B1F9BA4
:10232800F28AF28CF28E1200046E08EC11F004C0EE
:10233800D5FE120008EC11F00E01DA85120008EC47
:1023480011F00E01DA81120008EC11F00E01DA83A7
:08235800120060006200C409DC
:020000040020DA
:10000000FF0FFF0FFF0FFF0FFF0FFF0FFF0FFF0F80
:020000040030CA
:0C000000AAFFFFFF9FFFFFFFFFFFFFFFB5
:00000001FF
