:040000003BEF00F0E2
:100008005B82D9CF03F0DACF04F00E0137A70FEFE8
:1000180000F011EF00F014EF00F0E351B5EC0DF033
:100028000E0137A51AEF00F01CEF00F035EF00F0D5
:100038002DA521EF00F023EF00F035EF00F00AECDA
:100048000EF0E806D8A42BEF00F02DEF00F033EF08
:1000580000F08AEC0DF00E01E46F35EF00F00E01B0
:100068002D9504C0DAFF03C0D9FF5B92110059EF48
:020078000DF089
:100E0000002F2F20526564203D20256420426C7500
:100E100065203D20256420477265656E203D2025B4
:100E20006420436C656172203D202564202F2F00D3
:010E300000C1
:100E320022C038F023C039F024C03AF025C03BF07C
:100E420026C03CF027C03DF028C03EF029C03FF04C
:100E52003FBE2EEF07F031EF07F0010E32EF07F041
:100E6200000E406E4050D8B439EF07F03BEF07F068
:100E72004BEF07F03F1E3E1E3D1E3C1E3B1E3A1E20
:100E8200391E386C000E39223A223B223C223D2286
:100E92003E223F220001DABF59EF07F0DA5106E1A4
:100EA200D905D8B057EF07F059EF07F05FEF07F019
:100EB200000E356E010E346E63EF07F0D9C034F0C8
:100EC200DAC035F0D7C036F0D8C037F04050D8B4C9
:100ED2006DEF07F06FEF07F086EF07F03606D8A048
:100EE20037064050D8A478EF07F07AEF07F080EF8A
:100EF20007F0000E336E2B0E326E84EF07F0000EF9
:100F0200336E2D0E326E32C040F0000E426E1F0E56
:100F1200416E000EFB6F0AEF08F04106D8A04206B0
:100F2200DC0E4124D96E000E4220DA6E38C005F084
:100F320039C006F03AC007F03BC008F03CC009F0E7
:100F42003DC00AF03EC00BF03FC00CF00A0E0D6E21
:100F5200000E0E6E000E0F6E000E106E000E116E61
:100F6200000E126E000E136E000E146E1BEC09F0D2
:100F720005C02AF006C02BF007C02CF008C02DF0E7
:100F820009C02EF00AC02FF00BC030F00CC031F0B7
:100F92002AC017F02BC018F01FEC0DF01750300FBD
:100FA200DF6E3406D8A035063606D8A0370638C01C
:100FB20005F039C006F03AC007F03BC008F03CC06B
:100FC20009F03DC00AF03EC00BF03FC00CF00A0E23
:100FD2000D6E000E0E6E000E0F6E000E106E000EE5
:100FE200116E000E126E000E136E000E146E57EC90
:100FF20008F005C038F006C039F007C03AF008C062
:101002003BF009C03CF00AC03DF00BC03EF00CC002
:101012003FF042BE15EF08F0425008E14104D8A06B
:1010220015EF08F017EF08F033EF08F038503910D9
:101032003A103B103C103D103E103F10D8A424EF54
:1010420008F026EF08F08EEF07F035BE33EF08F018
:10105200355006E13404D8B031EF08F033EF08F030
:101062008EEF07F04050D8B439EF08F03BEF08F0AC
:1010720046EF08F04106D8A04206DC0E4124D96EA4
:10108200000E4220DA6E40C0DFFF20C015F021C002
:1010920016F0DC0E4124176E000E4220186E36C088
:1010A20019F037C01AF0AEEC0BF01200000E166EFB
:1010B20014BE60EF08F05EEF08F072EF08F0141E45
:1010C200131E121E111E101E0F1E0E1E0D6C000E80
:1010D2000E220F2210221122122213221422010E9A
:1010E200166E0CBE79EF08F077EF08F08BEF08F080
:1010F2000C1E0B1E0A1E091E081E071E061E056C6C
:10110200000E06220722082209220A220B220C22A2
:10111200010E161A20EE17F0070EDE6AE806FDE24F
:101122000D500E100F101010111012101310141079
:10113200D8B49EEF08F0A0EF08F0F2EF08F0010E2D
:10114200156EAEEF08F0D8900D360E360F3610360B
:101152001136123613361436152A14AEB3EF08F0D0
:10116200B5EF08F0A4EF08F0D89017361836193604
:101172001A361B361C361D361E360D50055C0E50B7
:1011820006580F500758105008581150095812505D
:101192000A5813500B5814500C58D8A0D3EF08F02B
:1011A200D5EF08F0E6EF08F00D50055E0E50065A36
:1011B2000F50075A1050085A1150095A12500A5A21
:1011C20013500B5A14500C5A1780D8901432133201
:1011D2001232113210320F320E320D32152EB5EF9D
:1011E20008F01650D8B4F8EF08F0FAEF08F00AEF5A
:1011F20009F01E1E1D1E1C1E1B1E1A1E191E181E65
:10120200176C000E182219221A221B221C221D22E0
:101212001E2217C005F018C006F019C007F01AC048
:1012220008F01BC009F01CC00AF01DC00BF01EC064
:101232000CF01200000E166E0CBE24EF09F022EF25
:1012420009F036EF09F00C1E0B1E0A1E091E081EBD
:10125200071E061E056C000E06220722082209221E
:101262000A220B220C22010E166E14BE3DEF09F06B
:101272003BEF09F04DEF09F0141E131E121E111E52
:10128200101E0F1E0E1E0D6C000E0E220F221022BB
:1012920011221222132214220D500E100F101010C0
:1012A2001110121013101410D8B45AEF09F05CEF99
:1012B20009F0A4EF09F0010E156E6AEF09F0D8905B
:1012C2000D360E360F3610361136123613361436E8
:1012D200152A14AE6FEF09F071EF09F060EF09F013
:1012E2000D50055C0E5006580F5007581050085804
:1012F2001150095812500A5813500B5814500C58D8
:10130200D8A086EF09F088EF09F098EF09F00D50A8
:10131200055E0E50065A0F50075A1050085A1150C7
:10132200095A12500A5A13500B5A14500C5AD89098
:10133200143213321232113210320F320E320D3297
:10134200152E71EF09F01650D8B4AAEF09F0ACEFE0
:1013520009F0BCEF09F00C1E0B1E0A1E091E081E26
:10136200071E061E056C000E06220722082209220D
:101372000A220B220C2205C005F006C006F007C0A7
:1013820007F008C008F009C009F00AC00AF00BC053
:101392000BF00CC00CF0120045C0D9FF46C0DAFFBA
:1013A200DECFF6FFDDCFF7FF0800F550250AD8A4FF
:1013B200DDEF09F0DFEF09F05FEF0AF045C0D9FF7A
:1013C20046C0DAFFDE2A000EDD22000E0001D86FD1
:1013D200000ED76FD7C0DBF0D969DA6945C0D9FFF3
:1013E20046C0DAFFDECF53F0DDCF54F053C0F6FF34
:1013F20054C0F7FF0800F550640AD8B403EF0AF0AE
:1014020005EF0AF013EF0AF053C0F6FF54C0F7FFDE
:101412000800F550690AD8A411EF0AF013EF0AF098
:1014220056EF0AF047C0D9FF48C0DAFFDFCF49F0D4
:10143200020EDE26DFCF4AF0000EDD2249C0D9FFC0
:101442004AC0DAFFDECF4BF0DDCF4CF0000E4CBECF
:10145200FF0E4D6E4E6E4F6E506E516E526E010EFD
:101462005324496E000E54204A6E45C0D9FF46C02F
:10147200DAFF49C0DEFF4AC0DDFF43C020F044C0AE
:1014820021F04BC022F04CC023F04DC024F04EC0DE
:1014920025F04FC026F050C027F051C028F052C0AE
:1014A20029F019EC07F073EF0AF045C0D9FF46C0E6
:1014B200DAFFDE2A000EDD2273EF0AF045C0D9FF03
:1014C20046C0DAFFDECFF6FFDDCFF7FF0800F550AA
:1014D200056E066A43C007F044C008F001EC0BF049
:1014E20056EF0AF01200000E066E630E056E66ECF1
:1014F2000BF0000E0001B16F010EB26F010EB36F5F
:10150200AA0EB66F0F0EB76FA60EB86F0F0EB96F99
:10151200000EB56F630EB46F000EBA6F010EBB6F93
:10152200010EBC6F250EBF6F0F0EC06F210EC16F73
:101532000F0EC26F000EBE6F630EBD6FDEEC0DF0BC
:101542003FEC0DF01CEC0EF0A0EC0DF087928198B0
:10155200869E7F8279887E8E86840E01B4958EB4B3
:10156200B5EF0AF0B7EF0AF0B0EF0AF03CEC0CF07E
:1015720009C0A9F00AC0AAF0B4EC0CF009C0ABF0A3
:101582000AC0ACF064EC0CF009C0ADF00AC0AEF0D9
:101592008CEC0CF009C0AFF00AC0B0F0810E000173
:1015A200666F000E676F010E686F0E0E696FA9C03D
:1015B2006AF0AAC06BF0ABC06CF0ACC06DF0ADC00D
:1015C2006EF0AEC06FF0AFC070F0B0C071F0EBEC77
:1015D2000BF0810E066E000E076E72EC0DF0520ECD
:1015E2000001806F2B0E7F6F000EE82EFED77F2F3B
:1015F200FCD7802FFAD700F0B0EF0AF03BEF00F0F3
:1016020007500810D8B408EF0BF00AEF0BF013EFF5
:101612000BF007500810D8A411EF0BF013EF0BF0EA
:1016220018EF0BF0055031EC0EF065EF0BF020EEE9
:1016320009F00750D9260850DA22DE50DE10D8B45D
:1016420025EF0BF027EF0BF042EF0BF020EE09F045
:101652000750D9260850DA2210EE03F00750E1268F
:101662000850E222DE50E65CE650800A0D6EDE5043
:10167200800A0D58D8B040EF0BF042EF0BF065EF47
:101682000BF020EE03F00750D9260850DA22DECF05
:1016920009F0DDCF0AF007C0D9FF08C0DAFFDECFBC
:1016A2000BF0DDCF0CF009500B24D96E0A500C2040
:1016B200DA6E05C0DFFF20EE03F00750D92608508E
:1016C200DA22DE2A000EDD22120085948598839E9E
:1016D200879C7D947D987B9E7F9C050E0E01746F86
:1016E200060E766F070E696F080E886FBD508F0B5E
:1016F2004009BD6EE00EBE16BF50F00B0109BF6E71
:1017020005C0BCFFBD8E000EAA6E000EA66E000EB6
:101712000F01256F000E216FFC0EAD16F30EAD16F4
:10172200CF0EAD163F0EAD16AB88AB50F00B0C09C9
:10173200AB6EAB8EA788A750F00B0C09A76EA78ED5
:1017420026892651F00B0C09266F268F22892251F9
:10175200F00B0C09226F228F12001ABEB3EF0BF0AE
:10176200B5EF0BF0BBEF0BF019C01EF01AC01FF063
:10177200BFEF0BF0000E1F6E000E1E6E000E1D6EF0
:10178200000E1C6ED1EF0BF0000E066E200E056EE1
:1017920015C007F016C008F001EC0BF01C4A1D2A18
:1017A2001E501C5C1D50800A1B6E1F50800A1B5865
:1017B200D8A0DEEF0BF0E0EF0BF0C5EF0BF017C097
:1017C2000EF018C00FF015C010F016C011F0DCECCE
:1017D2000CF012006A0E0001726F000E736F66C089
:1017E20074F067C075F0000E786F000E776F000E10
:1017F2007E6F000E7D6F740E606F000E616F68C0A9
:1018020062F069C063F0720E646F000E656F14ECD3
:101812000CF0000177516625D96E78516721DA6E96
:10182200000EDF6E120062C055F063C056F028EF62
:101832000CF060C043F061C044F0550E456E000EDE
:10184200466E64C047F065C048F0CDEC09F055C063
:10185200F6FF56C0F7FF0800F5500009D8A434EF90
:101862000CF036EF0CF01AEF0CF0000E0001616F75
:10187200000E606F12002CEC0EF0520E16EC0EF001
:10188200B60E16EC0EF022EC0EF0530E16EC0EF025
:10189200010EFEEC0CF00B6E0B500E6E0F6A000E7A
:1018A200FEEC0CF00B6E0B500D6E0C6A0E500C1011
:1018B2000E6E0F500D100F6E27EC0EF00EC009F0D9
:1018C2000FC00AF012002CEC0EF0520E16EC0EF0C5
:1018D200B80E16EC0EF022EC0EF0530E16EC0EF0D3
:1018E200010EFEEC0CF00B6E0B500E6E0F6A000E2A
:1018F200FEEC0CF00B6E0B500D6E0C6A0E500C10C1
:101902000E6E0F500D100F6E27EC0EF00EC009F088
:101912000FC00AF012002CEC0EF0520E16EC0EF074
:10192200B40E16EC0EF022EC0EF0530E16EC0EF086
:10193200010EFEEC0CF00B6E0B500E6E0F6A000ED9
:10194200FEEC0CF00B6E0B500D6E0C6A0E500C1070
:101952000E6E0F500D100F6E27EC0EF00EC009F038
:101962000FC00AF012002CEC0EF0520E16EC0EF024
:10197200BA0E16EC0EF022EC0EF0530E16EC0EF030
:10198200010EFEEC0CF00B6E0B500E6E0F6A000E89
:10199200FEEC0CF00B6E0B500D6E0C6A0E500C1020
:1019A2000E6E0F500D100F6E27EC0EF00EC009F0E8
:1019B2000FC00AF01200000E146E000E136EEDEF4F
:1019C2000CF012C005F0066A10C007F011C008F052
:1019D20001EC0BF0134A142A13500E24D96E145042
:1019E2000F20DA6EDF50126E1250D8A4FBEF0CF00B
:1019F200FDEF0CF0E2EF0CF01200076ECAEC0DF0F6
:101A02000E01DA87CAEC0DF0D5CE08F0CAEC0DF063
:101A12000750D8B40FEF0DF013EF0DF0066A062A47
:101A220014EF0DF0066A063A06460E01DA51061860
:101A3200DF0B0618DA6FDA890850120018BE2CEF95
:101A42000DF0185006E11704D8B02AEF0DF02CEF74
:101A52000DF03AEF0DF017C019F018C01AF0191E68
:101A62001A1E194A1A2A19C017F01AC018F03EEFA6
:101A72000DF017C017F018C018F01200A0EC0DF00E
:101A8200010E076E000EEEEC0DF03F0E096E550EC4
:101A9200E82EFED7092EFCD700F0030E076E000ECB
:101AA200EEEC0DF0D50E076E010EEEEC0DF012000D
:101AB20001EE00F03C0EEE6AE806FDE100EEC3F036
:101AC200390EEE6AE806FDE15A6A596A586A576A9F
:101AD2005B905B92000EF86E0E0EF76E000174EFD3
:101AE2000AF07DEF0DF006C0D9FF07C0DAFFDF5024
:101AF200FEEC0DF0064A072A06C0D9FF07C0DAFF3E
:101B0200DF50D8A487EF0DF089EF0DF074EF0DF0E0
:101B120012003B0E576490EF0DF092EF0DF094EF30
:101B22000DF0000E576E572A5704016E026A000E1E
:101B32000124D96E010E0220DA6EDF5012000E016E
:101B4200D951F00B0809D96FD98B9F0ED66F848AB1
:101B5200848CA79BA79D1D0E1D6F1E0E1C6F1C0E55
:101B62006F6F1B0E706F1200016E130E5A64BCEF82
:101B72000DF0BEEF0DF0C0EF0DF0000E5A6EC30E69
:101B82005A24D96EDA6A000EDA2201C0DFFF5A2A1D
:101B920012000E01D8B5D0EF0DF0D2EF0DF0CAEF62
:101BA2000DF0DACE05F01F0E0516D8A4DBEF0DF00E
:101BB200DDEF0DF0CAEF0DF01200120E0E01626F92
:101BC200110E156F8382E997E895330EE56F000ECB
:101BD200E66FE789E88BE78F1200086E2CEC0EF0B7
:101BE200520E16EC0EF00850800916EC0EF007505B
:101BF20016EC0EF027EC0EF01200056E0E0137A562
:101C020005EF0EF007EF0EF0FFEF0DF005C0E4FE5A
:101C1200120057505818D8A411EF0EF014EF0EF01E
:101C2200010E15EF0EF0000E1200066ECAEC0DF05A
:101C320006C0D5FE1200F28C0E012D872D95F28E74
:101C42001200CAEC0DF00E01DA831200CAEC0DF09C
:101C52000E01DA851200CAEC0DF00E01DA811200D3
:021C620012006E
:020000040020DA
:10000000FF0FFF0FFF0FFF0FFF0FFF0FFF0FFF0F80
:020000040030CA
:0C000000AAFFFFFF9FFFFFFFFFFFFFFFB5
:00000001FF
