:04000000C6EFF9F05E
:020000040001F9
:10F38C0000EE2EF0120EEE6AE806FDE10001B8EF79
:10F39C00FDF080927C967C987E90809088928496EA
:10F3AC00849886908890120001500302F3CF05F0E8
:10F3BC00F4CF06F001500402F3500626025003026B
:10F3CC00F350062605C001F006C002F01200000E34
:10F3DC00376E010E386E010E396EAA0E3C6E0F0E92
:10F3EC003D6EA60E3E6E0F0E3F6E000E3B6E630E14
:10F3FC003A6E000E2E6E010E2F6E010E306E250E23
:10F40C00336E0F0E346E210E356E0F0E366E000EEF
:10F41C00326E630E316E1200000E0C6E000E0B6E0F
:10F42C0009500A10D8B41DEFFAF01FEFFAF047EFAD
:10F43C00FAF0010E0D6E27EFFAF0D89009360A3665
:10F44C000D2A0AAE2CEFFAF02EEFFAF023EFFAF0B9
:10F45C00D8900B360C360950075C0A500858D8A0C7
:10F46C003AEFFAF03CEFFAF041EFFAF00950075E90
:10F47C000A50085A0B80D8900A3209320D2E2EEF02
:10F48C00FAF00BC007F00CC008F0120085948598B8
:10F49C00839E879C7D947D987B9E7F9C050E0E01A0
:10F4AC00746F060E766F070E696F080E886FBD506D
:10F4BC008F0B4009BD6EE00EBE16BF50F00B01095C
:10F4CC00BF6E01C0BCFFBD8E000EAA6E000EA66EF4
:10F4DC00000E0F01256F000E216FFC0EAD16F30E02
:10F4EC00AD16CF0EAD163F0EAD16AB88AB50F00B74
:10F4FC000C09AB6EAB8EA788A750F00B0C09A76E4E
:10F50C00A78E26892651F00B0C09266F268F22898F
:10F51C002251F00B0C09226F228F120020EE02F008
:10F52C001450D9261550DA22010EDF6E20EE02F0AF
:10F53C001650D9261750DA22010EDF6E7C88000E89
:10F54C00196E460E186E14C0D9FF15C0DAFF18C01C
:10F55C00DFFF16C0D9FF17C0DAFF18C0DFFF14C0D9
:10F56C000EF015C00FF002ECFDF016C00EF017C037
:10F57C000FF002ECFDF06A0EE82EFED700D0F60E6E
:10F58C001824186EFF0E1920196E19BED2EFFAF05E
:10F59C00D0EFFAF0A9EFFAF014C0D9FF15C0DAFFDA
:10F5AC00000EDF6E16C0D9FF17C0DAFF000EDF6E3B
:10F5BC0014C00EF015C00FF002ECFDF016C00EF0EA
:10F5CC0017C00FF002ECFDF07C9812001AC014F07A
:10F5DC001BC015F01CC016F01DC017F094ECFAF00F
:10F5EC0020EE01F01A50D9261B50DA22000EDF6EE5
:10F5FC0020EE01F01C50D9261D50DA22000EDF6ED1
:10F60C0080821CC00EF01DC00FF002ECFDF01AC081
:10F61C000EF01BC00FF002ECFDF031EFFBF01AC046
:10F62C00D9FF1BC0DAFF0A0EDF261CC0D9FF1DC094
:10F63C00DAFF0A0EDF261AC00EF01BC00FF002EC28
:10F64C00FDF01CC00EF01DC00FF002ECFDF06A0EB8
:10F65C00E82EFED700D01AC0D9FF1BC0DAFF280E47
:10F66C00DF603BEFFBF03DEFFBF049EFFBF01CC024
:10F67C00D9FF1DC0DAFF270EDF6447EFFBF049EF1F
:10F68C00FBF015EFFBF0809212001AC014F01BC0B7
:10F69C0015F01CC016F01DC017F094ECFAF0808227
:10F6AC0020EE01F01A50D9261B50DA22000EDF6E24
:10F6BC0020EE01F01C50D9261D50DA22000EDF6E10
:10F6CC001CC00EF01DC00FF002ECFDF01AC00EF0C5
:10F6DC001BC00FF002ECFDF090EFFBF01AC0D9FF4D
:10F6EC001BC0DAFF0A0EDF261CC0D9FF1DC0DAFFD3
:10F6FC000A0EDF261AC00EF01BC00FF002ECFDF054
:10F70C001CC00EF01DC00FF002ECFDF06A0EE82ECE
:10F71C00FED700D01AC0D9FF1BC0DAFF280EDF605D
:10F72C009AEFFBF09CEFFBF0A8EFFBF01CC0D9FFAD
:10F73C001DC0DAFF270EDF64A6EFFBF0A8EFFBF08D
:10F74C0074EFFBF0190E1F6E5A0E1E6EB20EE82EE1
:10F75C00FED71E2EFCD71F2EFAD71AC014F01BC0D2
:10F76C0015F01CC016F01DC017F094ECFAF0110E39
:10F77C001F6E3C0E1E6ECB0EE82EFED71E2EFCD737
:10F78C001F2EFAD700F08092120020EE01F01A50D2
:10F79C00D9261B50DA22010EDF6E20EE01F01C5030
:10F7AC00D9261D50DA22000EDF6E8080000E236EEB
:10F7BC00000E226E52EFFCF01AC0D9FF1BC0DAFF0C
:10F7CC001F0EDF60ECEFFBF0EEEFFBF0F4EFFBF065
:10F7DC001AC0D9FF1BC0DAFF0A0EDF261CC0D9FFE6
:10F7EC001DC0DAFF1F0EDF60FEEFFBF000EFFCF038
:10F7FC0006EFFCF01CC0D9FF1DC0DAFF0A0EDF2695
:10F80C001AC00EF01BC00FF002ECFDF01CC00EF085
:10F81C001DC00FF002ECFDF0A00E00D0E82EFDD7BD
:10F82C001AC0D9FF1BC0DAFF1E0EDF6420EFFCF0FC
:10F83C0022EFFCF0E2EFFBF01CC0D9FF1DC0DAFF99
:10F84C001E0EDF642CEFFCF02EEFFCF0E2EFFBF071
:10F85C00150E216E4B0E206EBE0EE82EFED7202EFE
:10F86C00FCD7212EFAD700D01AC014F01BC015F00B
:10F87C001CC016F01DC017F094ECFAF00D0E216EA2
:10F88C002D0E206ED80EE82EFED7202EFCD7212E62
:10F89C00FAD78090224A232A1E50225C2350800AD9
:10F8AC00206E1F50800A2058D8A05FEFFCF061EF4B
:10F8BC00FCF016EFFCF012001AC014F01BC015F08F
:10F8CC001CC016F01DC017F094ECFAF020EE01F0FD
:10F8DC001A50D9261B50DA22000EDF6E20EE01F0F2
:10F8EC001C50D9261D50DA22010EDF6E7E80000ED0
:10F8FC00236E000E226EF2EFFCF01AC0D9FF1BC073
:10F90C00DAFF1F0EDF608DEFFCF08FEFFCF095EF50
:10F91C00FCF01AC0D9FF1BC0DAFF0A0EDF261CC090
:10F92C00D9FF1DC0DAFF1F0EDF609FEFFCF0A1EFC7
:10F93C00FCF0A7EFFCF01CC0D9FF1DC0DAFF0A0ECB
:10F94C00DF261AC00EF01BC00FF002ECFDF01CC03D
:10F95C000EF01DC00FF002ECFDF06A0EE82EFED783
:10F96C0000D01AC0D9FF1BC0DAFF1E0EDF64C1EF36
:10F97C00FCF0C3EFFCF083EFFCF01CC0D9FF1DC002
:10F98C00DAFF1E0EDF64CDEFFCF0CFEFFCF083EF5F
:10F99C00FCF0130E216EAC0E206E2A0EE82EFED754
:10F9AC00202EFCD7212EFAD71AC014F01BC015F04C
:10F9BC001CC016F01DC017F094ECFAF00D0E216E61
:10F9CC002D0E206ED80EE82EFED7202EFCD7212E21
:10F9DC00FAD77E90224A232A1E50225C2350800A9A
:10F9EC00206E1F50800A2058D8A0FFEFFCF001EFCA
:10F9FC00FDF0B7EFFCF0120020EE02F00E50D9260D
:10FA0C000F50DA22DF50D8B40EEFFDF010EFFDF0FE
:10FA1C0044EFFDF00EC0D9FF0FC0DAFFDF50106EBF
:10FA2C001050016E026A20EE03F00E50D9260F50D2
:10FA3C00DA22DECF03F0DDCF04F0DAECF9F001C00E
:10FA4C0007F002C008F0000E0A6E640E096E12EC8C
:10FA5C00FAF020EE03F00E50D9260F50DA22DF50C8
:10FA6C00116E0750115C126E20EE03F00E50D92669
:10FA7C000F50DA22DF50136E67EFFDF0000E126E9E
:10FA8C000EC0D9FF0FC0DAFFDF50106E1050016EA0
:10FA9C00026A20EE03F00E50D9260F50DA22DECF88
:10FAAC0003F0DDCF04F0DAECF9F001C007F002C08E
:10FABC0008F0000E0A6E640E096E12ECFAF0075094
:10FACC00136E20EE01F00E50D9260F50DA22DF50C3
:10FADC00D8B473EFFDF075EFFDF097EFFDF020EE6D
:10FAEC0005F00E50D9260F50DA22DECF10F0DDCF04
:10FAFC0011F010C0D9FF11C0DAFF12C0DFFF20EEE9
:10FB0C0007F00E50D9260F50DA22DECF10F0DDCFE1
:10FB1C0011F010C0D9FF11C0DAFF13C0DFFFB7EF2F
:10FB2C00FDF020EE05F00E50D9260F50DA22DECF74
:10FB3C0010F0DDCF11F010C0D9FF11C0DAFF13C0E7
:10FB4C00DFFF20EE07F00E50D9260F50DA22DECF61
:10FB5C0010F0DDCF11F010C0D9FF11C0DAFF12C0C8
:10FB6C00DFFF1200000E026E630E016E4CECFAF019
:10FB7C00CFECF9F0370E016E000E026E2E0E036EF6
:10FB8C00000E046EEDECF9F0520E2D6E2B0E2C6E59
:10FB9C00000EE82EFED72C2EFCD72D2EFAD700D037
:10FBAC00370E246E000E256E2E0E266E000E276E5E
:10FBBC00000E296E010E286E8EECFEF0520E2D6E8C
:10FBCC002B0E2C6E000EE82EFED72C2EFCD72D2ED5
:10FBDC00FAD700D0370E246E000E256E2E0E266E30
:10FBEC00000E276E000E296E020E286E8EECFEF0B3
:10FBFC00520E2D6E2B0E2C6E000EE82EFED72C2ED8
:10FC0C00FCD72D2EFAD700D0370E246E000E256EA1
:10FC1C002E0E266E000E276E000E296E030E286E19
:10FC2C008EECFEF0520E2D6E2B0E2C6E000EE82E6E
:10FC3C00FED72C2EFCD72D2EFAD700D0370E246EE3
:10FC4C00000E256E2E0E266E000E276E000E296EEF
:10FC5C00040E286E8EECFEF0520E2D6E2B0E2C6EBA
:10FC6C00000EE82EFED72C2EFCD72D2EFAD700D066
:10FC7C00370E246E000E256E2E0E266E000E276E8D
:10FC8C00000E296E050E286E8EECFEF0520E2D6EB7
:10FC9C002B0E2C6E000EE82EFED72C2EFCD72D2E04
:10FCAC00FAD700D0370E246E000E256E2E0E266E5F
:10FCBC00000E276E000E296E060E286E8EECFEF0DE
:10FCCC00520E2D6E2B0E2C6E000EE82EFED72C2E07
:10FCDC00FCD72D2EFAD700D0370E246E000E256ED1
:10FCEC002E0E266E000E276E000E296E070E286E45
:10FCFC008EECFEF0520E2D6E2B0E2C6E000EE82E9E
:10FD0C00FED72C2EFCD72D2EFAD700D000EF00F00A
:10FD1C0024C01AF025C01BF026C01CF027C01DF013
:10FD2C004BECFBF0290E2B6E960E2A6E7F0EE82EF6
:10FD3C00FED72A2EFCD72B2EFAD700F024C014F0B5
:10FD4C0025C015F026C016F027C017F094ECFAF079
:10FD5C00290E2B6E960E2A6E7F0EE82EFED72A2EBB
:10FD6C00FCD72B2EFAD700F028042910D8A4C1EF09
:10FD7C00FEF0C3EFFEF0DBEFFEF024C01AF025C05E
:10FD8C001BF026C01CF027C01DF0000E1F6E020ECB
:10FD9C001E6ECBECFBF024C014F025C015F026C071
:10FDAC0016F027C017F094ECFAF0020E2818291060
:10FDBC00D8A4E3EFFEF0E5EFFEF0FDEFFEF024C07B
:10FDCC001AF025C01BF026C01CF027C01DF0000E39
:10FDDC001F6E020E1E6E62ECFCF024C014F025C0E7
:10FDEC0015F026C016F027C017F094ECFAF0030EAD
:10FDFC0028182910D8A405EFFFF007EFFFF01FEF2C
:10FE0C00FFF024C01AF025C01BF026C01CF027C040
:10FE1C001DF0000E1F6E040E1E6ECBECFBF024C00A
:10FE2C0014F025C015F026C016F027C017F094EC7E
:10FE3C00FAF0040E28182910D8A427EFFFF029EFA8
:10FE4C00FFF06DEFFFF024C01AF025C01BF026C0A8
:10FE5C001CF027C01DF0ECECFAF0210E2B6E780E86
:10FE6C002A6E980EE82EFED72A2EFCD72B2EFAD708
:10FE7C0000D024C014F025C015F026C016F027C001
:10FE8C0017F094ECFAF0290E2B6E960E2A6E7F0E5C
:10FE9C00E82EFED72A2EFCD72B2EFAD700F024C042
:10FEAC001AF025C01BF026C01CF027C01DF0000E58
:10FEBC001F6E020E1E6ECBECFBF024C014F025C09E
:10FECC0015F026C016F027C017F094ECFAF0050ECA
:10FEDC0028182910D8A475EFFFF077EFFFF0BBEFCF
:10FEEC00FFF024C01AF025C01BF026C01CF027C060
:10FEFC001DF0ECECFAF0210E2B6E780E2A6E980E9B
:10FF0C00E82EFED72A2EFCD72B2EFAD700D024C0F1
:10FF1C0014F025C015F026C016F027C017F094EC8D
:10FF2C00FAF0290E2B6E960E2A6E7F0EE82EFED757
:10FF3C002A2EFCD72B2EFAD700F024C01AF025C09D
:10FF4C001BF026C01CF027C01DF0000E1F6E020E09
:10FF5C001E6E62ECFCF024C014F025C015F026C017
:10FF6C0016F027C017F094ECFAF0060E281829109A
:10FF7C00D8A4C3EFFFF0C5EFFFF0DDEFFFF024C016
:10FF8C001AF025C01BF026C01CF027C01DF0000E77
:10FF9C001F6E030E1E6ECBECFBF024C014F025C0BC
:10FFAC0015F026C016F027C017F094ECFAF0070EE7
:10FFBC0028182910D8A4E5EFFFF0E7EFFFF0FFEFCA
:10FFCC00FFF024C01AF025C01BF026C01CF027C07F
:10FFDC001DF0000E1F6E030E1E6E62ECFCF024C0B2
:10FFEC0014F025C015F026C016F027C017F094ECBD
:04FFFC00FAF0120005
:020000040020DA
:10000000FF0FFF0FFF0FFF0FFF0FFF0FFF0FFF0F80
:020000040030CA
:0C000000AAFFFFFF9FFFFFFFFFFFFFFFB5
:00000001FF
