:040000003BEF00F0E2
:100008005982D9CF03F0DACF04F00E0137A70FEFEA
:1000180000F011EF00F014EF00F0E3518EEC0DF05A
:100028000E0137A51AEF00F01CEF00F035EF00F0D5
:100038002DA521EF00F023EF00F035EF00F0FBECE9
:100048000DF0E806D8A42BEF00F02DEF00F033EF09
:1000580000F063EC0DF00E01E46F35EF00F00E01D7
:100068002D9504C0DAFF03C0D9FF59921100CAEFD9
:100078000DF03C0E106E000E116E4AEC0DF03C0EA9
:100088002C6E000E2D6EE4EC08F0C50E425C090ED5
:100098004358D8A052EF00F054EF00F0D3EF02F02D
:1000A800B9C018F0BAC019F0BBC01AF0BCC01BF038
:1000B80039EC0BF0290E376E960E366E7F0EE82E51
:1000C800FED7362EFCD7372EFAD700F03C0E106E2E
:1000D800000E116E4AEC0DF03C0E2C6E000E2D6ECB
:1000E800E4EC08F0290E376E960E366E7F0EE82E79
:1000F800FED7362EFCD7372EFAD700F0B80E056E8D
:100108001E0E066E450E076E3F0E086E44C009F0BF
:1001180045C00AF046C00BF047C00CF079EC09F076
:10012800D8B099EF00F09BEF00F0DBEF00F048C08B
:1001380005F049C006F04AC007F04BC008F0EC0EC5
:10014800096E510E0A6E380E0B6E3E0E0C6E79EC6F
:1001580009F0D8B0B2EF00F0B4EF00F0DBEF00F038
:100168004CC005F04DC006F04EC007F04FC008F077
:10017800290E096E5C0E0A6E0F0E0B6E3E0E0C6E8B
:1001880079EC09F0D8B0CBEF00F0CDEF00F0DBEF61
:1001980000F0B9C028F0BAC029F0BBC02AF0BCC032
:1001A8002BF0000E2D6E010E2C6EABEC04F048C047
:1001B80005F049C006F04AC007F04BC008F0000E31
:1001C800096E000E0A6E800E0B6E3E0E0C6E79ECF8
:1001D80009F0D8B0F2EF00F0F4EF00F01BEF01F0F7
:1001E800CD0E056ECC0E066ECC0E076E3E0E086E5A
:1001F8004CC009F04DC00AF04EC00BF04FC00CF0D7
:1002080079EC09F0D8B00BEF01F00DEF01F01BEF1E
:1002180001F0B9C028F0BAC029F0BBC02AF0BCC0B0
:100228002BF0000E2D6E020E2C6EABEC04F044C0C9
:1002380005F045C006F046C007F047C008F05C0E60
:10024800096E8F0E0A6EC20E0B6E3E0E0C6E79ECA6
:1002580009F0D8B032EF01F034EF01F074EF01F09B
:100268000A0E056ED70E066EA30E076E3E0E086EBA
:1002780048C009F049C00AF04AC00BF04BC00CF066
:1002880079EC09F0D8B04BEF01F04DEF01F074EFC5
:1002980001F07B0E056E140E066EAE0E076E3E0E56
:1002A800086E4CC009F04DC00AF04EC00BF04FC0AC
:1002B8000CF079EC09F0D8B064EF01F066EF01F0CA
:1002C80074EF01F0B9C028F0BAC029F0BBC02AF019
:1002D800BCC02BF0000E2D6E030E2C6EABEC04F0A0
:1002E800B80E056E1E0E066E050E076E3F0E086EE2
:1002F80044C009F045C00AF046C00BF047C00CF0F6
:1003080079EC09F0D8B08BEF01F08DEF01F0B4EF84
:1003180001F00A0E056ED70E066EA30E076E3E0E8E
:10032800086E4CC009F04DC00AF04EC00BF04FC02B
:100338000CF079EC09F0D8B0A4EF01F0A6EF01F0C9
:10034800B4EF01F0B9C028F0BAC029F0BBC02AF058
:10035800BCC02BF0000E2D6E040E2C6EABEC04F01E
:10036800000E056E000E066E000E076E3F0E086E3C
:1003780044C009F045C00AF046C00BF047C00CF075
:1003880079EC09F0D8B0CBEF01F0CDEF01F00DEF2B
:1003980002F08F0E056EC20E066E750E076E3E0ECB
:1003A800086E48C009F049C00AF04AC00BF04BC0BB
:1003B8000CF079EC09F0D8B0E4EF01F0E6EF01F0C9
:1003C8000DEF02F04CC005F04DC006F04EC007F02E
:1003D8004FC008F0C30E096EF50E0A6EA80E0B6E1C
:1003E8003E0E0C6E79EC09F0D8B0FDEF01F0FFEF8E
:1003F80001F00DEF02F0B9C028F0BAC029F0BBC077
:100408002AF0BCC02BF0000E2D6E050E2C6EABEC46
:1004180004F09A0E056E990E066E190E076E3F0EC1
:10042800086E44C009F045C00AF046C00BF047C04A
:100438000CF079EC09F0D8B024EF02F026EF02F0C6
:1004480066EF02F048C005F049C006F04AC007F060
:100458004BC008F0AE0E096E470E0A6E610E0B6EA9
:100468003E0E0C6E79EC09F0D8B03DEF02F03FEF8C
:1004780002F066EF02F01F0E056E850E066E6B0E1B
:10048800076E3E0E086E4CC009F04DC00AF04EC013
:100498000BF04FC00CF079EC09F0D8B056EF02F031
:1004A80058EF02F066EF02F0B9C028F0BAC029F0A0
:1004B800BBC02AF0BCC02BF0000E2D6E060E2C6EB1
:1004C800ABEC04F044C005F045C006F046C007F0A8
:1004D80047C008F0CD0E096ECC0E0A6ECC0E0B6E1E
:1004E8003E0E0C6E79EC09F0D8B07DEF02F07FEF8C
:1004F80002F0BFEF02F09A0E056E990E066E990E85
:10050800076E3E0E086E48C009F049C00AF04AC09E
:100518000BF04BC00CF079EC09F0D8B096EF02F074
:1005280098EF02F0BFEF02F0CD0E056ECC0E066E0E
:10053800CC0E076E3E0E086E4CC009F04DC00AF096
:100548004EC00BF04FC00CF079EC09F0D8B0AFEF0B
:1005580002F0B1EF02F0BFEF02F0B9C028F0BAC064
:1005680029F0BBC02AF0BCC02BF0000E2D6E070E80
:100578002C6EABEC04F044C005F045C006F046C054
:1005880007F047C008F0000E096E000E0A6E000E54
:100598000B6E3F0E0C6E79EC09F0DDEF02F0B9C07E
:1005A8001EF0BAC01FF0BBC020F0BCC021F0DAECCE
:1005B8000AF012001650800B236E165016242A6E6D
:1005C80015AEE9EF02F0EBEF02F0ECEF02F02A8053
:1005D8002A50D8B4F2EF02F0F4EF02F009EF03F07A
:1005E8002A28D8A4FAEF02F0FCEF02F004EF03F097
:1005F800000E136E000E146E000E156E000E166EB1
:10060800158E000E166E11EF03F0000E136E000E1D
:10061800146E000E156E000E166E1A50800B231AFB
:100628001A501A242B6E19AE1CEF03F01EEF03F0BC
:100638001FEF03F02B802B50D8B425EF03F027EFE2
:1006480003F03CEF03F02B28D8A42DEF03F02FEF95
:1006580003F037EF03F0000E176E000E186E000E51
:10066800196E000E1A6E198E000E1A6E44EF03F002
:10067800000E176E000E186E000E196E000E1A6E20
:100688001750181019101A10D8A44DEF03F04FEF97
:1006980003F067EF03F0000E136E000E146E000EE9
:1006A800156E000E166E800E15127F0E1612235050
:1006B800161213C013F014C014F015C015F016C0AC
:1006C80016F0AAEF04F02A50D8A46DEF03F06FEFEC
:1006D80003F079EF03F0000E136E000E146E000E97
:1006E800156E000E166EAAEF04F02B502AC01BF0F0
:1006F8001C6A1B5E000E1C5A7F0E1B24246E000E03
:100708001C20256E13C01FF014C020F015C021F066
:1007180016C022F0000E136E000E146E000E156E39
:10072800000E166E000E266E000E276E000E286E46
:10073800000E296E000E2B6EDAEF03F02B50D8B4A2
:10074800A8EF03F0AAEF03F0C1EF03F0D8901F362B
:10075800203621362236D8901336143615361636FA
:1007680029AEB9EF03F0BBEF03F0BCEF03F0138041
:10077800D890263627362836293617501F5C185049
:100788002058195021581A502258D8A0CEEF03F0FB
:10079800D0EF03F0D9EF03F0298C17501F5E1850E3
:1007A800205A1950215A1A50225A2B2A190E2B64F2
:1007B800E0EF03F0E2EF03F0A2EF03F01F50201088
:1007C80021102210D8B4EBEF03F0EDEF03F005EFA2
:1007D80004F0268005EF04F0D89013361436153649
:1007E800163629AEFAEF03F0FCEF03F0FDEF03F045
:1007F8001380D89026362736283629362406D8A0DE
:10080800250615AE0AEF04F00CEF04F0F0EF03F044
:10081800000E2B6E29AE13EF04F015EF04F039EF3C
:1008280004F0FF0E26141B6EFF0E27141C6EFF0E1D
:1008380028141D6E7F0E29141E6E1B501C101D10CF
:100848001E10D8B42AEF04F02CEF04F030EF04F0B7
:10085800010E2B6E39EF04F013A035EF04F037EFDB
:1008680004F039EF04F02CEF04F02B50D8B43FEF2C
:1008780004F041EF04F065EF04F0010E1326000EBA
:1008880014221522162216A04CEF04F04EEF04F0A5
:1008980065EF04F013C01BF014C01CF015C01DF068
:1008A80016C01EF01E341E321D321C321B321BC0F5
:1008B80013F01CC014F01DC015F01EC016F0244A19
:1008C800252A25BE70EF04F0255008E12428D8A079
:1008D80070EF04F072EF04F07DEF04F0000E256E67
:1008E8002468000E136E000E146E000E156E000EB6
:1008F800166E25BE8AEF04F0255006E12404D8B010
:1009080088EF04F08AEF04F098EF04F0000E256EEB
:10091800000E246E000E136E000E146E000E156E7F
:10092800000E166E000E236E24C02AF02AA09FEF38
:1009380004F0A1EF04F0A4EF04F0158EA5EF04F085
:10094800159ED8902A30166E5BEF03F0120028C06F
:100958001EF029C01FF02AC020F02BC021F0FBECAC
:1009680009F0290E2F6E960E2E6E7F0EE82EFED7FA
:100978002E2EFCD72F2EFAD700F028C018F029C049
:1009880019F02AC01AF02BC01BF039EC0BF0290E15
:100998002F6E960E2E6E7F0EE82EFED72E2EFCD7CB
:1009A8002F2EFAD700F02C042D10D8A4DEEF04F077
:1009B800E0EF04F0F8EF04F028C01EF029C01FF0A3
:1009C8002AC020F02BC021F0000E236E020E226EEA
:1009D8004DEC08F028C018F029C019F02AC01AF008
:1009E8002BC01BF039EC0BF0020E2C182D10D8A4DC
:1009F80000EF05F002EF05F01AEF05F028C01EF031
:100A080029C01FF02AC020F02BC021F0000E236E51
:100A1800020E226EADEC07F028C018F029C019F0BC
:100A28002AC01AF02BC01BF039EC0BF0030E2C185F
:100A38002D10D8A422EF05F024EF05F03CEF05F0C7
:100A480028C01EF029C01FF02AC020F02BC021F0BA
:100A5800000E236E040E226E4DEC08F028C018F02C
:100A680029C019F02AC01AF02BC01BF039EC0BF082
:100A7800040E2C182D10D8A444EF05F046EF05F00D
:100A88008AEF05F028C01EF029C01FF02AC020F008
:100A98002BC021F07BEC0AF0210E2F6E780E2E6E03
:100AA800980EE82EFED72E2EFCD72F2EFAD700D080
:100AB80028C018F029C019F02AC01AF02BC01BF062
:100AC80039EC0BF0290E2F6E960E2E6E7F0EE82E47
:100AD800FED72E2EFCD72F2EFAD700F028C01EF0F6
:100AE80029C01FF02AC020F02BC021F0000E236E71
:100AF800020E226E4DEC08F028C018F029C019F03B
:100B08002AC01AF02BC01BF039EC0BF0050E2C187C
:100B18002D10D8A492EF05F094EF05F0D8EF05F06A
:100B280028C01EF029C01FF02AC020F02BC021F0D9
:100B38007BEC0AF0210E2F6E780E2E6E980EE82EA2
:100B4800FED72E2EFCD72F2EFAD700D028C018F0AB
:100B580029C019F02AC01AF02BC01BF039EC0BF091
:100B6800290E2F6E960E2E6E7F0EE82EFED72E2E95
:100B7800FCD72F2EFAD700F028C01EF029C01FF08E
:100B88002AC020F02BC021F0000E236E020E226E28
:100B9800ADEC07F028C018F029C019F02AC01AF0E7
:100BA8002BC01BF039EC0BF0060E2C182D10D8A416
:100BB800E0EF05F0E2EF05F0FAEF05F028C01EF0CF
:100BC80029C01FF02AC020F02BC021F0000E236E90
:100BD800030E226E4DEC08F028C018F029C019F059
:100BE8002AC01AF02BC01BF039EC0BF0070E2C189A
:100BF8002D10D8A402EF06F004EF06F01CEF06F063
:100C080028C01EF029C01FF02AC020F02BC021F0F8
:100C1800000E236E030E226EADEC07F028C018F00C
:100C280029C019F02AC01AF02BC01BF039EC0BF0C0
:100C380012000D6E0D50D8B424EF06F026EF06F022
:100C480048EF06F008BE2DEF06F02BEF06F048EF50
:100C580006F005C009F006C00AF007C00BF008C08E
:100C68000CF0091E0A1E0B1E0C1E092A000E0A2271
:100C78000B220C2209C00FF00AC010F00BC011F0B3
:100C88000CC012F050EF06F005C00FF006C010F0CF
:100C980007C011F008C012F0055006100710081020
:100CA800D8A459EF06F05BEF06F065EF06F0000EEA
:100CB800056E000E066E000E076E000E086EF6EF4B
:100CC80006F0960E0E6E6FEF06F00E2AD8901232CE
:100CD800113210320F32000E0F14096E000E10146C
:100CE8000A6E000E11140B6EFE0E12140C6E0950D3
:100CF8000A100B100C10D8A484EF06F086EF06F04B
:100D080069EF06F094EF06F00E2A010E0F26000E8A
:100D1800102211221222D8901232113210320F32C0
:100D2800000E0F14096E000E10140A6E000E111436
:100D38000B6EFF0E12140C6E09500A100B100C10DB
:100D4800D8A4A9EF06F0ABEF06F088EF06F0B3EFF2
:100D580006F00E06D8900F3610361136123611BE30
:100D6800B8EF06F0BAEF06F0C2EF06F0020E0E601A
:100D7800C0EF06F0C2EF06F0ADEF06F00EB0C7EF19
:100D880006F0C9EF06F0CAEF06F0119ED8900E32B1
:100D98000EC009F00A6A0B6A0C6A09C00CF00B6AEB
:100DA8000A6A096A09500F120A5010120B501112E0
:100DB8000C5012120D50D8B4E4EF06F0E6EF06F02E
:100DC800EEEF06F008BEEDEF06F0EBEF06F0EEEF03
:100DD80006F0128E0FC005F010C006F011C007F023
:100DE80012C008F0120020EE02F01250D92613505B
:100DF800DA22DF50D8B403EF07F005EF07F039EF38
:100E080007F012C0D9FF13C0DAFFDF50146E145078
:100E1800056E066A20EE03F01250D9261350DA2226
:100E2800DECF07F0DDCF08F0B7EC0DF005C00BF012
:100E380006C00CF0000E0E6E640E0D6ED9EC0BF0B1
:100E480020EE03F01250D9261350DA22DF50156E27
:100E58000B50155C166E20EE03F01250D926135075
:100E6800DA22DF50176E5CEF07F0000E166E12C024
:100E7800D9FF13C0DAFFDF50146E1450056E066AEE
:100E880020EE03F01250D9261350DA22DECF07F0F5
:100E9800DDCF08F0B7EC0DF005C00BF006C00CF084
:100EA800000E0E6E640E0D6ED9EC0BF00B50176E23
:100EB80020EE01F01250D9261350DA22DF50D8B4B0
:100EC80068EF07F06AEF07F08CEF07F020EE05F007
:100ED8001250D9261350DA22DECF14F0DDCF15F0E8
:100EE80014C0D9FF15C0DAFF16C0DFFF20EE07F0E7
:100EF8001250D9261350DA22DECF14F0DDCF15F0C8
:100F080014C0D9FF15C0DAFF17C0DFFFACEF07F038
:100F180020EE05F01250D9261350DA22DECF14F055
:100F2800DDCF15F014C0D9FF15C0DAFF17C0DFFFF9
:100F380020EE07F01250D9261350DA22DECF14F033
:100F4800DDCF15F014C0D9FF15C0DAFF16C0DFFFDA
:100F580012001EC018F01FC019F020C01AF021C0DE
:100F68001BF039EC0BF020EE01F01E50D9261F5073
:100F7800DA22000EDF6E20EE01F02050D926215033
:100F8800DA22010EDF6E7E80000E276E000E266EBE
:100F98003DEF08F01EC0D9FF1FC0DAFF1F0EDF604B
:100FA800D8EF07F0DAEF07F0E0EF07F01EC0D9FF3F
:100FB8001FC0DAFF0A0EDF2620C0D9FF21C0DAFFE2
:100FC8001F0EDF60EAEF07F0ECEF07F0F2EF07F033
:100FD80020C0D9FF21C0DAFF0A0EDF261EC012F09A
:100FE8001FC013F0F7EC06F020C012F021C013F078
:100FF800F7EC06F06A0EE82EFED700D01EC0D9FF27
:101008001FC0DAFF1E0EDF640CEF08F00EEF08F0C9
:10101800CEEF07F020C0D9FF21C0DAFF1E0EDF6433
:1010280018EF08F01AEF08F0CEEF07F0130E256E50
:10103800AC0E246E2A0EE82EFED7242EFCD7252EC1
:10104800FAD71EC018F01FC019F020C01AF021C02E
:101058001BF039EC0BF00D0E256E2D0E246ED80EFC
:10106800E82EFED7242EFCD7252EFAD77E90264AC6
:10107800272A2250265C2750800A246E2350800A93
:101088002458D8A04AEF08F04CEF08F002EF08F017
:10109800120020EE01F01E50D9261F50DA22010E50
:1010A800DF6E20EE01F02050D9262150DA22000E02
:1010B800DF6E8080000E276E000E266ED4EF08F0DB
:1010C8001EC0D9FF1FC0DAFF1F0EDF606EEF08F0E9
:1010D80070EF08F076EF08F01EC0D9FF1FC0DAFFE6
:1010E8000A0EDF2620C0D9FF21C0DAFF1F0EDF60FD
:1010F80080EF08F082EF08F088EF08F020C0D9FFF1
:1011080021C0DAFF0A0EDF261EC012F01FC013F03E
:10111800F7EC06F020C012F021C013F0F7EC06F04F
:10112800A00E00D0E82EFDD71EC0D9FF1FC0DAFFE1
:101138001E0EDF64A2EF08F0A4EF08F064EF08F0D9
:1011480020C0D9FF21C0DAFF1E0EDF64AEEF08F021
:10115800B0EF08F064EF08F0150E256E4B0E246E04
:10116800BE0EE82EFED7242EFCD7252EFAD700D0A7
:101178001EC018F01FC019F020C01AF021C01BF0C3
:1011880039EC0BF00D0E256E2D0E246ED80EE82EC0
:10119800FED7242EFCD7252EFAD78090264A272A58
:1011A8002250265C2750800A246E2350800A245837
:1011B800D8A0E1EF08F0E3EF08F098EF08F012008C
:1011C8003CC02EF03DC02FF040C030F041C031F09F
:1011D8003EC032F03FC033F042C034F043C035F077
:1011E8002EC005F02FC006F0076A086A000E1DEC35
:1011F80006F005C013F006C014F007C015F008C0CB
:1012080016F034C005F035C006F0076A086A000E0B
:101218001DEC06F005C017F006C018F007C019F05D
:1012280008C01AF0DEEC02F013C044F014C045F018
:1012380015C046F016C047F030C005F031C006F0C2
:10124800076A086A000E1DEC06F005C013F006C018
:1012580014F007C015F008C016F034C005F035C00A
:1012680006F0076A086A000E1DEC06F005C017F0C4
:1012780006C018F007C019F008C01AF0DEEC02F03A
:1012880013C04CF014C04DF015C04EF016C04FF00E
:1012980032C005F033C006F0076A086A000E1DEC7C
:1012A80006F005C013F006C014F007C015F008C01A
:1012B80016F034C005F035C006F0076A086A000E5B
:1012C8001DEC06F005C017F006C018F007C019F0AD
:1012D80008C01AF0DEEC02F013C048F014C049F060
:1012E80015C04AF016C04BF01200000E05140D6E22
:1012F800000E06140E6E800E07140F6E7F0E081473
:10130800106E0D500E100F101010D8A48EEF09F0AB
:1013180090EF09F098EF09F0000E056E000E066ECA
:10132800000E076E000E086E000E09140D6E000EFA
:101338000A140E6E800E0B140F6E7F0E0C14106EB6
:101348000D500E100F101010D8A4ADEF09F0AFEF2C
:1013580009F0B7EF09F0000E096E000E0A6E000ED4
:101368000B6E000E0C6E08AEBCEF09F0BEEF09F074
:10137800C7EF09F0056C061ED8B0062A071ED8B0BC
:10138800072A800E08560CAECCEF09F0CEEF09F014
:10139800D7EF09F0096C0A1ED8B00A2A0B1ED8B07C
:1013A8000B2A800E0C56000E051A000E061A000EA7
:1013B800071A800E081A000E091A000E0A1A000EE3
:1013C8000B1A800E0C1A0950055C0A5006580B506F
:1013D80007580C500858D8B0F4EF09F0F6EF09F0A8
:1013E800F9EF09F0D890FAEF09F0D88012001EC082
:1013F80018F01FC019F020C01AF021C01BF039ECFA
:101408000BF0808220EE01F01E50D9261F50DA2200
:10141800000EDF6E20EE01F02050D9262150DA228E
:10142800000EDF6E20C012F021C013F0F7EC06F0BA
:101438001EC012F01FC013F0F7EC06F040EF0AF0E0
:101448001EC0D9FF1FC0DAFF0A0EDF2620C0D9FF51
:1014580021C0DAFF0A0EDF261EC012F01FC013F0EB
:10146800F7EC06F020C012F021C013F0F7EC06F0FC
:101478006A0EE82EFED700D01EC0D9FF1FC0DAFFC3
:10148800280EDF604AEF0AF04CEF0AF058EF0AF036
:1014980020C0D9FF21C0DAFF270EDF6456EF0AF01B
:1014A80058EF0AF024EF0AF0190E236E5A0E226E36
:1014B800B20EE82EFED7222EFCD7232EFAD71EC056
:1014C80018F01FC019F020C01AF021C01BF039EC29
:1014D8000BF0110E236E3C0E226ECB0EE82EFED7BB
:1014E800222EFCD7232EFAD700F0809212001EC0BD
:1014F80018F01FC019F020C01AF021C01BF039ECF9
:101508000BF020EE01F01E50D9261F50DA22000EF3
:10151800DF6E20EE01F02050D9262150DA22000E8D
:10152800DF6E808220C012F021C013F0F7EC06F0C5
:101538001EC012F01FC013F0F7EC06F0C0EF0AF05F
:101548001EC0D9FF1FC0DAFF0A0EDF2620C0D9FF50
:1015580021C0DAFF0A0EDF261EC012F01FC013F0EA
:10156800F7EC06F020C012F021C013F0F7EC06F0FB
:101578006A0EE82EFED700D01EC0D9FF1FC0DAFFC2
:10158800280EDF60CAEF0AF0CCEF0AF0D8EF0AF0B5
:1015980020C0D9FF21C0DAFF270EDF64D6EF0AF09A
:1015A800D8EF0AF0A4EF0AF0809212001EC018F0DB
:1015B8001FC019F020C01AF021C01BF039EC0BF045
:1015C80020EE01F01E50D9261F50DA22010EDF6EE0
:1015D80020EE01F02050D9262150DA22010EDF6ECC
:1015E8007C8620C012F021C013F0F7EC06F01EC074
:1015F80012F01FC013F0F7EC06F01FEF0BF01EC03F
:10160800D9FF1FC0DAFF0A0EDF2620C0D9FF21C08C
:10161800DAFF0A0EDF261EC012F01FC013F0F7EC27
:1016280006F020C012F021C013F0F7EC06F06A0EA5
:10163800E82EFED700D01EC0D9FF1FC0DAFF280E43
:10164800DF6029EF0BF02BEF0BF037EF0BF020C02A
:10165800D9FF21C0DAFF270EDF6435EF0BF037EF33
:101668000BF003EF0BF07C96120020EE02F01850FE
:10167800D9261950DA22010EDF6E20EE02F01A5038
:10168800D9261B50DA22010EDF6E7C88000E1D6EF3
:10169800460E1C6E18C0D9FF19C0DAFF1CC0DFFF48
:1016A8001AC0D9FF1BC0DAFF1CC0DFFF18C012F038
:1016B80019C013F0F7EC06F01AC012F01BC013F0B3
:1016C800F7EC06F06A0EE82EFED700D0F60E1C24C2
:1016D8001C6EFF0E1D201D6E1DBE77EF0BF075EF03
:1016E8000BF04EEF0BF018C0D9FF19C0DAFF000E4F
:1016F800DF6E1AC0D9FF1BC0DAFF000EDF6E18C0FC
:1017080012F019C013F0F7EC06F01AC012F01BC063
:1017180013F0F7EC06F07C98120085948598839E68
:10172800879C7D947D987B9E7F9C050E0E01746F2F
:10173800060E766F070E696F080E886FBD508F0B07
:101748004009BD6EE00EBE16BF50F00B0109BF6E1A
:1017580005C0BCFFBD8E000EAA6E000EA66E000E60
:101768000F01256F000E216FFC0EAD16F30EAD169E
:10177800CF0EAD163F0EAD16AB88AB50F00B0C0973
:10178800AB6EAB8EA788A750F00B0C09A76EA78E7F
:1017980026892651F00B0C09266F268F22892251A3
:1017A800F00B0C09226F228F1200000E106E000E33
:1017B8000F6E0D500E10D8B4E4EF0BF0E6EF0BF0FF
:1017C8000EEF0CF0010E116EEEEF0BF0D8900D3607
:1017D8000E36112A0EAEF3EF0BF0F5EF0BF0EAEF31
:1017E8000BF0D8900F3610360D500B5C0E500C587D
:1017F800D8A001EF0CF003EF0CF008EF0CF00D503F
:101808000B5E0E500C5A0F80D8900E320D32112EEE
:10181800F5EF0BF00FC00BF010C00CF01200000E2B
:10182800066E630E056E91EC0BF007EC0EF0500E91
:10183800056E000E066EB00E076E000E086EE9EC1F
:101848000CF030EC0DF0DBEC0DF018EC0EF079EC50
:101858000DF087928198869E7F8279887E8E868415
:101868000E01B495500E0001B96F000EBA6FB00E9C
:10187800BB6F000EBC6F3C0EBD6F000EBE6F3DEC23
:1018880000F036EF0CF03BEF00F023EC0EF0520EB8
:1018980012EC0EF0B60E12EC0EF028EC0EF0530E11
:1018A80012EC0EF0010E0FEC0DF00B6E0B500E6EDD
:1018B8000F6A000E0FEC0DF00B6E0B500D6E0C6ADC
:1018C8000E500C100E6E0F500D100F6E1EEC0EF019
:1018D8000EC009F00FC00AF0120023EC0EF0520EF1
:1018E80012EC0EF0B80E12EC0EF028EC0EF0530EBF
:1018F80012EC0EF0010E0FEC0DF00B6E0B500E6E8D
:101908000F6A000E0FEC0DF00B6E0B500D6E0C6A8B
:101918000E500C100E6E0F500D100F6E1EEC0EF0C8
:101928000EC009F00FC00AF0120023EC0EF0520EA0
:1019380012EC0EF0B40E12EC0EF028EC0EF0530E72
:1019480012EC0EF0010E0FEC0DF00B6E0B500E6E3C
:101958000F6A000E0FEC0DF00B6E0B500D6E0C6A3B
:101968000E500C100E6E0F500D100F6E1EEC0EF078
:101978000EC009F00FC00AF0120023EC0EF0520E50
:1019880012EC0EF0BA0E12EC0EF028EC0EF0530E1C
:1019980012EC0EF0010E0FEC0DF00B6E0B500E6EEC
:1019A8000F6A000E0FEC0DF00B6E0B500D6E0C6AEB
:1019B8000E500C100E6E0F500D100F6E1EEC0EF028
:1019C8000EC009F00FC00AF01200000E506E010E92
:1019D800516E010E526EAA0E556E0F0E566EA60E61
:1019E800576E0F0E586E000E546E630E536E000E37
:1019F8000001B06F010EB16F010EB26F250EB56F09
:101A08000F0EB66F210EB76F0F0EB86F000EB46FC2
:101A1800630EB36F1200076EA3EC0DF00E01DA87A8
:101A2800A3EC0DF0D5CE08F0A3EC0DF00750D8B418
:101A380020EF0DF024EF0DF0066A062A25EF0DF0D1
:101A4800066A063A06460E01DA510618DF0B061832
:101A5800DA6FDA890850120079EC0DF0010E076E82
:101A6800000EEBEC0DF03F0E096E550EE82EFED77A
:101A7800092EFCD700F0030E076E000EEBEC0DF0FC
:101A8800D50E076E010EEBEC0DF0120049EC0CF0D0
:101A980009C03CF00AC03DF0C1EC0CF009C03EF0B2
:101AA8000AC03FF071EC0CF009C040F00AC041F0E8
:101AB80099EC0CF009C042F00AC043F012003B0E4A
:101AC800386469EF0DF06BEF0DF06DEF0DF0000E5F
:101AD800386E382A3804016E026A600E0124D96E05
:101AE800000E0220DA6EDF5012000E01D951F00B01
:101AF8000809D96FD98B9F0ED66F848A848CA79BCF
:101B0800A79D1D0E1D6F1E0E1C6F1C0E6F6F1B0EEA
:101B1800706F1200016E130E3B6495EF0DF097EF96
:101B28000DF099EF0DF0000E3B6E9C0E3B24D96E24
:101B3800DA6A000EDA2201C0DFFF3B2A12000E012A
:101B4800D8B5A9EF0DF0ABEF0DF0A3EF0DF0DACE9D
:101B580005F01F0E0516D8A4B4EF0DF0B6EF0DF082
:101B6800A3EF0DF0120005500702F3CF09F0F4CFF0
:101B78000AF005500802F3500A2606500702F350EF
:101B88000A2609C005F00AC006F0120000EE60F04F
:101B9800590EEE6AE806FDE100EE38F0210EEE6A15
:101BA800E806FDE159905992000113EF0CF0120E6E
:101BB8000E01626F110E156F8382E997E895330E57
:101BC800E56F000EE66FE789E88BE78F1200086E75
:101BD80023EC0EF0520E12EC0EF00850800912ECB5
:101BE8000EF0075012EC0EF01EEC0EF012003850FA
:101BF8003918D8A402EF0EF005EF0EF0010E06EF2B
:101C08000EF0000E120080927C967C987E90809058
:101C1800889284968498869088901200066EA3EC29
:101C28000DF006C0D5FE1200F28C0E012D872D9501
:101C3800F28E1200A3EC0DF00E01DA851200A3EC6F
:101C48000DF00E01DA811200A3EC0DF00E01DA831B
:021C5800120078
:020000040020DA
:10000000FF0FFF0FFF0FFF0FFF0FFF0FFF0FFF0F80
:020000040030CA
:0C000000AAFFFFFF9FFFFFFFFFFFFFFFB5
:00000001FF
