:0400000050EFFDF0D0
:020000040001F9
:10FAA00000EE24F0120EEE6AE806FDE100011EEF02
:10FAB000FEF080927C967C987E90809088928496CE
:10FAC000849886908890120001500302F3CF05F0CD
:10FAD000F4CF06F001500402F35006260250030250
:10FAE000F350062605C001F006C002F01200000E19
:10FAF0002D6E010E2E6E010E2F6EAA0E326E0F0E9F
:10FB0000336EA60E346E0F0E356E000E316E630E20
:10FB1000306E000E246E010E256E010E266E250E2F
:10FB2000296E0F0E2A6E210E2B6E0F0E2C6E000EFC
:10FB3000286E630E276E1200000E0C6E000E0B6E08
:10FB400009500A10D8B4A7EFFDF0A9EFFDF0D1EFEE
:10FB5000FDF0010E0D6EB1EFFDF0D89009360A36BA
:10FB60000D2A0AAEB6EFFDF0B8EFFDF0ADEFFDF0F7
:10FB7000D8900B360C360950075C0A500858D8A0AC
:10FB8000C4EFFDF0C6EFFDF0CBEFFDF00950075ECE
:10FB90000A50085A0B80D8900A3209320D2EB8EF5D
:10FBA000FDF00BC007F00CC008F01200859485989A
:10FBB000839E879C7D947D987B9E7F9C050E0E0185
:10FBC000746F060E766F070E696F080E886FBD5052
:10FBD0008F0B4009BD6EE00EBE16BF50F00B010941
:10FBE000BF6E01C0BCFFBD8E000EAA6E000EA66ED9
:10FBF000000E0F01256F000E216FFC0EAD16F30EE7
:10FC0000AD16CF0EAD163F0EAD16AB88AB50F00B58
:10FC10000C09AB6EAB8EA788A750F00B0C09A76E32
:10FC2000A78E26892651F00B0C09266F268F228974
:10FC30002251F00B0C09226F228F1200000E026E6F
:10FC4000630E016ED6ECFDF059ECFDF02D0E016E49
:10FC5000000E026E240E036E000E046E77ECFDF0B3
:10FC6000000E236E000E226E520E216E2B0E206EA1
:10FC7000000EE82EFED7202EFCD7212EFAD700D07A
:10FC80002D0E1A6E000E1B6E240E1C6E000E1D6EC5
:10FC9000CAECFEF02D0E146E000E156E240E166EBC
:10FCA000000E176E72ECFEF0520E216E2B0E206EBF
:10FCB000000EE82EFED7202EFCD7212EFAD700D03A
:10FCC000224A232A23BE6EEFFEF0235009E1040EE0
:10FCD000225CD8A06EEFFEF070EFFEF034EFFEF085
:10FCE00000EF00F020EE02F01450D9261550DA2271
:10FCF000010EDF6E20EE02F01650D9261750DA22E0
:10FD0000010EDF6E7C88000E196E460E186E14C050
:10FD1000D9FF15C0DAFF18C0DFFF16C0D9FF17C022
:10FD2000DAFF18C0DFFF14C00EF015C00FF04AEC68
:10FD3000FFF016C00EF017C00FF04AECFFF06A0E8D
:10FD4000E82EFED700D0F60E1824186EFF0E1920EC
:10FD5000196E19BEB0EFFEF0AEEFFEF087EFFEF0C9
:10FD600014C0D9FF15C0DAFF000EDF6E16C0D9FF30
:10FD700017C0DAFF000EDF6E14C00EF015C00FF0D2
:10FD80004AECFFF016C00EF017C00FF04AECFFF07F
:10FD90007C98120020EE01F01A50D9261B50DA226E
:10FDA000010EDF6E20EE01F01C50D9261D50DA2224
:10FDB000000EDF6E10EFFFF01AC0D9FF1BC0DAFF94
:10FDC0001F0EDF60E6EFFEF0E8EFFEF0EEEFFEF074
:10FDD0001AC0D9FF1BC0DAFF0A0EDF261CC0D9FFEC
:10FDE0001DC0DAFF1F0EDF60F8EFFEF0FAEFFEF045
:10FDF00000EFFFF01CC0D9FF1DC0DAFF0A0EDF269E
:10FE00001AC00EF01BC00FF04AECFFF01CC00EF041
:10FE10001DC00FF04AECFFF0A00E00D0E82EFDD779
:10FE20001AC0D9FF1BC0DAFF1E0EDF641AEFFFF005
:10FE30001CEFFFF0DCEFFEF01CC0D9FF1DC0DAFFA5
:10FE40001E0EDF6426EFFFF028EFFFF0DCEFFEF080
:10FE5000120E1F6E740E1E6E7A0EE82EFED71E2E28
:10FE6000FCD71F2EFAD700D01AC014F01BC015F013
:10FE70001CC016F01DC017F072ECFEF00D0E1F6EC8
:10FE80002D0E1E6ED80EE82EFED71E2EFCD71F2E6E
:10FE9000FAD7120020EE02F00E50D9260F50DA22C7
:10FEA000DF50D8B456EFFFF058EFFFF08CEFFFF0C3
:10FEB0000EC0D9FF0FC0DAFFDF50106E1050016E78
:10FEC000026A20EE03F00E50D9260F50DA22DECF60
:10FED00003F0DDCF04F064ECFDF001C007F002C0D8
:10FEE00008F0000E0A6E640E096E9CECFDF020EE28
:10FEF00003F00E50D9260F50DA22DF50116E075052
:10FF0000115C126E20EE03F00E50D9260F50DA224B
:10FF1000DF50136EAFEFFFF0000E126E0EC0D9FF70
:10FF20000FC0DAFFDF50106E1050016E026A20EE33
:10FF300003F00E50D9260F50DA22DECF03F0DDCFCA
:10FF400004F064ECFDF001C007F002C008F0000E00
:10FF50000A6E640E096E9CECFDF00750136E20EEE5
:10FF600001F00E50D9260F50DA22DF50D8B4BBEF83
:10FF7000FFF0BDEFFFF0DFEFFFF020EE05F00E50D9
:10FF8000D9260F50DA22DECF10F0DDCF11F010C0ED
:10FF9000D9FF11C0DAFF12C0DFFF20EE07F00E50CC
:10FFA000D9260F50DA22DECF10F0DDCF11F010C0CD
:10FFB000D9FF11C0DAFF13C0DFFFFFEFFFF020EE23
:10FFC00005F00E50D9260F50DA22DECF10F0DDCF2B
:10FFD00011F010C0D9FF11C0DAFF13C0DFFF20EE0F
:10FFE00007F00E50D9260F50DA22DECF10F0DDCF09
:10FFF00011F010C0D9FF11C0DAFF12C0DFFF1200EC
:020000040020DA
:10000000FF0FFF0FFF0FFF0FFF0FFF0FFF0FFF0F80
:020000040030CA
:0C000000AAFFFFFF9FFFFFFFFFFFFFFFB5
:00000001FF
