:040000007CEFFCF0A5
:020000040001F9
:10F8F80000EE28F0120EEE6AE806FDE10001A2EF24
:10F90800FDF080927C967C987E9080908892849678
:10F91800849886908890120001500302F3CF05F076
:10F92800F4CF06F001500402F350062602500302F9
:10F93800F350062605C001F006C002F01200000EC2
:10F94800316E010E326E010E336EAA0E366E0F0E38
:10F95800376EA60E386E0F0E396E000E356E630EBA
:10F96800346E000E286E010E296E010E2A6E250EC9
:10F978002D6E0F0E2E6E210E2F6E0F0E306E000E96
:10F988002C6E630E2B6E1200000E0C6E000E0B6EAA
:10F9980009500A10D8B4D3EFFCF0D5EFFCF0FDEF16
:10F9A800FCF0010E0D6EDDEFFCF0D89009360A363A
:10F9B8000D2A0AAEE2EFFCF0E4EFFCF0D9EFFCF020
:10F9C800D8900B360C360950075C0A500858D8A056
:10F9D800F0EFFCF0F2EFFCF0F7EFFCF00950075EF7
:10F9E8000A50085A0B80D8900A3209320D2EE4EFDB
:10F9F800FCF00BC007F00CC008F012008594859845
:10FA0800839E879C7D947D987B9E7F9C050E0E012E
:10FA1800746F060E766F070E696F080E886FBD50FB
:10FA28008F0B4009BD6EE00EBE16BF50F00B0109EA
:10FA3800BF6E01C0BCFFBD8E000EAA6E000EA66E82
:10FA4800000E0F01256F000E216FFC0EAD16F30E90
:10FA5800AD16CF0EAD163F0EAD16AB88AB50F00B02
:10FA68000C09AB6EAB8EA788A750F00B0C09A76EDC
:10FA7800A78E26892651F00B0C09266F268F22891E
:10FA88002251F00B0C09226F228F120020EE02F097
:10FA98001450D9261550DA22010EDF6E20EE02F03E
:10FAA8001650D9261750DA22010EDF6E7C88000E18
:10FAB800196E460E186E14C0D9FF15C0DAFF18C0AB
:10FAC800DFFF16C0D9FF17C0DAFF18C0DFFF14C068
:10FAD8000EF015C00FF04AECFFF016C00EF017C07C
:10FAE8000FF04AECFFF06A0EE82EFED700D0F60EB3
:10FAF8001824186EFF0E1920196E19BE88EFFDF034
:10FB080086EFFDF05FEFFDF014C0D9FF15C0DAFFF6
:10FB1800000EDF6E16C0D9FF17C0DAFF000EDF6EC9
:10FB280014C00EF015C00FF04AECFFF016C00EF02E
:10FB380017C00FF04AECFFF07C981200000E026E1E
:10FB4800630E016E02ECFDF085ECFCF0310E016EE7
:10FB5800000E026E280E036E000E046EA3ECFCF07D
:10FB6800000E276E000E266E520E256E2B0E246E8A
:10FB7800000EE82EFED7242EFCD7252EFAD700D06B
:10FB8800310E1A6E000E1B6E280E1C6E000E1D6EB6
:10FB9800000E1F6E020E1E6E14ECFEF0310E146E77
:10FBA800000E156E280E166E000E176E4AECFDF04C
:10FBB800520E256E2B0E246E000EE82EFED7242E34
:10FBC800FCD7252EFAD700D0310E1A6E000E1B6E08
:10FBD800280E1C6E000E1D6E000E1F6E020E1E6E8D
:10FBE800A9ECFEF0520E256E2B0E246E000EE82EA8
:10FBF800FED7242EFCD7252EFAD700D0264A272A4E
:10FC080027BE10EFFEF0275009E1040E265CD8A0AD
:10FC180010EFFEF012EFFEF0B8EFFDF000EF00F08D
:10FC280020EE01F01A50D9261B50DA22010EDF6EA1
:10FC380020EE01F01C50D9261D50DA22000EDF6E8E
:10FC4800000E236E000E226E99EFFEF01AC0D9FF47
:10FC58001BC0DAFF1F0EDF6034EFFEF036EFFEF058
:10FC68003CEFFEF01AC0D9FF1BC0DAFF0A0EDF26F0
:10FC78001CC0D9FF1DC0DAFF1F0EDF6046EFFEF083
:10FC880048EFFEF04EEFFEF01CC0D9FF1DC0DAFFB2
:10FC98000A0EDF261AC00EF01BC00FF04AECFFF068
:10FCA8001CC00EF01DC00FF04AECFFF0A00E00D0F3
:10FCB800E82EFDD71AC0D9FF1BC0DAFF1E0EDF647D
:10FCC80068EFFEF06AEFFEF02AEFFEF01CC0D9FFE5
:10FCD8001DC0DAFF1E0EDF6474EFFEF076EFFEF053
:10FCE8002AEFFEF0120E216E740E206E7A0EE82EA8
:10FCF800FED7202EFCD7212EFAD700D01AC014F038
:10FD08001BC015F01CC016F01DC017F04AECFDF022
:10FD18000D0E216E2D0E206ED80EE82EFED7202E49
:10FD2800FCD7212EFAD7224A232A1E50225C2350C0
:10FD3800800A206E1F50800A2058D8A0A6EFFEF037
:10FD4800A8EFFEF05EEFFEF012001AC014F01BC020
:10FD580015F01CC016F01DC017F04AECFDF020EE9F
:10FD680001F01A50D9261B50DA22000EDF6E20EE61
:10FD780001F01C50D9261D50DA22010EDF6E7E805C
:10FD8800000E236E000E226E3AEFFFF01AC0D9FF64
:10FD98001BC0DAFF1F0EDF60D4EFFEF0D6EFFEF0D7
:10FDA800DCEFFEF01AC0D9FF1BC0DAFF0A0EDF260F
:10FDB8001CC0D9FF1DC0DAFF1F0EDF60E6EFFEF0A2
:10FDC800E8EFFEF0EEEFFEF01CC0D9FF1DC0DAFF31
:10FDD8000A0EDF261AC00EF01BC00FF04AECFFF027
:10FDE8001CC00EF01DC00FF04AECFFF06A0EE82EA2
:10FDF800FED700D01AC0D9FF1BC0DAFF1E0EDF6481
:10FE080008EFFFF00AEFFFF0CAEFFEF01CC0D9FFC1
:10FE18001DC0DAFF1E0EDF6414EFFFF016EFFFF0CF
:10FE2800CAEFFEF0120E216E0C0E206E950EE82E13
:10FE3800FED7202EFCD7212EFAD700F01AC014F0D6
:10FE48001BC015F01CC016F01DC017F04AECFDF0E1
:10FE58000D0E216E2D0E206ED80EE82EFED7202E08
:10FE6800FCD7212EFAD77E90224A232A1E50225CE4
:10FE78002350800A206E1F50800A2058D8A047EFD0
:10FE8800FFF049EFFFF0FEEFFEF0120020EE02F067
:10FE98000E50D9260F50DA22DF50D8B456EFFFF0B3
:10FEA80058EFFFF08CEFFFF00EC0D9FF0FC0DAFF5C
:10FEB800DF50106E1050016E026A20EE03F00E50F3
:10FEC800D9260F50DA22DECF03F0DDCF04F090EC14
:10FED800FCF001C007F002C008F0000E0A6E640EC4
:10FEE800096EC8ECFCF020EE03F00E50D9260F5036
:10FEF800DA22DF50116E0750115C126E20EE03F00B
:10FF08000E50D9260F50DA22DF50136EAFEFFFF0F4
:10FF1800000E126E0EC0D9FF0FC0DAFFDF50106E50
:10FF28001050016E026A20EE03F00E50D9260F50D1
:10FF3800DA22DECF03F0DDCF04F090ECFCF001C054
:10FF480007F002C008F0000E0A6E640E096EC8ECD5
:10FF5800FCF00750136E20EE01F00E50D9260F501A
:10FF6800DA22DF50D8B4BBEFFFF0BDEFFFF0DFEFD0
:10FF7800FFF020EE05F00E50D9260F50DA22DECF22
:10FF880010F0DDCF11F010C0D9FF11C0DAFF12C098
:10FF9800DFFF20EE07F00E50D9260F50DA22DECF11
:10FFA80010F0DDCF11F010C0D9FF11C0DAFF13C077
:10FFB800DFFFFFEFFFF020EE05F00E50D9260F50BF
:10FFC800DA22DECF10F0DDCF11F010C0D9FF11C05A
:10FFD800DAFF13C0DFFF20EE07F00E50D9260F50CE
:10FFE800DA22DECF10F0DDCF11F010C0D9FF11C03A
:08FFF800DAFF12C0DFFF120066
:020000040020DA
:10000000FF0FFF0FFF0FFF0FFF0FFF0FFF0FFF0F80
:020000040030CA
:0C000000AAFFFFFF9FFFFFFFFFFFFFFFB5
:00000001FF
